S023000058706C6F7265725F5765617261626C655F576966695F72613677312E7372656395
S214000000187500208506090081350A089D350A08FE
S21400001057E7080075E7080093E70800E9350A087F
S214000020000000000000000000000000118F060025
S2140000307106090000000000A18E060029200A08AB
S214000040F9510800C95A0300D1260800D126080035
S214000050000000002547080000000000E535080005
S214000060000000000000000000000000000000008B
S214000070000000000000000000000000C95A030055
S214000080C95A030000000000000000000000000045
S214000090000000000000000000000000000000005B
S2140000A0000000000000000000000000000000004B
S2140000B0C95A030000000000C95A030011330A0899
S2140000C021330A08C95A0300C95A0300C95A030053
S2140000D0411B0A08C95A0300C95A0300C95A03003B
S2140000E0052E0A08794E0800794E0800C95A030002
S2140000F0BD9A1400000000000D2B15000000000043
S2140001000D2B1500C1F9140011430A0809A11500AA
S21400011095A2150005D8150000000000000000009C
S21400012000000000000000000000000000000000CA
S21400013001000000080000000000803F00000000F2
S21400014000000000000000002C211C002C201C00D9
S2140001502C1F1C00B41E1C002C211C002C211C0073
S2140001602C211C002C211C000000000000000000B8
S2140001707C211C007C201C007C1F1C00D81E1C0040
S2140001807C211C007C211C007C211C007C211C0086
S2140001900000000000000000017465737431303107
S2140001A05F3234670000000000000000000000001E
S2140001B00000000000000000000B0376686F7273FA
S2140001C06532330000000000000000000000000060
S2140001D0000000000000000000000000000000001A
S2140001E0000000000000000000000000000000000A
S2140001F000000000000000000000000000000000FA
S21400020000000000000000000000000000000000E9
S21400021000000000000000000000000000000000D9
S21400022000000000000000000000000000000000C9
S21400023000000000000000000000000800000000B1
S2140002400000000044FB0520200100209438002018
S2140002500000000200000001000100000000000095
S214000260A5FF0400BC0100203C01002000010101A4
S214000270000000004801002001000000B00100203E
S214000280AC010020A6010020A40100209C01002053
S21400029094010020900100208C01002084010020A1
S2140002A07C0100207801002038FF000000000000DC
S2140002B00000000000000000000000000008010030
S2140002C000000000320020000000010005000001D0
S2140002D000000000000600000000000000200500EE
S2140002E0EB00FFA80601010101000000200000004D
S2140002F000100000520000000080000052000000C5
S21400030000800000D8000000FFFFFFFFA4FA0520D1
S214000310C4711C002C9F1C000000000000000000A0
S214000320F8721C00000000001401002034731C004A
S21400033094731C002412002000000000000000003F
S2140003401412002000000000000000000000000062
S2140003500000000000000000000000000000000098
S2140003600000000000000000000000000000000088
S2140003700000000000000000000000000000000078
S2140003800000000000000000000000000000000068
S2140013400000000034FB052034721C002C9F1C009B
S2140013500D0C00002CFC052030120020ACC31C0035
S21400136000000000B0721C001A0000002B000000F5
S2140013709C0E062010741C0068C41C00FFFFFFFFB4
S21400138060120020000000000000000000000000C6
S214001390B00F0620580F0620FFFFFFFF000F0620A5
S2140013A0A80E06200000000040741C001A00000072
S2140013B02B000000000000080000000000000000F5
S2140013C0000001000000080000000000000000000F
S2140013D00000010020000000D5AA0300B9AA0300FF
S2140013E074841C00100000000E471B000D00000057
S2140013F0BC0B1800080000008ACD1800080000008A
S214001400D50E180008000000D40B180008000000D5
S214001410AA57170008000000E60B18000800000096
S214001420F20B180008000000040C1800080000006A
S214001430180C1800080000002E0C18000800000009
S214001440440C180008000000570C18008700000025
S2140014505F0C180087000000670C180008000000EA
S214001460DF0B180008000000740C180008000000CD
S2140014707B0C180008000000870C1800080000000D
S214001480930C18008B0000009F0C18008B000000C7
S214001490C10C18002B000000CF0C18002B00000019
S2140014A0AB0C18003B000000B40C1800080000004D
S2140014B0AE57170008000000DD0C180008000000FA
S2140014C0EC0C180008000000F80C18008B00000058
S2140014D0000D18008B000000080D180034000000F6
S2140014E01A0D18001C0000002A0D18000800000045
S2140014F04D0D1800080000003B0D18001C000000F1
S2140015005C0D180008000000670D180008000000B9
S214001510720D1800270000007F0D1800270000003D
S2140015208C0D1800270000009A0D180027000000F8
S214001530A80D180027000000B30D180027000000B3
S214001540BE0D180027000000C50D1800270000007B
S214001550DD50170008000000CC0D18002700000022
S214001560D70D180027000000E20D18000800000044
S214001570F70D180008000000040E18000800000010
S214001580BB57170008000000CF57170007010000E0
S214001590E157170008000000EA5717003F00000058
S2140015A0FA5717003F0000000A581700770000009F
S2140015B01A5817003F0000002770170008000000A8
S2140015C050701700080000002A5817001D00000081
S2140015D031581700600000003B581700C00000009C
S2140015E049581700C000000057581700C0000000F8
S2140015F065581700C000000073581700C0000000B0
S21400160081581700C00000008F581700C000000067
S2140016109D58170029000000AC581700080000006D
S214001620C158170087000000CD58170008000000BA
S214001630D758170008000000E05817008700000081
S214001640EF58170087000000FF58170087000000BB
S2140016500F591700870000001F5917008700000069
S2140016602F59170008000000425917008700000095
S21400167051591700080000005A59170008000000CA
S2140016806B59170008000000755917008700000006
S2140016908359170047010000915917008700000082
S2140016A0A159170087000000AF5917000800000076
S2140016B0BD59170008000000D059170008000000A8
S2140016C0DC59170057000000E959170057000000C2
S2140016D0F659170008000000085A170037000000E7
S2140016E0175A170037000000265A17003700000068
S2140016F0355A170087000000425A170008000000FD
S214001700555A1700AF000000645A17000800000082
S214001710765A170008000000885A170008000000D4
S2140017209A5A170008000000A75A17000800000081
S214001730BB5A170008000000C95A1700080000002E
S214001740DC5A170008000000EF5A170037000000A8
S214001750FF5A1700370000000F5B17003700000025
S2140017601F5B1700870000002D5B170008000000B5
S2140017703A5B170008000000465B170008000000F0
S214001780575B170008000000685B17003700000072
S214001790765B170037000000845B170037000000F8
S2140017A0925B1700870000009E5B17000800000091
S2140017B0AC5B170008000000B55B170008000000CF
S2140017C0C05B170007020000C85B17001D00000082
S2140017D0065C170027000000155C17001D000000BF
S2140017E0D45B17001D000000E35B17002700000015
S2140017F0F15B17001D000000015C170027000000C9
S214001800105C17001D000000215C1700010200009C
S2140018102A5C170001020000325C17000800000076
S214001820425C170008000000525C17000800000029
S214001830625C170008000000725C170008000000D9
S214001840825C170008000000925C17000800000089
S214001850A25C170008000000B25C17000800000039
S214001860C25C170008000000D25C170008000000E9
S214001870E45C170008000000F65C17000800000093
S214001880085D1700080000001A5D17000800000039
S2140018902C5D1700080000003E5D170008000000E1
S2140018A0505D170008000000625D17000800000089
S2140018B0745D170008000000865D17000800000031
S2140018C0985D170008000000AA5D170008000000D9
S2140018D0BC5D170008000000CE5D17000800000081
S2140018E0E05D170008000000F25D17000800000029
S2140018F0045E170008000000165E170008000000CF
S214001900285E1700080000003A5E17000800000076
S2140019104F5E170008000000645E17000800000015
S214001920795E1700080000008E5E170008000000B1
S214001930A35E170008000000B85E1700080000004D
S214001940CD5E170008000000E25E170008000000E9
S214001950F75E1700080000000C5F17006300000029
S214001960205F170063000000345F1700630000006C
S214001970485F1700630000005C5F1700630000000C
S214001980705F170063000000845F170063000000AC
S214001990985F170063000000AC5F1700630000004C
S2140019A0C05F170063000000D45F17000800000047
S2140019B0E85F170008000000FC5F17000800000042
S2140019C010601700080000002460170008000000E0
S2140019D038601700080000004C6017000800000080
S2140019E06060170008000000746017000800000020
S2140019F088601700080000009C60170008000000C0
S214001A00AD60170008000000BE6017000800000068
S214001A10D060170008000000E26017000800000011
S214001A20F7601700080000000C6117004700000070
S214001A3022611700470000003861170047000000C9
S214001A40506117004700000068611700870000001B
S214001A5080611700870000009861170008000000EA
S214001A60B061170008000000C861170008000000F9
S214001A70DF61170008000000F6611700080000008C
S214001A800D6217000800000024621700080000001E
S214001A9038621700080000004C62170008000000BB
S214001AA060621700080000007462170087000000DC
S214001AB08A62170087000000A062170087000000F7
S214001AC0AE62170008000000BB62170008000000A6
S214001AD0CC62170087000000D66217005F00000087
S214001AE0E062170087000000ED6217002700000084
S214001AF0F462170007020000FC62170008000000EE
S214001B0006631700080000001163170008000000B5
S214001B101A63170008000000246317001D00000069
S214001B202E631700020000003B631700020000004F
S214001B3042631700070200004D63170041000000D3
S214001B405B631700080000004BA91B00080000009C
S214001B5061631700870000006863170087000000B5
S214001B606F63170002000000796317000200000090
S214001B708063170008000000080C1800080000002A
S214001B80896317000800000099631700080000002A
S214001B90A963170019000000B563170019000000BC
S214001BA0C063170002000000CB63170002000000AD
S214001BB0D463170041000000DB63170041000000FB
S214001BC0E263170041000000E963170041000000CF
S214001BD0F063170041000000F763170041000000A3
S214001BE0FE63170041000000056417004100000076
S214001BF00C64170041000000136417004100000049
S214001C001A64170007020000276417008700000008
S214001C103164170007040000CC621700470000007C
S214001C2041641700070400005164170047000000D5
S214001C306164170047000000F46217000702000006
S214001C405964170047000000696417004700000049
S214001C50746417001D000000116317001D000000CB
S214001C60FC6217001D000000066317001D00000040
S214001C70E33B170008000000F63B17008700000053
S214001C80163C170008000000253C1700080000005E
S214001C90363C1700080000004A3C17000800000009
S214001CA05E3C1700080000006D3C170008000000AE
S214001CB07F3C170008000000923C17000800000058
S214001CC07C641700080000009364170008000000FA
S214001CD0B064170008000000214E1700080000003E
S214001CE01A4E170008000000FC4F17001F000000E7
S214001CF0B964170008000000C3641700270000003E
S214001D00D064170027000000DA64170027000000E0
S214001D10E464170027000000ED64170027000000A9
S214001D20F7641700080000000865170008000000A8
S214001D3012651700270000001F6517002700000027
S214001D4029651700270000003365170027000000EC
S214001D503C651700270000009A5017000800000096
S214001D60B950170027000000D050170027000000C9
S214001D70A350170008000000466517002700000063
S214001D8052651700570000006165170057000000F5
S214001D9070651700570000007E65170008000000F9
S214001DA08D65170047000000FED0170008000000F1
S214001DB09C65170047000000A56517004700000057
S214001DC0B065170047000000BB651700080000005C
S214001DD0C765170008000000D5651700080000005A
S214001DE0E465170008000000EF6517000800000013
S214001DF0FC651700080000000A66170008000000CF
S214001E001966170008000000286617000800000082
S214001E103366170008000000406617000800000040
S214001E204E6617001D00000062661700570000008F
S214001E305D6617001D00000067661700470000007B
S214001E40422D18008100000073661700470000004E
S214001E507E661700470000008B66170047000000EC
S214001E60675B180031000000996617000702000043
S214001E70080D1800350000001A0D18001D0000009F
S214001E80A866170008000000BB66170008000000E0
S214001E903B0D1800080000004D0D1800080000005B
S214001EA0CC66170008000000D8661700080000007F
S214001EB0C36D17001D000000E76617001D00000038
S214001EC0F26617001D000000006717001D000000E6
S214001ED0136717001D0000002D6717001D00000087
S214001EE03A6717001D000000466717001D00000037
S214001EF0526717001D0000005D6717001D000000F8
S214001F006E6717001D0000007D6717001D000000AB
S214001F1073671700130000008D6717001D00000090
S214001F207A6717001D0000008A6717001D00000072
S214001F30A16717001D000000AD6717001D00000018
S214001F40BC6717001D000000CA6717001D000000D0
S214001F50D46717001D000000E66717004700000062
S214001F60FB6717001D000000116817001D00000029
S214001F70236817001D000000AA5717001D00000068
S214001F809B6D17001D000000AA6D17001D000000C5
S214001F90276817002B000000326817001D0000009D
S214001FA0466817001D000000546817001D0000005A
S214001FB0686817001D0000007F6817001D000000FD
S214001FC08C6817001D000000A2681700470000007C
S214001FD0BA6B170047000000C46B170047000000EC
S214001FE0B26817001D000000196E170013000000ED
S214001FF0D66917001D000000C36817001D0000000A
S214002000D56817001D000000E66817001D000000D8
S214002010EF6817001D000000FE6817001D00000096
S214002020096917001D0000001D6917001D0000004B
S214002030376917001D0000004E6917001D000000DC
S2140020405B6917001D0000006E691700470000005E
S214002050111D180047000000FF1C18001D0000009E
S214002060DA1C18001D000000D21C18001D0000001D
S2140020707F6917001D0000008C6917001D00000016
S2140020809A6917001D000000A86917001D000000CF
S214002090B069170027000000BD6917001D0000008A
S2140020A0CA6917001D000000D26917001D00000055
S2140020B0E96917001D000000FB6917001D000000FD
S2140020C0116A1700080000001A6A170008000000CE
S2140020D0B53018001D000000296A17001D0000001A
S2140020E0376A170008000000456A17001D00000048
S2140020F00E471B000D0000004D6A17001D00000073
S214002100556A170008000000606A17000800000003
S214002110696A17001D000000776A17001D0000009E
S214002120390E18001D000000896A17001D00000007
S214002130906A17001D000000996A17001D00000035
S214002140A56A170007040000AE6A17001D0000000D
S214002150BB6A170008000000C66A17008700000068
S214002160CE6A170008000000DB6A1700290000008E
S214002170E46A17001D000000F26A17001D00000048
S214002180056B17001D000000186B17008B00000081
S2140021901F6B17008B0000002E6B17001D00000041
S2140021A03E6B17000B0100004E6B17004700000047
S2140021B0616B1700470000006A6B170047000000BD
S2140021C0766B17001D000000886B17006B00000080
S2140021D0946B17006B0000009D6B17006B000000EF
S2140021E0AB6B170043000000B76B170047000000FA
S2140021F0C16B170047000000CD6B170007050000F5
S214002200DA6B170007050000E76B1700CF00000029
S214002210EE6B17008B000000FA6B170047000000FB
S214002220106C170047000000216C17008B000000A0
S2140022302D6C17002F000000376C17002F000000D1
S214002240416C17001D000000506C17003B0000009A
S2140022505C6C17003B000000686C17003B00000039
S214002260746C17003B000000806C1700080000002C
S214002270916C17001D0000009D6C17001D000000EB
S214002280AF6C170047000000BB6C17001D00000075
S214002290CC6C17001D000000D46C17001D00000059
S2140022A0DF6C17001D000000E76C17001D00000023
S2140022B0F76C17001D000000046D17001D000000DD
S2140022C0126D17001D000000196D17001D0000009C
S2140022D0326D1700080000003E6D17001D0000005C
S2140022E0466D17001D000000566D17001D0000000B
S2140022F0676D17001D000000756D170007020000CF
S2140023007F6D17001D000000986D17001D0000006F
S214002310A76D17001D000000B56D17001D0000001A
S214002320C06D17001D000000D56D170017000000D7
S214002330E16D17001D000000F66D17002500000077
S214002340166E17001D000000226E170047000000E2
S214002350366E17001D0000004D6E17001D000000B1
S214002360666E17001D000000816E17001D0000003D
S2140023709C6E17001D000000B36E17001D000000C5
S214002380C46E17001D000000DB6E17001D00000065
S214002390EA6E170047000000FB6E170047000000BB
S2140023A00F6F17001D0000002A6F1700470000007F
S2140023B0376F17001D000000446F17001D00000057
S2140023C0506F17001D000000666F17001D0000000C
S2140023D07F6F17001D000000976F17001D0000009C
S2140023E0A66F17001D000000BC6F17001D00000040
S2140023F0C66F17001D000000D36F17001D000000F9
S214002400E16F17001D000000E76F17001D000000B9
S214002410EF6F17001D000000FD6F17001D00000085
S2140024200D7017001D0000001C7017001D00000036
S2140024302C7017001D0000003F7017001D000000E4
S2140024404A7017001D000000557017001D000000A0
S2140024506A7017001D0000007A7017001D0000004B
S2140024608B70170047000000957017001D000000D5
S214002470A97017001D000000BD7017001D000000A9
S214002480D17017001D000000D87017001D00000056
S214002490E77017001D000000F37017001D00000015
S2140024A0047117001D000000187117001D000000C1
S2140024B02C7117001D000000407117001D00000061
S2140024C0547117001D000000687117001D00000001
S2140024D07C7117001D000000907117001D000000A1
S2140024E0A47117001D000000B87117001D00000041
S2140024F0CC7117001D000000E07117001D000000E1
S214002500F47117001D000000087217001D0000007F
S2140025101C7217001D000000307217001D0000001E
S214002520447217001D0000004F7217001D000000C7
S2140025305A7217001D000000697217001D00000087
S214002540787217001D0000008E7217001D00000034
S214002550997217001D000000AA7217001D000000E7
S214002560BE7217001D000000D57217001D00000087
S214002570E57217001D000000F17217001D00000034
S214002580FD7217001D0000000D7317001D000000EF
S2140025901D7317001D000000347317001D00000097
S2140025A0407317001D000000527317001D00000046
S2140025B0677317001D0000007F7317001D000000E2
S2140025C09073170047000000987317001D00000066
S2140025D09F7317001D000000AC7317001D0000005D
S2140025E0B67317001D000000C17317001D00000021
S2140025F0CF7317001D000000DA7317001D000000DF
S214002600E27317001D000000F07317001D000000A5
S214002610FC7317001D0000000B7417001D0000005F
S214002620157417001D000000207417001D00000020
S214002630337417001D0000003A74170008000000ED
S214002640497417001D0000005574170008000000AC
S2140026506074170087000000687417001D000000F3
S21400266075741700290000007E7417001D00000016
S2140026708C7417001D0000009F7417001D000000DA
S214002680B27417008B000000B97417001D0000001C
S214002690C97417000B010000D9741700470000002A
S2140026A0EC74170047000000F574170047000000A0
S2140026B0017517001D000000137517006B00000061
S2140026C01F7517006B000000287517006B000000D0
S2140026D036751700430000004275170047000000DB
S2140026E04C751700470000005875170007050000D6
S2140026F0657517000705000072751700CF0000000B
S214002700797517008B0000008575170047000000DC
S2140027109B75170047000000AC7517008B00000083
S214002720B87517002F000000C27517002F000000B4
S214002730CC7517001D000000DB7517003B0000007D
S214002740E77517003B000000F37517003B0000001C
S214002750FF7517003B0000000B7617001D000000F9
S2140027601C7617001D000000287617001D000000CC
S2140027703A76170047000000467617001D00000056
S214002780577617001D0000005F7617001D0000003A
S2140027906A76170008000000727617001D00000019
S2140027A082761700080000008F7617001D000000D4
S2140027B09D7617001D000000A47617001D0000007F
S2140027C0BD7617001D000000C97617001D0000002A
S2140027D0D17617001D000000E17617001D000000EE
S2140027E0F27617001D0000000077170007020000B1
S2140027F00A7717001D000000237717001D00000051
S2140028003277170008000000407717001D00000010
S2140028104B771700080000006077170017000000CD
S2140028206C7717001D000000817717002500000058
S214002830A17717001D000000AD77170047000000C5
S214002840C17717001D000000D87717001D00000094
S214002850F17717001D0000000C7817001D0000001F
S214002860277817001D0000003E7817001D000000A6
S2140028704F7817001D000000667817001D00000046
S214002880757817004700000086781700470000009C
S2140028909A7817001D000000B57817004700000062
S2140028A0C27817001D000000CF7817001D0000003A
S2140028B0DB7817001D000000F17817001D000000EF
S2140028C00A7917001D000000227917001D0000007D
S2140028D0317917001D000000477917001D00000021
S2140028E0517917001D0000005E7917001D000000DA
S2140028F06C7917001D000000727917001D0000009B
S2140029007A7917001D000000887917001D00000066
S214002910987917001D000000A77917001D00000019
S214002920B77917001D000000CA7917001D000000C7
S214002930D57917001D000000E07917001D00000083
S214002940F57917001D000000057A17001D0000002D
S214002950167A170047000000207A17001D000000B6
S214002960347A17001D000000487A17001D0000008A
S2140029705C7A17001D000000637A17001D00000037
S214002980727A17001D0000007E7A17001D000000F6
S2140029908F7A17001D000000A37A17001D000000A4
S2140029A0B77A17001D000000CB7A17001D00000044
S2140029B0DF7A17001D000000F37A17001D000000E4
S2140029C0077B17001D0000001B7B17001D00000082
S2140029D02F7B17001D000000437B17001D00000022
S2140029E0577B17001D0000006B7B17001D000000C2
S2140029F07F7B17001D000000937B17001D00000062
S214002A00A77B17001D000000BB7B17001D00000001
S214002A10CF7B17001D000000DA7B17001D000000AA
S214002A20E57B17001D000000F47B17001D0000006A
S214002A30037C17001D000000197C17001D00000015
S214002A40247C17001D000000357C17001D000000C8
S214002A50497C17001D000000607C17001D00000068
S214002A60707C17001D0000007C7C17001D00000015
S214002A70887C17001D000000987C17001D000000D1
S214002A80A87C17001D000000BF7C17001D0000007A
S214002A90CB7C17001D000000DD7C17001D00000029
S214002AA0F27C17001D0000000A7D17001D000000C4
S214002AB01B7D170047000000237D17001D00000047
S214002AC02A7D17001D000000377D17001D0000003E
S214002AD0417D17001D0000004C7D17001D00000002
S214002AE05A7D17001D000000657D17001D000000C0
S214002AF06D7D17001D0000007B7D17001D00000087
S214002B00877D17001D000000967D17001D00000041
S214002B10A07D17001D000000AB7D17001D00000003
S214002B20BE7D17001D000000C57D170008000000D0
S214002B30CE7D170008000000DC7D170008000000AE
S214002B40ED7D170008000000FD7D1700080000005E
S214002B50187E170008000000287E170008000000F6
S214002B60397E1700080000004F7E1700080000009E
S214002B70647E170008000000787E1700080000003A
S214002B808D7E1700080000009C7E170008000000DD
S214002B90B27E170008000000C87E1700080000007C
S214002BA0D57E170008000000E57E1700080000002C
S214002BB0F87E170008000000057F170008000000D8
S214002BC0055017001F000000177F170008000000C0
S214002BD02B7F1700080000003B7F1700080000004E
S214002BE04D7F170008000000607F170008000000F7
S214002BF0747F170019000000797F1700210000007D
S214002C00EC4F170008000000827F17000800000045
S214002C108A7F170008000000937F17000800000056
S214002C209B7F1700020000001000000000006028D4
S214002C30010000000400000050D8602800000000DA
S214002C4001120F0000000000B80B0000000000009A
S214002C500000000000000000021207000000000054
S214002C60B80B00000000000000000000000000009C
S214002C700302050000000000000000000000000045
S214002C800000000000000000040203000000000036
S214002C90B80B000000000000CC1000000000000090
S214002CA0050000000000000000000000000000001A
S214002CB0000000000000000001000000B0641700E3
S214002CC0FFFFFFFF0100000002000000E803000015
S214002CD0307500006E19000000C00000FA00000009
S214002CE00DCE0500E803000081FB1000E80300009D
S214002CF0115A0500E8030000F94405000A00000028
S214002D00B147050064000000313105006400000092
S214002D10BD620500E8030000A9520500E8030000B4
S214002D20BD690500E8030000DDEC1000640000004B
S214002D3071F71000F40100000DE81000010000001B
S214002D40FF00000078000000FFFFFF006C09000095
S214002D50A0860100640000000000000000000000E3
S214002D60102030405060708090A0B0C0000000007E
S214002D700000000100140000000000000000000039
S214002D80000000000000000000000000000000003E
S214002D90000000000000000000000000000000002E
S214002DA0000000000000000000000000000000001E
S214002DB0000000000000000000000000000000000E
S214002DC000000000000000000000000000000000FE
S214002DD000000000000000000000000000000000EE
S214002DE000000000000000000000000000000000DE
S214002DF000000000000000000000000000000000CE
S214002E0000000000000000000000000000000000BD
S214002E1000000000000000000000000000000000AD
S214002E20000000000000000000000000000000009D
S214002E30000000000000000000000000000000008D
S214002E40000000000000000000000000FFFFFFFF81
S214002E50C8000000000000000000000000000000A5
S214002E607025082065D9060000000000000000005C
S214002E70900600002D2D2D2D2D424547494E2052FF
S214002E8053412050524956415445204B45592D2D0B
S214002E902D2D2D0A4D4949457041494241414B432C
S214002EA0415145417379436B4F4F48527A526C4FAC
S214002EB0454445543848615946774D436E597052DB
S214002EC070366865706A6E375464746C5A4644731C
S214002ED0787754530A6944634E58323758675562B8
S214002EE043454E416E33654B3277646564595A6E7E
S214002EF0706D48584730386E4F67794A7248466F4B
S214002F00423737565A3269436643564D50777453A4
S214002F107675704C2F0A7457305664656139566F53
S214002F20684473546B416F764755577942567A65B5
S214002F30796849756A682F546F4E59346158756CB4
S214002F4049674C5953323167556F79384761565A3D
S214002F507953775144580A344E632F38306E4C7983
S214002F60486643704D55774C364C4A30546C7864FE
S214002F703365556F6E634A4437544E4D6D574C67F4
S214002F804D34586C6D353175755259354266423937
S214002F906E584B554862690A3661397330784A2B49
S214002FA05732564B53344B5362525745587855490F
S214002FB07358423654355931797570344F514144FF
S214002FC0497A4A484A57554F4C37327657704D63C0
S214002FD0385834526A42776B0A646148374D563621
S214002FE0444F305A7A584472756245454748346CA7
S214002FF045456673624E597450325147447551497F
S2140030004441514142416F494241446E69594738F3
S214003010704F687A6E416E7A6B0A2F7961446A4601
S2140030203554554C4D4D455A723249362F66714CC3
S2140030302F6547414F30797537394E664E69707542
S21400304057683865344B71596535584569746A4A0E
S21400305056545562354B654677570A497977705707
S2140030604A797A734A3032304D31666379757A77A9
S214003070764447634A397244325A68506C536F62DA
S214003080586A75475630764A34444C684E4D69380F
S2140030906567497150476B642B584B0A4438302B90
S2140030A0787A6A554D342B34486B485855795953BD
S2140030B0414C376E547A492B6E68396D6D337943BF
S2140030C06E7446534A734E6A317452583749566A7C
S2140030D06E6A6831524953374D5235420A6630752A
S2140030E039785647663355624276654B2F52795685
S2140030F047642F51574A61636B7442637233577942
S2140031004378486B776F3634544554756A35443384
S2140031104E787149726D694368426175420A65640A
S21400312069716F6533527578507736766745332BFD
S2140031307A336D6644644430586235384373764E4D
S214003140323764572F2F65756631785A6A6A773634
S214003150784C71416F335A643866414D4D450A4587
S2140031604644555269454367594541316D582F5A73
S214003170304F6F4E496433536F466867354E6B5118
S2140031806C45425362324C6E6133354A74716875D1
S214003190796C504C61726A61706F476A33432F0ACC
S2140031A0347A306841495536643157334C313250A1
S2140031B03137355861487244754135315463396248
S2140031C06E4D702F4A7553725636723543766D5A69
S2140031D04A38314D6674596C4A7A6C34317A4A648E
S2140031E00A4A4966316E494C786C587651533972A2
S2140031F056485371494F2F3064507745416B474BC3
S2140032004A487171687957544D357368334363671C
S214003210705179374A734C30436759454131654B95
S2140032205A0A704464676B4C5251676D746B573022
S2140032304644496B52316147364A3667452F5470CB
S2140032406D6D53593634787145597235726E4752E2
S2140032504F627659724751584870396F442F5175EE
S21400326043480A6669566575647675795159587487
S214003270304B734576304E79686F4C576D416C54C1
S214003280696A31654B456A556D764872545633798E
S214003290644D53644549733570356B3677334874DF
S2140032A0384B550A3459416A6A46676C4C2B30785D
S2140032B04456394543366E77423473774E774B66BD
S2140032C04270696675776B73704B3043675942314D
S2140032D052466A4D484A39324339706473434B73D9
S2140032E0477751740A6D613041726D496448726B5C
S2140032F03258554D303463566A44794E516657718C
S214003300314C6C426D644673477339686B7955640B
S2140033106D36742F77657A58482B63337663456B22
S2140033204E424376780A75486950783264496A6B2B
S214003330576C6B52774B5079706C2F6139596F7799
S214003340444C673871615870736976695278524D8B
S214003350574C6C2B6756436478324931334A786A47
S214003360794F764C61500A52586B30644B50325845
S214003370784E74454551786350663061514B4267CC
S214003380514448587A7A6371496F70475176624A59
S2140033906F516231452F6942334A78384767366144
S2140033A0774D36483175300A515966594435375687
S2140033B0516B3264514876795351505A535868507D
S2140033C0775A737747642F7A4A4A365348594D4F8F
S2140033D0653946726B49696141717A7838536B5921
S2140033E043337436796739580A624D31694C506DEB
S2140033F0716161624A79536A776D696345716931B3
S2140034006B4E696F7644774238323164486F587134
S214003410346E423858576641783979793575334D68
S214003420734E424E4D734D526B0A4D6E3863325199
S2140034304B42675143304F4B626F6555677A6B3925
S2140034406930364B45364371474F343357705044D6
S2140034504B4E472B34796C6E436E49786A65474904
S214003460594C4E4B484A2B5243760A346C742B46C2
S2140034704857637763694D334A6F4E4A57536671B0
S214003480584763717032423937492F594457383795
S2140034904C364865345368556D7A76646C414731CE
S2140034A043656347715459427259420A6C63722FDE
S2140034B02B52756B577A494D55434132344B654113
S2140034C06F68654B73432B484A4767345530386EF0
S2140034D0577A356E394B33306B714E79612B6E7A75
S2140034E039673D3D0A2D2D2D2D2D454E4420525336
S2140034F0412050524956415445204B45592D2D2DBB
S2140035002D2D0A00580400002D2D2D2D2D42454747
S214003510494E2043455254494649434154452D2D72
S2140035202D2D2D0A4D494944426A43434165344393
S214003530435143673578744C3561702F4344414E90
S21400354042676B71686B6947397730424151734601
S214003550414442464D517377435159445651514761
S21400356045774A420A565445544D424547413155DF
S214003570454341774B553239745A53315464474664
S214003580305A5445684D4238474131554543677770
S21400359059535735305A584A755A58516756326CEF
S2140035A06B5A326C300A6379425164486B675448F0
S2140035B0526B4D423458445445344D4467794D540B
S2140035C041334D7A67304D316F58445449344D4439
S2140035D067784F4441334D7A67304D316F77525498
S2140035E0454C4D416B470A4131554542684D435164
S2140035F0565578457A415242674E564241674D438A
S2140036006C4E766257557455335268644755784900
S21400361054416642674E5642416F4D47456C75644D
S214003620475679626D56300A494664705A47647048
S21400363064484D6755485235494578305A444343A7
S214003640415349774451594A4B6F5A496876634EFD
S21400365041514542425141446767455041444343C6
S21400366041516F43676745420A414C4D6770446A53
S214003670683063305A54684178452F42326D426351
S214003680444170324B5561656F587159352B303354
S214003690625A575251374D6345306F673344563937
S2140036A07531344647776844510A4A39336974732A
S2140036B048586E57475A365A68317874504A7A6F67
S2140036C04D696178786141652B3157646F676E7715
S2140036D06C5444384C55723771532F3756744658CD
S2140036E0586D76566149513745350A414B4C786CD2
S2140036F0467367566333736F534C6F346630364485
S214003700574F476C37705349433245747459464B8C
S2140037104D76426D6C57636B734541312B44585060
S2140037202F4E4A79386833777154460A4D432B69D1
S21400373079644535635864336C4B4A3343512B30B8
S2140037407A544A6C6934444F46355A756462726BD3
S214003750574F515877665A31796C423234756D76C8
S214003760624E4D53666C746C536B75430A6B6D30CA
S2140037705668463856434C4677656B2B574E6372F1
S2140037807165446B4141794D795279566C44692B89
S21400379039723171544850462B455977634A485719
S2140037A0682B7A4665677A7447633177360A376DD1
S2140037B0784242682B4A52424837477A574C543927
S2140037C06B4267376B43417745414154414E4267F0
S2140037D06B71686B69473977304241517346414196
S2140037E04F4341514541574A566A4933706F0A7AEA
S2140037F06A4370736672507731752F4B2F30414A8B
S2140038004752704C43687642504D597A31312F41B9
S2140038107932493276795438616B524D2B376B6D5D
S21400382030572F642B7769794C3059543951490AEF
S21400383050485434674C4556344B65695153415093
S214003840696E64744A676267325769353345424722
S214003850654E724457484D77483369736C447239E5
S214003860683239337A6855715A4D69653257446201
S2140038700A6B704563536837394441685A445A3472
S21400388033642F71486757657957576B7943384AC1
S2140038904C51497A59507364544A59663871713795
S2140038A0794E5A6C72374F5A434858647132734790
S2140038B0380A536A453449316A34414E6B6B4A7054
S2140038C06E58367946445A5A47444472557A50637D
S2140038D04A525056745A7A6D79744A5549627A6FCC
S2140038E054553945366E5344496C764254543237F3
S2140038F0336F0A39674A58766B55374C3463774EC0
S2140039004341673067335252777971495571387A37
S21400391079577349654E5364717A3634454948324F
S2140039207758345876576B567A447A6678573736CF
S214003930484C370A4E4F64733461355349486646DF
S2140039405A773D3D0A2D2D2D2D2D454E44204345BD
S2140039505254494649434154452D2D2D2D2D0A00DC
S2140039600000000000000000000000000000000052
S2140039700000000048380020030000C0500000008F
S2140039800000000000000000683800200000000072
S2140039900000010000000000000000000001FF071A
S2140039A00000000021381100193711000100000046
S2140039B00700000006000000FD000000213811008E
S2140039C0193711006F280A0859230A085D230A08C8
S2140039D06B290A08B9240A08F92C0A08BF2D0A0818
S2140039E00F2B0A084F250A0871250A0861230A08C2
S2140039F065230A0851230A08F000000000000000B2
S214003A000000000000000000E03800200000000079
S214003A10040000000000000000000000000000009D
S214003A2044A0042060006028FF000000FFFFFFFFA6
S214003A30C40E6028740E6028640E602824000C40B3
S214003A401D251800F1190900000000000000000004
S214003A5006251800222518000000000000000000BF
S214003A600000000000000000D1021800D524090064
S214003A7000000000000000002C251800412518005A
S214003A800922090000000000010000004925180076
S214003A9099251800ED210900000000000000000034
S214003AA0A125180027681700D12109000000000092
S214003AB000000000B8251800CC251800B521090024
S214003AC00000000000000000D8251800F3251800AC
S214003AD0C5230900000000000000000002261800B0
S214003AE0453518009923090000000000000000007A
S214003AF02E261800D52318006D23090000000000AC
S214003B000000000059261800E42318003D23090091
S214003B10000000000100000074261800A22618000D
S214003B200D2309000000000000000000AE2618006B
S214003B30D4261800C9240900000000000000000078
S214003B40E22618005B0F1A00992109000000000009
S214003B5000000000FD2618001F271800E1220900BB
S214003B6000000000000000002E271800492718005B
S214003B70B5220900000000000000000059271800C8
S214003B80752718000000000000000000000000007C
S214003B9000000000922718007D21090000000000A8
S214003BA00000000080271800B6E01B006121090015
S214003BB0000000000000000097271800D327180018
S214003BC0BD2409000000000000000000DF271800E8
S214003BD09B701900B12409000000000000000000DE
S214003BE0EF2718001A2818004521090000000000D9
S214003BF0000000002A2818006A281800A5240900DA
S214003C000000000000000000482818009228180055
S214003C109924090000000000000000007028180029
S214003C20992818008D2409000000000000000000FC
S214003C30A8281800111D18002921090000000000FE
S214003C4000000000D5281800FF1C18000D210900F0
S214003C5000000000000000000E291800DA1C180002
S214003C60F120090000000000000000001D291800D7
S214003C70D21C1800D520090000000000000000003B
S214003C803F29180093921A00C5270900000000007B
S214003C9000000000442918002BEE1A0041270900F6
S214003CA000000000010000007D291800B629180059
S214003CB0BD2609000000000001000000C32918000E
S214003CC0DB1A1A0039260900000000000100000077
S214003CD0F9291800282A1800B52509000000000058
S214003CE0010000002C2A18006E2A18008124090002
S214003CF00000000000000000792A1800972A18002B
S214003D00752409000000000000000000A02A18002A
S214003D10B32A1800B92009000000000000000000C7
S214003D20BF2A1800DF2A18008522090000000000BC
S214003D3001000000E82A1800202B18005522090070
S214003D400000000000000000292B1800592B180066
S214003D506924090000000000000000005F2B180026
S214003D60722B18005D24090000000000000000000F
S214003D707E2B18009A2B18000000000000000000A0
S214003D800000000000000000A12B18009D20090084
S214003D900000000000000000A92B1800D92B180016
S214003DA0252209000000000001000000E12B180099
S214003DB049481700512409000000000000000000D8
S214003DC00D2C18002E2C1800812009000000000081
S214003DD001000000392C18005C2C1800E1240900B2
S214003DE00000000001000000642C1800675B18004B
S214003DF06520090000000000000000009E2C18004E
S214003E006766170049200900000000000000000057
S214003E10CD2C1800736617002D2009000000000046
S214003E2000000000ED2C18007E6617001120090027
S214003E3000000000000000000B2D1800422D1800A6
S214003E40F51F090000000000000000002D2D1800DE
S214003E508B661700D91F0900000000000000000054
S214003E604F2D180099661700BD1F090000000000BE
S214003E7000000000732D180095471700A11F0900C9
S214003E800000000000000000992D1800BC2D18004E
S214003E90000000000000000000000000000000001D
S214003EA0306D1B00851F09000000000000000000A8
S214003EB0C72D1800EB2D1800691F09000000000030
S214003EC000000000FA2D18002C2E180039240900D6
S214003ED00000000000000000362E18000D0E18002E
S214003EE00D1809000000000000000000462E180013
S214003EF06C2E180055190900000000000000000094
S214003F00752E1800110E18004D1F09000000000045
S214003F10000000008A2E1800B52E1800311F090078
S214003F200000000000000000C42E1800DB2E180061
S214003F30151F09000000000000000000E82E180011
S214003F40CC661700F91E0900000000000000000003
S214003F50012F1800D8661700DD1E090000000000BB
S214003F60000000001C2F18003A2F1800C11E090080
S214003F700000000000000000452F1800A32F1800C6
S214003F80A51E09000000000000000000AB2F18006E
S214003F90C12F1800891E0900000000000000000064
S214003FA0C92F1800D46F1B006D1E0900000000000A
S214003FB000000000F02F1800C36D1700511E090006
S214003FC000000000000000002F301800E766170011
S214003FD0351E0900000000000000000057301800E1
S214003FE081301800051E09000000000000000000D7
S214003FF088301800B5301800E91D090000000000E0
S21400400000000000A6301800C030180000000000B5
S21400401000000000000000000000000010591A0018
S214004020CD1D09000000000000000000C730180089
S214004030F43018002D2409000000000000000000E5
S214004040023118001C311800B11D090000000000E4
S214004050000000002831180055311800951D090091
S2140040600000000000000000663118009B311800B8
S214004070791D09000000000000000000A9311800AA
S214004080D1311800A9160900000000000000000049
S214004090DB31180016321800212409000000000049
S2140040A000000000213218004F3218005D1D090084
S2140040B00000000000000000573218007D32180093
S2140040C015240900000000000000000085321800DA
S2140040D09A321800000000000000000000000000F7
S2140040E000000000A1321800411D09000000000079
S2140040F000000000A7321800A4E8180009240900F0
S2140041000000000000000000CD321800E632180063
S214004110251D09000000000000000000F032180015
S21400412014341800091D09000000000000000000FB
S21400413021341800606A1700ED1C0900000000001A
S214004140000000004B34180087341800FD230900D7
S21400415000000000000000006434180082341800DC
S214004160F12309000000000000000000923418004F
S214004170AE341800D11C090000000000000000004A
S214004180C2341800F2341800B51C09000000000004
S214004190000000000735180038351800991C090083
S2140041A0EB1509000000000007351800513518000F
S2140041B07D1C090000000000000000005A351800B1
S2140041C095351800611C0900000000000000000082
S2140041D0A1351800CE351800451C09000000000067
S2140041E000000000DF3518001B361800291C0900E7
S2140041F000000000000000002936180043101B00D5
S2140042000D1C09000000000000000000DE3618004B
S214004210DB351800F11B090000000000000000005C
S214004220EC3618000000000000000000000000004F
S2140042300000000000000000C96A170000D16A17DD
S2140042400000AC461900000D4B170000316B17003C
S21400425000416B170000516B170000646B170000DD
S21400426056BA1800008B6B170000AC34190000A07B
S2140042706B1700003630190000D06B1700005B414A
S214004280170000F2F41A0000E000190000DB001925
S21400429000009870170000AC70170000C070170080
S2140042A000EA6B17000093921A0000827E19000045
S2140042B0136C1700002BEE1A0000306C1700003A43
S2140042C06C170000536C1700005F6C1700006B6CD7
S2140042D0170000776C170000836C170000A06C179F
S2140042E00000B26C170000BE6C17000039781B0087
S2140042F0001C6D1700004C62180000786D17000057
S2140043006A6D1700004F711B00009F01190000B670
S2140043106E170000C76E170000DE6E170000826D75
S214004320170000F95C1800003354180000095D18E7
S2140043300000F26F1700000070170000D40B180082
S2140043400010701700001F701700002F7017000075
S21400435042701700004D7017000058701700006D6F
S214004360701700007D701700008E70170000C36D78
S2140043701700009B6D170000AA6D170000B86D1798
S2140043800000D86D170000416D170000496D17003A
S214004390003A6F170000476F170000536F170000B2
S2140043A0696F170000826F1700009A6F170000A948
S2140043B06F170000BF6F170000000000000000002D
S2140043C0FFFFFFFFFFFFFFFF00180000FD061B00BA
S2140043D0050000001F0000003BB60D005FB60D0094
S2140043E0000000006FB60D0077B60D007FB60D001A
S2140043F089B60D0001000000C8420020C842002017
S214004400F80B1D00AAAA0300000000000902000025
S214004410030300001F00000000C00000F5B31600F4
S214004420818416001DA21600F1A51600B58416009C
S21400443049841600517A1200517A1200577A1200F7
S214004440577A12004443002001AC0F0005AC0F0061
S21400445002AC0F0004AC0F000000000000000000DB
S214004460000000000000000000000000020008003D
S21400447002000C0000000000000000000000000029
S2140044800000000000000000000000000000000027
S2140044900000000000000000000000000000000017
S2140044A00000000000000000000000000000000007
S2140044B000000000000000000000000000000000F7
S2140044C000000000000000000000000000000000E7
S2140044D00000000000000000000000004C44002027
S2140044E0F443002000000000000000000000000070
S2140044F000000000000000000000000000000000B7
S21400450000000000000000000000000000000000A6
S2140045100000000000000000000000000000000096
S214004520000000007045002010450020000000003C
S2140045301C000000080000000000010003FF00004F
S2140045400000000000000041000100000000000024
S2140045500100000000000000FEFF0000FEFF00005B
S2140045600000000000000000000000000000000046
S2140045700000000001000000A4440020904B002032
S214004580E0440020000000000E0000000C000000C8
S2140045900000010003FF00000000000000000041D2
S2140045A00001000000000000000000000000000005
S2140045B000000000000000000000000000000000F6
S2140045C000000000000000000000000001000000E5
S2140045D0A4440020040001000000000000000000C9
S2140045E00000000000000000FAFFFAFFFFFFFFFFD8
S2140045F0FFFFFFFF000000000000000000000000BA
S21400460000000000000000000000000000000000A5
S214004610000000000A00000000000000010000008A
S2140046201400010000000000010000003700020036
S21400463000000000010000006E0003000000000003
S214004640000000003C000400000000000000000025
S2140046505A00050000000000000000007800060078
S2140046600000000000000000B4000700000000008A
S21400467000000000F000080000000000000000003D
S214004680680109000000000000000000E0010A00C8
S21400469000000000000000001C020B0000000000EC
S2140046A0000000003C1400000000000000000000B5
S2140046B0000000001E0000000000000000000000D7
S2140046C000000000000000000000000000000000E5
S2140046D00000000000000000000000005014000071
S2140046E00000000000000000000000001E000000A7
S2140046F000000000000000000000000000000000B5
S21400470000000000000000000000000000000000A4
S214004710000000006414000000000000000000001C
S214004720000000001E000000000000000000000066
S2140047300000000000000000000000000000000074
S21400474000000000000000000000000078140000D8
S2140047500000000000000000000000001E00000036
S2140047600000000000000000000000000000000044
S2140047700000000000000000000000000000000034
S214004780000000008C140000000000000000000084
S214004790000000001E0000000000000000000000F6
S2140047A00000000000000000000000000000000004
S2140047B0000000000000000000000000A014000040
S2140047C00000000000000000000000001E000000C6
S2140047D000000000000000000000000000000000D4
S2140047E000000000000000000000000000000000C4
S2140047F000000000B41400000000000000000000EC
S214004800000000001E000000000000000000000085
S2140048100000000000000000000000000000000093
S214004820000000000000000000000000C8140000A7
S2140048300000000000000000000000001E00000055
S2140048400000000000000000000000000000000063
S2140048500000000000000000000000000000000053
S214004860000000007C1500000000000000000000B2
S214004870000000001E000000000000000000000015
S2140048800000000000000000000000000000000023
S214004890000000000000000000000000901500006E
S2140048A00000000000000000000000001E000000E5
S2140048B000000000000000000000000000000000F3
S2140048C000000000000000000000000000000000E3
S2140048D000000000A415000000000000000000001A
S2140048E0000000001E0000000000000000000000A5
S2140048F000000000000000000000000000000000B3
S214004900000000000000000000000000B8150000D5
S2140049100000000000000000000000001E00000074
S2140049200000000000000000000000000000000082
S2140049300000000000000000000000000000000072
S21400494000000000CC150000000000000000000081
S214004950000000001E000000000000000000000034
S2140049600000000000000000000000000000000042
S214004970000000000000000000000000E01500003D
S2140049800000000000000000000000001E00000004
S2140049900000000000000000000000000000000012
S2140049A00000000000000000000000000000000002
S2140049B000000000F41500000000000000000000E9
S2140049C0000000001E0000000000000000000000C4
S2140049D000000000000000000000000000000000D2
S2140049E000000000000000000000000008160000A4
S2140049F00000000000000000000000001E00000094
S214004A0000000000000000000000000000000000A1
S214004A100000000000000000000000000000000091
S214004A20000000001C16000000000000000000004F
S214004A30000000001E000000000000000000000053
S214004A400000000000000000000000000000000061
S214004A50000000000000000000000000301600000B
S214004A600000000000000000000000001E00000023
S214004A700000000000000000000000000000000031
S214004A800000000000000000000000000000000021
S214004A9000000000441600000000000000000000B7
S214004AA0000000001E0000000000000000000000E3
S214004AB000000000000000000000000000000000F1
S214004AC00000000000000000000000005816000073
S214004AD00000000000000000000000001E000000B3
S214004AE000000000000000000000000000000000C1
S214004AF000000000000000000000000000000000B1
S214004B000000000071160000000000000000000019
S214004B10000000001E000000000000000000000072
S214004B200000000000000000000000000000000080
S214004B3000000000000000000000000085160000D5
S214004B400000000000000000000000001E00000042
S214004B500000000000000000000000000000000050
S214004B600000000000000000000000000000000040
S214004B700000000099160000000000000000000081
S214004B80000000001E000000000000000000000002
S214004B900000000000000000000000000000000010
S214004BA0000000000000000000000000AD1600003D
S214004BB00000000000000000000000001E000000D2
S214004BC000000000000000000000000000000000E0
S214004BD000000000000000000000000000000000D0
S214004BE000000000C11600000000000000000000E9
S214004BF0000000001E000000000000000000000092
S214004C00000000000000000000000000000000009F
S214004C10000000000000000000000000D5160000A4
S214004C200000000000000000000000001E00000061
S214004C30000000000000000000000000000000006F
S214004C40000000000000000000000000000000005F
S214004C5000000000E9160000000000000000000050
S214004C60000000001E000000000000000000000021
S214004C70000000000000000000000000000000002F
S214004C80000000000000000000000000FD1600000C
S214004C900000000000000000000000001E000000F1
S214004CA000000000000000000000000000000000FF
S214004CB000000000000000000000000000000000EF
S214004CC0000000006C09000000000000000000006A
S214004CD0000000001E0000000000000000000000B1
S214004CE000000000000000000000000000000000BF
S214004CF00000000000000000000000007109000035
S214004D000000000000000000000000001E00000080
S214004D10000000000000000000000000000000008E
S214004D20000000000000000000000000000000007E
S214004D3000000000760900000000000000000000EF
S214004D40000000001E000000000000000000000040
S214004D50000000000000000000000000000000004E
S214004D600000000000000000000000007B090000BA
S214004D700000000000000000000000001E00000010
S214004D80000000000000000000000000000000001E
S214004D90000000000000000000000000000000000E
S214004DA00000000080090000000000000000000075
S214004DB0000000001E0000000000000000000000D0
S214004DC000000000000000000000000000000000DE
S214004DD00000000000000000000000008509000040
S214004DE00000000000000000000000001E000000A0
S214004DF000000000000000000000000000000000AE
S214004E00000000000000000000000000000000009D
S214004E10000000008A0900000000000000000000FA
S214004E20000000001E00000000000000000000005F
S214004E30000000000000000000000000000000006D
S214004E400000000000000000000000008F090000C5
S214004E500000000000000000000000001E0000002F
S214004E60000000000000000000000000000000003D
S214004E70000000000000000000000000000000002D
S214004E800000000094090000000000000000000080
S214004E90000000001E0000000000000000000000EF
S214004EA000000000000000000000000000000000FD
S214004EB0000000000000000000000000990900004B
S214004EC00000000000000000000000001E000000BF
S214004ED000000000000000000000000000000000CD
S214004EE000000000000000000000000000000000BD
S214004EF0000000009E090000000000000000000006
S214004F00000000001E00000000000000000000007E
S214004F10000000000000000000000000000000008C
S214004F20000000000000000000000000A3090000D0
S214004F300000000000000000000000001E0000004E
S214004F40000000000000000000000000000000005C
S214004F50000000000000000000000000000000004C
S214004F6000000000A809000000000000000000008B
S214004F70000000001E00000000000000000000000E
S214004F80000000000000000000000000000000001C
S214004F90000000000000000000000000B40900004F
S214004FA00000000000000000000000001E000000DE
S214004FB000000000000000000000000000000000EC
S214004FC000000000000000000000000000000000DC
S214004FD00000000000000000FFFF1028FFFF153C47
S214004FE0000000000000000000000000FFFF003886
S214004FF0FFFF1020FFFF153CFFFF10200000000001
S2140050000000000001010100010000000100000096
S2140050100101010000000000010000000F00000078
S2140050200100000001000000000000000100000177
S21400503000010000F4010000000000000000000075
S21400504014000000000000006400000001000000E2
S214005050000001000000000000000000000000004A
S214005060000000000200000000000000013E1300E7
S2140050703940130000000000E53D13001F451300F3
S21400508001000000544F0020544F00205C4F0020C9
S2140050905C4F00200500000007000000D84F0020ED
S2140050A0744F002000001900D803F80301140A10FA
S2140050B0000001001900D8039813010C0610000028
S2140050C00200190061029813011008100000030086
S2140050D02800EA00C30101180C1000000414280080
S2140050E0EA00040201140A100000050019007813F3
S2140050F01F270324061002000600190072065C1D16
S214005100033008100200000000001900D803F8035E
S21400511001140A10000001001900D8039813010CAE
S2140051200610000002001900610298130110081012
S214005130000003002800EA00C30101180C1000005C
S21400514004032800EA00CC02011008100000050045
S214005150190078131F27031E051002000600190009
S21400516072065C1D033008100200000004000000F8
S21400517004000000845000204C500020000019005D
S2140051808505A505011209100000010019001C0282
S2140051903C02010A0510000002001900C60BE60BCF
S2140051A0014623100000030019003D015D010103C4
S2140051B002100000000019008505A505011209105F
S2140051C00000010019001C023C02010A0510000044
S2140051D002001900C60BE60B014623100000030070
S2140051E019003D015D0101030210000001001400DA
S2140051F0BC020000000000000200000000000000EA
S214005200010000007478715F636C65616E000000D9
S2140052100000000000000000020000000000000087
S214005220000000007261646172000000000000006F
S2140052300000000020000000FC481E0000491E0080
S21400524004491E0008491E000C491E0010491E0095
S21400525014491E0018491E001C491E0020491E0045
S21400526024491E0028491E002C491E0030491E00F5
S21400527034491E0038491E003C491E0040491E00A5
S21400528044491E0048491E004C491E0050491E0055
S21400529054491E0058491E00FC901E005C491E0022
S2140052A060491E0064491E0068491E006C491E00C5
S2140052B070491E006C481E0074491E0078491E0086
S2140052C07C491E0080491E0084491E0088491E0035
S2140052D08C491E0090491E0094491E0098491E00E5
S2140052E09C491E00B0791E00A0491E00A4491E005D
S2140052F0A8491E00AC491E00B0491E00B4491E0055
S214005300B8491E00BC491E00C0491E00C4491E0004
S214005310C8491E00CC491E00D0491E00D4491E00B4
S214005320D8491E00DC491E00E0491E00E4491E0064
S214005330E8491E00EC491E00F0491E00F4491E0014
S214005340F8491E00FC491E00004A1E00044A1E00C2
S2140053501C681E00084A1E000C4A1E00104A1E004A
S214005360144A1E00184A1E001C4A1E00204A1E0030
S214005370287A1E00244A1E00284A1E005C481E008A
S2140053802C4A1E00304A1E00344A1E00384A1E00B0
S21400539064481E003C4A1E00404A1E00444A1E0046
S2140053A0484A1E004C4A1E00504A1E00544A1E0020
S2140053B0584A1E005C4A1E00604A1E00644A1E00D0
S2140053C0684A1E006C4A1E00704A1E00744A1E0080
S2140053D0784A1E007C4A1E00804A1E00844A1E0030
S2140053E0884A1E008C4A1E00904A1E00944A1E00E0
S2140053F0984A1E009C4A1E00A04A1E00A44A1E0090
S214005400A84A1E00AC4A1E00F0A31E00B04A1E00AA
S214005410B44A1E00B84A1E00BC4A1E00C04A1E00FF
S214005420C44A1E00C84A1E00CC4A1E00D04A1E00AF
S214005430D44A1E00D84A1E00DC4A1E00E04A1E005F
S214005440E44A1E00E84A1E00EC4A1E00F04A1E000F
S214005450F44A1E00F84A1E00FC4A1E00004B1E00BE
S214005460044B1E00084B1E000C4B1E00104B1E006B
S214005470144B1E00184B1E001C4B1E00204B1E001B
S214005480244B1E00284B1E002C4B1E00304B1E00CB
S214005490344B1E00384B1E003C4B1E00404B1E007B
S2140054A0444B1E00484B1E004C4B1E00504B1E002B
S2140054B0544B1E00584B1E005C4B1E00604B1E00DB
S2140054C0644B1E00684B1E006C4B1E00704B1E008B
S2140054D0744B1E00784B1E007C4B1E00804B1E003B
S2140054E0844B1E00884B1E008C4B1E00904B1E00EB
S2140054F0944B1E00984B1E009C4B1E00A04B1E009B
S214005500FF000000332000003F190C043F180C0277
S2140055102A160A76700000003F190C00740000007E
S2140055202A1600002C000000332000003F190C044F
S2140055303F180C022A160A76700000003F190C006D
S214005540740000002A1600002C0000003320000023
S2140055503F190C043F180C002A160A76700000004B
S2140055603F190C7D720000002A1600002C00000077
S214005570332000003F190C043F180C002A160A7648
S214005580700000003F190C7B6E0000002A16000019
S2140055902C000000332000003F190C043F180C00BC
S2140055A02A160A76700000003F190C7B6E00000079
S2140055B02A1600002C000000332000003F190C03C0
S2140055C03F180C002A160A76700000003F190C7B64
S2140055D06E0000002A1600002C00000000000000EC
S2140055E000000000000000000000000000000000B6
S2140055F000000000000000000000000000000000A6
S2140056000000000000000000000000000000000095
S2140056100000000000000000000000000000000085
S2140056200000000000000000000000000000000075
S2140056300000000000000000000000000000000065
S21400564000000000000000002A2A000036180A00A9
S2140056503F180B783F180B78730000003F180A7845
S214005660730000002A5800002C0000002A2A0000C0
S21400567036180A003F180B783F180B7873000000A6
S2140056803F180A78730000002A5800002C0000001B
S2140056902A2A000036180A793F180B723F180B7238
S2140056A0730000003F180A72730000002A580000BA
S2140056B02C0000002A2A000036180A793F180B72C0
S2140056C03F180B72730000003F180A727300000048
S2140056D02A5800002C0000002A2A000036180A79F2
S2140056E03F180B723F180B72730000003F180A72C7
S2140056F0730000002A5800002C0000002A2A000030
S21400570036180A793F180B723F180B7273000000A8
S2140057103F180A72730000002A5800002C00000090
S2140057202A2A000036180A773F180B6D3F180B6BB5
S214005730730000003F180A64730000002A58000037
S2140057402C0000002A2A000036180A793F180B722F
S2140057503F180B72730000003F180A7273000000B7
S2140057602A5800002C0000002A2A000036180A7763
S2140057703F180B6D3F180B6B730000003F180A6450
S214005780730000002A5800002C00000000040000EF
S2140057901B190C040C0C0C022A160A76700000006A
S2140057A015150C00740000002A1600002C000000DE
S2140057B0020A00001B190C040C0C0C022A160A76AE
S2140057C07000000015150C00740000002A1600007A
S2140057D02C000000000400001B190C040C0C0C002C
S2140057E02A160A767000000015150C7D720000005F
S2140057F02A1600002C000000000400001B190C04F0
S2140058000C0C0C002A160A767000000015150C7B8E
S2140058106E0000002A1600002C00000000040000A5
S2140058201B190C040C0C0C002A160A7670000000DB
S21400583015150C7B6E0000002A1600002C000000D8
S214005840000600001B190C030C0C0C002A160A7626
S2140058507000000015150C7B6E0000002A16000074
S2140058602C00000000000000000000000000000007
S2140058700000000000000000000000000000000023
S2140058800000000000000000000000000000000013
S2140058900000000000000000000000000000000003
S2140058A000000000000000000000000000000000F3
S2140058B000000000000000000000000000000000E3
S2140058C000000000000000000000000000000000D3
S2140058D02A2A00000909090006060678080808783A
S2140058E07300000006060678730000002A580000C1
S2140058F02C0000002A2A000009090900060606787E
S2140059000808087873000000060606787300000092
S2140059102A5800002C0000002A2A000009090979EC
S214005920060606720808087273000000060606726D
S214005930730000002A5800002C0000002A2A0000ED
S214005940090909790606067208080872730000003D
S21400595006060672730000002A5800002C0000009D
S2140059602A2A00000909097906060672080808723C
S2140059707300000006060672730000002A58000036
S2140059802C0000002A2A000009090979060606727A
S214005990080808727300000006060672730000000E
S2140059A02A5800002C0000002A2A0000050505776A
S2140059B00404046D0404046B730000000202026415
S2140059C0730000002A5800002C0000002A2A00005D
S2140059D009090979060606720808087273000000AD
S2140059E006060672730000002A5800002C0000000D
S2140059F02A2A0000050505770404046D0404046BD8
S214005A007300000002020264730000002A580000BF
S214005A102C000000332000003F190C023F180C0039
S214005A202A160A76700000003F190C00700000006D
S214005A302A1600002C000000332000003F190C023C
S214005A403F180C002A160A76700000003F190C005A
S214005A50700000002A1600002C0000003320000012
S214005A603F190C023F180C7F2A160A7670000000B9
S214005A703F190C7F6A0000002A1600002C00000068
S214005A80332000003F190C023F180C7E2A160A76B7
S214005A90700000003F190C7C6A0000002A16000007
S214005AA02C000000332000003F190C023F180C7F2A
S214005AB02A160A76700000003F190C7F6A00000064
S214005AC02A1600002C000000332000003F190C02AC
S214005AD03F180C002A160A76700000003F190C7E4C
S214005AE06C0000002A1600002C00000000000000D9
S214005AF000000000000000000000000000000000A1
S214005B000000000000000000000000000000000090
S214005B100000000000000000000000000000000080
S214005B200000000000000000000000000000000070
S214005B300000000000000000000000000000000060
S214005B400000000000000000000000000000000050
S214005B5000000000000000002A2A00002A1606792D
S214005B602A1606742A1606706C0000002A160668A6
S214005B70720000002A5800002C0000002A2A0000AC
S214005B802A16067B2A1606762A1606706C00000071
S214005B902A160668720000002A5800002C00000032
S214005BA02A2A00002A16067B2A1606762A16067069
S214005BB06C0000002A160668720000002A580000D2
S214005BC02C0000002A2A00002A1606782A160670DC
S214005BD02A1606686C0000002A160660720000008E
S214005BE02A5800002C0000002A2A00002A160677F1
S214005BF02A16066E2A16066C6C0000002A16066028
S214005C00720000002A5800002C0000002A2A00001B
S214005C102A1606782A1606722A1606706C000000E7
S214005C202A160664720000002A5800002C000000A5
S214005C302A2A00002A1606742A1606622A160664FF
S214005C406C0000002A160664720000002A58000045
S214005C502C0000002A2A00002A1606782A16067249
S214005C602A1606706C0000002A16066872000000ED
S214005C702A5800002C0000002A2A00002A16067067
S214005C802A16066A2A16066C6C0000002A16066497
S214005C90720000002A5800002C00000004030000D8
S214005CA005050502000000002A160A7670000000AE
S214005CB003030300700000002A1600002C000000FA
S214005CC00A0A000005050502000000002A160A76EA
S214005CD07000000003030300700000002A16000096
S214005CE02C00000004060000050505020000007FE9
S214005CF02A160A76700000000303037F6A0000007D
S214005D002A1600002C000000040600000505050207
S214005D100000007E2A160A76700000000303037C4B
S214005D206A0000002A1600002C000000040600008E
S214005D30050505020000007F2A160A76700000009E
S214005D400303037F6A0000002A1600002C000000F0
S214005D50040A000005050502000000002A160A765F
S214005D60700000000303037E6C0000002A1600008B
S214005D702C000000000000000000000000000000F2
S214005D80000000000000000000000000000000000E
S214005D9000000000000000000000000000000000FE
S214005DA000000000000000000000000000000000EE
S214005DB000000000000000000000000000000000DE
S214005DC000000000000000000000000000000000CE
S214005DD000000000000000000000000000000000BE
S214005DE02A2A0000030303790202027401010170EB
S214005DF06C0000007D7D7D68720000002A5800005F
S214005E002C0000002A2A00000303037B020202760D
S214005E10010101706C0000007D7D7D68720000004D
S214005E202A5800002C0000002A2A00000303037BE7
S214005E3002020276010101706C0000007D7D7D6823
S214005E40720000002A5800002C0000002A2A0000D9
S214005E500303037802020270010101686C0000006F
S214005E607D7D7D60720000002A5800002C00000036
S214005E702A2A0000030303770202026E0101016C66
S214005E806C0000007D7D7D60720000002A580000D6
S214005E902C0000002A2A0000030303780202027284
S214005EA0010101706C0000007D7D7D6472000000C1
S214005EB02A5800002C0000002A2A0000030303745E
S214005EC002020262010101646C0000007D7D7D64B7
S214005ED0720000002A5800002C0000002A2A000049
S214005EE00303037802020272010101706C000000D5
S214005EF07D7D7D68720000002A5800002C0000009E
S214005F002A2A0000030303700202026A0101016CE0
S214005F106C0000007D7D7D64720000002A58000041
S214005F202C00000000000000000000000000000040
S214005F30000000000000000000000000000000005C
S214005F40000000000000000000000000000000004C
S214005F50000000000000000000000000000000003C
S214005F60000000000000000000000000000000002C
S21400643000000000010000009A9939400000C03FAB
S214006440010000002C0100000A000000010000000E
S214006450000360280000000003000000DC9609200E
S2140064603463002000000000DC96092044970920D1
S214006470AC970920000000000000000000000000AB
S2140064800000000000000000000000000000000007
S21400649000000000000000000000000000000000F7
S2140064A000000000000000000000000000000000E7
S2140064B04300000000000000000000000000000094
S2140064C000000000000000000000000000000000C7
S2140064D04300000000000000000000000000000074
S2140064E000000000000000000000000000000000A7
S2140064F04300000000000000000000000000000054
S2140065000000000000000000000000000000000086
S2140065104300000000000000000000000000000033
S2140065200000000000000000000000000000000066
S2140065304300000000000000000000000000000013
S2140065400000000000000000000000000000000046
S21400655043000000000000000000000000000000F3
S2140065600000000000000000000000000000000026
S21400657043000000000000000000000000000000D3
S2140065800000000000000000000000000000000006
S214006590DFEC1600ABEC1600000000003CEE1E0020
S2140065A008091C002A021C002A021C002A021C00E1
S2140065B02A021C002A021C002A021C002A021C00B6
S2140065C02A021C002A021C00FFFFFFFFFFFFFFFF3E
S2140065D0FFFFFFFFFFFF0000010041534349490052
S2140065E000000000000000000000000000000000A6
S2140065F0000000000000000000004153434949002D
S2140066000000000000000000000000000000000085
S21000661000000000000000000000000079
S21400661C0000000000000000000000000000000069
S21400662C0000000000000000000000000000000059
S20800663C0000000055
S208006640AAAAAAAAA9
S205006644FF51
S2140066600348044B834202D0034B03B118477047DC
S214006670EC640020EC64002000000000064B074994
S214006680C91A891048BF0131491003D0044B0BB119
S21400669001481847704700BFEC640020EC640020F7
S2140066A00000000010B5064C237843B9FFF7D8FF6A
S2140066B0044B13B10448AFF300800123237010BDD0
S2140066C080A30420000000003001000008B5054B40
S2140066D01BB105490548AFF30080BDE80840FFF749
S2140066E0CDBF00BF0000000084A3042030010000DE
S2140066F0A3F5803A704700BF174B002B08BF134B1B
S2140067009D46FFF7F5FF00218B460F461348144AB7
S214006710121A64F129FA0E4B002B00D098470D4B45
S214006720002B00D098470020002104000D000D48E3
S214006730002802D00C48AFF3008064F1D1FE2000A0
S21400674029002FF0FDF961F19BFE00BF0000080054
S21400675000000000000000001875002080A3042040
S2140067602098092000000000000000000369C268AD
S21400677093429CBF81685B18013B981A70472DE9CD
S214006780F0410546D0E902844068A8EB040696422C
S21400679020440F46144406D964F1EAFEBFF35F8F27
S2140067A0EC60BDE8F0813246A4EB080464F1E0FE3C
S2140067B022466868B919EFE72DE9F8430646894688
S2140067C017464FF00008C5683369B4689D4228BF75
S2140067D01B19641BBC4228BF3C46013B5B1B9C420A
S2140067E028BF1C46706849462246284464F1C0FE0D
S2140067F0B3682544AB4208BF0025A044A1443F1B14
S214006800BFF35F8FF560002FDED14046BDE8F8830A
S214006810032310B5134C144923616361134BA16124
S214006820E3614FF48063022223620023A362636263
S214006830E26221660E49E01D61668021A1660D496F
S2140068402367E366626764F17DFEBFF35F8F0A49E4
S214006850204664F177FEBFF35F8F2023A371BFF35A
S2140068605F8F10BD1CA8042010FF16001CA4042077
S2140068709CA3042019FF16001DFF1600F8B5182764
S21400688000FB0775124B0E461D4407FB0033DB6A00
S2140068901446012B0AD0022B14D023B92846FFF742
S2140068A065FF844208D900242046F8BD2846FFF735
S2140068B05DFF844228BF0446224631462846FFF73D
S2140068C05EFFF1E72846BDE8F840FFF775BF00BF5A
S2140068D01CA80420F8B50B4B04461B780D4616463C
S2140068E00BB9FFF795FFEFF311874FF0200181F307
S2140068F01188324629462046FFF7C0FF87F31188E5
S214006900F8BD00BF1CA804202DE9F041164C1E4619
S21400691023780546884617460BB9FFF779FF2369A3
S214006920AB421DD9EFF3118C4FF0200181F3118893
S21400693065B1182005FB000344F80380E218002325
S214006940576000FB0542166293625362182303FBEE
S2140069500544069BE3628CF311880020BDE8F081B5
S2140069604FF0FF30FAE700BF1CA8042010B582687D
S21400697004464068531C834205D820688154A360AF
S214006980E3680133E360D4E901329A420BD121680F
S2140069902069FFF79FFFA368984215BF4FF0FF33AB
S2140069A00023E360A36010BD2DE9F84F16460546A8
S2140069B088460A464FF0010A9946DDE90A43B24284
S2140069C012D2CA4538BFCA4613F0010B01D184B9AA
S2140069D00024EB68002B3CDB0127B9F1010F1ED920
S2140069E009F1FF397743F8E7B2FBF6F20AF1010A3C
S2140069F0E5E79B0711D5B9F1000F0CBF302720271C
S214006A00A245E6D239462846FFF7B0FFEB68013CC0
S214006A10002BDEDB002CF3D1DAE72027F0E7B8FB0B
S214006A20F7F39E42DED9DFF84890B8FBF7F3284626
S214006A3019F9031007FB1388FFF798FFEB68002B84
S214006A4003DBB742B7FBF6F305D2BBF1000F00D06D
S214006A505CB9BDE8F88F1F46E7E720212846FFF718
S214006A6085FFEB68013C002BF3DB5445F5D8F0E7D7
S214006A7060181C002DE9F04F00230E4640211546F5
S214006A809BB0CDE90613CDE908300DF1280A039036
S214006A90CDF814A016F9011B39B9089D002D00F396
S214006AA0118108981BB0BDE8F08F252940F0BD8005
S214006AB04FF0000B314611F9013B2D2B19D013DC9A
S214006AC0232B1DD02B2B18D00024314611F9013B67
S214006AD0A3F13000C0B2092815D80A2202FB0433FD
S214006AE00E46A3F13004F0E7302BEDD14BF0020B4D
S214006AF001E04BF0010B0E46DCE74BF0040BFAE727
S214006B004BF0080BF7E72E2B12D10E464FF000097C
S214006B104FF00A0C304610F9011BA1F13007FFB206
S214006B20092F07D80CFB09110646A1F13009F1E739
S214006B304FF00009304610F9011B21F00407682FBA
S214006B400646F8D0782909DC6F290BDC632967D064
S214006B5020DC252969D0582900F09480089B002B5A
S214006B6098DA9AE770390829F8D801A050F821F089
S214006B70B56C00005D6B00005D6B0000956C00005E
S214006B805D6B0000736C00005D6B00005D6B0000C9
S214006B90856C00006429E1D129684FF00108081DC2
S214006BA028600A200F6887EAE771A1EBE7710929D8
S214006BB03FDCC84538BFC8462CB1002F02DB1BF0AF
S214006BC0040F00D0013C1BF0020F02D0B9F1000FF9
S214006BD004D01BF0010F01D184BB002408990029C2
S214006BE0BCDB002F35DA2D217F4205A8FFF7BEFE5D
S214006BF008990029B2DB0BF00301022904D1B9F190
S214006C00000F01D154BB002408990029A6DB4B468F
S214006C100A223946CDE9004B05A8FFF7C5FE9DE7D9
S214006C202B681A1D2A6093F9001005A8FFF79EFE30
S214006C3094E7B1FBF0F108F10108B8E74445CDD977
S214006C40202105A8FFF792FE0899013C0029C3DA27
S214006C50C4E71BF0040FCED02B21C6E74445D3D99A
S214006C60302105A8FFF782FE0899013C0029C9DA01
S214006C70CAE74B460A222968081D2860CDE9004B62
S214006C800968C9E74B462968081D2860CDE9004B0E
S214006C901022F5E72B681A1D2A601C6814F9011BE0
S214006CA000293FF45BAF05A8FFF760FE089B002BAA
S214006CB0F4DA53E7296800220B1D2B600823CDE980
S214006CC00032E5E7079C24B1224651460398FFF7B9
S214006CD001FE2C440894E4E60EB403B503AB53F867
S214006CE0041B01AA0193FFF7C5FE02B05DF804EB92
S214006CF003B070477FB50D461446134E03A889F0BF
S214006D0027FC31460020FFF7E7FF10490020FFF779
S214006D10E3FF2A460E490020FFF7DEFF9DF80D3000
S214006D209DF80F2000930B499DF80E300020FFF7CA
S214006D30D3FF31460020FFF7CFFF2246064900204A
