S023000058706C6F7265725F5765617261626C655F576966695F72613677312E7372656395
S214000000A074002061440600812F0A089D2F0A086C
S21400001033250600512506006F250600E92F0A083D
S214000020000000000000000000000000E1D7030010
S2140000304D4406000000000071D70300291A0A0884
S21400004000000000D1A20000A16F0500A16F05000E
S214000050000000002D8805000000000000000000E1
S214000060000000000000000000000000000000008B
S214000070000000000000000000000000D1A2000008
S214000080D1A20000000000000000000000000000F8
S214000090000000000000000000000000000000005B
S2140000A0000000000000000000000000000000004B
S2140000B0D1A2000000000000D1A20000112D0A0805
S2140000C0212D0A08D1A20000D1A20000D1A2000072
S2140000D041150A08D1A20000D1A20000D1A200005A
S2140000E005280A08818F0500818F0500D1A200002F
S2140000F09DD8110000000000ED681200000000000E
S214000100ED681200A1371200113D0A08E9DE120060
S21400011075E01200E5151300000000000000000066
S21400012000000000000000000000000000000000CA
S214000130080000000000803F0000000000000000F3
S21400014000000000746573743130315F323467002C
S214000150000000000000000000000000000000009A
S214000160000000000B0376686F7273653233000080
S214000170000000000000000000000000000000007A
S214000180000000000000000000000000000000006A
S214000190000000000000000000000000000000005A
S2140001A0000000000000000000000000000000004A
S2140001B0000000000000000000000000000000003A
S2140001C0000000000000000000000000000000002A
S2140001D0000000000000000000000000000000001A
S2140001E00000000000000800000000000000000101
S2140001F0C01E0620CC0000201C3800200000000294
S214000200000000010001000000000000A5FF04003F
S21400021068010020E8000020000101010000000045
S214000220F4000020010000005C01002058010020BE
S214000230520100205001002048010020400100200B
S2140002403C01002038010020300100202801002059
S2140002502401002038FF000000000000000000001D
S2140002600000000000000000000801000000000080
S2140002703200200000000100050000010000000020
S214000280000600000000000000200500EB00FFA8AC
S214000290060101010100000020000000001000001F
S2140002A052000000008000005200000000800000A5
S2140002B0D8000000FFFFFFFF201E06206830190050
S2140002C0345D190000000000000000009C31190099
S2140002D000000000C0000020D83119003832190094
S2140002E0D01100200000000000000000C011002017
S2140002F000000000000000000000000000000000F9
S21400030000000000000000000000000000000000E8
S21400031000000000000000000000000000000000D8
S21400032000000000000000000000000000000000C8
S2140012F0B01E0620D8301900345D19000D0C000011
S214001300A81F0620DC110020B48119000000000090
S214001310543119001A0000002B0000001832062075
S214001320B432190070821900FFFFFFFF0C12002074
S2140013300000000000000000000000002C33062023
S214001340D4320620FFFFFFFF7C3206202432062020
S21400135000000000E43219001A0000002B00000014
S21400136020000000A5F3000089F300007C4219006D
S21400137010000000C15A18000D000000131F1500D1
S2140013800800000037E11500080000002C221500B8
S214001390080000002B1F150008000000F26A140069
S2140013A0080000003D1F150008000000491F15003A
S2140013B0080000005B1F1500080000006F1F1500E6
S2140013C008000000851F1500080000009B1F150080
S2140013D008000000AE1F150087000000B61F1500AD
S2140013E087000000BE1F150008000000361F15000D
S2140013F008000000CB1F150008000000D21F1500D3
S21400140008000000DE1F150008000000EA1F150097
S2140014108B000000F61F15008B000000182015003A
S2140014202B000000262015002B00000002201500CF
S2140014303B0000000B20150008000000F66A1400B0
S21400144008000000342015000800000043201500A6
S214001450080000004F2015008B00000057201500E4
S2140014608B0000005F20150034000000712015007E
S2140014701C0000008120150008000000A4201500B4
S21400148008000000922015001C000000B320150084
S21400149008000000BE20150008000000C920150046
S2140014A027000000D620150027000000E3201500C6
S2140014B027000000F120150027000000FF2015007F
S2140014C0270000000A21150027000000152115003E
S2140014D0270000001C2115002700000025641400CA
S2140014E00800000023211500270000002E2115000B
S2140014F02700000039211500080000004E211500C5
S214001500080000005B21150008000000036B1400B3
S21400151008000000176B140007010000296B140078
S21400152008000000326B14003F000000426B1400FD
S2140015303F000000526B140077000000626B14003E
S2140015403F0000006F83140008000000988314001A
S21400155008000000726B14001D000000796B140078
S21400156060000000836B1400C0000000916B140044
S214001570C00000009F6B1400C0000000AD6B14009C
S214001580C0000000BB6B1400C0000000C96B140054
S214001590C0000000D76B1400C0000000E56B14000C
S2140015A029000000F46B140008000000096C140009
S2140015B087000000156C1400080000001F6C140063
S2140015C008000000286C140087000000376C140028
S2140015D087000000476C140087000000576C14005A
S2140015E087000000676C140087000000776C14000A
S2140015F0080000008A6C140087000000996C140034
S21400160008000000A26C140008000000B36C140070
S21400161008000000BD6C140087000000CB6C1400AE
S21400162047010000D96C140087000000E96C140024
S21400163087000000F76C140008000000056D140019
S21400164008000000186D140008000000246D140047
S21400165057000000316D1400570000003E6D140066
S21400166008000000506D1400370000005F6D140085
S214001670370000006E6D1400370000007D6D14000A
S214001680870000008A6D1400080000009D6D14009D
S214001690AF000000AC6D140008000000BE6D140022
S2140016A008000000D06D140008000000E26D140071
S2140016B008000000EF6D140008000000036E140020
S2140016C008000000116E140008000000246E1400CC
S2140016D008000000376E140037000000476E140044
S2140016E037000000576E140037000000676E1400C5
S2140016F087000000756E140008000000826E14005B
S214001700080000008E6E1400080000009F6E140093
S21400171008000000B06E140037000000BE6E140013
S21400172037000000CC6E140037000000DA6E14009C
S21400173087000000E66E140008000000F46E140037
S21400174008000000FD6E140008000000086F14007A
S21400175007020000106F14001D0000004E6F1400FA
S214001760270000005D6F14001D0000001C6F1400B1
S2140017701D0000002B6F140027000000396F1400B6
S2140017801D000000496F140027000000586F140069
S2140017901D000000696F140001020000726F140043
S2140017A0010200007A6F1400080000008A6F14001F
S2140017B0080000009A6F140008000000AA6F1400CA
S2140017C008000000BA6F140008000000CA6F14007A
S2140017D008000000DA6F140008000000EA6F14002A
S2140017E008000000FA6F1400080000000A701400D9
S2140017F0080000001A701400080000002C70140086
S214001800080000003E70140008000000507014002D
S21400181008000000627014000800000074701400D5
S214001820080000008670140008000000987014007D
S21400183008000000AA70140008000000BC70140025
S21400184008000000CE70140008000000E0701400CD
S21400185008000000F2701400080000000471140074
S214001860080000001671140008000000287114001B
S214001870080000003A711400080000004C711400C3
S214001880080000005E71140008000000707114006B
S2140018900800000082711400080000009771140010
S2140018A008000000AC71140008000000C1711400AC
S2140018B008000000D671140008000000EB71140048
S2140018C008000000007214000800000015721400E2
S2140018D0080000002A721400080000003F7214007E
S2140018E008000000547214006300000068721400C0
S2140018F0630000007C721400630000009072140005
S21400190063000000A472140063000000B8721400A4
S21400191063000000CC72140063000000E072140044
S21400192063000000F47214006300000008731400E3
S214001930630000001C7314000800000030731400DD
S21400194008000000447314000800000058731400D8
S214001950080000006C731400080000008073140078
S214001960080000009473140008000000A873140018
S21400197008000000BC73140008000000D0731400B8
S21400198008000000E473140008000000F57314005B
S2140019900800000006741400080000001874140004
S2140019A0080000002A741400080000003F741400A9
S2140019B00800000054741400470000006A74140005
S2140019C0470000008074140047000000987414005C
S2140019D047000000B074140087000000C8741400AC
S2140019E087000000E074140008000000F87414007B
S2140019F00800000010751400080000002775140089
S214001A00080000003E75140008000000557514001C
S214001A10080000006C7514000800000080751400B3
S214001A20080000009475140008000000A875140053
S214001A3008000000BC75140087000000D275140072
S214001A4087000000E875140087000000F675140093
S214001A500800000003761400080000001476140046
S214001A60870000001E7614005F0000002876140031
S214001A708700000035761400270000003C7614002E
S214001A800702000044761400080000004E7614009A
S214001A900800000059761400080000006276140062
S214001AA0080000006C7614001D0000007676140016
S214001AB00200000083761400020000008A761400FC
S214001AC0070200009576140041000000A37614007B
S214001AD008000000FEBC180008000000A9761400EC
S214001AE087000000B076140087000000B776140068
S214001AF002000000C176140002000000C876140040
S214001B00080000005F1F150008000000D1761400D2
S214001B1008000000E176140008000000F1761400CA
S214001B2019000000FD761400190000000877140064
S214001B300200000013771400020000001C77140057
S214001B404100000023771400410000002A771400AB
S214001B50410000003177140041000000387714007F
S214001B60410000003F771400410000004677140053
S214001B70410000004D771400410000005477140027
S214001B80410000005B7714004100000062771400FB
S214001B90070200006F7714008700000079771400B2
S214001BA0070400001476140047000000897714002C
S214001BB0070400009977140047000000A977140076
S214001BC0470000003C76140007020000A1771400CE
S214001BD047000000B177140047000000BC771400EF
S214001BE01D000000597614001D0000004476140005
S214001BF01D0000004E7614001D0000002B4F140040
S214001C00080000003E4F1400870000005E4F1400DE
S214001C10080000006D4F1400080000007E4F1400FE
S214001C2008000000924F140008000000A64F1400A1
S214001C3008000000B54F140008000000C74F14004D
S214001C4008000000DA4F140008000000C4771400F3
S214001C5008000000DB77140008000000F877140086
S214001C6008000000696114000800000062611400AA
S214001C7008000000446314001F00000001781400F0
S214001C80080000000B7814002700000018781400E5
S214001C902700000022781400270000002C7814008B
S214001CA02700000035781400270000003F78140055
S214001CB00800000050781400080000005A7814004D
S214001CC027000000677814002700000071781400D1
S214001CD0270000007B78140027000000847814009A
S214001CE027000000E26314000800000001641400EE
S214001CF0270000001864140027000000EB6314009F
S214001D00080000008E781400270000009A7814005F
S214001D1057000000A978140057000000B878140097
S214001D2057000000C678140008000000D57814009C
S214001D30470000004EE4140008000000E478140099
S214001D4047000000ED78140047000000F878140003
S214001D504700000003791400080000000F79140003
S214001D60080000001D791400080000002C791400FB
S214001D7008000000377914000800000044791400B9
S214001D800800000052791400080000006179140071
S214001D900800000070791400080000007B79140029
S214001DA008000000887914000800000096791400E6
S214001DB01D000000AA79140057000000A579140041
S214001DC01D000000AF79140047000000EF4015002A
S214001DD081000000BB79140047000000C67914009B
S214001DE047000000D379140047000000146F150068
S214001DF031000000E1791400070200005F201500A2
S214001E0035000000712015001D000000F079140058
S214001E1008000000037A1400080000009220150055
S214001E2008000000A420150008000000147A140022
S214001E3008000000207A1400080000000B8114003F
S214001E401D0000002F7A14001D0000003A7A1400CE
S214001E501D000000487A14001D0000005B7A140084
S214001E601D000000757A14001D000000827A140020
S214001E701D0000008E7A14001D0000009A7A1400DF
S214001E801D000000A57A14001D000000B67A14009C
S214001E901D000000C57A14001D000000BB7A140067
S214001EA013000000D57A14001D000000C27A14004A
S214001EB01D000000D27A14001D000000E97A14000C
S214001EC01D000000F57A14001D000000047B1400BD
S214001ED01D000000127B14001D0000001C7B140077
S214001EE01D0000002E7B140047000000437B1400FA
S214001EF01D000000597B14001D0000006B7B1400C1
S214001F001D000000F26A14001D000000E3801400AB
S214001F101D000000F28014001D0000006F7B1400FE
S214001F202B0000007A7B14001D0000008E7B14003E
S214001F301D0000009C7B14001D000000B07B1400F8
S214001F401D000000C77B14001D000000D47B140099
S214001F501D000000EA7B140047000000027F14000A
S214001F60470000000C7F140047000000FA7B1400B6
S214001F701D00000061811400130000001E7D140087
S214001F801D0000000B7C14001D0000001D7C1400CA
S214001F901D0000002E7C14001D000000377C14007D
S214001FA01D000000467C14001D000000517C14003B
S214001FB01D000000657C14001D0000007F7C1400DE
S214001FC01D000000967C14001D000000A37C140079
S214001FD01D000000B67C140047000000BE3015004F
S214001FE047000000AC3015001D00000087301500CB
S214001FF01D0000007F3015001D000000C77C140087
S2140020001D000000D47C14001D000000E27C1400BB
S2140020101D000000F07C14001D000000F87C140079
S21400202027000000057D14001D000000127D14002E
S2140020301D0000001A7D14001D000000317D1400F4
S2140020401D000000437D14001D000000597D140093
S21400205008000000627D14000800000062441500BD
S2140020601D000000717D14001D0000007F7D14001F
S214002070080000008D7D14001D000000C15A1800E5
S2140020800D000000957D14001D0000009D7D1400CD
S21400209008000000A87D140008000000B17D1400B0
S2140020A01D000000BF7D14001D00000090211500DB
S2140020B01D000000D17D14001D000000D87D140016
S2140020C01D000000E17D14001D000000ED7D1400E1
S2140020D007040000F67D14001D000000037E1400B7
S2140020E0080000000E7E140087000000167E140014
S2140020F008000000237E1400290000002C7E140037
S2140021001D0000003A7E14001D0000004D7E1400E5
S2140021101D000000607E14008B000000677E140027
S2140021208B000000767E14001D000000867E1400E2
S2140021300B010000967E140047000000A97E1400E4
S21400214047000000B27E140047000000BE7E140068
S2140021501D000000D07E14006B000000DC7E140022
S2140021606B000000E57E14006B000000F37E140098
S21400217043000000FF7E140047000000097F1400A3
S21400218047000000157F140007050000227F14009A
S214002190070500002F7F1400CF000000367F1400D4
S2140021A08B000000427F140047000000587F140098
S2140021B047000000697F14008B000000757F140044
S2140021C02F0000007F7F14002F000000897F14007E
S2140021D01D000000987F14003B000000A47F140040
S2140021E03B000000B07F14003B000000BC7F1400E2
S2140021F03B000000C87F140008000000D97F1400D0
S2140022001D000000E57F14001D000000F77F14008D
S21400221047000000038014001D0000001480140016
S2140022201D0000001C8014001D0000002780140004
S2140022301D0000002F8014001D0000003F801400C9
S2140022401D0000004C8014001D0000005A80140081
S2140022501D000000618014001D0000007A8014003C
S21400226008000000868014001D0000008E80140008
S2140022701D0000009E8014001D000000AF801400AA
S2140022801D000000BD80140007020000C780140077
S2140022901D000000E08014001D000000EF80140008
S2140022A01D000000FD8014001D00000008811400C1
S2140022B01D0000001D811400170000002981140075
S2140022C01D0000003E811400250000005E81140001
S2140022D01D0000006A811400470000007E81140083
S2140022E01D000000958114001D000000AE81140042
S2140022F01D000000C98114001D000000E4811400C8
S2140023001D000000FB8114001D0000000C8214005C
S2140023101D000000238214001D00000032821400FD
S2140023204700000043821400470000005782140054
S2140023301D00000072821400470000007F82140017
S2140023401D0000008C8214001D00000098821400FE
S2140023501D000000AE8214001D000000C78214009D
S2140023601D000000DF8214001D000000EE82140035
S2140023701D000000048314001D0000000E831400DE
S2140023801D0000001B8314001D000000298314009C
S2140023901D0000002F8314001D000000378314006A
S2140023A01D000000458314001D0000005583140026
S2140023B01D000000648314001D00000074831400D8
S2140023C01D000000878314001D0000009283140087
S2140023D01D0000009D8314001D000000B283140041
S2140023E01D000000C28314001D000000D3831400EB
S2140023F047000000DD8314001D000000F183140078
S2140024001D000000058414001D000000198414003F
S2140024101D000000208414001D0000002F841400FE
S2140024201D0000003B8414001D0000004C841400B6
S2140024301D000000608414001D0000007484140059
S2140024401D000000888414001D0000009C841400F9
S2140024501D000000B08414001D000000C484140099
S2140024601D000000D88414001D000000EC84140039
S2140024701D000000008514001D00000014851400D7
S2140024801D000000288514001D0000003C85140077
S2140024901D000000508514001D0000006485140017
S2140024A01D000000788514001D0000008C851400B7
S2140024B01D000000978514001D000000A285140072
S2140024C01D000000B18514001D000000C08514002A
S2140024D01D000000D68514001D000000E1851400D4
S2140024E01D000000F28514001D0000000686140082
S2140024F01D0000001D8614001D0000002D8614001F
S2140025001D000000398614001D00000045861400DA
S2140025101D000000558614001D000000658614008E
S2140025201D0000007C8614001D0000008886140034
S2140025301D0000009A8614001D000000AF861400DF
S2140025401D000000C78614001D000000D886140079
S21400255047000000E08614001D000000E786140017
S2140025601D000000F48614001D000000FE86140006
S2140025701D000000098714001D00000017871400C6
S2140025801D000000228714001D0000002A8714008A
S2140025901D000000388714001D000000448714004A
S2140025A01D000000538714001D0000005D87140006
S2140025B01D000000688714001D0000007B871400C3
S2140025C01D00000082871400080000009187140098
S2140025D01D0000009D87140008000000A887140056
S2140025E087000000B08714001D000000BD8714009F
S2140025F029000000C68714001D000000D4871400C0
S2140026001D000000E78714001D000000FA87140074
S2140026108B000000018814001D00000011881400C3
S2140026200B010000218814004700000034881400C5
S214002630470000003D881400470000004988140049
S2140026401D0000005B8814006B0000006788140003
S2140026506B000000708814006B0000007E88140079
S214002660430000008A881400470000009488140085
S21400267047000000A088140007050000AD8814007D
S21400268007050000BA881400CF000000C1881400B7
S2140026908B000000CD88140047000000E38814007B
S2140026A047000000F48814008B0000000089140026
S2140026B02F0000000A8914002F000000148914005F
S2140026C01D000000238914003B0000002F89140021
S2140026D03B0000003B8914003B00000047891400C3
S2140026E03B000000538914001D000000648914009C
S2140026F01D000000708914001D000000828914006F
S214002700470000008E8914001D0000009F891400F9
S2140027101D000000A78914001D000000B2891400E7
S21400272008000000BA8914001D000000CA891400C1
S21400273008000000D78914001D000000E589140079
S2140027401D000000EC8914001D000000058A14001E
S2140027501D000000118A14001D000000198A1400D4
S2140027601D000000298A14001D0000003A8A14008B
S2140027701D000000488A140007020000528A140058
S2140027801D0000006B8A14001D0000007A8A1400E9
S21400279008000000888A14001D000000938A1400B8
S2140027A008000000A88A140017000000B48A14006D
S2140027B01D000000C98A140025000000E98A1400E4
S2140027C01D000000F58A140047000000098B140065
S2140027D01D000000208B14001D000000398B140023
S2140027E01D000000548B14001D0000006F8B1400A9
S2140027F01D000000868B14001D000000978B14003F
S2140028001D000000AE8B14001D000000BD8B1400E0
S21400281047000000CE8B140047000000E28B140037
S2140028201D000000FD8B1400470000000A8C1400F9
S2140028301D000000178C14001D000000238C1400DF
S2140028401D000000398C14001D000000528C14007E
S2140028501D0000006A8C14001D000000798C140016
S2140028601D0000008F8C14001D000000998C1400C1
S2140028701D000000A68C14001D000000B48C14007F
S2140028801D000000BA8C14001D000000C28C14004D
S2140028901D000000D08C14001D000000E08C140009
S2140028A01D000000EF8C14001D000000FF8C1400BB
S2140028B01D000000128D14001D0000001D8D140068
S2140028C01D000000288D14001D0000003D8D140022
S2140028D01D0000004D8D14001D0000005E8D1400CC
S2140028E047000000688D14001D0000007C8D140059
S2140028F01D000000908D14001D000000A48D140023
S2140029001D000000AB8D14001D000000BA8D1400E1
S2140029101D000000C68D14001D000000D78D140099
S2140029201D000000EB8D14001D000000FF8D14003C
S2140029301D000000138E14001D000000278E1400DA
S2140029401D0000003B8E14001D0000004F8E14007A
S2140029501D000000638E14001D000000778E14001A
S2140029601D0000008B8E14001D0000009F8E1400BA
S2140029701D000000B38E14001D000000C78E14005A
S2140029801D000000DB8E14001D000000EF8E1400FA
S2140029901D000000038F14001D000000178F140098
S2140029A01D000000228F14001D0000002D8F140053
S2140029B01D0000003C8F14001D0000004B8F14000B
S2140029C01D000000618F14001D0000006C8F1400B5
S2140029D01D0000007D8F14001D000000918F140064
S2140029E01D000000A88F14001D000000B88F140002
S2140029F01D000000C48F14001D000000D08F1400BE
S214002A001D000000E08F14001D000000F08F140071
S214002A101D000000079014001D0000001390140015
S214002A201D000000259014001D0000003A901400C0
S214002A301D000000529014001D000000639014005A
S214002A40470000006B9014001D00000072901400F8
S214002A501D0000007F9014001D00000089901400E7
S214002A601D000000949014001D000000A2901400A9
S214002A701D000000AD9014001D000000B59014006D
S214002A801D000000C39014001D000000CF9014002D
S214002A901D000000DE9014001D000000E8901400E9
S214002AA01D000000F39014001D00000006911400A5
S214002AB01D0000000D91140008000000169114007F
S214002AC0080000002491140008000000359114004E
S214002AD008000000459114000800000060911400F2
S214002AE00800000070911400080000008191140096
S214002AF0080000009791140008000000AC91140034
S214002B0008000000C091140008000000D5911400D1
S214002B1008000000E491140008000000FA91140078
S214002B200800000010921400080000001D92140017
S214002B30080000002D9214000800000040921400C7
S214002B40080000004D921400080000004D631400B9
S214002B501F0000005F92140008000000739214002B
S214002B6008000000839214000800000095921400EC
S214002B7008000000A892140008000000BC92140090
S214002B8019000000C19214002100000034631400F4
S214002B9008000000CA92140008000000D292140038
S214002BA008000000DB92140008000000E392140006
S214002BB00200000010000000000060280100000075
S214002BC00400000050D8602801120F00000000002A
S214002BD0B80B00000000000000000000000000002D
S214002BE00212070000000000B80B00000000000002
S214002BF000000000000000000302050000000000C6
S214002C0000000000000000000000000000000000BF
S214002C100402030000000000B80B000000000000E3
S214002C20CC100000000000000500000000000000BE
S214002C30000000000000000000000000000000008F
S214002C4001000000F8771400FFFFFFFF01000000FE
S214002C5002000000E8030000307500006E19000056
S214002C6000C00000FA000000E1160300E8030000C0
S214002C7061390E00E8030000E5A20200E803000048
S214002C80CD8D02000A00000085900200640000005E
S214002C90057A02006400000091AB0200E803000021
S214002CA07D9B0200E803000091B20200E8030000EA
S214002CB0BD2A0E006400000051350E00F40100002D
S214002CC0ED250E0001000000FF0000007800000067
S214002CD0FFFFFF006C090000A086010064000000F2
S214002CE0000000000000000010203040506070809F
S214002CF090A0B0C00000000000000001001400001A
S214002D0000000000000000000000000000000000BE
S214002D1000000000000000000000000000000000AE
S214002D20000000000000000000000000000000009E
S214002D30000000000000000000000000000000008E
S214002D40000000000000000000000000000000007E
S214002D50000000000000000000000000000000006E
S214002D60000000000000000000000000000000005E
S214002D70000000000000000000000000000000004E
S214002D80000000000000000000000000000000003E
S214002D90000000000000000000000000000000002E
S214002DA0000000000000000000000000000000001E
S214002DB0000000000000000000000000000000000E
S214002DC000000000000000000000000000000000FE
S214002DD000000000FFFFFFFFC8000000000000002A
S214002DE00000000000000000804808203522040093
S214002DF00000000000000000900600002D2D2D2D84
S214002E002D424547494E2052534120505249564183
S214002E105445204B45592D2D2D2D2D0A4D494945FC
S214002E207041494241414B43415145417379436B9F
S214002E304F4F48527A526C4F454445543848615972
S214002E4046774D436E59705270366865706A6E37B5
S214002E505464746C5A464473787754530A694463CE
S214002E604E5832375867556243454E416E33654B70
S214002E703277646564595A6E706D48584730386EBC
S214002E804F67794A7248466F423737565A32694317
S214002E906643564D507774537675704C2F0A7457A8
S214002EA0305664656139566F684473546B416F766B
S214002EB04755577942567A65796849756A682F5436
S214002EC06F4E59346158756C49674C5953323167A7
S214002ED0556F79384761565A7953775144580A34B2
S214002EE04E632F38306E4C79486643704D55774C9C
S214002EF0364C4A30546C78643365556F6E634A447A
S214002F0037544E4D6D574C674D34586C6D35317592
S214002F1075525935426642396E584B554862690AB1
S214002F203661397330784A2B5732564B53344B53ED
S214002F306252574558785549735842365435593178
S214002F40797570344F514144497A4A484A57554F2B
S214002F504C37327657704D63385834526A42776B26
S214002F600A646148374D5636444F305A7A58447290
S214002F70756245454748346C45456673624E5974DC
S214002F8050325147447551494441514142416F497D
S214002F904241446E69594738704F687A6E416E7A7E
S214002FA06B0A2F7961446A463554554C4D4D455A47
S214002FB0723249362F66714C2F6547414F3079750E
S214002FC037394E664E69707557683865344B715997
S214002FD06535584569746A4A56545562354B654698
S214002FE077570A49797770574A797A734A30323078
S214002FF04D31666379757A77764447634A39724409
S214003000325A68506C536F62586A75475630764A23
S21400301034444C684E4D69386567497150476B6457
S2140030202B584B0A4438302B787A6A554D342B345B
S214003030486B485855795953414C376E547A492B4A
S2140030406E68396D6D3379436E7446534A734E6AB3
S214003050317452583749566A6E6A68315249533746
S2140030604D5235420A663075397856476633556292
S2140030704276654B2F52795647642F51574A616303
S2140030806B744263723357794378486B776F363484
S214003090544554756A3544334E787149726D6943A8
S2140030A068426175420A656469716F653352757866
S2140030B0507736766745332B7A336D6644644430F2
S2140030C0586235384373764E323764572F2F6575FE
S2140030D06631785A6A6A7736784C71416F335A642B
S2140030E03866414D4D450A45464455526945436745
S2140030F0594541316D582F5A304F6F4E49643353FE
S2140031006F466867354E6B516C45425362324C6E63
S2140031106133354A74716875796C504C61726A61B6
S214003120706F476A33432F0A347A30684149553600
S214003130643157334C313250313735586148724418
S21400314075413531546339626E4D702F4A7553722E
S2140031505636723543766D5A4A38314D6674596C18
S2140031604A7A6C34317A4A640A4A4966316E494C66
S214003170786C58765153397256485371494F2F30F0
S21400318064507745416B474B4A487171687957548C
S2140031904D35736833436367705179374A734C30E3
S2140031A0436759454131654B5A0A704464676B4C16
S2140031B05251676D746B57304644496B52316147C4
S2140031C0364A3667452F54706D6D535936347871CC
S2140031D045597235726E47524F627659724751584A
S2140031E04870396F442F517543480A6669566575AD
S2140031F06476757951595874304B734576304E79EC
S214003200686F4C576D416C54696A31654B456A5519
S2140032106D76487254563379644D53644549733518
S21400322070356B3677334874384B550A3459416AD3
S2140032306A46676C4C2B30784456394543366E7771
S214003240423473774E774B664270696675776B7358
S214003250704B30436759423152466A4D484A3932BC
S2140032604339706473434B73477751740A6D61300A
S21400327041726D496448726B3258554D303463560E
S2140032806A44794E51665771314C6C426D64467390
S214003290477339686B7955646D36742F77657A583D
S2140032A0482B63337663456B4E424376780A7548FF
S2140032B06950783264496A6B576C6B52774B507919
S2140032C0706C2F6139596F77444C6738716158704C
S2140032D0736976695278524D574C6C2B6756436427
S2140032E078324931334A786A794F764C61500A52BF
S2140032F0586B30644B503258784E7445455178635D
S21400330050663061514B4267514448587A7A63712F
S214003310496F70475176624A6F516231452F694254
S214003320334A783847673661774D36483175300A04
S2140033305159665944353756516B3264514876793F
S2140033405351505A53586850775A737747642F7AB8
S2140033504A4A365348594D4F653946726B4969613A
S21400336041717A7838536B594333743679673958D4
S2140033700A624D31694C506D716161624A79536AD7
S214003380776D6963457169316B4E696F7644774234
S21400339038323164486F5871346E42385857664137
S2140033A0783979793575334D734E424E4D734D529B
S2140033B06B0A4D6E386332514B42675143304F4B68
S2140033C0626F6555677A6B396930364B453643719F
S2140033D0474F3433577050444B4E472B34796C6EFE
S2140033E0436E49786A654749594C4E4B484A2B52BA
S2140033F043760A346C742B464857637763694D33BB
S2140034004A6F4E4A57536671584763717032423955
S21400341037492F59445738374C3648653453685522
S2140034206D7A76646C4147314365634771545942FF
S2140034307259420A6C63722F2B52756B577A494D3C
S21400344055434132344B65416F68654B73432B4897
S2140034504A4767345530386E577A356E394B3330B5
S2140034606B714E79612B6E7A39673D3D0A2D2D2D95
S2140034702D2D454E4420525341205052495641541A
S21400348045204B45592D2D2D2D2D0A0058040000A2
S2140034902D2D2D2D2D424547494E2043455254494A
S2140034A04649434154452D2D2D2D2D0A4D4949445D
S2140034B0426A434341653443435143673578744C0D
S2140034C03561702F4344414E42676B71686B6947A4
S2140034D03977304241517346414442464D517377E5
S2140034E0435159445651514745774A420A56544526
S2140034F0544D424547413155454341774B55323946
S214003500745A533154644746305A5445684D4238CD
S214003510474131554543677759535735305A584ACE
S214003520755A58516756326C6B5A326C300A63794A
S214003530425164486B675448526B4D423458445469
S21400354045344D4467794D5441334D7A67304D319B
S2140035506F58445449344D4467784F4441334D7A4C
S21400356067304D316F775254454C4D416B470A4199
S21400357031554542684D4351565578457A41524239
S214003580674E564241674D436C4E766257557455AA
S214003590335268644755784954416642674E5642EE
S2140035A0416F4D47456C7564475679626D56300AD3
S2140035B0494664705A47647064484D6755485235AA
S2140035C0494578305A444343415349774451594A10
S2140035D04B6F5A496876634E4151454242514144C9
S2140035E0676745504144434341516F4367674542CF
S2140035F00A414C4D6770446A683063305A546841DB
S21400360078452F42326D4263444170324B556165B6
S2140036106F587159352B3033625A575251374D63B4
S21400362045306F67334456397531344647776844BA
S214003630510A4A393369747348586E57475A365A8E
S21400364068317874504A7A6F4D696178786141655F
S2140036502B3157646F676E776C5444384C5572370D
S21400366071532F3756744658586D76566149513700
S21400367045350A414B4C786C467367566333736F17
S214003680534C6F3466303644574F476C3770534947
S214003690433245747459464B4D76426D6C57636B96
S2140036A0734541312B4458502F4E4A79386833774A
S2140036B07154460A4D432B69796445356358643323
S2140036C06C4B4A3343512B307A544A6C6934444F1E
S2140036D046355A756462726B574F515877665A3141
S2140036E0796C423234756D76624E4D53666C746CEE
S2140036F0536B75430A6B6D305668463856434C46D6
S21400370077656B2B574E63727165446B4141794DFB
S214003710795279566C44692B397231715448504647
S2140037202B455977634A4857682B7A4665677A74FB
S21400373047633177360A376D784242682B4A5242E1
S2140037404837477A574C54396B4267376B43417753
S21400375045414154414E42676B71686B6947397702
S21400376030424151734641414F4341514541574ACA
S214003770566A4933706F0A7A6A4370736672507776
S21400378031752F4B2F30414A4752704C4368764272
S214003790504D597A31312F41793249327679543841
S2140037A0616B524D2B376B6D30572F642B776979D1
S2140037B04C3059543951490A50485434674C455690
S2140037C0344B656951534150696E64744A67626749
S2140037D03257693533454247654E724457484D77F0
S2140037E0483369736C447239683239337A68557174
S2140037F05A4D6965325744620A6B704563536837A1
S214003800394441685A445A3433642F7148675765BF
S2140038107957576B7943384A4C51497A59507364F3
S214003820544A596638717137794E5A6C72374F5A06
S2140038304348586471327347380A536A45344931ED
S2140038406A34414E6B6B4A706E58367946445A5A03
S21400385047444472557A50634A525056745A7A6DA9
S21400386079744A5549627A6F54553945366E5344D1
S214003870496C764254543237336F0A39674A587661
S2140038806B55374C3463774E43416730673352523B
S214003890777971495571387A79577349654E53640B
S2140038A0717A3634454948327758345876576B56CD
S2140038B07A447A6678573736484C370A4E4F6473E0
S2140038C034613553494866465A773D3D0A2D2D2DBD
S2140038D02D2D454E442043455254494649434154B4
S2140038E0452D2D2D2D2D0A000000000000000000A3
S2140038F0000000000000000000000000D03700209C
S214003900030000C05000000000000000000000009F
S214003910F03700200000000000000100000000005A
S214003920000000000001FF070000000001760E0006
S214003930F9740E00010000000700000006000000F9
S214003940FD00000001760E00F9740E006F220A08D2
S214003950591D0A085D1D0A086B230A08B91E0A08C5
S214003960F9260A08BF270A080F250A084F1F0A0863
S214003970711F0A08611D0A08651D0A08511D0A08FC
S214003980F000000000000000000000000000000042
S214003990683800200000000004000000000000005E
S2140039A00000000000000000D4EB05206000602846
S2140039B0FF000000FFFFFFFFC40E6028740E6028A3
S2140039C0640E602824000C40CA381500D157060043
S2140039D00000000000000000B3381500CF381500C6
S2140039E000000000000000000000000000000000D2
S2140039F028161500B5620600000000000000000052
S214003A00D9381500EE381500E95F06000000000002
S214003A1001000000F638150046391500CD5F060097
S214003A2000000000000000004E3915006F7B1400F7
S214003A30B15F0600000000000000000065391500B8
S214003A4079391500955F06000000000000000000B0
S214003A5085391500A0391500A56106000000000094
S214003A6000000000AF391500F24815007961060025
S214003A700000000000000000DB391500823715004A
S214003A804D6106000000000000000000063A150028
S214003A90913715001D6106000000000001000000BF
S214003AA0213A15004F3A1500ED60060000000000B0
S214003AB0000000005B3A1500813A1500A962060076
S214003AC000000000000000008F3A15000E231700CB
S214003AD0795F06000000000000000000AA3A15000A
S214003AE0CC3A1500C160060000000000000000008F
S214003AF0DB3A1500F63A1500956006000000000057
S214003B0000000000063B1500223B150000000000E8
S214003B100000000000000000000000003F3B150011
S214003B205D5F060000000000000000002D3B150051
S214003B3069F41800415F0600000000000000000065
S214003B40443B1500803B15009D6206000000000007
S214003B50000000008C3B15004884160091620600A9
S214003B6000000000000000009C3B1500C73B15004D
S214003B70255F06000000000000000000D73B15008F
S214003B80173C1500856206000000000000000000DB
S214003B90F53B15003F3C150079620600000000006A
S214003BA0000000001D3C1500463C15006D62060036
S214003BB00000000000000000553C1500BE30150057
S214003BC0095F06000000000000000000823C1500AF
S214003BD0AC301500ED5E060000000000000000009E
S214003BE0BB3C150087301500D15E060000000000C3
S214003BF000000000CA3C15007F301500B55E0600C8
S214003C000000000000000000EC3C150046A617006F
S214003C10A56506000000000000000000F13C15004D
S214003C20DE0118002165060000000000010000000B
S214003C302A3D1500633D15009D6406000000000047
S214003C4001000000703D15008E2E17001964060056
S214003C500000000001000000A63D1500D53D15003F
S214003C60956306000000000001000000D93D150025
S214003C701B3E150061620600000000000000000008
S214003C80263E1500443E1500556206000000000062
S214003C90000000004D3E1500603E1500995E0600CF
S214003CA000000000000000006C3E15008C3E150071
S214003CB0656006000000000001000000953E15004B
S214003CC0CD3E150035600600000000000000000034
S214003CD0D63E1500063F15004962060000000000AB
S214003CE0000000000C3F15001F3F15003D62060057
S214003CF000000000000000002B3F1500473F1500A5
S214003D0000000000000000000000000000000000AE
S214003D104E3F15007D5E060000000000000000001B
S214003D20563F1500863F150005600600000000009F
S214003D30010000008E3F1500915B14003162060002
S214003D400000000000000000BA3F1500DB3F150031
S214003D50615E06000000000001000000E63F15005E
S214003D6009401500C16206000000000001000000C6
S214003D7011401500146F1500455E06000000000097
S214003D80000000004B401500AF791400295E0600C5
S214003D9000000000000000007A401500BB79140007
S214003DA00D5E060000000000000000009A401500AE
S214003DB0C6791400F15D0600000000000000000057
S214003DC0B8401500EF401500D55D06000000000065
S214003DD000000000DA401500D3791400B95D060033
S214003DE00000000000000000FC401500E17914000F
S214003DF09D5D060000000000000000002041150048
S214003E00DD5A1400815D060000000000000000007E
S214003E104641150069411500000000000000000042
S214003E200000000000000000E3801800655D06004A
S214003E3000000000000000007441150098411500C5
S214003E40495D06000000000000000000A7411500C4
S214003E50D9411500196206000000000000000000AD
S214003E60E341150064211500ED5506000000000032
S214003E7000000000F34115001942150035570600F2
S214003E800000000000000000224215006821150016
S214003E902D5D0600000000000000000037421500FF
S214003EA062421500115D06000000000000000000E0
S214003EB07142150088421500F55C060000000000FF
S214003EC00000000095421500147A1400D95C060024
S214003ED00000000000000000AE421500207A14002A
S214003EE0BD5C06000000000000000000C94215008E
S214003EF0E7421500A15C060000000000000000007C
S214003F00F242150050431500855C060000000000D4
S214003F1000000000584315006E431500695C06005B
S214003F20000000000000000076431500878318009C
S214003F304D5C060000000000000000009D431500D8
S214003F400B811400315C0600000000000000000039
S214003F50DC4315002F7A1400155C060000000000F4
S214003F6000000000044415002E441500E55B060022
S214003F7000000000000000003544150062441500F3
S214003F80C95B060000000000000000005344150056
S214003F906D44150000000000000000000000000056
S214003FA000000000C36C1700AD5B060000000000B8
S214003FB00000000074441500A14415000D620600C0
S214003FC00000000000000000AF441500C9441500C2
S214003FD0915B06000000000000000000D5441500BC
S214003FE002451500755B060000000000000000009A
S214003FF01345150048451500595B060000000000F3
S21400400000000000564515007E4515008954060040
S214004010000000000000000088451500C34515009C
S214004020016206000000000000000000CE451500FA
S214004030FC4515003D5B0600000000000000000087
S214004040044615002A461500F5610600000000002B
S214004050000000003246150047461500000000002C
S2140040600000000000000000000000004E461500A2
S214004070215B06000000000000000000544615000A
S21400408051FC1500E9610600000000000000000079
S2140040907A46150093461500055B060000000000F2
S2140040A0000000009D461500C1471500E95A0600AD
S2140040B00000000000000000CE471500A87D140098
S2140040C0CD5A06000000000000000000F84715006A
S2140040D034481500DD610600000000000000000006
S2140040E0114815002F481500D16106000000000099
S2140040F0000000003F4815005B481500B15A060056
S21400410000000000000000006F4815009F481500E2
S214004110955A06000000000000000000B448150094
S214004120E5481500795A0600CB530600000000004B
S214004130B4481500FE4815005D5A06000000000051
S214004140000000000749150042491500415A0600C4
S21400415000000000000000004E4915007B491500D5
S214004160255A060000000000000000008C491500DB
S214004170C8491500095A06000000000000000000AB
S214004180D6491500F6231800ED5906000000000079
S214004190000000008B4A150088491500D15906001A
S2140041A00000000000000000994A15000000000012
S2140041B000000000000000000000000000000000FA
S2140041C0117E140000197E140000595A160000557E
S2140041D05E140000797E140000897E140000997E2B
S2140041E0140000AC7E14000003CE150000D37E142D
S2140041F000005948160000E87E140000E34316004D
S21400420000187F140000A354140000A5081800002E
S2140042108D141600008814160000E083140000F4C5
S214004220831400000884140000327F14000046A6A1
S2140042301700002F921600005B7F140000DE0118A6
S2140042400000787F140000827F1400009B7F14001B
S21400425000A77F140000B37F140000BF7F14000087
S214004260CB7F140000E87F140000FA7F14000006DD
S21400427080140000EC8B1800006480140000F975B0
S214004280150000C080140000B280140000028518DB
S21400429000004C15160000FE811400000F8214006A
S2140042A0002682140000CA80140000A670150000C4
S2140042B0E067150000B6701500003A831400004849
S2140042C0831400002B1F150000588314000067831A
S2140042D014000077831400008A831400009583146A
S2140042E00000A083140000B583140000C5831400EA
S2140042F000D6831400000B81140000E38014000035
S214004300F28014000000811400002081140000894F
S21400431080140000918014000082821400008F82B6
S2140043201400009B82140000B182140000CA82149C
S2140043300000E282140000F18214000007831400DB
S2140043400000000000000000FFFFFFFFFFFFFFFF70
S21400435000180000B01A1800050000001F0000003A
S2140043601BF40A003FF40A00000000004FF40A00A5
S21400437057F40A005FF40A0069F40A00010000001E
S2140043805042002050420020D4C91900AAAA0300B7
S2140043900000000009020000030300001F000000E8
S2140043A000C00000D5F1130061C21300FDDF13004A
S2140043B0D1E3130095C2130029C2130031B80F00D1
S2140043C031B80F0037B80F0037B80F00CC420020C6
S2140043D001AC0F0005AC0F0002AC0F0004AC0F00E0
S2140043E000000000000000000000000000000000C8
S2140043F0000000000200080002000C0000000000A0
S21400440000000000000000000000000000000000A7
S2140044100000000000000000000000000000000097
S2140044200000000000000000000000000000000087
S2140044300000000000000000000000000000000077
S2140044400000000000000000000000000000000067
S2140044500000000000000000000000000000000057
S21400446000000000D44300207C4300200000000031
S2140044700000000000000000000000000000000037
S2140044800000000000000000000000000000000027
S2140044900000000000000000000000000000000017
S2140044A0000000000000000000000000F8440020AB
S2140044B098440020000000001C00000008000000D7
S2140044C00000010003FF00000000000000000041A3
S2140044D000010000000000000100000000000000D5
S2140044E0FEFF0000FEFF00000000000000000000CD
S2140044F000000000000000000000000001000000B6
S2140045002C440020184B00206844002000000000C7
S2140045100E0000000C0000000000010003FF000079
S2140045200000000000000041000100000000000044
S2140045300000000000000000000000000000000076
S2140045400000000000000000000000000000000066
S21400455000000000010000002C44002004000100C0
S2140045600000000000000000000000000000000046
S214004570FAFFFAFFFFFFFFFFFFFFFFFF000000004C
S2140045800000000000000000000000000000000026
S2140045900000000000000000000000000A0000000C
S2140045A000000000010000001400010000000000F0
S2140045B001000000370002000000000001000000BB
S2140045C06E00030000000000000000003C00040035
S2140045D000000000000000005A0005000000000077
S2140045E00000000078000600000000000000000048
S2140045F0B40007000000000000000000F000080003
S2140046000000000000000000680109000000000033
S21400461000000000E0010A000000000000000000AA
S2140046201C020B0000000000000000003C1400000C
S2140046300000000000000000000000001E00000057
S2140046400000000000000000000000000000000065
S2140046500000000000000000000000000000000055
S21400466000000000501400000000000000000000E1
S214004670000000001E000000000000000000000017
S2140046800000000000000000000000000000000025
S214004690000000000000000000000000641400009D
S2140046A00000000000000000000000001E000000E7
S2140046B000000000000000000000000000000000F5
S2140046C000000000000000000000000000000000E5
S2140046D00000000078140000000000000000000049
S2140046E0000000001E0000000000000000000000A7
S2140046F000000000000000000000000000000000B5
S2140047000000000000000000000000008C14000004
S2140047100000000000000000000000001E00000076
S2140047200000000000000000000000000000000084
S2140047300000000000000000000000000000000074
S21400474000000000A01400000000000000000000B0
S214004750000000001E000000000000000000000036
S2140047600000000000000000000000000000000044
S214004770000000000000000000000000B41400006C
S2140047800000000000000000000000001E00000006
S2140047900000000000000000000000000000000014
S2140047A00000000000000000000000000000000004
S2140047B000000000C8140000000000000000000018
S2140047C0000000001E0000000000000000000000C6
S2140047D000000000000000000000000000000000D4
S2140047E00000000000000000000000007C15000033
S2140047F00000000000000000000000001E00000096
S21400480000000000000000000000000000000000A3
S2140048100000000000000000000000000000000093
S21400482000000000901500000000000000000000DE
S214004830000000001E000000000000000000000055
S2140048400000000000000000000000000000000063
S214004850000000000000000000000000A41500009A
S2140048600000000000000000000000001E00000025
S2140048700000000000000000000000000000000033
S2140048800000000000000000000000000000000023
S21400489000000000B8150000000000000000000046
S2140048A0000000001E0000000000000000000000E5
S2140048B000000000000000000000000000000000F3
S2140048C0000000000000000000000000CC15000002
S2140048D00000000000000000000000001E000000B5
S2140048E000000000000000000000000000000000C3
S2140048F000000000000000000000000000000000B3
S21400490000000000E01500000000000000000000AD
S214004910000000001E000000000000000000000074
S2140049200000000000000000000000000000000082
S214004930000000000000000000000000F415000069
S2140049400000000000000000000000001E00000044
S2140049500000000000000000000000000000000052
S2140049600000000000000000000000000000000042
S2140049700000000008160000000000000000000014
S214004980000000001E000000000000000000000004
S2140049900000000000000000000000000000000012
S2140049A00000000000000000000000001C160000D0
S2140049B00000000000000000000000001E000000D4
S2140049C000000000000000000000000000000000E2
S2140049D000000000000000000000000000000000D2
S2140049E0000000003016000000000000000000007C
S2140049F0000000001E000000000000000000000094
S214004A0000000000000000000000000000000000A1
S214004A100000000000000000000000004416000037
S214004A200000000000000000000000001E00000063
S214004A300000000000000000000000000000000071
S214004A400000000000000000000000000000000061
S214004A5000000000581600000000000000000000E3
S214004A60000000001E000000000000000000000023
S214004A700000000000000000000000000000000031
S214004A80000000000000000000000000711600009A
S214004A900000000000000000000000001E000000F3
S214004AA00000000000000000000000000000000001
S214004AB000000000000000000000000000000000F1
S214004AC00000000085160000000000000000000046
S214004AD0000000001E0000000000000000000000B3
S214004AE000000000000000000000000000000000C1
S214004AF00000000000000000000000009916000002
S214004B000000000000000000000000001E00000082
S214004B100000000000000000000000000000000090
S214004B200000000000000000000000000000000080
S214004B3000000000AD1600000000000000000000AD
S214004B40000000001E000000000000000000000042
S214004B500000000000000000000000000000000050
S214004B60000000000000000000000000C116000069
S214004B700000000000000000000000001E00000012
S214004B800000000000000000000000000000000020
S214004B900000000000000000000000000000000010
S214004BA000000000D5160000000000000000000015
S214004BB0000000001E0000000000000000000000D2
S214004BC000000000000000000000000000000000E0
S214004BD0000000000000000000000000E9160000D1
S214004BE00000000000000000000000001E000000A2
S214004BF000000000000000000000000000000000B0
S214004C00000000000000000000000000000000009F
S214004C1000000000FD16000000000000000000007C
S214004C20000000001E000000000000000000000061
S214004C30000000000000000000000000000000006F
S214004C400000000000000000000000006C090000EA
S214004C500000000000000000000000001E00000031
S214004C60000000000000000000000000000000003F
S214004C70000000000000000000000000000000002F
S214004C8000000000710900000000000000000000A5
S214004C90000000001E0000000000000000000000F1
S214004CA000000000000000000000000000000000FF
S214004CB00000000000000000000000007609000070
S214004CC00000000000000000000000001E000000C1
S214004CD000000000000000000000000000000000CF
S214004CE000000000000000000000000000000000BF
S214004CF0000000007B09000000000000000000002B
S214004D00000000001E000000000000000000000080
S214004D10000000000000000000000000000000008E
S214004D2000000000000000000000000080090000F5
S214004D300000000000000000000000001E00000050
S214004D40000000000000000000000000000000005E
S214004D50000000000000000000000000000000004E
S214004D6000000000850900000000000000000000B0
S214004D70000000001E000000000000000000000010
S214004D80000000000000000000000000000000001E
S214004D900000000000000000000000008A0900007B
S214004DA00000000000000000000000001E000000E0
S214004DB000000000000000000000000000000000EE
S214004DC000000000000000000000000000000000DE
S214004DD0000000008F090000000000000000000036
S214004DE0000000001E0000000000000000000000A0
S214004DF000000000000000000000000000000000AE
S214004E000000000000000000000000009409000000
S214004E100000000000000000000000001E0000006F
S214004E20000000000000000000000000000000007D
S214004E30000000000000000000000000000000006D
S214004E4000000000990900000000000000000000BB
S214004E50000000001E00000000000000000000002F
S214004E60000000000000000000000000000000003D
S214004E700000000000000000000000009E09000086
S214004E800000000000000000000000001E000000FF
S214004E90000000000000000000000000000000000D
S214004EA000000000000000000000000000000000FD
S214004EB000000000A3090000000000000000000041
S214004EC0000000001E0000000000000000000000BF
S214004ED000000000000000000000000000000000CD
S214004EE0000000000000000000000000A80900000C
S214004EF00000000000000000000000001E0000008F
S214004F00000000000000000000000000000000009C
S214004F10000000000000000000000000000000008C
S214004F2000000000B40900000000000000000000BF
S214004F30000000001E00000000000000000000004E
S214004F40000000000000000000000000000000005C
S214004F50000000000000000000000000000000004C
S214004F60FFFF1028FFFF153C0000000000000000B7
S214004F7000000000FFFF0038FFFF1020FFFF153C79
S214004F80FFFF1020000000000000000001010100EB
S214004F900100000001000000010101000000000007
S214004FA0010000000F0000000100000001000000EA
S214004FB0000000000100000100010000F4010000F4
S214004FC000000000000000001400000000000000C8
S214004FD06400000001000000000001000000000066
S214004FE000000000000000000000000002000000BA
S214004FF000000000E17B1000197E10000000000099
S214005000C57B1000FF82100001000000DC4E00206F
S214005010DC4E0020E44E0020E44E00200500000098
S21400502007000000604F0020FC4E00200000190022
S214005030D803F80301140A10000001001900D80371
S2140050409813010C06100000020019006102981364
S21400505001100810000003002800EA00C301011830
S2140050600C10000004142800EA00040201140A10C0
S21400507000000500190078131F27032406100200FD
S2140050800600190072065C1D0330081002000000BE
S21400509000001900D803F80301140A1000000100EC
S2140050A01900D8039813010C06100000020019001E
S2140050B06102981301100810000003002800EA009F
S2140050C0C30101180C10000004032800EA00CC02FB
S2140050D00110081000000500190078131F27031E92
S2140050E0051002000600190072065C1D0330081049
S2140050F00200000004000000040000000C50002025
S214005100D44F0020000019008505A50501120910DE
S2140051100000010019001C023C02010A05100000F4
S21400512002001900C60BE60B014623100000030020
S21400513019003D015D010103021000000000190086
S2140051408505A505011209100000010019001C02C2
S2140051503C02010A0510000002001900C60BE60B0F
S214005160014623100000030019003D015D01010304
S2140051700210000001001400BC0200000000000045
S2140051800200000000000000010000007478715F5B
S214005190636C65616E000000000000000000000007
S2140051A00200000000000000000000007261646160
S2140051B07200000000000000000000002000000058
S2140051C0D4061B00D8061B00DC061B00E0061B00EE
S2140051D0E4061B00E8061B00EC061B00F0061B009E
S2140051E0F4061B00F8061B00FC061B0000071B004D
S2140051F004071B0008071B000C071B0010071B00FA
S21400520014071B0018071B001C071B0020071B00A9
S21400521024071B0028071B002C071B0030071B0059
S214005220D44E1B0034071B0038071B003C071B002E
S21400523040071B0044071B0048071B0044061B00D2
S2140052404C071B0050071B0054071B0058071B0089
S2140052505C071B0060071B0064071B0068071B0039
S2140052606C071B0070071B0074071B0088371B00A9
S21400527078071B007C071B0080071B0084071B00A9
S21400528088071B008C071B0090071B0094071B0059
S21400529098071B009C071B00A0071B00A4071B0009
S2140052A0A8071B00AC071B00B0071B00B4071B00B9
S2140052B0B8071B00BC071B00C0071B00C4071B0069
S2140052C0C8071B00CC071B00D0071B00D4071B0019
S2140052D0D8071B00DC071B00F4251B00E0071B009B
S2140052E0E4071B00E8071B00EC071B00F0071B0089
S2140052F0F4071B00F8071B0000381B00FC071B0008
S21400530000081B0034061B0004081B0008081B00CE
S2140053100C081B0010081B003C061B0014081B0092
S21400532018081B001C081B0020081B0024081B0074
S21400533028081B002C081B0030081B0034081B0024
S21400534038081B003C081B0040081B0044081B00D4
S21400535048081B004C081B0050081B0054081B0084
S21400536058081B005C081B0060081B0064081B0034
S21400537068081B006C081B0070081B0074081B00E4
S21400538078081B007C081B0080081B0084081B0094
S214005390C8611B0088081B008C081B0090081B00B7
S2140053A094081B0098081B009C081B00A0081B0004
S2140053B0A4081B00A8081B00AC081B00B0081B00B4
S2140053C0B4081B00B8081B00BC081B00C0081B0064
S2140053D0C4081B00C8081B00CC081B00D0081B0014
S2140053E0D4081B00D8081B00DC081B00E0081B00C4
S2140053F0E4081B00E8081B00EC081B00F0081B0074
S214005400F4081B00F8081B00FC081B0000091B0022
S21400541004091B0008091B000C091B0010091B00CF
S21400542014091B0018091B001C091B0020091B007F
S21400543024091B0028091B002C091B0030091B002F
S21400544034091B0038091B003C091B0040091B00DF
S21400545044091B0048091B004C091B0050091B008F
S21400546054091B0058091B005C091B0060091B003F
S21400547064091B0068091B006C091B0070091B00EF
S21400548074091B0078091B00FF0000003320000091
S2140054903F190C043F180C022A160A76700000000A
S2140054A03F190C00740000002A1600002C000000B3
S2140054B0332000003F190C043F180C022A160A7607
S2140054C0700000003F190C00740000002A1600004F
S2140054D02C000000332000003F190C043F180C007D
S2140054E02A160A76700000003F190C7D7200000034
S2140054F02A1600002C000000332000003F190C0480
S2140055003F180C002A160A76700000003F190C7B24
S2140055106E0000002A1600002C0000003320000059
S2140055203F190C043F180C002A160A76700000007B
S2140055303F190C7B6E0000002A1600002C000000AD
S214005540332000003F190C033F180C002A160A7679
S214005550700000003F190C7B6E0000002A16000049
S2140055602C0000000000000000000000000000000A
S2140055700000000000000000000000000000000026
S2140055800000000000000000000000000000000016
S2140055900000000000000000000000000000000006
S2140055A000000000000000000000000000000000F6
S2140055B000000000000000000000000000000000E6
S2140055C000000000000000000000000000000000D6
S2140055D02A2A000036180A003F180B783F180B7866
S2140055E0730000003F180A78730000002A58000075
S2140055F02C0000002A2A000036180A003F180B78F4
S2140056003F180B78730000003F180A7873000000FC
S2140056102A5800002C0000002A2A000036180A79B2
S2140056203F180B723F180B72730000003F180A7287
S214005630730000002A5800002C0000002A2A0000F0
S21400564036180A793F180B723F180B727300000069
S2140056503F180A72730000002A5800002C00000051
S2140056602A2A000036180A793F180B723F180B7268
S214005670730000003F180A72730000002A580000EA
S2140056802C0000002A2A000036180A793F180B72F0
S2140056903F180B72730000003F180A727300000078
S2140056A02A5800002C0000002A2A000036180A7724
S2140056B03F180B6D3F180B6B730000003F180A6411
S2140056C0730000002A5800002C0000002A2A000060
S2140056D036180A793F180B723F180B7273000000D9
S2140056E03F180A72730000002A5800002C000000C1
S2140056F02A2A000036180A773F180B6D3F180B6BE6
S214005700730000003F180A64730000002A58000067
S2140057102C000000000400001B190C040C0C0C02EA
S2140057202A160A767000000015150C00740000009A
S2140057302A1600002C000000020A00001B190C04A8
S2140057400C0C0C022A160A767000000015150C00C8
S214005750740000002A1600002C0000000004000060
S2140057601B190C040C0C0C002A160A76700000009C
S21400577015150C7D720000002A1600002C00000093
S214005780000400001B190C040C0C0C002A160A76E8
S2140057907000000015150C7B6E0000002A16000035
S2140057A02C000000000400001B190C040C0C0C005C
S2140057B02A160A767000000015150C7B6E00000095
S2140057C02A1600002C000000000600001B190C031F
S2140057D00C0C0C002A160A767000000015150C7BBF
S2140057E06E0000002A1600002C00000000000000DA
S2140057F000000000000000000000000000000000A4
S2140058000000000000000000000000000000000093
S2140058100000000000000000000000000000000083
S2140058200000000000000000000000000000000073
S2140058300000000000000000000000000000000063
S2140058400000000000000000000000000000000053
S21400585000000000000000002A2A000009090900D4
S214005860060606780808087873000000060606781C
S214005870730000002A5800002C0000002A2A0000AE
S214005880090909000606067808080878730000006B
S21400589006060678730000002A5800002C00000058
S2140058A02A2A0000090909790606067208080872FD
S2140058B07300000006060672730000002A580000F7
S2140058C02C0000002A2A000009090979060606723B
S2140058D008080872730000000606067273000000CF
S2140058E02A5800002C0000002A2A0000090909791D
S2140058F0060606720808087273000000060606729E
S214005900730000002A5800002C0000002A2A00001D
S214005910090909790606067208080872730000006D
S21400592006060672730000002A5800002C000000CD
S2140059302A2A0000050505770404046D0404046B98
S2140059407300000002020264730000002A58000080
S2140059502C0000002A2A00000909097906060672AA
S214005960080808727300000006060672730000003E
S2140059702A5800002C0000002A2A0000050505779A
S2140059800404046D0404046B730000000202026445
S214005990730000002A5800002C000000332000008E
S2140059A03F190C023F180C002A160A7670000000F9
S2140059B03F190C00700000002A1600002C000000A2
S2140059C0332000003F190C023F180C002A160A76F6
S2140059D0700000003F190C00700000002A1600003E
S2140059E02C000000332000003F190C023F180C7FEB
S2140059F02A160A76700000003F190C7F6A00000025
S214005A002A1600002C000000332000003F190C026C
S214005A103F180C7E2A160A76700000003F190C7C90
S214005A206A0000002A1600002C0000003320000048
S214005A303F190C023F180C7F2A160A7670000000E9
S214005A403F190C7F6A0000002A1600002C00000098
S214005A50332000003F190C023F180C002A160A7665
S214005A60700000003F190C7E6C0000002A16000033
S214005A702C000000000000000000000000000000F5
S214005A800000000000000000000000000000000011
S214005A900000000000000000000000000000000001
S214005AA000000000000000000000000000000000F1
S214005AB000000000000000000000000000000000E1
S214005AC000000000000000000000000000000000D1
S214005AD000000000000000000000000000000000C1
S214005AE02A2A00002A1606792A1606742A1606702E
S214005AF06C0000002A160668720000002A58000093
S214005B002C0000002A2A00002A16067B2A16067693
S214005B102A1606706C0000002A160668720000003E
S214005B202A5800002C0000002A2A00002A16067BAD
S214005B302A1606762A1606706C0000002A160668D4
S214005B40720000002A5800002C0000002A2A0000DC
S214005B502A1606782A1606702A1606686C000000B2
S214005B602A160660720000002A5800002C0000006A
S214005B702A2A00002A1606772A16066E2A16066CA9
S214005B806C0000002A160660720000002A5800000A
S214005B902C0000002A2A00002A1606782A1606720A
S214005BA02A1606706C0000002A16066472000000B2
S214005BB02A5800002C0000002A2A00002A16067424
S214005BC02A1606622A1606646C0000002A16066468
S214005BD0720000002A5800002C0000002A2A00004C
S214005BE02A1606782A1606722A1606706C00000018
S214005BF02A160668720000002A5800002C000000D2
S214005C002A2A00002A1606702A16066A2A16066C23
S214005C106C0000002A160664720000002A58000075
S214005C202C0000000403000005050502000000002B
S214005C302A160A76700000000303030070000000B6
S214005C402A1600002C0000000A0A000005050502BE
S214005C50000000002A160A76700000000303030006
S214005C60700000002A1600002C0000000406000049
S214005C70050505020000007F2A160A76700000005F
S214005C800303037F6A0000002A1600002C000000B1
S214005C9004060000050505020000007E2A160A76A6
S214005CA0700000000303037C6A0000002A16000050
S214005CB02C00000004060000050505020000007F19
S214005CC02A160A76700000000303037F6A000000AD
S214005CD02A1600002C000000040A00000505050234
S214005CE0000000002A160A76700000000303037EF8
S214005CF06C0000002A1600002C00000000000000C7
S214005D00000000000000000000000000000000008E
S214005D10000000000000000000000000000000007E
S214005D20000000000000000000000000000000006E
S214005D30000000000000000000000000000000005E
S214005D40000000000000000000000000000000004E
S214005D50000000000000000000000000000000003E
S214005D6000000000000000002A2A00000303037958
S214005D7002020274010101706C0000007D7D7D68E6
S214005D80720000002A5800002C0000002A2A00009A
S214005D900303037B02020276010101706C0000001F
S214005DA07D7D7D68720000002A5800002C000000EF
S214005DB02A2A00000303037B020202760101017017
S214005DC06C0000007D7D7D68720000002A5800008F
S214005DD02C0000002A2A0000030303780202027047
S214005DE0010101686C0000007D7D7D60720000008E
S214005DF02A5800002C0000002A2A0000030303771C
S214005E000202026E0101016C6C0000007D7D7D6067
S214005E10720000002A5800002C0000002A2A000009
S214005E200303037802020272010101706C00000095
S214005E307D7D7D64720000002A5800002C00000062
S214005E402A2A0000030303740202026201010164AD
S214005E506C0000007D7D7D64720000002A58000002
S214005E602C0000002A2A00000303037802020272B4
S214005E70010101706C0000007D7D7D6872000000ED
S214005E802A5800002C0000002A2A00000303037092
S214005E900202026A0101016C6C0000007D7D7D64D7
S214005EA0720000002A5800002C00000000000000CD
S214005EB000000000000000000000000000000000DD
S214005EC000000000000000000000000000000000CD
S214005ED000000000000000000000000000000000BD
S214005EE000000000000000000000000000000000AD
S2140063B000000000000000000000000001000000D7
S2140063C09A9939400000C03F010000002C010000EF
S2140063D00A00000001000000000360280000000022
S2140063E00300000054B90920BC6200200000000031
S2140063F054B90920BCB9092024BA092000000000BD
S2140064000000000000000000000000000000000087
S2140064100000000000000000000000000000000077
S2140064200000000000000000000000000000000067
S2140064300000000000000000430000000000000014
S2140064400000000000000000000000000000000047
S21400645000000000000000004300000000000000F4
S2140064600000000000000000000000000000000027
S21400647000000000000000004300000000000000D4
S2140064800000000000000000000000000000000007
S21400649000000000000000004300000000000000B4
S2140064A000000000000000000000000000000000E7
S2140064B00000000000000000430000000000000094
S2140064C000000000000000000000000000000000C7
S2140064D00000000000000000430000000000000074
S2140064E000000000000000000000000000000000A7
S2140064F00000000000000000430000000000000054
S2140065000000000000000000000000000000000086
S2140065100000000000000000BF2A14008B2A1400B0
S214006520000000001CAC1B00BB1C1900DD15190088
S214006530DD151900DD151900DD151900DD1519002A
S214006540DD151900DD151900DD151900DD1519001A
S214006550FFFFFFFFFFFFFFFFFFFFFFFFFFFF000044
S21400656001004153434949000000000000000000BC
S2140065700000000000000000000000000000000016
S214006580000041534349490000000000000000009D
S21400659000000000000000000000000000000000F6
S2080065A000000000F2
S2140065A400000000000000000000000000000000E2
S2140065B400000000000000000000000000000000D2
S2080065C400000000CE
S2080065C8AAAAAAAA22
S2050065CCFFCA
S2140065E00348044B834202D0034B03B1184770475D
S2140065F0746400207464002000000000064B074905
S214006600C91A891048BF0131491003D0044B0BB199
S21400661001481847704700BF746400207464002067
S2140066200000000010B5064C237843B9FFF7D8FFEA
S214006630044B13B10448AFF300800123237010BD50
S21400664010EF0520000000003001000008B5054BE3
S2140066501BB105490548AFF30080BDE80840FFF7C9
S214006660CDBF00BF0000000014EF05203001000081
S214006670A3F5803A704700BF174B002B08BF134B9B
S2140066809D46FFF7F5FF00218B460F461348144A38
S214006690121A38F159F90E4B002B00D098470D4BC3
S2140066A0002B00D098470020002104000D000D4864
S2140066B0002802D00C48AFF3008038F101FE20001D
S2140066C0290003F041FE35F1CBFD00BF00000800B5
S2140066D00000000000000000A074002010EF05205D
S2140066E098BA092000000000000000000369C26894
S2140066F093429CBF81685B18013B981A70472DE94E
S214006700F0410546D0E902844068A8EB04069642AC
S21400671020440F46144406D938F11AFEBFF35F8FA3
S214006720EC60BDE8F0813246A4EB080438F110FEB8
S21400673022466868B919EFE72DE9F8430646894608
S21400674017464FF00008C5683369B4689D4228BFF5
S2140067501B19641BBC4228BF3C46013B5B1B9C428A
S21400676028BF1C46706849462246284438F1F0FD8A
S214006770B3682544AB4208BF0025A044A1443F1B94
S214006780BFF35F8FF560002FDED14046BDE8F8838B
S214006790032310B5134C144923616361134BA161A5
S2140067A0E3614FF48063022223620023A3626362E4
S2140067B0E26221660E49E01D61668021A1660D49F0
S2140067C02367E366626738F1ADFDBFF35F8F0A4962
S2140067D0204638F1A7FDBFF35F8F2023A371BFF3D8
S2140067E05F8F10BDACF30520F03C1400ACEF052025
S2140067F02CEF0520F93C1400FD3C1400F8B51827D2
S21400680000FB0775124B0E461D4407FB0033DB6A80
S2140068101446012B0AD0022B14D023B92846FFF7C2
S21400682065FF844208D900242046F8BD2846FFF7B5
S2140068305DFF844228BF0446224631462846FFF7BD
S2140068405EFFF1E72846BDE8F840FFF775BF00BFDA
S214006850ACF30520F8B50B4B04461B780D461646E0
S2140068600BB9FFF795FFEFF311874FF0200181F387
S2140068701188324629462046FFF7C0FF87F3118865
S214006880F8BD00BFACF305202DE9F041164C1E46BE
S21400689023780546884617460BB9FFF779FF236924
S2140068A0AB421DD9EFF3118C4FF0200181F3118814
S2140068B065B1182005FB000344F80380E2180023A6
S2140068C0576000FB0542166293625362182303FB6F
S2140068D00544069BE3628CF311880020BDE8F08136
S2140068E04FF0FF30FAE700BFACF3052010B5826822
S2140068F004464068531C834205D820688154A36030
S214006900E3680133E360D4E901329A420BD121688F
S2140069102069FFF79FFFA368984215BF4FF0FF332B
S2140069200023E360A36010BD2DE9F84F1646054628
S21400693088460A464FF0010A9946DDE90A43B24204
S21400694012D2CA4538BFCA4613F0010B01D184B92A
S2140069500024EB68002B3CDB0127B9F1010F1ED9A0
S21400696009F1FF397743F8E7B2FBF6F20AF1010ABC
S214006970E5E79B0711D5B9F1000F0CBF302720279C
S214006980A245E6D239462846FFF7B0FFEB68013C41
S214006990002BDEDB002CF3D1DAE72027F0E7B8FB8C
S2140069A0F7F39E42DED9DFF84890B8FBF7F32846A7
S2140069B019F9031007FB1388FFF798FFEB68002B05
S2140069C003DBB742B7FBF6F305D2BBF1000F00D0EE
S2140069D05CB9BDE8F88F1F46E7E720212846FFF799
S2140069E085FFEB68013C002BF3DB5445F5D8F0E758
S2140069F0132C19002DE9F04F00230E4640211546B2
S214006A009BB0CDE90613CDE908300DF1280A0390B6
S214006A10CDF814A016F9011B39B9089D002D00F316
S214006A20118108981BB0BDE8F08F252940F0BD8085
S214006A304FF0000B314611F9013B2D2B19D013DC1A
S214006A40232B1DD02B2B18D00024314611F9013BE7
S214006A50A3F13000C0B2092815D80A2202FB04337D
S214006A600E46A3F13004F0E7302BEDD14BF0020BCD
S214006A7001E04BF0010B0E46DCE74BF0040BFAE7A7
S214006A804BF0080BF7E72E2B12D10E464FF00009FD
S214006A904FF00A0C304610F9011BA1F13007FFB287
S214006AA0092F07D80CFB09110646A1F13009F1E7BA
S214006AB04FF00009304610F9011B21F00407682F3B
S214006AC00646F8D0782909DC6F290BDC632967D0E5
S214006AD020DC252969D0582900F09480089B002BDB
S214006AE098DA9AE770390829F8D801A050F821F00A
S214006AF0356C0000DD6A0000DD6A0000156C0000E1
S214006B00DD6A0000F36B0000DD6A0000DD6A00004D
S214006B10056C00006429E1D129684FF00108081DC2
S214006B2028600A200F6887EAE771A1EBE771092958
S214006B303FDCC84538BFC8462CB1002F02DB1BF02F
S214006B40040F00D0013C1BF0020F02D0B9F1000F79
S214006B5004D01BF0010F01D184BB00240899002942
S214006B60BCDB002F35DA2D217F4205A8FFF7BEFEDD
S214006B7008990029B2DB0BF00301022904D1B9F110
S214006B80000F01D154BB002408990029A6DB4B4610
S214006B900A223946CDE9004B05A8FFF7C5FE9DE75A
S214006BA02B681A1D2A6093F9001005A8FFF79EFEB1
S214006BB094E7B1FBF0F108F10108B8E74445CDD9F8
S214006BC0202105A8FFF792FE0899013C0029C3DAA8
S214006BD0C4E71BF0040FCED02B21C6E74445D3D91B
S214006BE0302105A8FFF782FE0899013C0029C9DA82
S214006BF0CAE74B460A222968081D2860CDE9004BE3
S214006C000968C9E74B462968081D2860CDE9004B8E
S214006C101022F5E72B681A1D2A601C6814F9011B60
S214006C2000293FF45BAF05A8FFF760FE089B002B2A
S214006C30F4DA53E7296800220B1D2B600823CDE900
S214006C400032E5E7079C24B1224651460398FFF739
S214006C5001FE2C440894E4E60EB403B503AB53F8E7
S214006C60041B01AA0193FFF7C5FE02B05DF804EB12
S214006C7003B07047F0EE407AB1EE407AF7EE006A65
S214006C809FED080AB4EEE77AF1EE10FA02D980EE2C
S214006C90200A7047B0EC016A07EE060A37EE267A3D
S214006CA0F0E700BF00000000891A09B2002915DDD0
S214006CB09FED0C7A002300EB8202F0EC016AF2EC06
S214006CC0017A01331BB2994206EEA77AF5D107EE98
S214006CD0901AF8EEE77A87EE270A70479FED010ACA
S214006CE0704700BF000000002DE9F041146816460A
S214006CF02246B0EE406A074688461D46FFF7D4FF98
S214006D00C0EE207AF4EEC67AF1EE10FA19DB023401
S214006D10224641463846F0EE405AFFF7C5FFC0EE21
S214006D20207AF4EEC67AF1EE10FA08DBF4EEC05ADA
S214006D30F1EE10FA03DDAC42E9DD002414E0AC42CB
