S023000058706C6F7265725F5765617261626C655F576966695F72613677312E7372656395
S214000000A0740020A1440600812F0A089D2F0A082C
S2140000107325060091250600AF250600E92F0A087D
S21400002000000000000000000000000021D80300CF
S2140000308D44060000000000B1D70300291A0A0804
S2140000400000000015A30000E16F0500E16F050049
S214000050000000006D8805000000000000000000A1
S214000060000000000000000000000000000000008B
S21400007000000000000000000000000015A30000C3
S21400008015A30000000000000000000000000000B3
S214000090000000000000000000000000000000005B
S2140000A0000000000000000000000000000000004B
S2140000B015A300000000000015A30000112D0A087B
S2140000C0212D0A0815A3000015A3000015A30000A3
S2140000D041150A0815A3000015A3000015A300008B
S2140000E005280A08C18F0500C18F050015A300006A
S2140000F0DDD81100000000002D691200000000008D
S2140001002D691200E1371200113D0A0829DF12009E
S214000110B5E01200251613000000000000000000E5
S21400012000000000000000000000000000000000CA
S214000130080000000000803F0000000000000000F3
S21400014000000000746573743130315F323467002C
S214000150000000000000000000000000000000009A
S214000160000000000B0376686F7273653233000080
S214000170000000000000000000000000000000007A
S214000180000000000000000000000000000000006A
S214000190000000000000000000000000000000005A
S2140001A0000000000000000000000000000000004A
S2140001B0000000000000000000000000000000003A
S2140001C0000000000000000000000000000000002A
S2140001D0000000000000000000000000000000001A
S2140001E00000000000000800000000000000000101
S2140001F0C01E0620CC0000201C3800200000000294
S214000200000000010001000000000000A5FF04003F
S21400021068010020E8000020000101010000000045
S214000220F4000020010000005C01002058010020BE
S214000230520100205001002048010020400100200B
S2140002403C01002038010020300100202801002059
S2140002502401002038FF000000000000000000001D
S2140002600000000000000000000801000000000080
S2140002703200200000000100050000010000000020
S214000280000600000000000000200500EB00FFA8AC
S214000290060101010100000020000000001000001F
S2140002A052000000008000005200000000800000A5
S2140002B0D8000000FFFFFFFF201E0620A02E19001A
S2140002C0645B19000000000000000000D42F190035
S2140002D000000000C0000020103019007030190027
S2140002E0D01100200000000000000000C011002017
S2140002F000000000000000000000000000000000F9
S21400030000000000000000000000000000000000E8
S21400031000000000000000000000000000000000D8
S21400032000000000000000000000000000000000C8
S2140012F0B01E0620102F1900645B19000D0C0000AC
S214001300A81F0620DC110020E47F19000000000062
S2140013108C2F19001A0000002B000000183206203F
S214001320EC301900A0801900FFFFFFFF0C12002010
S2140013300000000000000000000000002C33062023
S214001340D4320620FFFFFFFF7C3206202432062020
S214001350000000001C3119001A0000002B000000DD
S21400136020000000E9F30000CDF30000AC401900B7
S21400137010000000F95818000D0000004B1D150065
S214001380080000006FDF150008000000642015004C
S21400139008000000631D1500080000002A691400FC
S2140013A008000000751D150008000000811D1500CE
S2140013B008000000931D150008000000A71D15007A
S2140013C008000000BD1D150008000000D31D150014
S2140013D008000000E61D150087000000EE1D150041
S2140013E087000000F61D1500080000006E1D1500A1
S2140013F008000000031E1500080000000A1E150065
S21400140008000000161E150008000000221E150029
S2140014108B0000002E1E15008B000000501E1500CD
S2140014202B0000005E1E15002B0000003A1E150063
S2140014303B000000431E1500080000002E69140043
S214001440080000006C1E1500080000007B1E15003A
S21400145008000000871E15008B0000008F1E150078
S2140014608B000000971E150034000000A91E150012
S2140014701C000000B91E150008000000DC1E150048
S21400148008000000CA1E15001C000000EB1E150018
S21400149008000000F61E150008000000011F1500D9
S2140014A0270000000E1F1500270000001B1F150058
S2140014B027000000291F150027000000371F150011
S2140014C027000000421F1500270000004D1F1500D2
S2140014D027000000541F1500270000005D6214005E
S2140014E0080000005B1F150027000000661F15009F
S2140014F027000000711F150008000000861F150059
S21400150008000000931F1500080000003B69140047
S214001510080000004F69140007010000616914000C
S214001520080000006A6914003F0000007A69140091
S2140015303F0000008A691400770000009A691400D2
S2140015403F000000A781140008000000D0811400AE
S21400155008000000AA6914001D000000B16914000C
S21400156060000000BB691400C0000000C9691400D8
S214001570C0000000D7691400C0000000E569140030
S214001580C0000000F3691400C0000000016A1400E7
S214001590C00000000F6A1400C00000001D6A14009E
S2140015A0290000002C6A140008000000416A14009C
S2140015B0870000004D6A140008000000576A1400F7
S2140015C008000000606A1400870000006F6A1400BC
S2140015D0870000007F6A1400870000008F6A1400EE
S2140015E0870000009F6A140087000000AF6A14009E
S2140015F008000000C26A140087000000D16A1400C8
S21400160008000000DA6A140008000000EB6A140004
S21400161008000000F56A140087000000036B140041
S21400162047010000116B140087000000216B1400B6
S214001630870000002F6B1400080000003D6B1400AC
S21400164008000000506B1400080000005C6B1400DB
S21400165057000000696B140057000000766B1400FA
S21400166008000000886B140037000000976B140019
S21400167037000000A66B140037000000B56B14009E
S21400168087000000C26B140008000000D56B140031
S214001690AF000000E46B140008000000F66B1400B6
S2140016A008000000086C1400080000001A6C140003
S2140016B008000000276C1400080000003B6C1400B3
S2140016C008000000496C1400080000005C6C140060
S2140016D0080000006F6C1400370000007F6C1400D8
S2140016E0370000008F6C1400370000009F6C140059
S2140016F087000000AD6C140008000000BA6C1400EF
S21400170008000000C66C140008000000D76C140027
S21400171008000000E86C140037000000F66C1400A7
S21400172037000000046D140037000000126D14002E
S214001730870000001E6D1400080000002C6D1400C9
S21400174008000000356D140008000000406D14000D
S21400175007020000486D14001D000000866D14008E
S21400176027000000956D14001D000000546D140045
S2140017701D000000636D140027000000716D14004A
S2140017801D000000816D140027000000906D1400FD
S2140017901D000000A16D140001020000AA6D1400D7
S2140017A001020000B26D140008000000C26D1400B3
S2140017B008000000D26D140008000000E26D14005E
S2140017C008000000F26D140008000000026E14000D
S2140017D008000000126E140008000000226E1400BC
S2140017E008000000326E140008000000426E14006C
S2140017F008000000526E140008000000646E14001A
S21400180008000000766E140008000000886E1400C1
S214001810080000009A6E140008000000AC6E140069
S21400182008000000BE6E140008000000D06E140011
S21400183008000000E26E140008000000F46E1400B9
S21400184008000000066F140008000000186F14005F
S214001850080000002A6F1400080000003C6F140007
S214001860080000004E6F140008000000606F1400AF
S21400187008000000726F140008000000846F140057
S21400188008000000966F140008000000A86F1400FF
S21400189008000000BA6F140008000000CF6F1400A4
S2140018A008000000E46F140008000000F96F140040
S2140018B0080000000E7014000800000023701400DA
S2140018C00800000038701400080000004D70140076
S2140018D00800000062701400080000007770140012
S2140018E0080000008C70140063000000A070140054
S2140018F063000000B470140063000000C870140099
S21400190063000000DC70140063000000F070140038
S21400191063000000047114006300000018711400D6
S214001920630000002C711400630000004071140076
S2140019306300000054711400080000006871140071
S214001940080000007C71140008000000907114006C
S21400195008000000A471140008000000B87114000C
S21400196008000000CC71140008000000E0711400AC
S21400197008000000F471140008000000087214004B
S214001980080000001C721400080000002D721400ED
S214001990080000003E721400080000005072140098
S2140019A0080000006272140008000000777214003D
S2140019B0080000008C72140047000000A272140099
S2140019C047000000B872140047000000D0721400F0
S2140019D047000000E872140087000000007314003F
S2140019E0870000001873140008000000307314000D
S2140019F00800000048731400080000005F7314001D
S214001A000800000076731400080000008D731400B0
S214001A1008000000A473140008000000B873140047
S214001A2008000000CC73140008000000E0731400E7
S214001A3008000000F4731400870000000A74140005
S214001A408700000020741400870000002E74140025
S214001A50080000003B741400080000004C741400DA
S214001A6087000000567414005F00000060741400C5
S214001A70870000006D7414002700000074741400C2
S214001A80070200007C74140008000000867414002E
S214001A900800000091741400080000009A741400F6
S214001AA008000000A47414001D000000AE741400AA
S214001AB002000000BB74140002000000C274140090
S214001AC007020000CD74140041000000DB7414000F
S214001AD00800000036BB180008000000E17414007F
S214001AE087000000E874140087000000EF741400FC
S214001AF002000000F97414000200000000751400D3
S214001B0008000000971D1500080000000975140065
S214001B10080000001975140008000000297514005C
S214001B2019000000357514001900000040751400F7
S214001B30020000004B7514000200000054751400EB
S214001B40410000005B75140041000000627514003F
S214001B504100000069751400410000007075140013
S214001B604100000077751400410000007E751400E7
S214001B704100000085751400410000008C751400BB
S214001B804100000093751400410000009A7514008F
S214001B9007020000A775140087000000B175140046
S214001BA0070400004C74140047000000C1751400C0
S214001BB007040000D175140047000000E17514000A
S214001BC0470000007474140007020000D975140062
S214001BD047000000E975140047000000F475140083
S214001BE01D000000917414001D0000007C74140099
S214001BF01D000000867414001D000000634D1400D4
S214001C0008000000764D140087000000964D140072
S214001C1008000000A54D140008000000B64D140092
S214001C2008000000CA4D140008000000DE4D140035
S214001C3008000000ED4D140008000000FF4D1400E1
S214001C4008000000124E140008000000FC75140086
S214001C500800000013761400080000003076140018
S214001C6008000000A15F1400080000009A5F14003E
S214001C70080000007C6114001F0000003976140084
S214001C800800000043761400270000005076140079
S214001C90270000005A76140027000000647614001F
S214001CA0270000006D7614002700000077761400E9
S214001CB008000000887614000800000092761400E1
S214001CC0270000009F76140027000000A976140065
S214001CD027000000B376140027000000BC7614002E
S214001CE0270000001A621400080000003962140081
S214001CF02700000050621400270000002362140032
S214001D0008000000C676140027000000D2761400F3
S214001D1057000000E176140057000000F07614002B
S214001D2057000000FE761400080000000D7714002F
S214001D304700000086E21400080000001C7714002C
S214001D404700000025771400470000003077140095
S214001D50470000003B771400080000004777140097
S214001D60080000005577140008000000647714008F
S214001D70080000006F771400080000007C7714004D
S214001D80080000008A771400080000009977140005
S214001D9008000000A877140008000000B3771400BD
S214001DA008000000C077140008000000CE7714007A
S214001DB01D000000E277140057000000DD771400D5
S214001DC01D000000E777140047000000273F1500BD
S214001DD081000000F377140047000000FE7714002F
S214001DE0470000000B781400470000004C6D1500FB
S214001DF0310000001978140007020000971E150035
S214001E0035000000A91E15001D00000028781400EB
S214001E10080000003B78140008000000CA1E1500E9
S214001E2008000000DC1E1500080000004C781400B6
S214001E30080000005878140008000000437F1400D3
S214001E401D000000677814001D0000007278140062
S214001E501D000000807814001D0000009378140018
S214001E601D000000AD7814001D000000BA781400B4
S214001E701D000000C67814001D000000D278140073
S214001E801D000000DD7814001D000000EE78140030
S214001E901D000000FD7814001D000000F3781400FB
S214001EA0130000000D7914001D000000FA781400DD
S214001EB01D0000000A7914001D000000217914009E
S214001EC01D0000002D7914001D0000003C79140050
S214001ED01D0000004A7914001D000000547914000B
S214001EE01D00000066791400470000007B7914008E
S214001EF01D000000917914001D000000A379140055
S214001F001D0000002A6914001D0000001B7F14003D
S214001F101D0000002A7F14001D000000A779140091
S214001F202B000000B27914001D000000C6791400D2
S214001F301D000000D47914001D000000E87914008C
S214001F401D000000FF7914001D0000000C7A14002C
S214001F501D000000227A1400470000003A7D14009D
S214001F6047000000447D140047000000327A140049
S214001F701D000000997F140013000000567B14001B
S214001F801D000000437A14001D000000557A14005E
S214001F901D000000667A14001D0000006F7A140011
S214001FA01D0000007E7A14001D000000897A1400CF
S214001FB01D0000009D7A14001D000000B77A140072
S214001FC01D000000CE7A14001D000000DB7A14000D
S214001FD01D000000EE7A140047000000F62E1500E3
S214001FE047000000E42E15001D000000BF2E15005F
S214001FF01D000000B72E15001D000000FF7A14001B
S2140020001D0000000C7B14001D0000001A7B14004D
S2140020101D000000287B14001D000000307B14000B
S214002020270000003D7B14001D0000004A7B1400C2
S2140020301D000000527B14001D000000697B140088
S2140020401D0000007B7B14001D000000917B140027
S214002050080000009A7B1400080000009A42150051
S2140020601D000000A97B14001D000000B77B1400B3
S21400207008000000C57B14001D000000F958180079
S2140020800D000000CD7B14001D000000D57B140061
S21400209008000000E07B140008000000E97B140044
S2140020A01D000000F77B14001D000000C81F15006F
S2140020B01D000000097C14001D000000107C1400A8
S2140020C01D000000197C14001D000000257C140073
S2140020D0070400002E7C14001D0000003B7C14004A
S2140020E008000000467C1400870000004E7C1400A8
S2140020F0080000005B7C140029000000647C1400CB
S2140021001D000000727C14001D000000857C140079
S2140021101D000000987C14008B0000009F7C1400BB
S2140021208B000000AE7C14001D000000BE7C140076
S2140021300B010000CE7C140047000000E17C140078
S21400214047000000EA7C140047000000F67C1400FC
S2140021501D000000087D14006B000000147D1400B4
S2140021606B0000001D7D14006B0000002B7D14002A
S21400217043000000377D140047000000417D140036
S214002180470000004D7D1400070500005A7D14002E
S21400219007050000677D1400CF0000006E7D140068
S2140021A08B0000007A7D140047000000907D14002C
S2140021B047000000A17D14008B000000AD7D1400D8
S2140021C02F000000B77D14002F000000C17D140012
S2140021D01D000000D07D14003B000000DC7D1400D4
S2140021E03B000000E87D14003B000000F47D140076
S2140021F03B000000007E140008000000117E140062
S2140022001D0000001D7E14001D0000002F7E14001F
S214002210470000003B7E14001D0000004C7E1400AA
S2140022201D000000547E14001D0000005F7E140098
S2140022301D000000677E14001D000000777E14005D
S2140022401D000000847E14001D000000927E140015
S2140022501D000000997E14001D000000B27E1400D0
S21400226008000000BE7E14001D000000C67E14009C
S2140022701D000000D67E14001D000000E77E14003E
S2140022801D000000F57E140007020000FF7E14000B
S2140022901D000000187F14001D000000277F14009A
S2140022A01D000000357F14001D000000407F140054
S2140022B01D000000557F140017000000617F140009
S2140022C01D000000767F140025000000967F140095
S2140022D01D000000A27F140047000000B67F140017
S2140022E01D000000CD7F14001D000000E67F1400D6
S2140022F01D000000018014001D0000001C8014005A
S2140023001D000000338014001D00000044801400EF
S2140023101D0000005B8014001D0000006A80140091
S214002320470000007B801400470000008F801400E8
S2140023301D000000AA80140047000000B7801400AB
S2140023401D000000C48014001D000000D080140092
S2140023501D000000E68014001D000000FF80140031
S2140023601D000000178114001D00000026811400C7
S2140023701D0000003C8114001D0000004681140072
S2140023801D000000538114001D0000006181140030
S2140023901D000000678114001D0000006F811400FE
S2140023A01D0000007D8114001D0000008D811400BA
S2140023B01D0000009C8114001D000000AC8114006C
S2140023C01D000000BF8114001D000000CA8114001B
S2140023D01D000000D58114001D000000EA811400D5
S2140023E01D000000FA8114001D0000000B8214007E
S2140023F047000000158214001D000000298214000A
S2140024001D0000003D8214001D00000051821400D3
S2140024101D000000588214001D0000006782140092
S2140024201D000000738214001D000000848214004A
S2140024301D000000988214001D000000AC821400ED
S2140024401D000000C08214001D000000D48214008D
S2140024501D000000E88214001D000000FC8214002D
S2140024601D000000108314001D00000024831400CB
S2140024701D000000388314001D0000004C8314006B
S2140024801D000000608314001D000000748314000B
S2140024901D000000888314001D0000009C831400AB
S2140024A01D000000B08314001D000000C48314004B
S2140024B01D000000CF8314001D000000DA83140006
S2140024C01D000000E98314001D000000F8831400BE
S2140024D01D0000000E8414001D0000001984140066
S2140024E01D0000002A8414001D0000003E84140015
S2140024F01D000000558414001D00000065841400B3
S2140025001D000000718414001D0000007D8414006E
S2140025101D0000008D8414001D0000009D84140022
S2140025201D000000B48414001D000000C0841400C8
S2140025301D000000D28414001D000000E784140073
S2140025401D000000FF8414001D000000108514000C
S21400255047000000188514001D0000001F851400A9
S2140025601D0000002C8514001D0000003685140098
S2140025701D000000418514001D0000004F8514005A
S2140025801D0000005A8514001D000000628514001E
S2140025901D000000708514001D0000007C851400DE
S2140025A01D0000008B8514001D000000958514009A
S2140025B01D000000A08514001D000000B385140057
S2140025C01D000000BA85140008000000C98514002C
S2140025D01D000000D585140008000000E0851400EA
S2140025E087000000E88514001D000000F585140033
S2140025F029000000FE8514001D0000000C86140053
S2140026001D0000001F8614001D0000003286140006
S2140026108B000000398614001D0000004986140057
S2140026200B01000059861400470000006C86140059
S21400263047000000758614004700000081861400DD
S2140026401D000000938614006B0000009F86140097
S2140026506B000000A88614006B000000B68614000D
S21400266043000000C286140047000000CC86140019
S21400267047000000D886140007050000E586140011
S21400268007050000F2861400CF000000F98614004B
S2140026908B00000005871400470000001B8714000D
S2140026A0470000002C8714008B00000038871400B9
S2140026B02F000000428714002F0000004C871400F3
S2140026C01D0000005B8714003B00000067871400B5
S2140026D03B000000738714003B0000007F87140057
S2140026E03B0000008B8714001D0000009C87140030
S2140026F01D000000A88714001D000000BA87140003
S21400270047000000C68714001D000000D78714008D
S2140027101D000000DF8714001D000000EA8714007B
S21400272008000000F28714001D0000000288140054
S214002730080000000F8814001D0000001D8814000B
S2140027401D000000248814001D0000003D881400B1
S2140027501D000000498814001D0000005188140068
S2140027601D000000618814001D000000728814001F
S2140027701D00000080881400070200008A881400EC
S2140027801D000000A38814001D000000B28814007D
S21400279008000000C08814001D000000CB8814004C
S2140027A008000000E088140017000000EC88140001
S2140027B01D00000001891400250000002189140076
S2140027C01D0000002D8914004700000041891400F8
S2140027D01D000000588914001D00000071891400B7
S2140027E01D0000008C8914001D000000A78914003D
S2140027F01D000000BE8914001D000000CF891400D3
S2140028001D000000E68914001D000000F589140074
S21400281047000000068A1400470000001A8A1400C9
S2140028201D000000358A140047000000428A14008C
S2140028301D0000004F8A14001D0000005B8A140073
S2140028401D000000718A14001D0000008A8A140012
S2140028501D000000A28A14001D000000B18A1400AA
S2140028601D000000C78A14001D000000D18A140055
S2140028701D000000DE8A14001D000000EC8A140013
S2140028801D000000F28A14001D000000FA8A1400E1
S2140028901D000000088B14001D000000188B14009B
S2140028A01D000000278B14001D000000378B14004D
S2140028B01D0000004A8B14001D000000558B1400FC
S2140028C01D000000608B14001D000000758B1400B6
S2140028D01D000000858B14001D000000968B140060
S2140028E047000000A08B14001D000000B48B1400ED
S2140028F01D000000C88B14001D000000DC8B1400B7
S2140029001D000000E38B14001D000000F28B140075
S2140029101D000000FE8B14001D0000000F8C14002C
S2140029201D000000238C14001D000000378C1400CE
S2140029301D0000004B8C14001D0000005F8C14006E
S2140029401D000000738C14001D000000878C14000E
S2140029501D0000009B8C14001D000000AF8C1400AE
S2140029601D000000C38C14001D000000D78C14004E
S2140029701D000000EB8C14001D000000FF8C1400EE
S2140029801D000000138D14001D000000278D14008C
S2140029901D0000003B8D14001D0000004F8D14002C
S2140029A01D0000005A8D14001D000000658D1400E7
S2140029B01D000000748D14001D000000838D14009F
S2140029C01D000000998D14001D000000A48D140049
S2140029D01D000000B58D14001D000000C98D1400F8
S2140029E01D000000E08D14001D000000F08D140096
S2140029F01D000000FC8D14001D000000088E140051
S214002A001D000000188E14001D000000288E140003
S214002A101D0000003F8E14001D0000004B8E1400A9
S214002A201D0000005D8E14001D000000728E140054
S214002A301D0000008A8E14001D0000009B8E1400EE
S214002A4047000000A38E14001D000000AA8E14008C
S214002A501D000000B78E14001D000000C18E14007B
S214002A601D000000CC8E14001D000000DA8E14003D
S214002A701D000000E58E14001D000000ED8E140001
S214002A801D000000FB8E14001D000000078F1400C0
S214002A901D000000168F14001D000000208F14007B
S214002AA01D0000002B8F14001D0000003E8F140038
S214002AB01D000000458F1400080000004E8F140013
S214002AC0080000005C8F1400080000006D8F1400E2
S214002AD0080000007D8F140008000000988F140086
S214002AE008000000A88F140008000000B98F14002A
S214002AF008000000CF8F140008000000E48F1400C8
S214002B0008000000F88F1400080000000D90140064
S214002B10080000001C90140008000000329014000A
S214002B2008000000489014000800000055901400AB
S214002B30080000006590140008000000789014005B
S214002B40080000008590140008000000856114004D
S214002B501F0000009790140008000000AB901400BF
S214002B6008000000BB90140008000000CD90140080
S214002B7008000000E090140008000000F490140024
S214002B8019000000F9901400210000006C61140088
S214002B900800000002911400080000000A911400CA
S214002BA00800000013911400080000001B91140098
S214002BB00200000010000000000060280100000075
S214002BC00400000050D8602801120F00000000002A
S214002BD0B80B00000000000000000000000000002D
S214002BE00212070000000000B80B00000000000002
S214002BF000000000000000000302050000000000C6
S214002C0000000000000000000000000000000000BF
S214002C100402030000000000B80B000000000000E3
S214002C20CC100000000000000500000000000000BE
S214002C30000000000000000000000000000000008F
S214002C400100000030761400FFFFFFFF01000000C7
S214002C5002000000E8030000307500006E19000056
S214002C6000C00000FA00000025170300E80300007B
S214002C70A1390E00E803000029A30200E8030000C3
S214002C80118E02000A000000C990020064000000D5
S214002C90497A020064000000D5AB0200E803000099
S214002CA0C19B0200E8030000D5B20200E803000062
S214002CB0FD2A0E006400000091350E00F4010000AD
S214002CC02D260E0001000000FF0000007800000026
S214002CD0FFFFFF006C090000A086010064000000F2
S214002CE0000000000000000010203040506070809F
S214002CF090A0B0C00000000000000001001400001A
S214002D0000000000000000000000000000000000BE
S214002D1000000000000000000000000000000000AE
S214002D20000000000000000000000000000000009E
S214002D30000000000000000000000000000000008E
S214002D40000000000000000000000000000000007E
S214002D50000000000000000000000000000000006E
S214002D60000000000000000000000000000000005E
S214002D70000000000000000000000000000000004E
S214002D80000000000000000000000000000000003E
S214002D90000000000000000000000000000000002E
S214002DA0000000000000000000000000000000001E
S214002DB0000000000000000000000000000000000E
S214002DC000000000000000000000000000000000FE
S214002DD000000000FFFFFFFFC8000000000000002A
S214002DE00000000000000000804808207522040053
S214002DF00000000000000000900600002D2D2D2D84
S214002E002D424547494E2052534120505249564183
S214002E105445204B45592D2D2D2D2D0A4D494945FC
S214002E207041494241414B43415145417379436B9F
S214002E304F4F48527A526C4F454445543848615972
S214002E4046774D436E59705270366865706A6E37B5
S214002E505464746C5A464473787754530A694463CE
S214002E604E5832375867556243454E416E33654B70
S214002E703277646564595A6E706D48584730386EBC
S214002E804F67794A7248466F423737565A32694317
S214002E906643564D507774537675704C2F0A7457A8
S214002EA0305664656139566F684473546B416F766B
S214002EB04755577942567A65796849756A682F5436
S214002EC06F4E59346158756C49674C5953323167A7
S214002ED0556F79384761565A7953775144580A34B2
S214002EE04E632F38306E4C79486643704D55774C9C
S214002EF0364C4A30546C78643365556F6E634A447A
S214002F0037544E4D6D574C674D34586C6D35317592
S214002F1075525935426642396E584B554862690AB1
S214002F203661397330784A2B5732564B53344B53ED
S214002F306252574558785549735842365435593178
S214002F40797570344F514144497A4A484A57554F2B
S214002F504C37327657704D63385834526A42776B26
S214002F600A646148374D5636444F305A7A58447290
S214002F70756245454748346C45456673624E5974DC
S214002F8050325147447551494441514142416F497D
S214002F904241446E69594738704F687A6E416E7A7E
S214002FA06B0A2F7961446A463554554C4D4D455A47
S214002FB0723249362F66714C2F6547414F3079750E
S214002FC037394E664E69707557683865344B715997
S214002FD06535584569746A4A56545562354B654698
S214002FE077570A49797770574A797A734A30323078
S214002FF04D31666379757A77764447634A39724409
S214003000325A68506C536F62586A75475630764A23
S21400301034444C684E4D69386567497150476B6457
S2140030202B584B0A4438302B787A6A554D342B345B
S214003030486B485855795953414C376E547A492B4A
S2140030406E68396D6D3379436E7446534A734E6AB3
S214003050317452583749566A6E6A68315249533746
S2140030604D5235420A663075397856476633556292
S2140030704276654B2F52795647642F51574A616303
S2140030806B744263723357794378486B776F363484
S214003090544554756A3544334E787149726D6943A8
S2140030A068426175420A656469716F653352757866
S2140030B0507736766745332B7A336D6644644430F2
S2140030C0586235384373764E323764572F2F6575FE
S2140030D06631785A6A6A7736784C71416F335A642B
S2140030E03866414D4D450A45464455526945436745
S2140030F0594541316D582F5A304F6F4E49643353FE
S2140031006F466867354E6B516C45425362324C6E63
S2140031106133354A74716875796C504C61726A61B6
S214003120706F476A33432F0A347A30684149553600
S214003130643157334C313250313735586148724418
S21400314075413531546339626E4D702F4A7553722E
S2140031505636723543766D5A4A38314D6674596C18
S2140031604A7A6C34317A4A640A4A4966316E494C66
S214003170786C58765153397256485371494F2F30F0
S21400318064507745416B474B4A487171687957548C
S2140031904D35736833436367705179374A734C30E3
S2140031A0436759454131654B5A0A704464676B4C16
S2140031B05251676D746B57304644496B52316147C4
S2140031C0364A3667452F54706D6D535936347871CC
S2140031D045597235726E47524F627659724751584A
S2140031E04870396F442F517543480A6669566575AD
S2140031F06476757951595874304B734576304E79EC
S214003200686F4C576D416C54696A31654B456A5519
S2140032106D76487254563379644D53644549733518
S21400322070356B3677334874384B550A3459416AD3
S2140032306A46676C4C2B30784456394543366E7771
S214003240423473774E774B664270696675776B7358
S214003250704B30436759423152466A4D484A3932BC
S2140032604339706473434B73477751740A6D61300A
S21400327041726D496448726B3258554D303463560E
S2140032806A44794E51665771314C6C426D64467390
S214003290477339686B7955646D36742F77657A583D
S2140032A0482B63337663456B4E424376780A7548FF
S2140032B06950783264496A6B576C6B52774B507919
S2140032C0706C2F6139596F77444C6738716158704C
S2140032D0736976695278524D574C6C2B6756436427
S2140032E078324931334A786A794F764C61500A52BF
S2140032F0586B30644B503258784E7445455178635D
S21400330050663061514B4267514448587A7A63712F
S214003310496F70475176624A6F516231452F694254
S214003320334A783847673661774D36483175300A04
S2140033305159665944353756516B3264514876793F
S2140033405351505A53586850775A737747642F7AB8
S2140033504A4A365348594D4F653946726B4969613A
S21400336041717A7838536B594333743679673958D4
S2140033700A624D31694C506D716161624A79536AD7
S214003380776D6963457169316B4E696F7644774234
S21400339038323164486F5871346E42385857664137
S2140033A0783979793575334D734E424E4D734D529B
S2140033B06B0A4D6E386332514B42675143304F4B68
S2140033C0626F6555677A6B396930364B453643719F
S2140033D0474F3433577050444B4E472B34796C6EFE
S2140033E0436E49786A654749594C4E4B484A2B52BA
S2140033F043760A346C742B464857637763694D33BB
S2140034004A6F4E4A57536671584763717032423955
S21400341037492F59445738374C3648653453685522
S2140034206D7A76646C4147314365634771545942FF
S2140034307259420A6C63722F2B52756B577A494D3C
S21400344055434132344B65416F68654B73432B4897
S2140034504A4767345530386E577A356E394B3330B5
S2140034606B714E79612B6E7A39673D3D0A2D2D2D95
S2140034702D2D454E4420525341205052495641541A
S21400348045204B45592D2D2D2D2D0A0058040000A2
S2140034902D2D2D2D2D424547494E2043455254494A
S2140034A04649434154452D2D2D2D2D0A4D4949445D
S2140034B0426A434341653443435143673578744C0D
S2140034C03561702F4344414E42676B71686B6947A4
S2140034D03977304241517346414442464D517377E5
S2140034E0435159445651514745774A420A56544526
S2140034F0544D424547413155454341774B55323946
S214003500745A533154644746305A5445684D4238CD
S214003510474131554543677759535735305A584ACE
S214003520755A58516756326C6B5A326C300A63794A
S214003530425164486B675448526B4D423458445469
S21400354045344D4467794D5441334D7A67304D319B
S2140035506F58445449344D4467784F4441334D7A4C
S21400356067304D316F775254454C4D416B470A4199
S21400357031554542684D4351565578457A41524239
S214003580674E564241674D436C4E766257557455AA
S214003590335268644755784954416642674E5642EE
S2140035A0416F4D47456C7564475679626D56300AD3
S2140035B0494664705A47647064484D6755485235AA
S2140035C0494578305A444343415349774451594A10
S2140035D04B6F5A496876634E4151454242514144C9
S2140035E0676745504144434341516F4367674542CF
S2140035F00A414C4D6770446A683063305A546841DB
S21400360078452F42326D4263444170324B556165B6
S2140036106F587159352B3033625A575251374D63B4
S21400362045306F67334456397531344647776844BA
S214003630510A4A393369747348586E57475A365A8E
S21400364068317874504A7A6F4D696178786141655F
S2140036502B3157646F676E776C5444384C5572370D
S21400366071532F3756744658586D76566149513700
S21400367045350A414B4C786C467367566333736F17
S214003680534C6F3466303644574F476C3770534947
S214003690433245747459464B4D76426D6C57636B96
S2140036A0734541312B4458502F4E4A79386833774A
S2140036B07154460A4D432B69796445356358643323
S2140036C06C4B4A3343512B307A544A6C6934444F1E
S2140036D046355A756462726B574F515877665A3141
S2140036E0796C423234756D76624E4D53666C746CEE
S2140036F0536B75430A6B6D305668463856434C46D6
S21400370077656B2B574E63727165446B4141794DFB
S214003710795279566C44692B397231715448504647
S2140037202B455977634A4857682B7A4665677A74FB
S21400373047633177360A376D784242682B4A5242E1
S2140037404837477A574C54396B4267376B43417753
S21400375045414154414E42676B71686B6947397702
S21400376030424151734641414F4341514541574ACA
S214003770566A4933706F0A7A6A4370736672507776
S21400378031752F4B2F30414A4752704C4368764272
S214003790504D597A31312F41793249327679543841
S2140037A0616B524D2B376B6D30572F642B776979D1
S2140037B04C3059543951490A50485434674C455690
S2140037C0344B656951534150696E64744A67626749
S2140037D03257693533454247654E724457484D77F0
S2140037E0483369736C447239683239337A68557174
S2140037F05A4D6965325744620A6B704563536837A1
S214003800394441685A445A3433642F7148675765BF
S2140038107957576B7943384A4C51497A59507364F3
S214003820544A596638717137794E5A6C72374F5A06
S2140038304348586471327347380A536A45344931ED
S2140038406A34414E6B6B4A706E58367946445A5A03
S21400385047444472557A50634A525056745A7A6DA9
S21400386079744A5549627A6F54553945366E5344D1
S214003870496C764254543237336F0A39674A587661
S2140038806B55374C3463774E43416730673352523B
S214003890777971495571387A79577349654E53640B
S2140038A0717A3634454948327758345876576B56CD
S2140038B07A447A6678573736484C370A4E4F6473E0
S2140038C034613553494866465A773D3D0A2D2D2DBD
S2140038D02D2D454E442043455254494649434154B4
S2140038E0452D2D2D2D2D0A000000000000000000A3
S2140038F0000000000000000000000000D03700209C
S214003900030000C05000000000000000000000009F
S214003910F03700200000000000000100000000005A
S214003920000000000001FF070000000041760E00C6
S21400393039750E00010000000700000006000000B8
S214003940FD00000041760E0039750E006F220A0851
S214003950591D0A085D1D0A086B230A08B91E0A08C5
S214003960F9260A08BF270A080F250A084F1F0A0863
S214003970711F0A08611D0A08651D0A08511D0A08FC
S214003980F000000000000000000000000000000042
S214003990683800200000000004000000000000005E
S2140039A00000000000000000D4EB05206000602846
S2140039B0FF000000FFFFFFFFC40E6028740E6028A3
S2140039C0640E602824000C400237150011580600CB
S2140039D00000000000000000EB3615000737150059
S2140039E000000000000000000000000000000000D2
S2140039F060141500F56206000000000000000000DC
S214003A001137150026371500296006000000000053
S214003A10010000002E3715007E3715000D600600E9
S214003A20000000000000000086371500A77914008B
S214003A30F15F060000000000000000009D37150042
S214003A40B1371500D55F060000000000000000003A
S214003A50BD371500D8371500E561060000000000E8
S214003A6000000000E73715002A471500B961060078
S214003A70000000000000000013381500BA351500DD
S214003A808D61060000000000000000003E381500B2
S214003A90C93515005D610600000000000100000049
S214003AA059381500873815002D6106000000000003
S214003AB00000000093381500B9381500E9620600CA
S214003AC00000000000000000C7381500462117005F
S214003AD0B95F06000000000000000000E238150094
S214003AE00439150001610600000000000000000017
S214003AF0133915002E391500D560060000000000A9
S214003B00000000003E3915005A391500000000007C
S214003B1000000000000000000000000077391500DB
S214003B209D5F0600000000000000000065391500DB
S214003B30A1F21800815F06000000000000000000EF
S214003B407C391500B8391500DD620600000000005B
S214003B5000000000C439150080821600D1620600FD
S214003B600000000000000000D4391500FF391500E1
S214003B70655F060000000000000000000F3A150018
S214003B804F3A1500C5620600000000000000000065
S214003B902D3A1500773A1500B962060000000000BD
S214003BA000000000553A15007E3A1500AD6206008A
S214003BB000000000000000008D3A1500F62E1500EB
S214003BC0495F06000000000000000000BA3A150039
S214003BD0E42E15002D5F0600000000000000000027
S214003BE0F33A1500BF2E1500115F06000000000016
S214003BF000000000023B1500B72E1500F55E06001B
S214003C000000000000000000243B15007EA4170002
S214003C10E56506000000000000000000293B1500D6
S214003C201600180061650600000000000100000094
S214003C30623B15009B3B1500DD640600000000009B
S214003C4001000000A83B1500C62C170059640600AA
S214003C500000000001000000DE3B15000D3C1500D2
S214003C60D56306000000000001000000113C1500AE
S214003C70533C1500A1620600000000000000000092
S214003C805E3C15007C3C15009562060000000000B6
S214003C9000000000853C1500983C1500D95E060023
S214003CA00000000000000000A43C1500C43C150005
S214003CB0A56006000000000001000000CD3C1500D5
S214003CC0053D1500756006000000000000000000BD
S214003CD00E3D15003E3D15008962060000000000FE
S214003CE000000000443D1500573D15007D620600AB
S214003CF00000000000000000633D15007F3D150039
S214003D0000000000000000000000000000000000AE
S214003D10863D1500BD5E06000000000000000000A5
S214003D208E3D1500BE3D15004560060000000000F3
S214003D3001000000C63D1500C95914007162060056
S214003D400000000000000000F23D1500133E1500C4
S214003D50A15E060000000000010000001E3E1500E7
S214003D60413E15000163060000000000010000004F
S214003D70493E15004C6D1500855E060000000000EB
S214003D8000000000833E1500E7771400695E060019
S214003D900000000000000000B23E1500F37714009B
S214003DA04D5E06000000000000000000D23E150038
S214003DB0FE771400315E06000000000000000000E0
S214003DC0F03E1500273F1500155E060000000000B7
S214003DD000000000123F15000B781400F95D060085
S214003DE00000000000000000343F150019781400A1
S214003DF0DD5D06000000000000000000583F1500D2
S214003E0015591400C15D0600000000000000000007
S214003E107E3F1500A13F15000000000000000000D6
S214003E2000000000000000001B7F1800A55D0600D3
S214003E300000000000000000AC3F1500D03F150059
S214003E40895D06000000000000000000DF3F15004E
S214003E501140150059620600000000000000000036
S214003E601B4015009C1F15002D5606000000000084
S214003E70000000002B401500514015007557060045
S214003E8000000000000000005A401500A01F1500AA
S214003E906D5D060000000000000000006F40150089
S214003EA09A401500515D060000000000000000006A
S214003EB0A9401500C0401500355D06000000000052
S214003EC000000000CD4015004C781400195D060077
S214003ED00000000000000000E640150058781400BE
S214003EE0FD5C060000000000000000000141150017
S214003EF01F411500E15C0600000000000000000005
S214003F002A41150088411500C55C06000000000027
S214003F100000000090411500A6411500A95C0600AF
S214003F200000000000000000AE411500BF81180030
S214003F308D5C06000000000000000000D541150062
S214003F40437F1400715C06000000000000000000C3
S214003F501442150067781400555C06000000000047
S214003F60000000003C42150066421500255C060075
S214003F7000000000000000006D4215009A42150087
S214003F80095C060000000000000000008B421500DF
S214003F90A542150000000000000000000000000020
S214003FA000000000FB6A1700ED5B06000000000042
S214003FB000000000AC421500D94215004D62060014
S214003FC00000000000000000E74215000143150055
S214003FD0D15B060000000000000000000D43150045
S214003FE03A431500B55B0600000000000000000024
S214003FF04B43150080431500995B06000000000047
S214004000000000008E431500B6431500C954060094
S2140040100000000000000000C0431500FB43150030
S2140040204162060000000000000000000644150083
S214004030344415007D5B0600000000000000000010
S2140040403C4415006244150035620600000000007E
S214004050000000006A4415007F44150000000000C0
S214004060000000000000000000000000864415006C
S214004070615B060000000000000000008C44150094
S21400408089FA150029620600000000000000000002
S214004090B2441500CB441500455B06000000000046
S2140040A000000000D5441500F9451500295B060000
S2140040B0000000000000000006461500E07B14002B
S2140040C00D5B0600000000000000000030461500F2
S2140040D06C4615001D62060000000000000000008F
S2140040E049461500674615001162060000000000EC
S2140040F0000000007746150093461500F15A0600AA
S2140041000000000000000000A7461500D746150076
S214004110D55A06000000000000000000EC4615001E
S2140041201D471500B95A06000B5406000000000093
S214004130EC461500364715009D5A060000000000A4
S214004140000000003F4715007A471500815A060018
S214004150000000000000000086471500B347150069
S214004160655A06000000000000000000C447150065
S21400417000481500495A0600000000000000000034
S2140041800E4815002E2218002D5A060000000000CA
S21400419000000000C3481500C0471500115A06006D
S2140041A00000000000000000D148150000000000DC
S2140041B000000000000000000000000000000000FA
S2140041C0497C140000517C14000091581600008DA4
S2140041D05C140000B17C140000C17C140000D17C8B
S2140041E0140000E47C1400003BCC1500000B7D148A
S2140041F000009146160000207D1400001B421600A9
S21400420000507D140000DB52140000DD061800008C
S214004210C512160000C01216000018821400002CEA
S2140042208214000040821400006A7D1400007EA400
S2140042301700006790160000937D14000016001803
S2140042400000B07D140000BA7D140000D37D140079
S21400425000DF7D140000EB7D140000F77D140000E5
S214004260037E140000207E140000327E1400003E00
S2140042707E140000248A1800009C7E14000031740E
S214004280150000F87E140000EA7E1400003A831839
S21400429000008413160000368014000047801400C7
S2140042A0005E80140000027F140000DE6E15000021
S2140042B01866150000EE6E1500007281140000806E
S2140042C081140000631D15000090811400009F817A
S2140042D0140000AF81140000C281140000CD8114C8
S2140042E00000D881140000ED81140000FD81140048
S2140042F0000E82140000437F1400001B7F14000091
S2140043002A7F140000387F140000587F140000C174
S2140043107E140000C97E140000BA80140000C78016
S214004320140000D380140000E980140000028114F9
S21400433000001A8114000029811400003F81140037
S2140043400000000000000000FFFFFFFFFFFFFFFF70
S21400435000180000E8181800050000001F00000004
S2140043605BF40A007FF40A00000000008FF40A00E5
S21400437097F40A009FF40A00A9F40A00010000005E
S214004380504200205042002004C81900AAAA030088
S2140043900000000009020000030300001F000000E8
S2140043A000C0000015F21300A1C213003DE0130088
S2140043B011E41300D5C2130069C2130071B80F00D0
S2140043C071B80F0077B80F0077B80F00CC42002006
S2140043D001AC0F0005AC0F0002AC0F0004AC0F00E0
S2140043E000000000000000000000000000000000C8
S2140043F0000000000200080002000C0000000000A0
S21400440000000000000000000000000000000000A7
S2140044100000000000000000000000000000000097
S2140044200000000000000000000000000000000087
S2140044300000000000000000000000000000000077
S2140044400000000000000000000000000000000067
S2140044500000000000000000000000000000000057
S21400446000000000D44300207C4300200000000031
S2140044700000000000000000000000000000000037
S2140044800000000000000000000000000000000027
S2140044900000000000000000000000000000000017
S2140044A0000000000000000000000000F8440020AB
S2140044B098440020000000001C00000008000000D7
S2140044C00000010003FF00000000000000000041A3
S2140044D000010000000000000100000000000000D5
S2140044E0FEFF0000FEFF00000000000000000000CD
S2140044F000000000000000000000000001000000B6
S2140045002C440020184B00206844002000000000C7
S2140045100E0000000C0000000000010003FF000079
S2140045200000000000000041000100000000000044
S2140045300000000000000000000000000000000076
S2140045400000000000000000000000000000000066
S21400455000000000010000002C44002004000100C0
S2140045600000000000000000000000000000000046
S214004570FAFFFAFFFFFFFFFFFFFFFFFF000000004C
S2140045800000000000000000000000000000000026
S2140045900000000000000000000000000A0000000C
S2140045A000000000010000001400010000000000F0
S2140045B001000000370002000000000001000000BB
S2140045C06E00030000000000000000003C00040035
S2140045D000000000000000005A0005000000000077
S2140045E00000000078000600000000000000000048
S2140045F0B40007000000000000000000F000080003
S2140046000000000000000000680109000000000033
S21400461000000000E0010A000000000000000000AA
S2140046201C020B0000000000000000003C1400000C
S2140046300000000000000000000000001E00000057
S2140046400000000000000000000000000000000065
S2140046500000000000000000000000000000000055
S21400466000000000501400000000000000000000E1
S214004670000000001E000000000000000000000017
S2140046800000000000000000000000000000000025
S214004690000000000000000000000000641400009D
S2140046A00000000000000000000000001E000000E7
S2140046B000000000000000000000000000000000F5
S2140046C000000000000000000000000000000000E5
S2140046D00000000078140000000000000000000049
S2140046E0000000001E0000000000000000000000A7
S2140046F000000000000000000000000000000000B5
S2140047000000000000000000000000008C14000004
S2140047100000000000000000000000001E00000076
S2140047200000000000000000000000000000000084
S2140047300000000000000000000000000000000074
S21400474000000000A01400000000000000000000B0
S214004750000000001E000000000000000000000036
S2140047600000000000000000000000000000000044
S214004770000000000000000000000000B41400006C
S2140047800000000000000000000000001E00000006
S2140047900000000000000000000000000000000014
S2140047A00000000000000000000000000000000004
S2140047B000000000C8140000000000000000000018
S2140047C0000000001E0000000000000000000000C6
S2140047D000000000000000000000000000000000D4
S2140047E00000000000000000000000007C15000033
S2140047F00000000000000000000000001E00000096
S21400480000000000000000000000000000000000A3
S2140048100000000000000000000000000000000093
S21400482000000000901500000000000000000000DE
S214004830000000001E000000000000000000000055
S2140048400000000000000000000000000000000063
S214004850000000000000000000000000A41500009A
S2140048600000000000000000000000001E00000025
S2140048700000000000000000000000000000000033
S2140048800000000000000000000000000000000023
S21400489000000000B8150000000000000000000046
S2140048A0000000001E0000000000000000000000E5
S2140048B000000000000000000000000000000000F3
S2140048C0000000000000000000000000CC15000002
S2140048D00000000000000000000000001E000000B5
S2140048E000000000000000000000000000000000C3
S2140048F000000000000000000000000000000000B3
S21400490000000000E01500000000000000000000AD
S214004910000000001E000000000000000000000074
S2140049200000000000000000000000000000000082
S214004930000000000000000000000000F415000069
S2140049400000000000000000000000001E00000044
S2140049500000000000000000000000000000000052
S2140049600000000000000000000000000000000042
S2140049700000000008160000000000000000000014
S214004980000000001E000000000000000000000004
S2140049900000000000000000000000000000000012
S2140049A00000000000000000000000001C160000D0
S2140049B00000000000000000000000001E000000D4
S2140049C000000000000000000000000000000000E2
S2140049D000000000000000000000000000000000D2
S2140049E0000000003016000000000000000000007C
S2140049F0000000001E000000000000000000000094
S214004A0000000000000000000000000000000000A1
S214004A100000000000000000000000004416000037
S214004A200000000000000000000000001E00000063
S214004A300000000000000000000000000000000071
S214004A400000000000000000000000000000000061
S214004A5000000000581600000000000000000000E3
S214004A60000000001E000000000000000000000023
S214004A700000000000000000000000000000000031
S214004A80000000000000000000000000711600009A
S214004A900000000000000000000000001E000000F3
S214004AA00000000000000000000000000000000001
S214004AB000000000000000000000000000000000F1
S214004AC00000000085160000000000000000000046
S214004AD0000000001E0000000000000000000000B3
S214004AE000000000000000000000000000000000C1
S214004AF00000000000000000000000009916000002
S214004B000000000000000000000000001E00000082
S214004B100000000000000000000000000000000090
S214004B200000000000000000000000000000000080
S214004B3000000000AD1600000000000000000000AD
S214004B40000000001E000000000000000000000042
S214004B500000000000000000000000000000000050
S214004B60000000000000000000000000C116000069
S214004B700000000000000000000000001E00000012
S214004B800000000000000000000000000000000020
S214004B900000000000000000000000000000000010
S214004BA000000000D5160000000000000000000015
S214004BB0000000001E0000000000000000000000D2
S214004BC000000000000000000000000000000000E0
S214004BD0000000000000000000000000E9160000D1
S214004BE00000000000000000000000001E000000A2
S214004BF000000000000000000000000000000000B0
S214004C00000000000000000000000000000000009F
S214004C1000000000FD16000000000000000000007C
S214004C20000000001E000000000000000000000061
S214004C30000000000000000000000000000000006F
S214004C400000000000000000000000006C090000EA
S214004C500000000000000000000000001E00000031
S214004C60000000000000000000000000000000003F
S214004C70000000000000000000000000000000002F
S214004C8000000000710900000000000000000000A5
S214004C90000000001E0000000000000000000000F1
S214004CA000000000000000000000000000000000FF
S214004CB00000000000000000000000007609000070
S214004CC00000000000000000000000001E000000C1
S214004CD000000000000000000000000000000000CF
S214004CE000000000000000000000000000000000BF
S214004CF0000000007B09000000000000000000002B
S214004D00000000001E000000000000000000000080
S214004D10000000000000000000000000000000008E
S214004D2000000000000000000000000080090000F5
S214004D300000000000000000000000001E00000050
S214004D40000000000000000000000000000000005E
S214004D50000000000000000000000000000000004E
S214004D6000000000850900000000000000000000B0
S214004D70000000001E000000000000000000000010
S214004D80000000000000000000000000000000001E
S214004D900000000000000000000000008A0900007B
S214004DA00000000000000000000000001E000000E0
S214004DB000000000000000000000000000000000EE
S214004DC000000000000000000000000000000000DE
S214004DD0000000008F090000000000000000000036
S214004DE0000000001E0000000000000000000000A0
S214004DF000000000000000000000000000000000AE
S214004E000000000000000000000000009409000000
S214004E100000000000000000000000001E0000006F
S214004E20000000000000000000000000000000007D
S214004E30000000000000000000000000000000006D
S214004E4000000000990900000000000000000000BB
S214004E50000000001E00000000000000000000002F
S214004E60000000000000000000000000000000003D
S214004E700000000000000000000000009E09000086
S214004E800000000000000000000000001E000000FF
S214004E90000000000000000000000000000000000D
S214004EA000000000000000000000000000000000FD
S214004EB000000000A3090000000000000000000041
S214004EC0000000001E0000000000000000000000BF
S214004ED000000000000000000000000000000000CD
S214004EE0000000000000000000000000A80900000C
S214004EF00000000000000000000000001E0000008F
S214004F00000000000000000000000000000000009C
S214004F10000000000000000000000000000000008C
S214004F2000000000B40900000000000000000000BF
S214004F30000000001E00000000000000000000004E
S214004F40000000000000000000000000000000005C
S214004F50000000000000000000000000000000004C
S214004F60FFFF1028FFFF153C0000000000000000B7
S214004F7000000000FFFF0038FFFF1020FFFF153C79
S214004F80FFFF1020000000000000000001010100EB
S214004F900100000001000000010101000000000007
S214004FA0010000000F0000000100000001000000EA
S214004FB0000000000100000100010000F4010000F4
S214004FC000000000000000001400000000000000C8
S214004FD06400000001000000000001000000000066
S214004FE000000000000000000000000002000000BA
S214004FF000000000217C1000597E10000000000018
S214005000057C10003F83100001000000DC4E0020ED
S214005010DC4E0020E44E0020E44E00200500000098
S21400502007000000604F0020FC4E00200000190022
S214005030D803F80301140A10000001001900D80371
S2140050409813010C06100000020019006102981364
S21400505001100810000003002800EA00C301011830
S2140050600C10000004142800EA00040201140A10C0
S21400507000000500190078131F27032406100200FD
S2140050800600190072065C1D0330081002000000BE
S21400509000001900D803F80301140A1000000100EC
S2140050A01900D8039813010C06100000020019001E
S2140050B06102981301100810000003002800EA009F
S2140050C0C30101180C10000004032800EA00CC02FB
S2140050D00110081000000500190078131F27031E92
S2140050E0051002000600190072065C1D0330081049
S2140050F00200000004000000040000000C50002025
S214005100D44F0020000019008505A50501120910DE
S2140051100000010019001C023C02010A05100000F4
S21400512002001900C60BE60B014623100000030020
S21400513019003D015D010103021000000000190086
S2140051408505A505011209100000010019001C02C2
S2140051503C02010A0510000002001900C60BE60B0F
S214005160014623100000030019003D015D01010304
S2140051700210000001001400BC0200000000000045
S2140051800200000000000000010000007478715F5B
S214005190636C65616E000000000000000000000007
S2140051A00200000000000000000000007261646160
S2140051B07200000000000000000000002000000058
S2140051C004051B0008051B000C051B0010051B0032
S2140051D014051B0018051B001C051B0020051B00E2
S2140051E024051B0028051B002C051B0030051B0092
S2140051F034051B0038051B003C051B0040051B0042
S21400520044051B0048051B004C051B0050051B00F1
S21400521054051B0058051B005C051B0060051B00A1
S214005220044D1B0064051B0068051B006C051B0075
S21400523070051B0074051B0078051B0074041B001A
S2140052407C051B0080051B0084051B0088051B00D1
S2140052508C051B0090051B0094051B0098051B0081
S2140052609C051B00A0051B00A4051B00B8351B00F1
S214005270A8051B00AC051B00B0051B00B4051B00F1
S214005280B8051B00BC051B00C0051B00C4051B00A1
S214005290C8051B00CC051B00D0051B00D4051B0051
S2140052A0D8051B00DC051B00E0051B00E4051B0001
S2140052B0E8051B00EC051B00F0051B00F4051B00B1
S2140052C0F8051B00FC051B0000061B0004061B005F
S2140052D008061B000C061B0024241B0010061B00DF
S2140052E014061B0018061B001C061B0020061B00CD
S2140052F024061B0028061B0030361B002C061B004D
S21400530030061B0064041B0034061B0038061B0016
S2140053103C061B0040061B006C041B0044061B00DA
S21400532048061B004C061B0050061B0054061B00BC
S21400533058061B005C061B0060061B0064061B006C
S21400534068061B006C061B0070061B0074061B001C
S21400535078061B007C061B0080061B0084061B00CC
S21400536088061B008C061B0090061B0094061B007C
S21400537098061B009C061B00A0061B00A4061B002C
S214005380A8061B00AC061B00B0061B00B4061B00DC
S214005390F85F1B00B8061B00BC061B00C0061B00FF
S2140053A0C4061B00C8061B00CC061B00D0061B004C
S2140053B0D4061B00D8061B00DC061B00E0061B00FC
S2140053C0E4061B00E8061B00EC061B00F0061B00AC
S2140053D0F4061B00F8061B00FC061B0000071B005B
S2140053E004071B0008071B000C071B0010071B0008
S2140053F014071B0018071B001C071B0020071B00B8
S21400540024071B0028071B002C071B0030071B0067
S21400541034071B0038071B003C071B0040071B0017
S21400542044071B0048071B004C071B0050071B00C7
S21400543054071B0058071B005C071B0060071B0077
S21400544064071B0068071B006C071B0070071B0027
S21400545074071B0078071B007C071B0080071B00D7
S21400546084071B0088071B008C071B0090071B0087
S21400547094071B0098071B009C071B00A0071B0037
S214005480A4071B00A8071B00FF0000003320000035
S2140054903F190C043F180C022A160A76700000000A
S2140054A03F190C00740000002A1600002C000000B3
S2140054B0332000003F190C043F180C022A160A7607
S2140054C0700000003F190C00740000002A1600004F
S2140054D02C000000332000003F190C043F180C007D
S2140054E02A160A76700000003F190C7D7200000034
S2140054F02A1600002C000000332000003F190C0480
S2140055003F180C002A160A76700000003F190C7B24
S2140055106E0000002A1600002C0000003320000059
S2140055203F190C043F180C002A160A76700000007B
S2140055303F190C7B6E0000002A1600002C000000AD
S214005540332000003F190C033F180C002A160A7679
S214005550700000003F190C7B6E0000002A16000049
S2140055602C0000000000000000000000000000000A
S2140055700000000000000000000000000000000026
S2140055800000000000000000000000000000000016
S2140055900000000000000000000000000000000006
S2140055A000000000000000000000000000000000F6
S2140055B000000000000000000000000000000000E6
S2140055C000000000000000000000000000000000D6
S2140055D02A2A000036180A003F180B783F180B7866
S2140055E0730000003F180A78730000002A58000075
S2140055F02C0000002A2A000036180A003F180B78F4
S2140056003F180B78730000003F180A7873000000FC
S2140056102A5800002C0000002A2A000036180A79B2
S2140056203F180B723F180B72730000003F180A7287
S214005630730000002A5800002C0000002A2A0000F0
S21400564036180A793F180B723F180B727300000069
S2140056503F180A72730000002A5800002C00000051
S2140056602A2A000036180A793F180B723F180B7268
S214005670730000003F180A72730000002A580000EA
S2140056802C0000002A2A000036180A793F180B72F0
S2140056903F180B72730000003F180A727300000078
S2140056A02A5800002C0000002A2A000036180A7724
S2140056B03F180B6D3F180B6B730000003F180A6411
S2140056C0730000002A5800002C0000002A2A000060
S2140056D036180A793F180B723F180B7273000000D9
S2140056E03F180A72730000002A5800002C000000C1
S2140056F02A2A000036180A773F180B6D3F180B6BE6
S214005700730000003F180A64730000002A58000067
S2140057102C000000000400001B190C040C0C0C02EA
S2140057202A160A767000000015150C00740000009A
S2140057302A1600002C000000020A00001B190C04A8
S2140057400C0C0C022A160A767000000015150C00C8
S214005750740000002A1600002C0000000004000060
S2140057601B190C040C0C0C002A160A76700000009C
S21400577015150C7D720000002A1600002C00000093
S214005780000400001B190C040C0C0C002A160A76E8
S2140057907000000015150C7B6E0000002A16000035
S2140057A02C000000000400001B190C040C0C0C005C
S2140057B02A160A767000000015150C7B6E00000095
S2140057C02A1600002C000000000600001B190C031F
S2140057D00C0C0C002A160A767000000015150C7BBF
S2140057E06E0000002A1600002C00000000000000DA
S2140057F000000000000000000000000000000000A4
S2140058000000000000000000000000000000000093
S2140058100000000000000000000000000000000083
S2140058200000000000000000000000000000000073
S2140058300000000000000000000000000000000063
S2140058400000000000000000000000000000000053
S21400585000000000000000002A2A000009090900D4
S214005860060606780808087873000000060606781C
S214005870730000002A5800002C0000002A2A0000AE
S214005880090909000606067808080878730000006B
S21400589006060678730000002A5800002C00000058
S2140058A02A2A0000090909790606067208080872FD
S2140058B07300000006060672730000002A580000F7
S2140058C02C0000002A2A000009090979060606723B
S2140058D008080872730000000606067273000000CF
S2140058E02A5800002C0000002A2A0000090909791D
S2140058F0060606720808087273000000060606729E
S214005900730000002A5800002C0000002A2A00001D
S214005910090909790606067208080872730000006D
S21400592006060672730000002A5800002C000000CD
S2140059302A2A0000050505770404046D0404046B98
S2140059407300000002020264730000002A58000080
S2140059502C0000002A2A00000909097906060672AA
S214005960080808727300000006060672730000003E
S2140059702A5800002C0000002A2A0000050505779A
S2140059800404046D0404046B730000000202026445
S214005990730000002A5800002C000000332000008E
S2140059A03F190C023F180C002A160A7670000000F9
S2140059B03F190C00700000002A1600002C000000A2
S2140059C0332000003F190C023F180C002A160A76F6
S2140059D0700000003F190C00700000002A1600003E
S2140059E02C000000332000003F190C023F180C7FEB
S2140059F02A160A76700000003F190C7F6A00000025
S214005A002A1600002C000000332000003F190C026C
S214005A103F180C7E2A160A76700000003F190C7C90
S214005A206A0000002A1600002C0000003320000048
S214005A303F190C023F180C7F2A160A7670000000E9
S214005A403F190C7F6A0000002A1600002C00000098
S214005A50332000003F190C023F180C002A160A7665
S214005A60700000003F190C7E6C0000002A16000033
S214005A702C000000000000000000000000000000F5
S214005A800000000000000000000000000000000011
S214005A900000000000000000000000000000000001
S214005AA000000000000000000000000000000000F1
S214005AB000000000000000000000000000000000E1
S214005AC000000000000000000000000000000000D1
S214005AD000000000000000000000000000000000C1
S214005AE02A2A00002A1606792A1606742A1606702E
S214005AF06C0000002A160668720000002A58000093
S214005B002C0000002A2A00002A16067B2A16067693
S214005B102A1606706C0000002A160668720000003E
S214005B202A5800002C0000002A2A00002A16067BAD
S214005B302A1606762A1606706C0000002A160668D4
S214005B40720000002A5800002C0000002A2A0000DC
S214005B502A1606782A1606702A1606686C000000B2
S214005B602A160660720000002A5800002C0000006A
S214005B702A2A00002A1606772A16066E2A16066CA9
S214005B806C0000002A160660720000002A5800000A
S214005B902C0000002A2A00002A1606782A1606720A
S214005BA02A1606706C0000002A16066472000000B2
S214005BB02A5800002C0000002A2A00002A16067424
S214005BC02A1606622A1606646C0000002A16066468
S214005BD0720000002A5800002C0000002A2A00004C
S214005BE02A1606782A1606722A1606706C00000018
S214005BF02A160668720000002A5800002C000000D2
S214005C002A2A00002A1606702A16066A2A16066C23
S214005C106C0000002A160664720000002A58000075
S214005C202C0000000403000005050502000000002B
S214005C302A160A76700000000303030070000000B6
S214005C402A1600002C0000000A0A000005050502BE
S214005C50000000002A160A76700000000303030006
S214005C60700000002A1600002C0000000406000049
S214005C70050505020000007F2A160A76700000005F
S214005C800303037F6A0000002A1600002C000000B1
S214005C9004060000050505020000007E2A160A76A6
S214005CA0700000000303037C6A0000002A16000050
S214005CB02C00000004060000050505020000007F19
S214005CC02A160A76700000000303037F6A000000AD
S214005CD02A1600002C000000040A00000505050234
S214005CE0000000002A160A76700000000303037EF8
S214005CF06C0000002A1600002C00000000000000C7
S214005D00000000000000000000000000000000008E
S214005D10000000000000000000000000000000007E
S214005D20000000000000000000000000000000006E
S214005D30000000000000000000000000000000005E
S214005D40000000000000000000000000000000004E
S214005D50000000000000000000000000000000003E
S214005D6000000000000000002A2A00000303037958
S214005D7002020274010101706C0000007D7D7D68E6
S214005D80720000002A5800002C0000002A2A00009A
S214005D900303037B02020276010101706C0000001F
S214005DA07D7D7D68720000002A5800002C000000EF
S214005DB02A2A00000303037B020202760101017017
S214005DC06C0000007D7D7D68720000002A5800008F
S214005DD02C0000002A2A0000030303780202027047
S214005DE0010101686C0000007D7D7D60720000008E
S214005DF02A5800002C0000002A2A0000030303771C
S214005E000202026E0101016C6C0000007D7D7D6067
S214005E10720000002A5800002C0000002A2A000009
S214005E200303037802020272010101706C00000095
S214005E307D7D7D64720000002A5800002C00000062
S214005E402A2A0000030303740202026201010164AD
S214005E506C0000007D7D7D64720000002A58000002
S214005E602C0000002A2A00000303037802020272B4
S214005E70010101706C0000007D7D7D6872000000ED
S214005E802A5800002C0000002A2A00000303037092
S214005E900202026A0101016C6C0000007D7D7D64D7
S214005EA0720000002A5800002C00000000000000CD
S214005EB000000000000000000000000000000000DD
S214005EC000000000000000000000000000000000CD
S214005ED000000000000000000000000000000000BD
S214005EE000000000000000000000000000000000AD
S2140063B000000000000000000000000001000000D7
S2140063C09A9939400000C03F010000002C010000EF
S2140063D00A00000001000000000360280000000022
S2140063E00300000054B90920BC6200200000000031
S2140063F054B90920BCB9092024BA092000000000BD
S2140064000000000000000000000000000000000087
S2140064100000000000000000000000000000000077
S2140064200000000000000000000000000000000067
S2140064300000000000000000430000000000000014
S2140064400000000000000000000000000000000047
S21400645000000000000000004300000000000000F4
S2140064600000000000000000000000000000000027
S21400647000000000000000004300000000000000D4
S2140064800000000000000000000000000000000007
S21400649000000000000000004300000000000000B4
S2140064A000000000000000000000000000000000E7
S2140064B00000000000000000430000000000000094
S2140064C000000000000000000000000000000000C7
S2140064D00000000000000000430000000000000074
S2140064E000000000000000000000000000000000A7
S2140064F00000000000000000430000000000000054
S2140065000000000000000000000000000000000086
S2140065100000000000000000FF2A1400CB2A140030
S214006520000000003CAA1B00F31A190015141900FD
S214006530151419001514190015141900151419004E
S214006540151419001514190015141900151419003E
S214006550FFFFFFFFFFFFFFFFFFFFFFFFFFFF000044
S21400656001004153434949000000000000000000BC
S2140065700000000000000000000000000000000016
S214006580000041534349490000000000000000009D
S21400659000000000000000000000000000000000F6
S2080065A000000000F2
S2140065A400000000000000000000000000000000E2
S2140065B400000000000000000000000000000000D2
S2080065C400000000CE
S2080065C8AAAAAAAA22
S2050065CCFFCA
S2140065E00348044B834202D0034B03B1184770475D
S2140065F0746400207464002000000000064B074905
S214006600C91A891048BF0131491003D0044B0BB199
S21400661001481847704700BF746400207464002067
S2140066200000000010B5064C237843B9FFF7D8FFEA
S214006630044B13B10448AFF300800123237010BD50
S21400664010EF0520000000003001000008B5054BE3
S2140066501BB105490548AFF30080BDE80840FFF7C9
S214006660CDBF00BF0000000014EF05203001000081
S214006670A3F5803A704700BF174B002B08BF134B9B
S2140066809D46FFF7F5FF00218B460F461348144A38
S214006690121A38F179F90E4B002B00D098470D4BA3
S2140066A0002B00D098470020002104000D000D4864
S2140066B0002802D00C48AFF3008038F121FE2000FD
S2140066C0290003F063FE35F1EBFD00BF0000080073
S2140066D00000000000000000A074002010EF05205D
S2140066E098BA092000000000000000000369C26894
S2140066F093429CBF81685B18013B981A70472DE94E
S214006700F0410546D0E902844068A8EB04069642AC
S21400671020440F46144406D938F13AFEBFF35F8F83
S214006720EC60BDE8F0813246A4EB080438F130FE98
S21400673022466868B919EFE72DE9F8430646894608
S21400674017464FF00008C5683369B4689D4228BFF5
S2140067501B19641BBC4228BF3C46013B5B1B9C428A
S21400676028BF1C46706849462246284438F110FE69
S214006770B3682544AB4208BF0025A044A1443F1B94
S214006780BFF35F8FF560002FDED14046BDE8F8838B
S214006790032310B5134C144923616361134BA161A5
S2140067A0E3614FF48063022223620023A3626362E4
S2140067B0E26221660E49E01D61668021A1660D49F0
S2140067C02367E366626738F1CDFDBFF35F8F0A4942
S2140067D0204638F1C7FDBFF35F8F2023A371BFF3B8
S2140067E05F8F10BDACF30520303D1400ACEF0520E4
S2140067F02CEF0520393D14003D3D1400F8B5182750
S21400680000FB0775124B0E461D4407FB0033DB6A80
S2140068101446012B0AD0022B14D023B92846FFF7C2
S21400682065FF844208D900242046F8BD2846FFF7B5
S2140068305DFF844228BF0446224631462846FFF7BD
S2140068405EFFF1E72846BDE8F840FFF775BF00BFDA
S214006850ACF30520F8B50B4B04461B780D461646E0
S2140068600BB9FFF795FFEFF311874FF0200181F387
S2140068701188324629462046FFF7C0FF87F3118865
S214006880F8BD00BFACF305202DE9F041164C1E46BE
S21400689023780546884617460BB9FFF779FF236924
S2140068A0AB421DD9EFF3118C4FF0200181F3118814
S2140068B065B1182005FB000344F80380E2180023A6
S2140068C0576000FB0542166293625362182303FB6F
S2140068D00544069BE3628CF311880020BDE8F08136
S2140068E04FF0FF30FAE700BFACF3052010B5826822
S2140068F004464068531C834205D820688154A36030
S214006900E3680133E360D4E901329A420BD121688F
S2140069102069FFF79FFFA368984215BF4FF0FF332B
S2140069200023E360A36010BD2DE9F84F1646054628
S21400693088460A464FF0010A9946DDE90A43B24204
S21400694012D2CA4538BFCA4613F0010B01D184B92A
S2140069500024EB68002B3CDB0127B9F1010F1ED9A0
S21400696009F1FF397743F8E7B2FBF6F20AF1010ABC
S214006970E5E79B0711D5B9F1000F0CBF302720279C
S214006980A245E6D239462846FFF7B0FFEB68013C41
S214006990002BDEDB002CF3D1DAE72027F0E7B8FB8C
S2140069A0F7F39E42DED9DFF84890B8FBF7F32846A7
S2140069B019F9031007FB1388FFF798FFEB68002B05
S2140069C003DBB742B7FBF6F305D2BBF1000F00D0EE
S2140069D05CB9BDE8F88F1F46E7E720212846FFF799
S2140069E085FFEB68013C002BF3DB5445F5D8F0E758
S2140069F04B2A19002DE9F04F00230E46402115467C
S214006A009BB0CDE90613CDE908300DF1280A0390B6
S214006A10CDF814A016F9011B39B9089D002D00F316
S214006A20118108981BB0BDE8F08F252940F0BD8085
S214006A304FF0000B314611F9013B2D2B19D013DC1A
S214006A40232B1DD02B2B18D00024314611F9013BE7
S214006A50A3F13000C0B2092815D80A2202FB04337D
S214006A600E46A3F13004F0E7302BEDD14BF0020BCD
S214006A7001E04BF0010B0E46DCE74BF0040BFAE7A7
S214006A804BF0080BF7E72E2B12D10E464FF00009FD
S214006A904FF00A0C304610F9011BA1F13007FFB287
S214006AA0092F07D80CFB09110646A1F13009F1E7BA
S214006AB04FF00009304610F9011B21F00407682F3B
S214006AC00646F8D0782909DC6F290BDC632967D0E5
S214006AD020DC252969D0582900F09480089B002BDB
S214006AE098DA9AE770390829F8D801A050F821F00A
S214006AF0356C0000DD6A0000DD6A0000156C0000E1
S214006B00DD6A0000F36B0000DD6A0000DD6A00004D
S214006B10056C00006429E1D129684FF00108081DC2
S214006B2028600A200F6887EAE771A1EBE771092958
S214006B303FDCC84538BFC8462CB1002F02DB1BF02F
S214006B40040F00D0013C1BF0020F02D0B9F1000F79
S214006B5004D01BF0010F01D184BB00240899002942
S214006B60BCDB002F35DA2D217F4205A8FFF7BEFEDD
S214006B7008990029B2DB0BF00301022904D1B9F110
S214006B80000F01D154BB002408990029A6DB4B4610
S214006B900A223946CDE9004B05A8FFF7C5FE9DE75A
S214006BA02B681A1D2A6093F9001005A8FFF79EFEB1
S214006BB094E7B1FBF0F108F10108B8E74445CDD9F8
S214006BC0202105A8FFF792FE0899013C0029C3DAA8
S214006BD0C4E71BF0040FCED02B21C6E74445D3D91B
S214006BE0302105A8FFF782FE0899013C0029C9DA82
S214006BF0CAE74B460A222968081D2860CDE9004BE3
S214006C000968C9E74B462968081D2860CDE9004B8E
S214006C101022F5E72B681A1D2A601C6814F9011B60
S214006C2000293FF45BAF05A8FFF760FE089B002B2A
S214006C30F4DA53E7296800220B1D2B600823CDE900
S214006C400032E5E7079C24B1224651460398FFF739
S214006C5001FE2C440894E4E60EB403B503AB53F8E7
S214006C60041B01AA0193FFF7C5FE02B05DF804EB12
S214006C7003B07047F0EE407AB1EE407AF7EE006A65
S214006C809FED080AB4EEE77AF1EE10FA02D980EE2C
S214006C90200A7047B0EC016A07EE060A37EE267A3D
S214006CA0F0E700BF00000000891A09B2002915DDD0
S214006CB09FED0C7A002300EB8202F0EC016AF2EC06
S214006CC0017A01331BB2994206EEA77AF5D107EE98
S214006CD0901AF8EEE77A87EE270A70479FED010ACA
S214006CE0704700BF000000002DE9F041146816460A
S214006CF02246B0EE406A074688461D46FFF7D4FF98
S214006D00C0EE207AF4EEC67AF1EE10FA19DB023401
S214006D10224641463846F0EE405AFFF7C5FFC0EE21
S214006D20207AF4EEC67AF1EE10FA08DBF4EEC05ADA
S214006D30F1EE10FA03DDAC42E9DD002414E0AC42CB
