S023000058706C6F7265725F5765617261626C655F576966695F72613677312E7372656395
S214000000A0740020D1430600812F0A089D2F0A08FD
S214000010A3240600C1240600DF240600E92F0A08F0
S21400002000000000000000000000000051D70300A0
S214000030BD43060000000000E1D60300291A0A08A6
S2140000400000000049A20000116F0500116F0500B6
S214000050000000009D870500000000000000000072
S214000060000000000000000000000000000000008B
S21400007000000000000000000000000049A2000090
S21400008049A2000000000000000000000000000080
S214000090000000000000000000000000000000005B
S2140000A0000000000000000000000000000000004B
S2140000B049A200000000000049A20000112D0A0815
S2140000C0212D0A0849A2000049A2000049A200000A
S2140000D041150A0849A2000049A2000049A20000F2
S2140000E005280A08F18E0500F18E050049A20000D9
S2140000F00DD81100000000005D681200000000002E
S2140001005D68120011371200113D0A0859DE120010
S214000110E5DF120055151300000000000000000087
S21400012000000000000000000000000000000000CA
S214000130080000000000803F0000000000000000F3
S21400014000000000746573743130315F323467002C
S214000150000000000000000000000000000000009A
S214000160000000000B0376686F7273653233000080
S214000170000000000000000000000000000000007A
S214000180000000000000000000000000000000006A
S214000190000000000000000000000000000000005A
S2140001A0000000000000000000000000000000004A
S2140001B0000000000000000000000000000000003A
S2140001C0000000000000000000000000000000002A
S2140001D0000000000000000000000000000000001A
S2140001E00000000000000800000000000000000101
S2140001F0681E0620CC0000201C38002000000002EC
S214000200000000010001000000000000A5FF04003F
S21400021068010020E8000020000101010000000045
S214000220F4000020010000005C01002058010020BE
S214000230520100205001002048010020400100200B
S2140002403C01002038010020300100202801002059
S2140002502401002038FF000000000000000000001D
S2140002600000000000000000000801000000000080
S2140002703200200000000100050000010000000020
S214000280000600000000000000200500EB00FFA8AC
S214000290060101010100000020000000001000001F
S2140002A052000000008000005200000000800000A5
S2140002B0D8000000FFFFFFFFC81D0620D82F19003A
S2140002C0A45C190000000000000000000C311900BA
S2140002D000000000C000002048311900A8311900B5
S2140002E0D01100200000000000000000C011002017
S2140002F000000000000000000000000000000000F9
S21400030000000000000000000000000000000000E8
S21400031000000000000000000000000000000000D8
S21400032000000000000000000000000000000000C8
S2140012F0581E062048301900A45C19000D0C00008A
S214001300501F0620DC110020248119000000000078
S214001310C43019001A0000002B000000C03106205F
S21400132024321900E0811900FFFFFFFF0C12002095
S214001330000000000000000000000000D43206207C
S2140013407C320620FFFFFFFF24320620CC31062029
S21400135000000000543219001A0000002B000000A4
S214001360200000001DF3000001F30000EC4119000E
S21400137010000000315A18000D000000831E1500F2
S21400138008000000A7E01500080000009C211500DA
S214001390080000009B1E150008000000626A14008A
S2140013A008000000AD1E150008000000B91E15005C
S2140013B008000000CB1E150008000000DF1E150008
S2140013C008000000F51E1500080000000B1F1500A1
S2140013D0080000001E1F150087000000261F1500CD
S2140013E0870000002E1F150008000000A61E15002E
S2140013F0080000003B1F150008000000421F1500F3
S214001400080000004E1F1500080000005A1F1500B7
S2140014108B000000661F15008B000000881F15005B
S2140014202B000000961F15002B000000721F1500F1
S2140014303B0000007B1F150008000000666A1400D1
S21400144008000000A41F150008000000B31F1500C8
S21400145008000000BF1F15008B000000C71F150006
S2140014608B000000CF1F150034000000E11F1500A0
S2140014701C000000F11F15000800000014201500D5
S21400148008000000022015001C00000023201500A4
S214001490080000002E201500080000003920150066
S2140014A027000000462015002700000053201500E6
S2140014B02700000061201500270000006F2015009F
S2140014C0270000007A201500270000008520150060
S2140014D0270000008C2015002700000095631400EC
S2140014E00800000093201500270000009E2015002D
S2140014F027000000A920150008000000BE201500E7
S21400150008000000CB20150008000000736A1400D5
S21400151008000000876A140007010000996A14009A
S21400152008000000A26A14003F000000B26A14001F
S2140015303F000000C26A140077000000D26A140060
S2140015403F000000DF82140008000000088314003B
S21400155008000000E26A14001D000000E96A14009A
S21400156060000000F36A1400C0000000016B140065
S214001570C00000000F6B1400C00000001D6B1400BC
S214001580C00000002B6B1400C0000000396B140074
S214001590C0000000476B1400C0000000556B14002C
S2140015A029000000646B140008000000796B14002A
S2140015B087000000856B1400080000008F6B140085
S2140015C008000000986B140087000000A76B14004A
S2140015D087000000B76B140087000000C76B14007C
S2140015E087000000D76B140087000000E76B14002C
S2140015F008000000FA6B140087000000096C140055
S21400160008000000126C140008000000236C140090
S214001610080000002D6C1400870000003B6C1400CE
S21400162047010000496C140087000000596C140044
S21400163087000000676C140008000000756C14003A
S21400164008000000886C140008000000946C140069
S21400165057000000A16C140057000000AE6C140088
S21400166008000000C06C140037000000CF6C1400A7
S21400167037000000DE6C140037000000ED6C14002C
S21400168087000000FA6C1400080000000D6D1400BE
S214001690AF0000001C6D1400080000002E6D140042
S2140016A008000000406D140008000000526D140091
S2140016B0080000005F6D140008000000736D140041
S2140016C008000000816D140008000000946D1400EE
S2140016D008000000A76D140037000000B76D140066
S2140016E037000000C76D140037000000D76D1400E7
S2140016F087000000E56D140008000000F26D14007D
S21400170008000000FE6D1400080000000F6E1400B4
S21400171008000000206E1400370000002E6E140033
S214001720370000003C6E1400370000004A6E1400BC
S21400173087000000566E140008000000646E140057
S214001740080000006D6E140008000000786E14009B
S21400175007020000806E14001D000000BE6E14001C
S21400176027000000CD6E14001D0000008C6E1400D3
S2140017701D0000009B6E140027000000A96E1400D8
S2140017801D000000B96E140027000000C86E14008B
S2140017901D000000D96E140001020000E26E140065
S2140017A001020000EA6E140008000000FA6E140041
S2140017B0080000000A6F1400080000001A6F1400EA
S2140017C0080000002A6F1400080000003A6F14009A
S2140017D0080000004A6F1400080000005A6F14004A
S2140017E0080000006A6F1400080000007A6F1400FA
S2140017F0080000008A6F1400080000009C6F1400A8
S21400180008000000AE6F140008000000C06F14004F
S21400181008000000D26F140008000000E46F1400F7
S21400182008000000F66F140008000000087014009E
S214001830080000001A701400080000002C70140045
S214001840080000003E7014000800000050701400ED
S2140018500800000062701400080000007470140095
S214001860080000008670140008000000987014003D
S21400187008000000AA70140008000000BC701400E5
S21400188008000000CE70140008000000E07014008D
S21400189008000000F2701400080000000771140031
S2140018A0080000001C7114000800000031711400CC
S2140018B00800000046711400080000005B71140068
S2140018C00800000070711400080000008571140004
S2140018D0080000009A71140008000000AF711400A0
S2140018E008000000C471140063000000D8711400E2
S2140018F063000000EC711400630000000072140026
S21400190063000000147214006300000028721400C4
S214001910630000003C721400630000005072140064
S2140019206300000064721400630000007872140004
S214001930630000008C72140008000000A0721400FF
S21400194008000000B472140008000000C8721400FA
S21400195008000000DC72140008000000F07214009A
S2140019600800000004731400080000001873140038
S214001970080000002C7314000800000040731400D8
S214001980080000005473140008000000657314007B
S2140019900800000076731400080000008873140026
S2140019A0080000009A73140008000000AF731400CB
S2140019B008000000C473140047000000DA73140027
S2140019C047000000F073140047000000087414007D
S2140019D047000000207414008700000038741400CC
S2140019E0870000005074140008000000687414009B
S2140019F008000000807414000800000097741400AB
S214001A0008000000AE74140008000000C57414003E
S214001A1008000000DC74140008000000F0741400D5
S214001A200800000004751400080000001875140073
S214001A30080000002C751400870000004275140092
S214001A4087000000587514008700000066751400B3
S214001A500800000073751400080000008475140068
S214001A60870000008E7514005F0000009875140053
S214001A7087000000A575140027000000AC75140050
S214001A8007020000B475140008000000BE751400BC
S214001A9008000000C975140008000000D275140084
S214001AA008000000DC7514001D000000E675140038
S214001AB002000000F375140002000000FA7514001E
S214001AC0070200000576140041000000137614009B
S214001AD0080000006EBC180008000000197614000C
S214001AE08700000020761400870000002776140088
S214001AF00200000031761400020000003876140060
S214001B0008000000CF1E15000800000041761400F3
S214001B1008000000517614000800000061761400EA
S214001B20190000006D761400190000007876140085
S214001B300200000083761400020000008C76140079
S214001B404100000093761400410000009A761400CD
S214001B5041000000A176140041000000A8761400A1
S214001B6041000000AF76140041000000B676140075
S214001B7041000000BD76140041000000C476140049
S214001B8041000000CB76140041000000D27614001D
S214001B9007020000DF76140087000000E9761400D4
S214001BA0070400008475140047000000F97614004E
S214001BB00704000009771400470000001977140096
S214001BC047000000AC7514000702000011771400EF
S214001BD04700000021771400470000002C7714000F
S214001BE01D000000C97514001D000000B475140027
S214001BF01D000000BE7514001D0000009B4E140062
S214001C0008000000AE4E140087000000CE4E140000
S214001C1008000000DD4E140008000000EE4E140020
S214001C2008000000024F140008000000164F1400C1
S214001C3008000000254F140008000000374F14006D
S214001C40080000004A4F1400080000003477140013
S214001C50080000004B7714000800000068771400A6
S214001C6008000000D960140008000000D2601400CC
S214001C7008000000B46214001F0000007177140012
S214001C80080000007B771400270000008877140007
S214001C902700000092771400270000009C771400AD
S214001CA027000000A577140027000000AF77140077
S214001CB008000000C077140008000000CA7714006F
S214001CC027000000D777140027000000E1771400F3
S214001CD027000000EB77140027000000F4771400BC
S214001CE0270000005263140008000000716314000F
S214001CF02700000088631400270000005B631400C0
S214001D0008000000FE771400270000000A78140080
S214001D1057000000197814005700000028781400B7
S214001D2057000000367814000800000045781400BC
S214001D3047000000BEE314000800000054781400BA
S214001D40470000005D781400470000006878140023
S214001D504700000073781400080000007F78140025
S214001D60080000008D781400080000009C7814001D
S214001D7008000000A778140008000000B4781400DB
S214001D8008000000C278140008000000D178140093
S214001D9008000000E078140008000000EB7814004B
S214001DA008000000F8781400080000000679140007
S214001DB01D0000001A791400570000001579140061
S214001DC01D0000001F791400470000005F4015004A
S214001DD0810000002B7914004700000036791400BB
S214001DE0470000004379140047000000846E150089
S214001DF0310000005179140007020000CF1F1500C3
S214001E0035000000E11F15001D0000006079140079
S214001E100800000073791400080000000220150076
S214001E200800000014201500080000008479140043
S214001E300800000090791400080000007B80140061
S214001E401D0000009F7914001D000000AA791400F0
S214001E501D000000B87914001D000000CB791400A6
S214001E601D000000E57914001D000000F279140042
S214001E701D000000FE7914001D0000000A7A140000
S214001E801D000000157A14001D000000267A1400BC
S214001E901D000000357A14001D0000002B7A140087
S214001EA013000000457A14001D000000327A14006A
S214001EB01D000000427A14001D000000597A14002C
S214001EC01D000000657A14001D000000747A1400DE
S214001ED01D000000827A14001D0000008C7A140099
S214001EE01D0000009E7A140047000000B37A14001C
S214001EF01D000000C97A14001D000000DB7A1400E3
S214001F001D000000626A14001D00000053801400CB
S214001F101D000000628014001D000000DF7A14001F
S214001F202B000000EA7A14001D000000FE7A140060
S214001F301D0000000C7B14001D000000207B140018
S214001F401D000000377B14001D000000447B1400B9
S214001F501D0000005A7B140047000000727E14002B
S214001F60470000007C7E1400470000006A7B1400D7
S214001F701D000000D1801400130000008E7C1400A9
S214001F801D0000007B7B14001D0000008D7B1400EC
S214001F901D0000009E7B14001D000000A77B14009F
S214001FA01D000000B67B14001D000000C17B14005D
S214001FB01D000000D57B14001D000000EF7B140000
S214001FC01D000000067C14001D000000137C140099
S214001FD01D000000267C1400470000002E3015006F
S214001FE0470000001C3015001D000000F72F1500EC
S214001FF01D000000EF2F15001D000000377C1400A8
S2140020001D000000447C14001D000000527C1400DB
S2140020101D000000607C14001D000000687C140099
S21400202027000000757C14001D000000827C140050
S2140020301D0000008A7C14001D000000A17C140016
S2140020401D000000B37C14001D000000C97C1400B5
S21400205008000000D27C140008000000D2431500DF
S2140020601D000000E17C14001D000000EF7C140041
S21400207008000000FD7C14001D000000315A180006
S2140020800D000000057D14001D0000000D7D1400ED
S21400209008000000187D140008000000217D1400D0
S2140020A01D0000002F7D14001D00000000211500FB
S2140020B01D000000417D14001D000000487D140036
S2140020C01D000000517D14001D0000005D7D140001
S2140020D007040000667D14001D000000737D1400D8
S2140020E0080000007E7D140087000000867D140036
S2140020F008000000937D1400290000009C7D140059
S2140021001D000000AA7D14001D000000BD7D140007
S2140021101D000000D07D14008B000000D77D140049
S2140021208B000000E67D14001D000000F67D140004
S2140021300B010000067E140047000000197E140004
S21400214047000000227E1400470000002E7E140088
S2140021501D000000407E14006B0000004C7E140042
S2140021606B000000557E14006B000000637E1400B8
S214002170430000006F7E140047000000797E1400C4
S21400218047000000857E140007050000927E1400BC
S214002190070500009F7E1400CF000000A67E1400F6
S2140021A08B000000B27E140047000000C87E1400BA
S2140021B047000000D97E14008B000000E57E140066
S2140021C02F000000EF7E14002F000000F97E1400A0
S2140021D01D000000087F14003B000000147F140060
S2140021E03B000000207F14003B0000002C7F140002
S2140021F03B000000387F140008000000497F1400F0
S2140022001D000000557F14001D000000677F1400AD
S21400221047000000737F14001D000000847F140038
S2140022201D0000008C7F14001D000000977F140026
S2140022301D0000009F7F14001D000000AF7F1400EB
S2140022401D000000BC7F14001D000000CA7F1400A3
S2140022501D000000D17F14001D000000EA7F14005E
S21400226008000000F67F14001D000000FE7F14002A
S2140022701D0000000E8014001D0000001F801400CA
S2140022801D0000002D801400070200003780140097
S2140022901D000000508014001D0000005F80140028
S2140022A01D0000006D8014001D00000078801400E2
S2140022B01D0000008D801400170000009980140097
S2140022C01D000000AE80140025000000CE80140023
S2140022D01D000000DA80140047000000EE801400A5
S2140022E01D000000058114001D0000001E81140062
S2140022F01D000000398114001D00000054811400E8
S2140023001D0000006B8114001D0000007C8114007D
S2140023101D000000938114001D000000A28114001F
S21400232047000000B381140047000000C781140076
S2140023301D000000E281140047000000EF81140039
S2140023401D000000FC8114001D000000088214001F
S2140023501D0000001E8214001D00000037821400BD
S2140023601D0000004F8214001D0000005E82140055
S2140023701D000000748214001D0000007E82140000
S2140023801D0000008B8214001D00000099821400BE
S2140023901D0000009F8214001D000000A78214008C
S2140023A01D000000B58214001D000000C582140048
S2140023B01D000000D48214001D000000E4821400FA
S2140023C01D000000F78214001D00000002831400A8
S2140023D01D0000000D8314001D0000002283140061
S2140023E01D000000328314001D000000438314000B
S2140023F0470000004D8314001D0000006183140098
S2140024001D000000758314001D0000008983140061
S2140024101D000000908314001D0000009F83140020
S2140024201D000000AB8314001D000000BC831400D8
S2140024301D000000D08314001D000000E48314007B
S2140024401D000000F88314001D0000000C8414001A
S2140024501D000000208414001D00000034841400B9
S2140024601D000000488414001D0000005C84140059
S2140024701D000000708414001D00000084841400F9
S2140024801D000000988414001D000000AC84140099
S2140024901D000000C08414001D000000D484140039
S2140024A01D000000E88414001D000000FC841400D9
S2140024B01D000000078514001D0000001285140092
S2140024C01D000000218514001D000000308514004A
S2140024D01D000000468514001D00000051851400F4
S2140024E01D000000628514001D00000076851400A3
S2140024F01D0000008D8514001D0000009D85140041
S2140025001D000000A98514001D000000B5851400FC
S2140025101D000000C58514001D000000D5851400B0
S2140025201D000000EC8514001D000000F885140056
S2140025301D0000000A8614001D0000001F861400FF
S2140025401D000000378614001D0000004886140099
S21400255047000000508614001D0000005786140037
S2140025601D000000648614001D0000006E86140026
S2140025701D000000798614001D00000087861400E8
S2140025801D000000928614001D0000009A861400AC
S2140025901D000000A88614001D000000B48614006C
S2140025A01D000000C38614001D000000CD86140028
S2140025B01D000000D88614001D000000EB861400E5
S2140025C01D000000F28614000800000001871400B9
S2140025D01D0000000D871400080000001887140076
S2140025E087000000208714001D0000002D871400BF
S2140025F029000000368714001D00000044871400E0
S2140026001D000000578714001D0000006A87140094
S2140026108B000000718714001D00000081871400E5
S2140026200B0100009187140047000000A4871400E7
S21400263047000000AD87140047000000B98714006B
S2140026401D000000CB8714006B000000D787140025
S2140026506B000000E08714006B000000EE8714009B
S21400266043000000FA8714004700000004881400A6
S2140026704700000010881400070500001D8814009D
S214002680070500002A881400CF00000031881400D7
S2140026908B0000003D88140047000000538814009B
S2140026A047000000648814008B0000007088140047
S2140026B02F0000007A8814002F0000008488140081
S2140026C01D000000938814003B0000009F88140043
S2140026D03B000000AB8814003B000000B7881400E5
S2140026E03B000000C38814001D000000D4881400BE
S2140026F01D000000E08814001D000000F288140091
S21400270047000000FE8814001D0000000F8914001A
S2140027101D000000178914001D0000002289140007
S214002720080000002A8914001D0000003A891400E1
S21400273008000000478914001D0000005589140099
S2140027401D0000005C8914001D000000758914003F
S2140027501D000000818914001D00000089891400F6
S2140027601D000000998914001D000000AA891400AD
S2140027701D000000B889140007020000C28914007A
S2140027801D000000DB8914001D000000EA8914000B
S21400279008000000F88914001D000000038A1400D9
S2140027A008000000188A140017000000248A14008D
S2140027B01D000000398A140025000000598A140004
S2140027C01D000000658A140047000000798A140086
S2140027D01D000000908A14001D000000A98A140045
S2140027E01D000000C48A14001D000000DF8A1400CB
S2140027F01D000000F68A14001D000000078B140060
S2140028001D0000001E8B14001D0000002D8B140000
S214002810470000003E8B140047000000528B140057
S2140028201D0000006D8B1400470000007A8B14001A
S2140028301D000000878B14001D000000938B140001
S2140028401D000000A98B14001D000000C28B1400A0
S2140028501D000000DA8B14001D000000E98B140038
S2140028601D000000FF8B14001D000000098C1400E2
S2140028701D000000168C14001D000000248C14009F
S2140028801D0000002A8C14001D000000328C14006D
S2140028901D000000408C14001D000000508C140029
S2140028A01D0000005F8C14001D0000006F8C1400DB
S2140028B01D000000828C14001D0000008D8C14008A
S2140028C01D000000988C14001D000000AD8C140044
S2140028D01D000000BD8C14001D000000CE8C1400EE
S2140028E047000000D88C14001D000000EC8C14007B
S2140028F01D000000008D14001D000000148D140043
S2140029001D0000001B8D14001D0000002A8D140001
S2140029101D000000368D14001D000000478D1400B9
S2140029201D0000005B8D14001D0000006F8D14005C
S2140029301D000000838D14001D000000978D1400FC
S2140029401D000000AB8D14001D000000BF8D14009C
S2140029501D000000D38D14001D000000E78D14003C
S2140029601D000000FB8D14001D0000000F8E1400DB
S2140029701D000000238E14001D000000378E14007A
S2140029801D0000004B8E14001D0000005F8E14001A
S2140029901D000000738E14001D000000878E1400BA
S2140029A01D000000928E14001D0000009D8E140075
S2140029B01D000000AC8E14001D000000BB8E14002D
S2140029C01D000000D18E14001D000000DC8E1400D7
S2140029D01D000000ED8E14001D000000018F140085
S2140029E01D000000188F14001D000000288F140022
S2140029F01D000000348F14001D000000408F1400DE
S214002A001D000000508F14001D000000608F140091
S214002A101D000000778F14001D000000838F140037
S214002A201D000000958F14001D000000AA8F1400E2
S214002A301D000000C28F14001D000000D38F14007C
S214002A4047000000DB8F14001D000000E28F14001A
S214002A501D000000EF8F14001D000000F98F140009
S214002A601D000000049014001D00000012901400C9
S214002A701D0000001D9014001D000000259014008D
S214002A801D000000339014001D0000003F9014004D
S214002A901D0000004E9014001D0000005890140009
S214002AA01D000000639014001D00000076901400C6
S214002AB01D0000007D9014000800000086901400A1
S214002AC0080000009490140008000000A590140070
S214002AD008000000B590140008000000D090140014
S214002AE008000000E090140008000000F1901400B8
S214002AF00800000007911400080000001C91140054
S214002B0008000000309114000800000045911400F1
S214002B100800000054911400080000006A91140098
S214002B200800000080911400080000008D91140039
S214002B30080000009D91140008000000B0911400E9
S214002B4008000000BD91140008000000BD621400DB
S214002B501F000000CF91140008000000E39114004D
S214002B6008000000F391140008000000059214000D
S214002B700800000018921400080000002C921400B0
S214002B80190000003192140021000000A462140015
S214002B90080000003A921400080000004292140058
S214002BA0080000004B921400080000005392140026
S214002BB00200000010000000000060280100000075
S214002BC00400000050D8602801120F00000000002A
S214002BD0B80B00000000000000000000000000002D
S214002BE00212070000000000B80B00000000000002
S214002BF000000000000000000302050000000000C6
S214002C0000000000000000000000000000000000BF
S214002C100402030000000000B80B000000000000E3
S214002C20CC100000000000000500000000000000BE
S214002C30000000000000000000000000000000008F
S214002C400100000068771400FFFFFFFF010000008E
S214002C5002000000E8030000307500006E19000056
S214002C6000C00000FA00000059160300E803000048
S214002C70D1380E00E80300005DA20200E803000061
S214002C80458D02000A000000FD8F0200640000006F
S214002C907D7902006400000009AB0200E803000032
S214002CA0F59A0200E803000009B20200E8030000FB
S214002CB02D2A0E0064000000C1340E00F40100004E
S214002CC05D250E0001000000FF00000078000000F7
S214002CD0FFFFFF006C090000A086010064000000F2
S214002CE0000000000000000010203040506070809F
S214002CF090A0B0C00000000000000001001400001A
S214002D0000000000000000000000000000000000BE
S214002D1000000000000000000000000000000000AE
S214002D20000000000000000000000000000000009E
S214002D30000000000000000000000000000000008E
S214002D40000000000000000000000000000000007E
S214002D50000000000000000000000000000000006E
S214002D60000000000000000000000000000000005E
S214002D70000000000000000000000000000000004E
S214002D80000000000000000000000000000000003E
S214002D90000000000000000000000000000000002E
S214002DA0000000000000000000000000000000001E
S214002DB0000000000000000000000000000000000E
S214002DC000000000000000000000000000000000FE
S214002DD000000000FFFFFFFFC8000000000000002A
S214002DE0000000000000000028480820A52104007C
S214002DF00000000000000000900600002D2D2D2D84
S214002E002D424547494E2052534120505249564183
S214002E105445204B45592D2D2D2D2D0A4D494945FC
S214002E207041494241414B43415145417379436B9F
S214002E304F4F48527A526C4F454445543848615972
S214002E4046774D436E59705270366865706A6E37B5
S214002E505464746C5A464473787754530A694463CE
S214002E604E5832375867556243454E416E33654B70
S214002E703277646564595A6E706D48584730386EBC
S214002E804F67794A7248466F423737565A32694317
S214002E906643564D507774537675704C2F0A7457A8
S214002EA0305664656139566F684473546B416F766B
S214002EB04755577942567A65796849756A682F5436
S214002EC06F4E59346158756C49674C5953323167A7
S214002ED0556F79384761565A7953775144580A34B2
S214002EE04E632F38306E4C79486643704D55774C9C
S214002EF0364C4A30546C78643365556F6E634A447A
S214002F0037544E4D6D574C674D34586C6D35317592
S214002F1075525935426642396E584B554862690AB1
S214002F203661397330784A2B5732564B53344B53ED
S214002F306252574558785549735842365435593178
S214002F40797570344F514144497A4A484A57554F2B
S214002F504C37327657704D63385834526A42776B26
S214002F600A646148374D5636444F305A7A58447290
S214002F70756245454748346C45456673624E5974DC
S214002F8050325147447551494441514142416F497D
S214002F904241446E69594738704F687A6E416E7A7E
S214002FA06B0A2F7961446A463554554C4D4D455A47
S214002FB0723249362F66714C2F6547414F3079750E
S214002FC037394E664E69707557683865344B715997
S214002FD06535584569746A4A56545562354B654698
S214002FE077570A49797770574A797A734A30323078
S214002FF04D31666379757A77764447634A39724409
S214003000325A68506C536F62586A75475630764A23
S21400301034444C684E4D69386567497150476B6457
S2140030202B584B0A4438302B787A6A554D342B345B
S214003030486B485855795953414C376E547A492B4A
S2140030406E68396D6D3379436E7446534A734E6AB3
S214003050317452583749566A6E6A68315249533746
S2140030604D5235420A663075397856476633556292
S2140030704276654B2F52795647642F51574A616303
S2140030806B744263723357794378486B776F363484
S214003090544554756A3544334E787149726D6943A8
S2140030A068426175420A656469716F653352757866
S2140030B0507736766745332B7A336D6644644430F2
S2140030C0586235384373764E323764572F2F6575FE
S2140030D06631785A6A6A7736784C71416F335A642B
S2140030E03866414D4D450A45464455526945436745
S2140030F0594541316D582F5A304F6F4E49643353FE
S2140031006F466867354E6B516C45425362324C6E63
S2140031106133354A74716875796C504C61726A61B6
S214003120706F476A33432F0A347A30684149553600
S214003130643157334C313250313735586148724418
S21400314075413531546339626E4D702F4A7553722E
S2140031505636723543766D5A4A38314D6674596C18
S2140031604A7A6C34317A4A640A4A4966316E494C66
S214003170786C58765153397256485371494F2F30F0
S21400318064507745416B474B4A487171687957548C
S2140031904D35736833436367705179374A734C30E3
S2140031A0436759454131654B5A0A704464676B4C16
S2140031B05251676D746B57304644496B52316147C4
S2140031C0364A3667452F54706D6D535936347871CC
S2140031D045597235726E47524F627659724751584A
S2140031E04870396F442F517543480A6669566575AD
S2140031F06476757951595874304B734576304E79EC
S214003200686F4C576D416C54696A31654B456A5519
S2140032106D76487254563379644D53644549733518
S21400322070356B3677334874384B550A3459416AD3
S2140032306A46676C4C2B30784456394543366E7771
S214003240423473774E774B664270696675776B7358
S214003250704B30436759423152466A4D484A3932BC
S2140032604339706473434B73477751740A6D61300A
S21400327041726D496448726B3258554D303463560E
S2140032806A44794E51665771314C6C426D64467390
S214003290477339686B7955646D36742F77657A583D
S2140032A0482B63337663456B4E424376780A7548FF
S2140032B06950783264496A6B576C6B52774B507919
S2140032C0706C2F6139596F77444C6738716158704C
S2140032D0736976695278524D574C6C2B6756436427
S2140032E078324931334A786A794F764C61500A52BF
S2140032F0586B30644B503258784E7445455178635D
S21400330050663061514B4267514448587A7A63712F
S214003310496F70475176624A6F516231452F694254
S214003320334A783847673661774D36483175300A04
S2140033305159665944353756516B3264514876793F
S2140033405351505A53586850775A737747642F7AB8
S2140033504A4A365348594D4F653946726B4969613A
S21400336041717A7838536B594333743679673958D4
S2140033700A624D31694C506D716161624A79536AD7
S214003380776D6963457169316B4E696F7644774234
S21400339038323164486F5871346E42385857664137
S2140033A0783979793575334D734E424E4D734D529B
S2140033B06B0A4D6E386332514B42675143304F4B68
S2140033C0626F6555677A6B396930364B453643719F
S2140033D0474F3433577050444B4E472B34796C6EFE
S2140033E0436E49786A654749594C4E4B484A2B52BA
S2140033F043760A346C742B464857637763694D33BB
S2140034004A6F4E4A57536671584763717032423955
S21400341037492F59445738374C3648653453685522
S2140034206D7A76646C4147314365634771545942FF
S2140034307259420A6C63722F2B52756B577A494D3C
S21400344055434132344B65416F68654B73432B4897
S2140034504A4767345530386E577A356E394B3330B5
S2140034606B714E79612B6E7A39673D3D0A2D2D2D95
S2140034702D2D454E4420525341205052495641541A
S21400348045204B45592D2D2D2D2D0A0058040000A2
S2140034902D2D2D2D2D424547494E2043455254494A
S2140034A04649434154452D2D2D2D2D0A4D4949445D
S2140034B0426A434341653443435143673578744C0D
S2140034C03561702F4344414E42676B71686B6947A4
S2140034D03977304241517346414442464D517377E5
S2140034E0435159445651514745774A420A56544526
S2140034F0544D424547413155454341774B55323946
S214003500745A533154644746305A5445684D4238CD
S214003510474131554543677759535735305A584ACE
S214003520755A58516756326C6B5A326C300A63794A
S214003530425164486B675448526B4D423458445469
S21400354045344D4467794D5441334D7A67304D319B
S2140035506F58445449344D4467784F4441334D7A4C
S21400356067304D316F775254454C4D416B470A4199
S21400357031554542684D4351565578457A41524239
S214003580674E564241674D436C4E766257557455AA
S214003590335268644755784954416642674E5642EE
S2140035A0416F4D47456C7564475679626D56300AD3
S2140035B0494664705A47647064484D6755485235AA
S2140035C0494578305A444343415349774451594A10
S2140035D04B6F5A496876634E4151454242514144C9
S2140035E0676745504144434341516F4367674542CF
S2140035F00A414C4D6770446A683063305A546841DB
S21400360078452F42326D4263444170324B556165B6
S2140036106F587159352B3033625A575251374D63B4
S21400362045306F67334456397531344647776844BA
S214003630510A4A393369747348586E57475A365A8E
S21400364068317874504A7A6F4D696178786141655F
S2140036502B3157646F676E776C5444384C5572370D
S21400366071532F3756744658586D76566149513700
S21400367045350A414B4C786C467367566333736F17
S214003680534C6F3466303644574F476C3770534947
S214003690433245747459464B4D76426D6C57636B96
S2140036A0734541312B4458502F4E4A79386833774A
S2140036B07154460A4D432B69796445356358643323
S2140036C06C4B4A3343512B307A544A6C6934444F1E
S2140036D046355A756462726B574F515877665A3141
S2140036E0796C423234756D76624E4D53666C746CEE
S2140036F0536B75430A6B6D305668463856434C46D6
S21400370077656B2B574E63727165446B4141794DFB
S214003710795279566C44692B397231715448504647
S2140037202B455977634A4857682B7A4665677A74FB
S21400373047633177360A376D784242682B4A5242E1
S2140037404837477A574C54396B4267376B43417753
S21400375045414154414E42676B71686B6947397702
S21400376030424151734641414F4341514541574ACA
S214003770566A4933706F0A7A6A4370736672507776
S21400378031752F4B2F30414A4752704C4368764272
S214003790504D597A31312F41793249327679543841
S2140037A0616B524D2B376B6D30572F642B776979D1
S2140037B04C3059543951490A50485434674C455690
S2140037C0344B656951534150696E64744A67626749
S2140037D03257693533454247654E724457484D77F0
S2140037E0483369736C447239683239337A68557174
S2140037F05A4D6965325744620A6B704563536837A1
S214003800394441685A445A3433642F7148675765BF
S2140038107957576B7943384A4C51497A59507364F3
S214003820544A596638717137794E5A6C72374F5A06
S2140038304348586471327347380A536A45344931ED
S2140038406A34414E6B6B4A706E58367946445A5A03
S21400385047444472557A50634A525056745A7A6DA9
S21400386079744A5549627A6F54553945366E5344D1
S214003870496C764254543237336F0A39674A587661
S2140038806B55374C3463774E43416730673352523B
S214003890777971495571387A79577349654E53640B
S2140038A0717A3634454948327758345876576B56CD
S2140038B07A447A6678573736484C370A4E4F6473E0
S2140038C034613553494866465A773D3D0A2D2D2DBD
S2140038D02D2D454E442043455254494649434154B4
S2140038E0452D2D2D2D2D0A000000000000000000A3
S2140038F0000000000000000000000000D03700209C
S214003900030000C05000000000000000000000009F
S214003910F03700200000000000000100000000005A
S214003920000000000001FF070000000071750E0097
S21400393069740E0001000000070000000600000089
S214003940FD00000071750E0069740E006F220A08F3
S214003950591D0A085D1D0A086B230A08B91E0A08C5
S214003960F9260A08BF270A080F250A084F1F0A0863
S214003970711F0A08611D0A08651D0A08511D0A08FC
S214003980F000000000000000000000000000000042
S214003990683800200000000004000000000000005E
S2140039A00000000000000000D4EB05206000602846
S2140039B0FF000000FFFFFFFFC40E6028740E6028A3
S2140039C0640E602824000C403A3815004157060063
S2140039D00000000000000000233815003F381500E6
S2140039E000000000000000000000000000000000D2
S2140039F09815150025620600000000000000000073
S214003A00493815005E381500595F060000000000B2
S214003A100100000066381500B63815003D5F060048
S214003A200000000000000000BE381500DF7A140019
S214003A30215F06000000000000000000D5381500D9
S214003A40E9381500055F06000000000000000000D1
S214003A50F538150010391500156106000000000045
S214003A60000000001F39150062481500E9600600D6
S214003A7000000000000000004B391500F23615006B
S214003A80BD6006000000000000000000763915004A
S214003A90013715008D6006000000000001000000E0
S214003AA091391500BF3915005D6006000000000062
S214003AB000000000CB391500F13915001962060028
S214003AC00000000000000000FF3915007E221700ED
S214003AD0E95E060000000000000000001A3A15002B
S214003AE03C3A1500316006000000000000000000AF
S214003AF04B3A1500663A1500056006000000000007
S214003B0000000000763A1500923A1500000000000A
S214003B10000000000000000000000000AF3A1500A2
S214003B20CD5E060000000000000000009D3A150073
S214003B30D9F31800B15E0600000000000000000087
S214003B40B43A1500F03A15000D62060000000000B9
S214003B5000000000FC3A1500B8831600016206005B
S214003B6000000000000000000C3B1500373B15006D
S214003B70955E06000000000000000000473B1500B0
S214003B80873B1500F56106000000000000000000FD
S214003B90653B1500AF3B1500E9610600000000001C
S214003BA0000000008D3B1500B63B1500DD610600E9
S214003BB00000000000000000C53B15002E30150078
S214003BC0795E06000000000000000000F23B1500D1
S214003BD01C3015005D5E06000000000000000000BE
S214003BE02B3C1500F72F1500415E06000000000074
S214003BF0000000003A3C1500EF2F1500255E060079
S214003C0000000000000000005C3C1500B6A5170090
S214003C10156506000000000000000000613C15006D
S214003C204E0118009164060000000000010000002C
S214003C309A3C1500D33C15000D64060000000000F9
S214003C4001000000E03C1500FE2D17008963060009
S214003C500000000001000000163D1500453D15005F
S214003C60056306000000000001000000493D150045
S214003C708B3D1500D161060000000000000000002A
S214003C80963D1500B43D1500C56106000000000015
S214003C9000000000BD3D1500D03D1500095E060081
S214003CA00000000000000000DC3D1500FC3D150093
S214003CB0D55F06000000000001000000053E15006C
S214003CC03D3E1500A55F0600000000000000000055
S214003CD0463E1500763E1500B9610600000000005D
S214003CE0000000007C3E15008F3E1500AD6106000A
S214003CF000000000000000009B3E1500B73E1500C7
S214003D0000000000000000000000000000000000AE
S214003D10BE3E1500ED5D060000000000000000003D
S214003D20C63E1500F63E1500755F06000000000052
S214003D3001000000FE3E1500015B1400A1610600B4
S214003D4000000000000000002A3F15004B3F150051
S214003D50D15D06000000000001000000563F15007F
S214003D60793F1500316206000000000001000000E7
S214003D70813F1500846E1500B55D0600000000004A
S214003D8000000000BB3F15001F791400995D060077
S214003D900000000000000000EA3F15002B79140028
S214003DA07D5D060000000000000000000A401500CF
S214003DB036791400615D0600000000000000000077
S214003DC0284015005F401500455D06000000000015
S214003DD0000000004A40150043791400295D0600E3
S214003DE000000000000000006C401500517914002F
S214003DF00D5D060000000000000000009040150069
S214003E004D5A1400F15C060000000000000000009F
S214003E10B6401500D9401500000000000000000064
S214003E20000000000000000053801800D55C06006B
S214003E300000000000000000E440150008411500E6
S214003E40B95C0600000000000000000017411500E5
S214003E5049411500896106000000000000000000CE
S214003E6053411500D42015005D55060000000000E3
S214003E70000000006341150089411500A5560600A4
S214003E80000000000000000092411500D820150038
S214003E909D5C06000000000000000000A741150021
S214003EA0D2411500815C0600000000000000000002
S214003EB0E1411500F8411500655C060000000000B1
S214003EC0000000000542150084791400495C0600D5
S214003ED000000000000000001E421500907914004B
S214003EE02D5C0600000000000000000039421500AE
S214003EF057421500115C060000000000000000009C
S214003F0062421500C0421500F55B06000000000086
S214003F1000000000C8421500DE421500D95B06000E
S214003F200000000000000000E6421500F7821800BE
S214003F30BD5B060000000000000000000D431500F9
S214003F407B801400A15B060000000000000000005B
S214003F504C4315009F791400855B060000000000A6
S214003F6000000000744315009E431500555B0600D4
S214003F700000000000000000A5431500D243150015
S214003F80395B06000000000000000000C343150077
S214003F90DD431500000000000000000000000000E7
S214003FA000000000336C17001D5B060000000000D8
S214003FB000000000E4431500114415007D61060072
S214003FC000000000000000001F44150039441500E2
S214003FD0015B0600000000000000000045441500DC
S214003FE072441500E55A06000000000000000000BC
S214003FF083441500B8441500C95A060000000000A6
S21400400000000000C6441500EE441500F9530600F3
S2140040100000000000000000F844150033451500BD
S2140040207161060000000000000000003E4515001B
S2140040306C451500AD5A06000000000000000000A8
S214004040744515009A4515006561060000000000DD
S21400405000000000A2451500B7451500000000004E
S214004060000000000000000000000000BE45150033
S214004070915A06000000000000000000C44515002C
S214004080C1FB15005961060000000000000000009A
S214004090EA45150003461500755A060000000000A4
S2140040A0000000000D46150031471500595A06005D
S2140040B000000000000000003E471500187D1400B8
S2140040C03D5A06000000000000000000684715008A
S2140040D0A44715004D610600000000000000000027
S2140040E0814715009F47150041610600000000004B
S2140040F000000000AF471500CB471500215A060008
S2140041000000000000000000DF4715000F48150003
S214004110055A0600000000000000000024481500B4
S21400412055481500E95906003B53060000000000FC
S214004130244815006E481500CD5906000000000002
S2140041400000000077481500B2481500B159060077
S2140041500000000000000000BE481500EB481500F7
S214004160955906000000000000000000FC481500FD
S21400417038491500795906000000000000000000CC
S21400418046491500662318005D5906000000000029
S21400419000000000FB491500F848150041590600CC
S2140041A00000000000000000094A150000000000A2
S2140041B000000000000000000000000000000000FA
S2140041C0817D140000897D140000C959160000C5C1
S2140041D05D140000E97D140000F97D140000097EDE
S2140041E01400001C7E14000073CD150000437E14DE
S2140041F00000C947160000587E14000053431600FE
S21400420000887E14000013541400001508180000DF
S214004210FD13160000F81316000050831400006407
S214004220831400007883140000A27E140000B6A554
S2140042301700009F91160000CB7E1400004E011858
S2140042400000E87E140000F27E1400000B7F1400CD
S21400425000177F140000237F1400002F7F14000037
S2140042603B7F140000587F1400006A7F140000761D
S2140042707F1400005C8B180000D47F140000697562
S214004280150000308014000022801400007284188C
S2140042900000BC141600006E811400007F8114001C
S2140042A00096811400003A80140000167015000075
S2140042B050671500002670150000AA82140000B88A
S2140042C0821400009B1E150000C882140000D782CE
S2140042D0140000E782140000FA821400000583141C
S2140042E0000010831400002583140000358314009A
S2140042F00046831400007B801400005380140000E6
S214004300628014000070801400009080140000F991
S2140043107F1400000180140000F281140000FF8169
S2140043201400000B8214000021821400003A82144C
S214004330000052821400006182140000778214008C
S2140043400000000000000000FFFFFFFFFFFFFFFF70
S21400435000180000201A1800050000001F000000CA
S2140043608BF30A00AFF30A0000000000BFF30A0058
S214004370C7F30A00CFF30A00D9F30A0001000000D1
S214004380504200205042002044C91900AAAA030047
S2140043900000000009020000030300001F000000E8
S2140043A000C0000045F11300D1C113006DDF1300FB
S2140043B041E3130005C2130099C11300A1B70F0013
S2140043C0A1B70F00A7B70F00A7B70F00CC42002079
S2140043D001AC0F0005AC0F0002AC0F0004AC0F00E0
S2140043E000000000000000000000000000000000C8
S2140043F0000000000200080002000C0000000000A0
S21400440000000000000000000000000000000000A7
S2140044100000000000000000000000000000000097
S2140044200000000000000000000000000000000087
S2140044300000000000000000000000000000000077
S2140044400000000000000000000000000000000067
S2140044500000000000000000000000000000000057
S21400446000000000D44300207C4300200000000031
S2140044700000000000000000000000000000000037
S2140044800000000000000000000000000000000027
S2140044900000000000000000000000000000000017
S2140044A0000000000000000000000000F8440020AB
S2140044B098440020000000001C00000008000000D7
S2140044C00000010003FF00000000000000000041A3
S2140044D000010000000000000100000000000000D5
S2140044E0FEFF0000FEFF00000000000000000000CD
S2140044F000000000000000000000000001000000B6
S2140045002C440020184B00206844002000000000C7
S2140045100E0000000C0000000000010003FF000079
S2140045200000000000000041000100000000000044
S2140045300000000000000000000000000000000076
S2140045400000000000000000000000000000000066
S21400455000000000010000002C44002004000100C0
S2140045600000000000000000000000000000000046
S214004570FAFFFAFFFFFFFFFFFFFFFFFF000000004C
S2140045800000000000000000000000000000000026
S2140045900000000000000000000000000A0000000C
S2140045A000000000010000001400010000000000F0
S2140045B001000000370002000000000001000000BB
S2140045C06E00030000000000000000003C00040035
S2140045D000000000000000005A0005000000000077
S2140045E00000000078000600000000000000000048
S2140045F0B40007000000000000000000F000080003
S2140046000000000000000000680109000000000033
S21400461000000000E0010A000000000000000000AA
S2140046201C020B0000000000000000003C1400000C
S2140046300000000000000000000000001E00000057
S2140046400000000000000000000000000000000065
S2140046500000000000000000000000000000000055
S21400466000000000501400000000000000000000E1
S214004670000000001E000000000000000000000017
S2140046800000000000000000000000000000000025
S214004690000000000000000000000000641400009D
S2140046A00000000000000000000000001E000000E7
S2140046B000000000000000000000000000000000F5
S2140046C000000000000000000000000000000000E5
S2140046D00000000078140000000000000000000049
S2140046E0000000001E0000000000000000000000A7
S2140046F000000000000000000000000000000000B5
S2140047000000000000000000000000008C14000004
S2140047100000000000000000000000001E00000076
S2140047200000000000000000000000000000000084
S2140047300000000000000000000000000000000074
S21400474000000000A01400000000000000000000B0
S214004750000000001E000000000000000000000036
S2140047600000000000000000000000000000000044
S214004770000000000000000000000000B41400006C
S2140047800000000000000000000000001E00000006
S2140047900000000000000000000000000000000014
S2140047A00000000000000000000000000000000004
S2140047B000000000C8140000000000000000000018
S2140047C0000000001E0000000000000000000000C6
S2140047D000000000000000000000000000000000D4
S2140047E00000000000000000000000007C15000033
S2140047F00000000000000000000000001E00000096
S21400480000000000000000000000000000000000A3
S2140048100000000000000000000000000000000093
S21400482000000000901500000000000000000000DE
S214004830000000001E000000000000000000000055
S2140048400000000000000000000000000000000063
S214004850000000000000000000000000A41500009A
S2140048600000000000000000000000001E00000025
S2140048700000000000000000000000000000000033
S2140048800000000000000000000000000000000023
S21400489000000000B8150000000000000000000046
S2140048A0000000001E0000000000000000000000E5
S2140048B000000000000000000000000000000000F3
S2140048C0000000000000000000000000CC15000002
S2140048D00000000000000000000000001E000000B5
S2140048E000000000000000000000000000000000C3
S2140048F000000000000000000000000000000000B3
S21400490000000000E01500000000000000000000AD
S214004910000000001E000000000000000000000074
S2140049200000000000000000000000000000000082
S214004930000000000000000000000000F415000069
S2140049400000000000000000000000001E00000044
S2140049500000000000000000000000000000000052
S2140049600000000000000000000000000000000042
S2140049700000000008160000000000000000000014
S214004980000000001E000000000000000000000004
S2140049900000000000000000000000000000000012
S2140049A00000000000000000000000001C160000D0
S2140049B00000000000000000000000001E000000D4
S2140049C000000000000000000000000000000000E2
S2140049D000000000000000000000000000000000D2
S2140049E0000000003016000000000000000000007C
S2140049F0000000001E000000000000000000000094
S214004A0000000000000000000000000000000000A1
S214004A100000000000000000000000004416000037
S214004A200000000000000000000000001E00000063
S214004A300000000000000000000000000000000071
S214004A400000000000000000000000000000000061
S214004A5000000000581600000000000000000000E3
S214004A60000000001E000000000000000000000023
S214004A700000000000000000000000000000000031
S214004A80000000000000000000000000711600009A
S214004A900000000000000000000000001E000000F3
S214004AA00000000000000000000000000000000001
S214004AB000000000000000000000000000000000F1
S214004AC00000000085160000000000000000000046
S214004AD0000000001E0000000000000000000000B3
S214004AE000000000000000000000000000000000C1
S214004AF00000000000000000000000009916000002
S214004B000000000000000000000000001E00000082
S214004B100000000000000000000000000000000090
S214004B200000000000000000000000000000000080
S214004B3000000000AD1600000000000000000000AD
S214004B40000000001E000000000000000000000042
S214004B500000000000000000000000000000000050
S214004B60000000000000000000000000C116000069
S214004B700000000000000000000000001E00000012
S214004B800000000000000000000000000000000020
S214004B900000000000000000000000000000000010
S214004BA000000000D5160000000000000000000015
S214004BB0000000001E0000000000000000000000D2
S214004BC000000000000000000000000000000000E0
S214004BD0000000000000000000000000E9160000D1
S214004BE00000000000000000000000001E000000A2
S214004BF000000000000000000000000000000000B0
S214004C00000000000000000000000000000000009F
S214004C1000000000FD16000000000000000000007C
S214004C20000000001E000000000000000000000061
S214004C30000000000000000000000000000000006F
S214004C400000000000000000000000006C090000EA
S214004C500000000000000000000000001E00000031
S214004C60000000000000000000000000000000003F
S214004C70000000000000000000000000000000002F
S214004C8000000000710900000000000000000000A5
S214004C90000000001E0000000000000000000000F1
S214004CA000000000000000000000000000000000FF
S214004CB00000000000000000000000007609000070
S214004CC00000000000000000000000001E000000C1
S214004CD000000000000000000000000000000000CF
S214004CE000000000000000000000000000000000BF
S214004CF0000000007B09000000000000000000002B
S214004D00000000001E000000000000000000000080
S214004D10000000000000000000000000000000008E
S214004D2000000000000000000000000080090000F5
S214004D300000000000000000000000001E00000050
S214004D40000000000000000000000000000000005E
S214004D50000000000000000000000000000000004E
S214004D6000000000850900000000000000000000B0
S214004D70000000001E000000000000000000000010
S214004D80000000000000000000000000000000001E
S214004D900000000000000000000000008A0900007B
S214004DA00000000000000000000000001E000000E0
S214004DB000000000000000000000000000000000EE
S214004DC000000000000000000000000000000000DE
S214004DD0000000008F090000000000000000000036
S214004DE0000000001E0000000000000000000000A0
S214004DF000000000000000000000000000000000AE
S214004E000000000000000000000000009409000000
S214004E100000000000000000000000001E0000006F
S214004E20000000000000000000000000000000007D
S214004E30000000000000000000000000000000006D
S214004E4000000000990900000000000000000000BB
S214004E50000000001E00000000000000000000002F
S214004E60000000000000000000000000000000003D
S214004E700000000000000000000000009E09000086
S214004E800000000000000000000000001E000000FF
S214004E90000000000000000000000000000000000D
S214004EA000000000000000000000000000000000FD
S214004EB000000000A3090000000000000000000041
S214004EC0000000001E0000000000000000000000BF
S214004ED000000000000000000000000000000000CD
S214004EE0000000000000000000000000A80900000C
S214004EF00000000000000000000000001E0000008F
S214004F00000000000000000000000000000000009C
S214004F10000000000000000000000000000000008C
S214004F2000000000B40900000000000000000000BF
S214004F30000000001E00000000000000000000004E
S214004F40000000000000000000000000000000005C
S214004F50000000000000000000000000000000004C
S214004F60FFFF1028FFFF153C0000000000000000B7
S214004F7000000000FFFF0038FFFF1020FFFF153C79
S214004F80FFFF1020000000000000000001010100EB
S214004F900100000001000000010101000000000007
S214004FA0010000000F0000000100000001000000EA
S214004FB0000000000100000100010000F4010000F4
S214004FC000000000000000001400000000000000C8
S214004FD06400000001000000000001000000000066
S214004FE000000000000000000000000002000000BA
S214004FF000000000517B1000897D100000000000BA
S214005000357B10006F82100001000000DC4E00208F
S214005010DC4E0020E44E0020E44E00200500000098
S21400502007000000604F0020FC4E00200000190022
S214005030D803F80301140A10000001001900D80371
S2140050409813010C06100000020019006102981364
S21400505001100810000003002800EA00C301011830
S2140050600C10000004142800EA00040201140A10C0
S21400507000000500190078131F27032406100200FD
S2140050800600190072065C1D0330081002000000BE
S21400509000001900D803F80301140A1000000100EC
S2140050A01900D8039813010C06100000020019001E
S2140050B06102981301100810000003002800EA009F
S2140050C0C30101180C10000004032800EA00CC02FB
S2140050D00110081000000500190078131F27031E92
S2140050E0051002000600190072065C1D0330081049
S2140050F00200000004000000040000000C50002025
S214005100D44F0020000019008505A50501120910DE
S2140051100000010019001C023C02010A05100000F4
S21400512002001900C60BE60B014623100000030020
S21400513019003D015D010103021000000000190086
S2140051408505A505011209100000010019001C02C2
S2140051503C02010A0510000002001900C60BE60B0F
S214005160014623100000030019003D015D01010304
S2140051700210000001001400BC0200000000000045
S2140051800200000000000000010000007478715F5B
S214005190636C65616E000000000000000000000007
S2140051A00200000000000000000000007261646160
S2140051B07200000000000000000000002000000058
S2140051C044061B0048061B004C061B0050061B002E
S2140051D054061B0058061B005C061B0060061B00DE
S2140051E064061B0068061B006C061B0070061B008E
S2140051F074061B0078061B007C061B0080061B003E
S21400520084061B0088061B008C061B0090061B00ED
S21400521094061B0098061B009C061B00A0061B009D
S214005220444E1B00A4061B00A8061B00AC061B0071
S214005230B0061B00B4061B00B8061B00B4051B0016
S214005240BC061B00C0061B00C4061B00C8061B00CD
S214005250CC061B00D0061B00D4061B00D8061B007D
S214005260DC061B00E0061B00E4061B00F8361B00ED
S214005270E8061B00EC061B00F0061B00F4061B00ED
S214005280F8061B00FC061B0000071B0004071B009B
S21400529008071B000C071B0010071B0014071B0049
S2140052A018071B001C071B0020071B0024071B00F9
S2140052B028071B002C071B0030071B0034071B00A9
S2140052C038071B003C071B0040071B0044071B0059
S2140052D048071B004C071B0064251B0050071B00DB
S2140052E054071B0058071B005C071B0060071B00C9
S2140052F064071B0068071B0070371B006C071B0049
S21400530070071B00A4051B0074071B0078071B0012
S2140053107C071B0080071B00AC051B0084071B00D6
S21400532088071B008C071B0090071B0094071B00B8
S21400533098071B009C071B00A0071B00A4071B0068
S214005340A8071B00AC071B00B0071B00B4071B0018
S214005350B8071B00BC071B00C0071B00C4071B00C8
S214005360C8071B00CC071B00D0071B00D4071B0078
S214005370D8071B00DC071B00E0071B00E4071B0028
S214005380E8071B00EC071B00F0071B00F4071B00D8
S21400539038611B00F8071B00FC071B0000081B00F9
S2140053A004081B0008081B000C081B0010081B0044
S2140053B014081B0018081B001C081B0020081B00F4
S2140053C024081B0028081B002C081B0030081B00A4
S2140053D034081B0038081B003C081B0040081B0054
S2140053E044081B0048081B004C081B0050081B0004
S2140053F054081B0058081B005C081B0060081B00B4
S21400540064081B0068081B006C081B0070081B0063
S21400541074081B0078081B007C081B0080081B0013
S21400542084081B0088081B008C081B0090081B00C3
S21400543094081B0098081B009C081B00A0081B0073
S214005440A4081B00A8081B00AC081B00B0081B0023
S214005450B4081B00B8081B00BC081B00C0081B00D3
S214005460C4081B00C8081B00CC081B00D0081B0083
S214005470D4081B00D8081B00DC081B00E0081B0033
S214005480E4081B00E8081B00FF00000033200000B3
S2140054903F190C043F180C022A160A76700000000A
S2140054A03F190C00740000002A1600002C000000B3
S2140054B0332000003F190C043F180C022A160A7607
S2140054C0700000003F190C00740000002A1600004F
S2140054D02C000000332000003F190C043F180C007D
S2140054E02A160A76700000003F190C7D7200000034
S2140054F02A1600002C000000332000003F190C0480
S2140055003F180C002A160A76700000003F190C7B24
S2140055106E0000002A1600002C0000003320000059
S2140055203F190C043F180C002A160A76700000007B
S2140055303F190C7B6E0000002A1600002C000000AD
S214005540332000003F190C033F180C002A160A7679
S214005550700000003F190C7B6E0000002A16000049
S2140055602C0000000000000000000000000000000A
S2140055700000000000000000000000000000000026
S2140055800000000000000000000000000000000016
S2140055900000000000000000000000000000000006
S2140055A000000000000000000000000000000000F6
S2140055B000000000000000000000000000000000E6
S2140055C000000000000000000000000000000000D6
S2140055D02A2A000036180A003F180B783F180B7866
S2140055E0730000003F180A78730000002A58000075
S2140055F02C0000002A2A000036180A003F180B78F4
S2140056003F180B78730000003F180A7873000000FC
S2140056102A5800002C0000002A2A000036180A79B2
S2140056203F180B723F180B72730000003F180A7287
S214005630730000002A5800002C0000002A2A0000F0
S21400564036180A793F180B723F180B727300000069
S2140056503F180A72730000002A5800002C00000051
S2140056602A2A000036180A793F180B723F180B7268
S214005670730000003F180A72730000002A580000EA
S2140056802C0000002A2A000036180A793F180B72F0
S2140056903F180B72730000003F180A727300000078
S2140056A02A5800002C0000002A2A000036180A7724
S2140056B03F180B6D3F180B6B730000003F180A6411
S2140056C0730000002A5800002C0000002A2A000060
S2140056D036180A793F180B723F180B7273000000D9
S2140056E03F180A72730000002A5800002C000000C1
S2140056F02A2A000036180A773F180B6D3F180B6BE6
S214005700730000003F180A64730000002A58000067
S2140057102C000000000400001B190C040C0C0C02EA
S2140057202A160A767000000015150C00740000009A
S2140057302A1600002C000000020A00001B190C04A8
S2140057400C0C0C022A160A767000000015150C00C8
S214005750740000002A1600002C0000000004000060
S2140057601B190C040C0C0C002A160A76700000009C
S21400577015150C7D720000002A1600002C00000093
S214005780000400001B190C040C0C0C002A160A76E8
S2140057907000000015150C7B6E0000002A16000035
S2140057A02C000000000400001B190C040C0C0C005C
S2140057B02A160A767000000015150C7B6E00000095
S2140057C02A1600002C000000000600001B190C031F
S2140057D00C0C0C002A160A767000000015150C7BBF
S2140057E06E0000002A1600002C00000000000000DA
S2140057F000000000000000000000000000000000A4
S2140058000000000000000000000000000000000093
S2140058100000000000000000000000000000000083
S2140058200000000000000000000000000000000073
S2140058300000000000000000000000000000000063
S2140058400000000000000000000000000000000053
S21400585000000000000000002A2A000009090900D4
S214005860060606780808087873000000060606781C
S214005870730000002A5800002C0000002A2A0000AE
S214005880090909000606067808080878730000006B
S21400589006060678730000002A5800002C00000058
S2140058A02A2A0000090909790606067208080872FD
S2140058B07300000006060672730000002A580000F7
S2140058C02C0000002A2A000009090979060606723B
S2140058D008080872730000000606067273000000CF
S2140058E02A5800002C0000002A2A0000090909791D
S2140058F0060606720808087273000000060606729E
S214005900730000002A5800002C0000002A2A00001D
S214005910090909790606067208080872730000006D
S21400592006060672730000002A5800002C000000CD
S2140059302A2A0000050505770404046D0404046B98
S2140059407300000002020264730000002A58000080
S2140059502C0000002A2A00000909097906060672AA
S214005960080808727300000006060672730000003E
S2140059702A5800002C0000002A2A0000050505779A
S2140059800404046D0404046B730000000202026445
S214005990730000002A5800002C000000332000008E
S2140059A03F190C023F180C002A160A7670000000F9
S2140059B03F190C00700000002A1600002C000000A2
S2140059C0332000003F190C023F180C002A160A76F6
S2140059D0700000003F190C00700000002A1600003E
S2140059E02C000000332000003F190C023F180C7FEB
S2140059F02A160A76700000003F190C7F6A00000025
S214005A002A1600002C000000332000003F190C026C
S214005A103F180C7E2A160A76700000003F190C7C90
S214005A206A0000002A1600002C0000003320000048
S214005A303F190C023F180C7F2A160A7670000000E9
S214005A403F190C7F6A0000002A1600002C00000098
S214005A50332000003F190C023F180C002A160A7665
S214005A60700000003F190C7E6C0000002A16000033
S214005A702C000000000000000000000000000000F5
S214005A800000000000000000000000000000000011
S214005A900000000000000000000000000000000001
S214005AA000000000000000000000000000000000F1
S214005AB000000000000000000000000000000000E1
S214005AC000000000000000000000000000000000D1
S214005AD000000000000000000000000000000000C1
S214005AE02A2A00002A1606792A1606742A1606702E
S214005AF06C0000002A160668720000002A58000093
S214005B002C0000002A2A00002A16067B2A16067693
S214005B102A1606706C0000002A160668720000003E
S214005B202A5800002C0000002A2A00002A16067BAD
S214005B302A1606762A1606706C0000002A160668D4
S214005B40720000002A5800002C0000002A2A0000DC
S214005B502A1606782A1606702A1606686C000000B2
S214005B602A160660720000002A5800002C0000006A
S214005B702A2A00002A1606772A16066E2A16066CA9
S214005B806C0000002A160660720000002A5800000A
S214005B902C0000002A2A00002A1606782A1606720A
S214005BA02A1606706C0000002A16066472000000B2
S214005BB02A5800002C0000002A2A00002A16067424
S214005BC02A1606622A1606646C0000002A16066468
S214005BD0720000002A5800002C0000002A2A00004C
S214005BE02A1606782A1606722A1606706C00000018
S214005BF02A160668720000002A5800002C000000D2
S214005C002A2A00002A1606702A16066A2A16066C23
S214005C106C0000002A160664720000002A58000075
S214005C202C0000000403000005050502000000002B
S214005C302A160A76700000000303030070000000B6
S214005C402A1600002C0000000A0A000005050502BE
S214005C50000000002A160A76700000000303030006
S214005C60700000002A1600002C0000000406000049
S214005C70050505020000007F2A160A76700000005F
S214005C800303037F6A0000002A1600002C000000B1
S214005C9004060000050505020000007E2A160A76A6
S214005CA0700000000303037C6A0000002A16000050
S214005CB02C00000004060000050505020000007F19
S214005CC02A160A76700000000303037F6A000000AD
S214005CD02A1600002C000000040A00000505050234
S214005CE0000000002A160A76700000000303037EF8
S214005CF06C0000002A1600002C00000000000000C7
S214005D00000000000000000000000000000000008E
S214005D10000000000000000000000000000000007E
S214005D20000000000000000000000000000000006E
S214005D30000000000000000000000000000000005E
S214005D40000000000000000000000000000000004E
S214005D50000000000000000000000000000000003E
S214005D6000000000000000002A2A00000303037958
S214005D7002020274010101706C0000007D7D7D68E6
S214005D80720000002A5800002C0000002A2A00009A
S214005D900303037B02020276010101706C0000001F
S214005DA07D7D7D68720000002A5800002C000000EF
S214005DB02A2A00000303037B020202760101017017
S214005DC06C0000007D7D7D68720000002A5800008F
S214005DD02C0000002A2A0000030303780202027047
S214005DE0010101686C0000007D7D7D60720000008E
S214005DF02A5800002C0000002A2A0000030303771C
S214005E000202026E0101016C6C0000007D7D7D6067
S214005E10720000002A5800002C0000002A2A000009
S214005E200303037802020272010101706C00000095
S214005E307D7D7D64720000002A5800002C00000062
S214005E402A2A0000030303740202026201010164AD
S214005E506C0000007D7D7D64720000002A58000002
S214005E602C0000002A2A00000303037802020272B4
S214005E70010101706C0000007D7D7D6872000000ED
S214005E802A5800002C0000002A2A00000303037092
S214005E900202026A0101016C6C0000007D7D7D64D7
S214005EA0720000002A5800002C00000000000000CD
S214005EB000000000000000000000000000000000DD
S214005EC000000000000000000000000000000000CD
S214005ED000000000000000000000000000000000BD
S214005EE000000000000000000000000000000000AD
S2140063B000000000000000000000000001000000D7
S2140063C09A9939400000C03F010000002C010000EF
S2140063D00A00000001000000000360280000000022
S2140063E003000000FCB80920BC620020000000008A
S2140063F0FCB8092064B90920CCB9092000000000C7
S2140064000000000000000000000000000000000087
S2140064100000000000000000000000000000000077
S2140064200000000000000000000000000000000067
S2140064300000000000000000430000000000000014
S2140064400000000000000000000000000000000047
S21400645000000000000000004300000000000000F4
S2140064600000000000000000000000000000000027
S21400647000000000000000004300000000000000D4
S2140064800000000000000000000000000000000007
S21400649000000000000000004300000000000000B4
S2140064A000000000000000000000000000000000E7
S2140064B00000000000000000430000000000000094
S2140064C000000000000000000000000000000000C7
S2140064D00000000000000000430000000000000074
S2140064E000000000000000000000000000000000A7
S2140064F00000000000000000430000000000000054
S2140065000000000000000000000000000000000086
S21400651000000000000000002F2A1400FB291400D1
S214006520000000007CAB1B002B1C19004D15190049
S2140065304D1519004D1519004D1519004D1519006A
S2140065404D1519004D1519004D1519004D1519005A
S214006550FFFFFFFFFFFFFFFFFFFFFFFFFFFF000044
S21400656001004153434949000000000000000000BC
S2140065700000000000000000000000000000000016
S214006580000041534349490000000000000000009D
S21400659000000000000000000000000000000000F6
S2080065A000000000F2
S2140065A400000000000000000000000000000000E2
S2140065B400000000000000000000000000000000D2
S2080065C400000000CE
S2080065C8AAAAAAAA22
S2050065CCFFCA
S2140065E00348044B834202D0034B03B1184770475D
S2140065F0746400207464002000000000064B074905
S214006600C91A891048BF0131491003D0044B0BB199
S21400661001481847704700BF746400207464002067
S2140066200000000010B5064C237843B9FFF7D8FFEA
S214006630044B13B10448AFF300800123237010BD50
S21400664010EF0520000000003001000008B5054BE3
S2140066501BB105490548AFF30080BDE80840FFF7C9
S214006660CDBF00BF0000000014EF05203001000081
S214006670A3F5803A704700BF174B002B08BF134B9B
S2140066809D46FFF7F5FF00218B460F461348144A38
S214006690121A38F111F90E4B002B00D098470D4B0B
S2140066A0002B00D098470020002104000D000D4864
S2140066B0002802D00C48AFF3008038F1B9FD200066
S2140066C0290003F0FDFD35F183FD00BF0000080042
S2140066D00000000000000000A074002010EF05205D
S2140066E040BA092000000000000000000369C268EC
S2140066F093429CBF81685B18013B981A70472DE94E
S214006700F0410546D0E902844068A8EB04069642AC
S21400671020440F46144406D938F1D2FDBFF35F8FEC
S214006720EC60BDE8F0813246A4EB080438F1C8FD01
S21400673022466868B919EFE72DE9F8430646894608
S21400674017464FF00008C5683369B4689D4228BFF5
S2140067501B19641BBC4228BF3C46013B5B1B9C428A
S21400676028BF1C46706849462246284438F1A8FDD2
S214006770B3682544AB4208BF0025A044A1443F1B94
S214006780BFF35F8FF560002FDED14046BDE8F8838B
S214006790032310B5134C144923616361134BA161A5
S2140067A0E3614FF48063022223620023A3626362E4
S2140067B0E26221660E49E01D61668021A1660D49F0
S2140067C02367E366626738F165FDBFF35F8F0A49AA
S2140067D0204638F15FFDBFF35F8F2023A371BFF320
S2140067E05F8F10BDACF30520603C1400ACEF0520B5
S2140067F02CEF0520693C14006D3C1400F8B51827F2
S21400680000FB0775124B0E461D4407FB0033DB6A80
S2140068101446012B0AD0022B14D023B92846FFF7C2
S21400682065FF844208D900242046F8BD2846FFF7B5
S2140068305DFF844228BF0446224631462846FFF7BD
S2140068405EFFF1E72846BDE8F840FFF775BF00BFDA
S214006850ACF30520F8B50B4B04461B780D461646E0
S2140068600BB9FFF795FFEFF311874FF0200181F387
S2140068701188324629462046FFF7C0FF87F3118865
S214006880F8BD00BFACF305202DE9F041164C1E46BE
S21400689023780546884617460BB9FFF779FF236924
S2140068A0AB421DD9EFF3118C4FF0200181F3118814
S2140068B065B1182005FB000344F80380E2180023A6
S2140068C0576000FB0542166293625362182303FB6F
S2140068D00544069BE3628CF311880020BDE8F08136
S2140068E04FF0FF30FAE700BFACF3052010B5826822
S2140068F004464068531C834205D820688154A36030
S214006900E3680133E360D4E901329A420BD121688F
S2140069102069FFF79FFFA368984215BF4FF0FF332B
S2140069200023E360A36010BD2DE9F84F1646054628
S21400693088460A464FF0010A9946DDE90A43B24204
S21400694012D2CA4538BFCA4613F0010B01D184B92A
S2140069500024EB68002B3CDB0127B9F1010F1ED9A0
S21400696009F1FF397743F8E7B2FBF6F20AF1010ABC
S214006970E5E79B0711D5B9F1000F0CBF302720279C
S214006980A245E6D239462846FFF7B0FFEB68013C41
S214006990002BDEDB002CF3D1DAE72027F0E7B8FB8C
S2140069A0F7F39E42DED9DFF84890B8FBF7F32846A7
S2140069B019F9031007FB1388FFF798FFEB68002B05
S2140069C003DBB742B7FBF6F305D2BBF1000F00D0EE
S2140069D05CB9BDE8F88F1F46E7E720212846FFF799
S2140069E085FFEB68013C002BF3DB5445F5D8F0E758
S2140069F0832B19002DE9F04F00230E464021154643
S214006A009BB0CDE90613CDE908300DF1280A0390B6
S214006A10CDF814A016F9011B39B9089D002D00F316
S214006A20118108981BB0BDE8F08F252940F0BD8085
S214006A304FF0000B314611F9013B2D2B19D013DC1A
S214006A40232B1DD02B2B18D00024314611F9013BE7
S214006A50A3F13000C0B2092815D80A2202FB04337D
S214006A600E46A3F13004F0E7302BEDD14BF0020BCD
S214006A7001E04BF0010B0E46DCE74BF0040BFAE7A7
S214006A804BF0080BF7E72E2B12D10E464FF00009FD
S214006A904FF00A0C304610F9011BA1F13007FFB287
S214006AA0092F07D80CFB09110646A1F13009F1E7BA
S214006AB04FF00009304610F9011B21F00407682F3B
S214006AC00646F8D0782909DC6F290BDC632967D0E5
S214006AD020DC252969D0582900F09480089B002BDB
S214006AE098DA9AE770390829F8D801A050F821F00A
S214006AF0356C0000DD6A0000DD6A0000156C0000E1
S214006B00DD6A0000F36B0000DD6A0000DD6A00004D
S214006B10056C00006429E1D129684FF00108081DC2
S214006B2028600A200F6887EAE771A1EBE771092958
S214006B303FDCC84538BFC8462CB1002F02DB1BF02F
S214006B40040F00D0013C1BF0020F02D0B9F1000F79
S214006B5004D01BF0010F01D184BB00240899002942
S214006B60BCDB002F35DA2D217F4205A8FFF7BEFEDD
S214006B7008990029B2DB0BF00301022904D1B9F110
S214006B80000F01D154BB002408990029A6DB4B4610
S214006B900A223946CDE9004B05A8FFF7C5FE9DE75A
S214006BA02B681A1D2A6093F9001005A8FFF79EFEB1
S214006BB094E7B1FBF0F108F10108B8E74445CDD9F8
S214006BC0202105A8FFF792FE0899013C0029C3DAA8
S214006BD0C4E71BF0040FCED02B21C6E74445D3D91B
S214006BE0302105A8FFF782FE0899013C0029C9DA82
S214006BF0CAE74B460A222968081D2860CDE9004BE3
S214006C000968C9E74B462968081D2860CDE9004B8E
S214006C101022F5E72B681A1D2A601C6814F9011B60
S214006C2000293FF45BAF05A8FFF760FE089B002B2A
S214006C30F4DA53E7296800220B1D2B600823CDE900
S214006C400032E5E7079C24B1224651460398FFF739
S214006C5001FE2C440894E4E60EB403B503AB53F8E7
S214006C60041B01AA0193FFF7C5FE02B05DF804EB12
S214006C7003B07047F0EE407AB1EE407AF7EE006A65
S214006C809FED080AB4EEE77AF1EE10FA02D980EE2C
S214006C90200A7047B0EC016A07EE060A37EE267A3D
S214006CA0F0E700BF00000000891A09B2002915DDD0
S214006CB09FED0C7A002300EB8202F0EC016AF2EC06
S214006CC0017A01331BB2994206EEA77AF5D107EE98
S214006CD0901AF8EEE77A87EE270A70479FED010ACA
S214006CE0704700BF000000002DE9F041146816460A
S214006CF02246B0EE406A074688461D46FFF7D4FF98
S214006D00C0EE207AF4EEC67AF1EE10FA19DB023401
S214006D10224641463846F0EE405AFFF7C5FFC0EE21
S214006D20207AF4EEC67AF1EE10FA08DBF4EEC05ADA
S214006D30F1EE10FA03DDAC42E9DD002414E0AC42CB
