S023000058706C6F7265725F5765617261626C655F576966695F72613677312E7372656395
S2140000001875002015E7080081350A089D350A088E
S214000010E7C7080005C8080023C80800E9350A082D
S214000020000000000000000000000000A16F0600B5
S21400003001E7080000000000316F060029200A08CA
S21400004089320800593B0300610708006107080071
S21400005000000000B5270800000000007516080024
S214000060000000000000000000000000000000008B
S214000070000000000000000000000000593B0300E4
S214000080593B0300000000000000000000000000D4
S214000090000000000000000000000000000000005B
S2140000A0000000000000000000000000000000004B
S2140000B0593B030000000000593B030011330A08B7
S2140000C021330A08593B0300593B0300593B030000
S2140000D0411B0A08593B0300593B0300593B0300E8
S2140000E0052E0A08092F0800092F0800593B0300AF
S2140000F04D7B1400000000009D0B15000000000062
S2140001009D0B150051DA140011430A089981150059
S2140001102583150095B815000000000000000000BB
S21400012000000000000000000000000000000000CA
S21400013001000000080000000000803F00000000F2
S214000140000000000000000084D91B0084D81B00BB
S21400015084D71B000CD71B0084D91B0084D91B0036
S21400016084D91B0084D91B0000000000000000009A
S214000170D4D91B00D4D81B00D4D71B0030D71B0003
S214000180D4D91B00D4D91B00D4D91B00D4D91B004A
S2140001900000000000000000017465737431303107
S2140001A05F3234670000000000000000000000001E
S2140001B00000000000000000000B0376686F7273FA
S2140001C06532330000000000000000000000000060
S2140001D0000000000000000000000000000000001A
S2140001E0000000000000000000000000000000000A
S2140001F000000000000000000000000000000000FA
S21400020000000000000000000000000000000000E9
S21400021000000000000000000000000000000000D9
S21400022000000000000000000000000000000000C9
S21400023000000000000000000000000800000000B1
S2140002400000000088FB05202001002094380020D4
S2140002500000000200000001000100000000000095
S214000260A5FF0400BC0100203C01002000010101A4
S214000270000000004801002001000000B00100203E
S214000280AC010020A6010020A40100209C01002053
S21400029094010020900100208C01002084010020A1
S2140002A07C0100207801002038FF000000000000DC
S2140002B00000000000000000000000000008010030
S2140002C000000000320020000000010005000001D0
S2140002D000000000000600000000000000200500EE
S2140002E0EB00FFA80601010101000000200000004D
S2140002F000100000520000000080000052000000C5
S21400030000800000D8000000FFFFFFFFE8FA05208D
S21400031078BF1F00E0EC1F00000000000000000097
S214000320ACC01F000000000014010020E8C01F0041
S21400033048C11F002412002000000000000000003A
S2140003401412002000000000000000000000000062
S2140003500000000000000000000000000000000098
S2140003600000000000000000000000000000000088
S2140003700000000000000000000000000000000078
S2140003800000000000000000000000000000000068
S2140013400000000078FB0520E8BF1F00E0EC1F004F
S2140013500D0C000070FC05203012002060112000EB
S2140013600000000064C01F001A0000002B000000F0
S214001370E00E0620C4C11F001C122000FFFFFFFF66
S21400138060120020000000000000000000000000C6
S214001390F40F06209C0F0620FFFFFFFF440F0620D9
S2140013A0EC0E062000000000F4C11F001A0000002A
S2140013B02B000000000000080000000000000000F5
S2140013C0000001000000080000000000000000000F
S2140013D00000010020000000658B0300498B03001D
S2140013E028D21F0010000000BC001B000D000000EB
S2140013F06AC51700080000003887180008000000BB
S21400140083C817000800000082C517000800000007
S2140014104B1117000800000094C5170008000000D4
S214001420A0C5170008000000B2C51700080000009D
S214001430C6C5170008000000DCC51700080000003D
S214001440F2C517000800000005C617008700000058
S2140014500DC617008700000015C61700080000001C
S2140014608DC517000800000022C6170008000000FF
S21400147029C617000800000035C61700080000003F
S21400148041C617008B0000004DC617008B000000F9
S2140014906FC617002B0000007DC617002B0000004B
S2140014A059C617003B00000062C61700080000007F
S2140014B04F111700080000008BC617000800000038
S2140014C09AC6170008000000A6C617008B0000008A
S2140014D0AEC617008B000000B6C61700340000002A
S2140014E0C8C617001C000000D8C617000800000079
S2140014F0FBC6170008000000E9C617001C00000025
S2140015000AC717000800000015C7170008000000EB
S21400151020C71700270000002DC71700270000006F
S2140015203AC717002700000048C71700270000002A
S21400153056C717002700000061C7170027000000E5
S2140015406CC717002700000073C7170027000000AD
S2140015507E0A1700080000007AC717002700000060
S21400156085C717002700000090C717000800000076
S214001570A5C7170008000000B2C717000800000043
S2140015805C1117000800000070111700070100002A
S21400159082111700080000008B1117003F000000A2
S2140015A09B1117003F000000AB11170077000000EA
S2140015B0BB1117003F000000C829170008000000F4
S2140015C0F129170008000000CB1117001D000000CD
S2140015D0D211170060000000DC111700C0000000E8
S2140015E0EA111700C0000000F8111700C000000044
S2140015F006121700C000000014121700C0000000FA
S21400160022121700C000000030121700C0000000B1
S2140016103E121700290000004D12170008000000B7
S21400162062121700870000006E1217000800000004
S21400163078121700080000008112170087000000CB
S2140016409012170087000000A01217008700000005
S214001650B012170087000000C012170087000000B5
S214001660D012170008000000E312170087000000E1
S214001670F212170008000000FB1217000800000016
S2140016800C13170008000000161317008700000050
S21400169024131700470100003213170087000000CC
S2140016A042131700870000005013170008000000C0
S2140016B05E131700080000007113170008000000F2
S2140016C07D131700570000008A131700570000000C
S2140016D09713170008000000A91317003700000032
S2140016E0B813170037000000C713170037000000B4
S2140016F0D613170087000000E31317000800000049
S214001700F6131700AF0000000514170008000000CD
S214001710171417000800000029141700080000001E
S2140017203B141700080000004814170008000000CB
S2140017305C141700080000006A1417000800000078
S2140017407D141700080000009014170037000000F2
S214001750A014170037000000B01417003700000070
S214001760C014170087000000CE1417000800000001
S214001770DB14170008000000E7141700080000003C
S214001780F8141700080000000915170037000000BD
S2140017901715170037000000251517003700000042
S2140017A033151700870000003F15170008000000DB
S2140017B04D15170008000000561517000800000019
S2140017C06115170007020000691517001D000000CC
S2140017D0A715170027000000B61517001D0000000B
S2140017E0751517001D00000084151700270000005F
S2140017F0921517001D000000A21517002700000014
S214001800B11517001D000000C215170001020000E8
S214001810CB15170001020000D315170008000000C2
S214001820E315170008000000F31517000800000075
S2140018300316170008000000131617000800000023
S21400184023161700080000003316170008000000D3
S2140018504316170008000000531617000800000083
S2140018606316170008000000731617000800000033
S21400187085161700080000009716170008000000DD
S214001880A916170008000000BB1617000800000085
S214001890CD16170008000000DF161700080000002D
S2140018A0F1161700080000000317170008000000D4
S2140018B0151717000800000027171700080000007B
S2140018C039171700080000004B1717000800000023
S2140018D05D171700080000006F17170008000000CB
S2140018E08117170008000000931717000800000073
S2140018F0A517170008000000B7171700080000001B
S214001900C917170008000000DB17170008000000C2
S214001910F017170008000000051817000800000060
S2140019201A181700080000002F18170008000000FB
S2140019304418170008000000591817000800000097
S2140019406E18170008000000831817000800000033
S2140019509818170008000000AD1817006300000074
S214001960C118170063000000D518170063000000B8
S214001970E918170063000000FD1817006300000058
S21400198011191700630000002519170063000000F6
S21400199039191700630000004D1917006300000096
S2140019A06119170063000000751917000800000091
S2140019B089191700080000009D191700080000008C
S2140019C0B119170008000000C5191700080000002C
S2140019D0D919170008000000ED19170008000000CC
S2140019E0011A170008000000151A1700080000006A
S2140019F0291A1700080000003D1A1700080000000A
S214001A004E1A1700080000005F1A170008000000B2
S214001A10711A170008000000831A1700080000005B
S214001A20981A170008000000AD1A170047000000BB
S214001A30C31A170047000000D91A17004700000015
S214001A40F11A170047000000091B17008700000066
S214001A50211B170087000000391B17000800000034
S214001A60511B170008000000691B17000800000043
S214001A70801B170008000000971B170008000000D6
S214001A80AE1B170008000000C51B1700080000006A
S214001A90D91B170008000000ED1B17000800000007
S214001AA0011C170008000000151C17008700000026
S214001AB02B1C170087000000411C17008700000041
S214001AC04F1C1700080000005C1C170008000000F0
S214001AD06D1C170087000000771C17005F000000D1
S214001AE0811C1700870000008E1C170027000000CE
S214001AF0951C1700070200009D1C17000800000038
S214001B00A71C170008000000B21C17000800000001
S214001B10BB1C170008000000C51C17001D000000B5
S214001B20CF1C170002000000DC1C1700020000009B
S214001B30E31C170007020000EE1C1700410000001F
S214001B40FC1C170008000000F9621B0008000000DB
S214001B50021D170087000000091D170087000000FF
S214001B60101D1700020000001A1D170002000000DA
S214001B70211D170008000000B6C517000800000069
S214001B802A1D1700080000003A1D17000800000074
S214001B904A1D170019000000561D17001900000006
S214001BA0611D1700020000006C1D170002000000F7
S214001BB0751D1700410000007C1D17004100000045
S214001BC0831D1700410000008A1D17004100000019
S214001BD0911D170041000000981D170041000000ED
S214001BE09F1D170041000000A61D170041000000C1
S214001BF0AD1D170041000000B41D17004100000095
S214001C00BB1D170007020000C81D17008700000054
S214001C10D21D1700070400006D1C170047000000C7
S214001C20E21D170007040000F21D17004700000021
S214001C30021E170047000000951C17000702000050
S214001C40FA1D1700470000000A1E17004700000094
S214001C50151E17001D000000B21C17001D00000016
S214001C609D1C17001D000000A71C17001D0000008B
S214001C7084F516000800000097F51600870000009F
S214001C80B7F5160008000000C6F5160008000000AC
S214001C90D7F5160008000000EBF516000800000057
S214001CA0FFF51600080000000EF6160008000000FB
S214001CB020F616000800000033F6160008000000A4
S214001CC01D1E170008000000341E17000800000044
S214001CD0511E170008000000C20717000800000089
S214001CE0BB071700080000009D0917001F00000032
S214001CF05A1E170008000000641E17002700000088
S214001D00711E1700270000007B1E1700270000002A
S214001D10851E1700270000008E1E170027000000F3
S214001D20981E170008000000A91E170008000000F3
S214001D30B31E170027000000C01E17002700000073
S214001D40CA1E170027000000D41E17002700000038
S214001D50DD1E1700270000003B0A170008000000E1
S214001D605A0A170027000000710A17002700000013
S214001D70440A170008000000E71E170027000000AE
S214001D80F31E170057000000021F17005700000040
S214001D90111F1700570000001F1F17000800000043
S214001DA02E1F170047000000A78A17000800000033
S214001DB03D1F170047000000461F170047000000A1
S214001DC0511F1700470000005C1F170008000000A6
S214001DD0681F170008000000761F170008000000A4
S214001DE0851F170008000000901F1700080000005D
S214001DF09D1F170008000000AB1F1700080000001A
S214001E00BA1F170008000000C91F170008000000CE
S214001E10D41F170008000000E11F1700080000008C
S214001E20EF1F17001D0000000320170057000000DA
S214001E30FE1F17001D0000000820170047000000C6
S214001E40F0E617008100000014201700470000008D
S214001E501F201700470000002C2017004700000036
S214001E6015151800310000003A2017000702000080
S214001E70B6C6170035000000C8C617001D000000D3
S214001E8049201700080000005C201700080000002A
S214001E90E9C6170008000000FBC61700080000008F
S214001EA06D201700080000007920170008000000C9
S214001EB0642717001D000000882017001D00000082
S214001EC0932017001D000000A12017001D00000031
S214001ED0B42017001D000000CE2017001D000000D3
S214001EE0DB2017001D000000E72017001D00000083
S214001EF0F32017001D000000FE2017001D00000044
S214001F000F2117001D0000001E2117001D000000F5
S214001F1014211700130000002E2117001D000000DA
S214001F201B2117001D0000002B2117001D000000BC
S214001F30422117001D0000004E2117001D00000062
S214001F405D2117001D0000006B2117001D0000001A
S214001F50752117001D0000008721170047000000AC
S214001F609C2117001D000000B22117001D00000074
S214001F70C42117001D0000004B1117001D000000B3
S214001F803C2717001D0000004B2717001D0000000F
S214001F90C82117002B000000D32117001D000000E9
S214001FA0E72117001D000000F52117001D000000A6
S214001FB0092217001D000000202217001D00000047
S214001FC02D2217001D0000004322170047000000C6
S214001FD05B25170047000000652517004700000036
S214001FE0532217001D000000BA2717001300000038
S214001FF0772317001D000000642217001D00000054
S214002000762217001D000000872217001D00000022
S214002010902217001D0000009F2217001D000000E0
S214002020AA2217001D000000BE2217001D00000097
S214002030D82217001D000000EF2217001D00000028
S214002040FC2217001D0000000F23170047000000A9
S214002050BFD6170047000000ADD617001D000000D1
S21400206088D617001D00000080D617001D0000004F
S214002070202317001D0000002D2317001D00000060
S2140020803B2317001D000000492317001D00000019
S21400209051231700270000005E2317001D000000D4
S2140020A06B2317001D000000732317001D0000009F
S2140020B08A2317001D0000009C2317001D00000047
S2140020C0B223170008000000BB231700080000001A
S2140020D063EA17001D000000CA2317001D00000059
S2140020E0D823170008000000E62317001D00000094
S2140020F0BC001B000D000000EE2317001D000000B2
S214002100F62317000800000001241700080000004E
S2140021100A2417001D000000182417001D000000E8
S214002120E7C717001D0000002A2417001D00000046
S214002130312417001D0000003A2417001D0000007F
S21400214046241700070400004F2417001D00000057
S2140021505C241700080000006724170087000000B2
S2140021606F241700080000007C24170029000000D8
S214002170852417001D000000932417001D00000092
S214002180A62417001D000000B92417008B000000CD
S214002190C02417008B000000CF2417001D0000008D
S2140021A0DF2417000B010000EF2417004700000093
S2140021B002251700470000000B2517004700000007
S2140021C0172517001D000000292517006B000000CA
S2140021D0352517006B0000003E2517006B00000039
S2140021E04C25170043000000582517004700000044
S2140021F062251700470000006E251700070500003F
S2140022007B2517000705000088251700CF00000073
S2140022108F2517008B0000009B2517004700000045
S214002220B125170047000000C22517008B000000EC
S214002230CE2517002F000000D82517002F0000001D
S214002240E22517001D000000F12517003B000000E6
S214002250FD2517003B000000092617003B00000084
S214002260152617003B000000212617000800000076
S214002270322617001D0000003E2617001D00000035
S21400228050261700470000005C2617001D000000BF
S2140022906D2617001D000000752617001D000000A3
S2140022A0802617001D000000882617001D0000006D
S2140022B0982617001D000000A52617001D00000028
S2140022C0B32617001D000000BA2617001D000000E8
S2140022D0D326170008000000DF2617001D000000A8
S2140022E0E72617001D000000F72617001D00000057
S2140022F0082717001D000000162717000702000019
S214002300202717001D000000392717001D000000B9
S214002310482717001D000000562717001D00000064
S214002320612717001D000000762717001700000021
S214002330822717001D0000009727170025000000C1
S214002340B72717001D000000C3271700470000002E
S214002350D72717001D000000EE2717001D000000FD
S214002360072817001D000000222817001D00000087
S2140023703D2817001D000000542817001D0000000F
S214002380652817001D0000007C2817001D000000AF
S2140023908B281700470000009C2817004700000005
S2140023A0B02817001D000000CB28170047000000CB
S2140023B0D82817001D000000E52817001D000000A3
S2140023C0F12817001D000000072917001D00000057
S2140023D0202917001D000000382917001D000000E6
S2140023E0472917001D0000005D2917001D0000008A
S2140023F0672917001D000000742917001D00000043
S214002400822917001D000000882917001D00000003
S214002410902917001D0000009E2917001D000000CF
S214002420AE2917001D000000BD2917001D00000082
S214002430CD2917001D000000E02917001D00000030
S214002440EB2917001D000000F62917001D000000EC
S2140024500B2A17001D0000001B2A17001D00000095
S2140024602C2A170047000000362A17001D0000001F
S2140024704A2A17001D0000005E2A17001D000000F3
S214002480722A17001D000000792A17001D000000A0
S214002490882A17001D000000942A17001D0000005F
S2140024A0A52A17001D000000B92A17001D0000000D
S2140024B0CD2A17001D000000E12A17001D000000AD
S2140024C0F52A17001D000000092B17001D0000004C
S2140024D01D2B17001D000000312B17001D000000EB
S2140024E0452B17001D000000592B17001D0000008B
S2140024F06D2B17001D000000812B17001D0000002B
S214002500952B17001D000000A92B17001D000000CA
S214002510BD2B17001D000000D12B17001D0000006A
S214002520E52B17001D000000F02B17001D00000013
S214002530FB2B17001D0000000A2C17001D000000D2
S214002540192C17001D0000002F2C17001D0000007E
S2140025503A2C17001D0000004B2C17001D00000031
S2140025605F2C17001D000000762C17001D000000D1
S214002570862C17001D000000922C17001D0000007E
S2140025809E2C17001D000000AE2C17001D0000003A
S214002590BE2C17001D000000D52C17001D000000E3
S2140025A0E12C17001D000000F32C17001D00000092
S2140025B0082D17001D000000202D17001D0000002C
S2140025C0312D170047000000392D17001D000000B0
S2140025D0402D17001D0000004D2D17001D000000A7
S2140025E0572D17001D000000622D17001D0000006B
S2140025F0702D17001D0000007B2D17001D00000029
S214002600832D17001D000000912D17001D000000EF
S2140026109D2D17001D000000AC2D17001D000000AA
S214002620B62D17001D000000C12D17001D0000006C
S214002630D42D17001D000000DB2D17000800000039
S214002640EA2D17001D000000F62D170008000000F8
S214002650012E170087000000092E17001D0000003D
S214002660162E1700290000001F2E17001D00000060
S2140026702D2E17001D000000402E17001D00000024
S214002680532E17008B0000005A2E17001D00000066
S2140026906A2E17000B0100007A2E17004700000074
S2140026A08D2E170047000000962E170047000000EA
S2140026B0A22E17001D000000B42E17006B000000AD
S2140026C0C02E17006B000000C92E17006B0000001C
S2140026D0D72E170043000000E32E17004700000027
S2140026E0ED2E170047000000F92E17000705000022
S2140026F0062F170007050000132F1700CF00000055
S2140027001A2F17008B000000262F17004700000026
S2140027103C2F1700470000004D2F17008B000000CD
S214002720592F17002F000000632F17002F000000FE
S2140027306D2F17001D0000007C2F17003B000000C7
S214002740882F17003B000000942F17003B00000066
S214002750A02F17003B000000AC2F17001D00000044
S214002760BD2F17001D000000C92F17001D00000018
S214002770DB2F170047000000E72F17001D000000A2
S214002780F82F17001D000000003017001D00000085
S2140027900B30170008000000133017001D00000063
S2140027A02330170008000000303017001D0000001E
S2140027B03E3017001D000000453017001D000000C9
S2140027C05E3017001D0000006A3017001D00000074
S2140027D0723017001D000000823017001D00000038
S2140027E0933017001D000000A130170007020000FC
S2140027F0AB3017001D000000C43017001D0000009D
S214002800D330170008000000E13017001D0000005C
S214002810EC30170008000000013117001700000018
S2140028200D3117001D0000002231170025000000A2
S214002830423117001D0000004E311700470000000F
S214002840623117001D000000793117001D000000DE
S214002850923117001D000000AD3117001D0000006A
S214002860C83117001D000000DF3117001D000000F2
S214002870F03117001D000000073217001D00000091
S21400288016321700470000002732170047000000E6
S2140028903B3217001D0000005632170047000000AC
S2140028A0633217001D000000703217001D00000084
S2140028B07C3217001D000000923217001D00000039
S2140028C0AB3217001D000000C33217001D000000C9
S2140028D0D23217001D000000E83217001D0000006D
S2140028E0F23217001D000000FF3217001D00000026
S2140028F00D3317001D000000133317001D000000E5
S2140029001B3317001D000000293317001D000000B0
S214002910393317001D000000483317001D00000063
S214002920583317001D0000006B3317001D00000011
S214002930763317001D000000813317001D000000CD
S214002940963317001D000000A63317001D00000078
S214002950B733170047000000C13317001D00000002
S214002960D53317001D000000E93317001D000000D6
S214002970FD3317001D000000043417001D00000082
S214002980133417001D0000001F3417001D00000040
S214002990303417001D000000443417001D000000EE
S2140029A0583417001D0000006C3417001D0000008E
S2140029B0803417001D000000943417001D0000002E
S2140029C0A83417001D000000BC3417001D000000CE
S2140029D0D03417001D000000E43417001D0000006E
S2140029E0F83417001D0000000C3517001D0000000D
S2140029F0203517001D000000343517001D000000AC
S214002A00483517001D0000005C3517001D0000004B
S214002A10703517001D0000007B3517001D000000F4
S214002A20863517001D000000953517001D000000B4
S214002A30A43517001D000000BA3517001D00000061
S214002A40C53517001D000000D63517001D00000014
S214002A50EA3517001D000000013617001D000000B3
S214002A60113617001D0000001D3617001D0000005F
S214002A70293617001D000000393617001D0000001B
S214002A80493617001D000000603617001D000000C4
S214002A906C3617001D0000007E3617001D00000073
S214002AA0933617001D000000AB3617001D0000000F
S214002AB0BC36170047000000C43617001D00000093
S214002AC0CB3617001D000000D83617001D0000008A
S214002AD0E23617001D000000ED3617001D0000004E
S214002AE0FB3617001D000000063717001D0000000B
S214002AF00E3717001D0000001C3717001D000000D1
S214002B00283717001D000000373717001D0000008B
S214002B10413717001D0000004C3717001D0000004D
S214002B205F3717001D00000066371700080000001A
S214002B306F371700080000007D37170008000000F8
S214002B408E371700080000009E37170008000000A8
S214002B50B937170008000000C93717000800000042
S214002B60DA37170008000000F037170008000000EA
S214002B700538170008000000193817000800000084
S214002B802E381700080000003D3817000800000027
S214002B9053381700080000006938170008000000C6
S214002BA07638170008000000863817000800000076
S214002BB09938170008000000A63817000800000023
S214002BC0A60917001F000000B8381700080000000C
S214002BD0CC38170008000000DC381700080000009A
S214002BE0EE38170008000000013917000800000042
S214002BF015391700190000001A39170021000000C7
S214002C008D0917000800000023391700080000008F
S214002C102B391700080000003439170008000000A0
S214002C203C39170002000000100000000000602879
S214002C30010000000400000050D8602800000000DA
S214002C4001120F0000000000B80B0000000000009A
S214002C500000000000000000021207000000000054
S214002C60B80B00000000000000000000000000009C
S214002C700302050000000000000000000000000045
S214002C800000000000000000040203000000000036
S214002C90B80B000000000000CC1000000000000090
S214002CA0050000000000000000000000000000001A
S214002CB0000000000000000001000000511E170088
S214002CC0FFFFFFFF0100000002000000E803000015
S214002CD0307500006E19000000C00000FA00000009
S214002CE09DAE0500E803000011DC1000E8030000BC
S214002CF0A13A0500E8030000892505000A00000047
S214002D004128050064000000C111050064000000B1
S214002D104D430500E803000039330500E8030000D2
S214002D204D4A0500E80300006DCD10006400000069
S214002D3001D81000F40100009DC81000010000003A
S214002D40FF00000078000000FFFFFF006C09000095
S214002D50A0860100640000000000000000000000E3
S214002D60102030405060708090A0B0C0000000007E
S214002D700000000100140000000000000000000039
S214002D80000000000000000000000000000000003E
S214002D90000000000000000000000000000000002E
S214002DA0000000000000000000000000000000001E
S214002DB0000000000000000000000000000000000E
S214002DC000000000000000000000000000000000FE
S214002DD000000000000000000000000000000000EE
S214002DE000000000000000000000000000000000DE
S214002DF000000000000000000000000000000000CE
S214002E0000000000000000000000000000000000BD
S214002E1000000000000000000000000000000000AD
S214002E20000000000000000000000000000000009D
S214002E30000000000000000000000000000000008D
S214002E40000000000000000000000000FFFFFFFF81
S214002E50C8000000000000000000000000000000A5
S214002E60B0250820F5B906000000000000000000AC
S214002E70900600002D2D2D2D2D424547494E2052FF
S214002E8053412050524956415445204B45592D2D0B
S214002E902D2D2D0A4D4949457041494241414B432C
S214002EA0415145417379436B4F4F48527A526C4FAC
S214002EB0454445543848615946774D436E597052DB
S214002EC070366865706A6E375464746C5A4644731C
S214002ED0787754530A6944634E58323758675562B8
S214002EE043454E416E33654B3277646564595A6E7E
S214002EF0706D48584730386E4F67794A7248466F4B
S214002F00423737565A3269436643564D50777453A4
S214002F107675704C2F0A7457305664656139566F53
S214002F20684473546B416F764755577942567A65B5
S214002F30796849756A682F546F4E59346158756CB4
S214002F4049674C5953323167556F79384761565A3D
S214002F507953775144580A344E632F38306E4C7983
S214002F60486643704D55774C364C4A30546C7864FE
S214002F703365556F6E634A4437544E4D6D574C67F4
S214002F804D34586C6D353175755259354266423937
S214002F906E584B554862690A3661397330784A2B49
S214002FA05732564B53344B5362525745587855490F
S214002FB07358423654355931797570344F514144FF
S214002FC0497A4A484A57554F4C37327657704D63C0
S214002FD0385834526A42776B0A646148374D563621
S214002FE0444F305A7A584472756245454748346CA7
S214002FF045456673624E597450325147447551497F
S2140030004441514142416F494241446E69594738F3
S214003010704F687A6E416E7A6B0A2F7961446A4601
S2140030203554554C4D4D455A723249362F66714CC3
S2140030302F6547414F30797537394E664E69707542
S21400304057683865344B71596535584569746A4A0E
S21400305056545562354B654677570A497977705707
S2140030604A797A734A3032304D31666379757A77A9
S214003070764447634A397244325A68506C536F62DA
S214003080586A75475630764A34444C684E4D69380F
S2140030906567497150476B642B584B0A4438302B90
S2140030A0787A6A554D342B34486B485855795953BD
S2140030B0414C376E547A492B6E68396D6D337943BF
S2140030C06E7446534A734E6A317452583749566A7C
S2140030D06E6A6831524953374D5235420A6630752A
S2140030E039785647663355624276654B2F52795685
S2140030F047642F51574A61636B7442637233577942
S2140031004378486B776F3634544554756A35443384
S2140031104E787149726D694368426175420A65640A
S21400312069716F6533527578507736766745332BFD
S2140031307A336D6644644430586235384373764E4D
S214003140323764572F2F65756631785A6A6A773634
S214003150784C71416F335A643866414D4D450A4587
S2140031604644555269454367594541316D582F5A73
S214003170304F6F4E496433536F466867354E6B5118
S2140031806C45425362324C6E6133354A74716875D1
S214003190796C504C61726A61706F476A33432F0ACC
S2140031A0347A306841495536643157334C313250A1
S2140031B03137355861487244754135315463396248
S2140031C06E4D702F4A7553725636723543766D5A69
S2140031D04A38314D6674596C4A7A6C34317A4A648E
S2140031E00A4A4966316E494C786C587651533972A2
S2140031F056485371494F2F3064507745416B474BC3
S2140032004A487171687957544D357368334363671C
S214003210705179374A734C30436759454131654B95
S2140032205A0A704464676B4C5251676D746B573022
S2140032304644496B52316147364A3667452F5470CB
S2140032406D6D53593634787145597235726E4752E2
S2140032504F627659724751584870396F442F5175EE
S21400326043480A6669566575647675795159587487
S214003270304B734576304E79686F4C576D416C54C1
S214003280696A31654B456A556D764872545633798E
S214003290644D53644549733570356B3677334874DF
S2140032A0384B550A3459416A6A46676C4C2B30785D
S2140032B04456394543366E77423473774E774B66BD
S2140032C04270696675776B73704B3043675942314D
S2140032D052466A4D484A39324339706473434B73D9
S2140032E0477751740A6D613041726D496448726B5C
S2140032F03258554D303463566A44794E516657718C
S214003300314C6C426D644673477339686B7955640B
S2140033106D36742F77657A58482B63337663456B22
S2140033204E424376780A75486950783264496A6B2B
S214003330576C6B52774B5079706C2F6139596F7799
S214003340444C673871615870736976695278524D8B
S214003350574C6C2B6756436478324931334A786A47
S214003360794F764C61500A52586B30644B50325845
S214003370784E74454551786350663061514B4267CC
S214003380514448587A7A6371496F70475176624A59
S2140033906F516231452F6942334A78384767366144
S2140033A0774D36483175300A515966594435375687
S2140033B0516B3264514876795351505A535868507D
S2140033C0775A737747642F7A4A4A365348594D4F8F
S2140033D0653946726B49696141717A7838536B5921
S2140033E043337436796739580A624D31694C506DEB
S2140033F0716161624A79536A776D696345716931B3
S2140034006B4E696F7644774238323164486F587134
S214003410346E423858576641783979793575334D68
S214003420734E424E4D734D526B0A4D6E3863325199
S2140034304B42675143304F4B626F6555677A6B3925
S2140034406930364B45364371474F343357705044D6
S2140034504B4E472B34796C6E436E49786A65474904
S214003460594C4E4B484A2B5243760A346C742B46C2
S2140034704857637763694D334A6F4E4A57536671B0
S214003480584763717032423937492F594457383795
S2140034904C364865345368556D7A76646C414731CE
S2140034A043656347715459427259420A6C63722FDE
S2140034B02B52756B577A494D55434132344B654113
S2140034C06F68654B73432B484A4767345530386EF0
S2140034D0577A356E394B33306B714E79612B6E7A75
S2140034E039673D3D0A2D2D2D2D2D454E4420525336
S2140034F0412050524956415445204B45592D2D2DBB
S2140035002D2D0A00580400002D2D2D2D2D42454747
S214003510494E2043455254494649434154452D2D72
S2140035202D2D2D0A4D494944426A43434165344393
S214003530435143673578744C3561702F4344414E90
S21400354042676B71686B6947397730424151734601
S214003550414442464D517377435159445651514761
S21400356045774A420A565445544D424547413155DF
S214003570454341774B553239745A53315464474664
S214003580305A5445684D4238474131554543677770
S21400359059535735305A584A755A58516756326CEF
S2140035A06B5A326C300A6379425164486B675448F0
S2140035B0526B4D423458445445344D4467794D540B
S2140035C041334D7A67304D316F58445449344D4439
S2140035D067784F4441334D7A67304D316F77525498
S2140035E0454C4D416B470A4131554542684D435164
S2140035F0565578457A415242674E564241674D438A
S2140036006C4E766257557455335268644755784900
S21400361054416642674E5642416F4D47456C75644D
S214003620475679626D56300A494664705A47647048
S21400363064484D6755485235494578305A444343A7
S214003640415349774451594A4B6F5A496876634EFD
S21400365041514542425141446767455041444343C6
S21400366041516F43676745420A414C4D6770446A53
S214003670683063305A54684178452F42326D426351
S214003680444170324B5561656F587159352B303354
S214003690625A575251374D6345306F673344563937
S2140036A07531344647776844510A4A39336974732A
S2140036B048586E57475A365A68317874504A7A6F67
S2140036C04D696178786141652B3157646F676E7715
S2140036D06C5444384C55723771532F3756744658CD
S2140036E0586D76566149513745350A414B4C786CD2
S2140036F0467367566333736F534C6F346630364485
S214003700574F476C37705349433245747459464B8C
S2140037104D76426D6C57636B734541312B44585060
S2140037202F4E4A79386833777154460A4D432B69D1
S21400373079644535635864336C4B4A3343512B30B8
S2140037407A544A6C6934444F46355A756462726BD3
S214003750574F515877665A31796C423234756D76C8
S214003760624E4D53666C746C536B75430A6B6D30CA
S2140037705668463856434C4677656B2B574E6372F1
S2140037807165446B4141794D795279566C44692B89
S21400379039723171544850462B455977634A485719
S2140037A0682B7A4665677A7447633177360A376DD1
S2140037B0784242682B4A52424837477A574C543927
S2140037C06B4267376B43417745414154414E4267F0
S2140037D06B71686B69473977304241517346414196
S2140037E04F4341514541574A566A4933706F0A7AEA
S2140037F06A4370736672507731752F4B2F30414A8B
S2140038004752704C43687642504D597A31312F41B9
S2140038107932493276795438616B524D2B376B6D5D
S21400382030572F642B7769794C3059543951490AEF
S21400383050485434674C4556344B65695153415093
S214003840696E64744A676267325769353345424722
S214003850654E724457484D77483369736C447239E5
S214003860683239337A6855715A4D69653257446201
S2140038700A6B704563536837394441685A445A3472
S21400388033642F71486757657957576B7943384AC1
S2140038904C51497A59507364544A59663871713795
S2140038A0794E5A6C72374F5A434858647132734790
S2140038B0380A536A453449316A34414E6B6B4A7054
S2140038C06E58367946445A5A47444472557A50637D
S2140038D04A525056745A7A6D79744A5549627A6FCC
S2140038E054553945366E5344496C764254543237F3
S2140038F0336F0A39674A58766B55374C3463774EC0
S2140039004341673067335252777971495571387A37
S21400391079577349654E5364717A3634454948324F
S2140039207758345876576B567A447A6678573736CF
S214003930484C370A4E4F64733461355349486646DF
S2140039405A773D3D0A2D2D2D2D2D454E44204345BD
S2140039505254494649434154452D2D2D2D2D0A00DC
S2140039600000000000000000000000000000000052
S2140039700000000048380020030000C0500000008F
S2140039800000000000000000683800200000000072
S2140039900000010000000000000000000001FF071A
S2140039A000000000B1181100A91711000100000066
S2140039B00700000006000000FD000000B11811001E
S2140039C0A91711006F280A0859230A085D230A0858
S2140039D06B290A08B9240A08F92C0A08BF2D0A0818
S2140039E00F2B0A084F250A0871250A0861230A08C2
S2140039F065230A0851230A08F000000000000000B2
S214003A000000000000000000E03800200000000079
S214003A10040000000000000000000000000000009D
S214003A2044A0042060006028FF000000FFFFFFFFA6
S214003A30C40E6028740E6028640E602824000C40B3
S214003A40CBDE170081FA080000000000000000002E
S214003A50B4DE1700D0DE17000000000000000000F3
S214003A6000000000000000007FBC1700650509008C
S214003A700000000000000000DADE1700EFDE17008E
S214003A80990209000000000001000000F7DE1700A0
S214003A9047DF17007D02090000000000000000005C
S214003AA04FDF1700C8211700610209000000000060
S214003AB00000000066DF17007ADF170045020900E5
S214003AC0000000000000000086DF1700A1DF1700DE
S214003AD0550409000000000000000000B0DF1700D9
S214003AE0F3EE1700290409000000000000000000A3
S214003AF0DCDF170083DD1700FD030900000000006F
S214003B000000000007E0170092DD1700CD03090053
S214003B10000000000100000022E0170050E017003F
S214003B209D03090000000000000000005CE0170094
S214003B3082E01700590509000000000000000000A0
S214003B4090E0170009C919002902090000000000CA
S214003B5000000000ABE01700CDE01700710309007D
S214003B600000000000000000DCE01700F7E017008F
S214003B7045030900000000000000000007E11700F0
S214003B8023E1170000000000000000000000000015
S214003B900000000040E117000D02090000000000D0
S214003BA0000000002EE11700649A1B00F1010900D6
S214003BB0000000000000000045E1170081E117004A
S214003BC04D05090000000000000000008DE1170010
S214003BD0492A190041050900000000000000000005
S214003BE09DE11700C8E11700D5010900000000009C
S214003BF000000000D8E1170018E21700350509009C
S214003C000000000000000000F6E1170040E2170088
S214003C102905090000000000000000001EE2170051
S214003C2047E217001D050900000000000000000024
S214003C3056E21700BFD61700B901090000000000C1
S214003C400000000083E21700ADD617009D010900B2
S214003C500000000000000000BCE2170088D6170035
S214003C60810109000000000000000000CBE2170000
S214003C7080D6170065010900000000000000000063
S214003C80EDE21700414C1A0055080900000000003C
S214003C9000000000F2E21700D9A71A00D1070900B9
S214003CA000000000010000002BE3170064E317008B
S214003CB04D070900000000000100000071E3170036
S214003CC089D41900C90609000000000001000000A0
S214003CD0A7E31700D6E3170045060900000000001A
S214003CE001000000DAE317001CE4170011050900C4
S214003CF0000000000000000027E4170045E417005D
S214003D000505090000000000000000004EE4170052
S214003D1061E41700490109000000000000000000EF
S214003D206DE417008DE4170015030900000000007D
S214003D300100000096E41700CEE41700E502090033
S214003D400000000000000000D7E4170007E5170099
S214003D50F904090000000000000000000DE517004F
S214003D6020E51700ED040900000000000000000038
S214003D702CE5170048E517000000000000000000D2
S214003D8000000000000000004FE517002D010900AC
S214003D90000000000000000057E5170087E5170048
S214003DA0B502090000000000010000008FE51700C2
S214003DB0EA011700E104090000000000000000000E
S214003DC0BBE51700DCE51700110109000000000044
S214003DD001000000E7E517000AE617007105090074
S214003DE0000000000100000012E61700151518007C
S214003DF0F500090000000000000000004CE6170077
S214003E0008201700D900090000000000000000008C
S214003E107BE6170014201700BD0009000000000014
S214003E20000000009BE617001F201700A1000900F5
S214003E300000000000000000B9E61700F0E61700DA
S214003E40850009000000000000000000DBE6170007
S214003E502C20170069000900000000000000000088
S214003E60FDE617003A2017004D000900000000008C
S214003E700000000021E71700360117003100090096
S214003E80000000000000000047E717006AE7170080
S214003E90000000000000000000000000000000001D
S214003EA0DE261B00150009000000000000000000D0
S214003EB075E7170099E71700F9FF080000000000F3
S214003EC000000000A8E71700DAE71700C904090099
S214003ED00000000000000000E4E71700BBC7170062
S214003EE09DF808000000000000000000F4E717003E
S214003EF01AE81700E5F908000000000000000000BE
S214003F0023E81700BFC71700DDFF08000000000009
S214003F100000000038E8170063E81700C1FF08003B
S214003F20000000000000000072E8170089E8170093
S214003F30A5FF0800000000000000000096E817003B
S214003F406D20170089FF0800000000000000000038
S214003F50AFE81700792017006DFF0800000000008A
S214003F6000000000CAE81700E8E8170051FF080044
S214003F700000000000000000F3E8170051E91700F9
S214003F8035FF0800000000000000000059E9170097
S214003F906FE9170019FF080000000000000000008D
S214003FA077E9170082291B00FDFE080000000000CC
S214003FB0000000009EE9170064271700E1FE0800D5
S214003FC00000000000000000DDE917008820170050
S214003FD0C5FE0800000000000000000005EA17000B
S214003FE02FEA170095FE0800000000000000000001
S214003FF036EA170063EA170079FE080000000000A2
S2140040000000000054EA17006EEA170000000000E7
S214004010000000000000000000000000BE121A00B1
S2140040205DFE0800000000000000000075EA1700B2
S214004030A2EA1700BD04090000000000000000000E
S214004040B0EA1700CAEA170041FE080000000000A8
S21400405000000000D6EA170003EB170025FE080054
S214004060000000000000000014EB170049EB1700EA
S21400407009FE0800000000000000000057EB1700D3
S2140040807FEB170039F70800000000000000000072
S21400409089EB1700C4EB1700B1040900000000000C
S2140040A000000000CFEB1700FDEB1700EDFD080049
S2140040B0000000000000000005EC17002BEC1700C5
S2140040C0A5040900000000000000000033EC170003
S2140040D048EC170000000000000000000000000090
S2140040E0000000004FEC1700D1FD080000000000A3
S2140040F00000000055EC170052A2180099040900B1
S21400410000000000000000007BEC170094EC170095
S214004110B5FD080000000000000000009EEC17003F
S214004120C2ED170099FD0800000000000000000026
S214004130CFED1700012417007DFD080000000000E9
S21400414000000000F9ED170035EE17008D04090099
S214004150000000000000000012EE170030EE17000E
S21400416081040900000000000000000040EE170077
S2140041705CEE170061FD0800000000000000000073
S21400418070EE1700A0EE170045FD080000000000C6
S21400419000000000B5EE1700E6EE170029FD080047
S2140041A07BF6080000000000B5EE1700FFEE1700D3
S2140041B00DFD0800000000000000000008EF1700DA
S2140041C043EF1700F1FC08000000000000000000AC
S2140041D04FEF17007CEF1700D5FC0800000000002A
S2140041E0000000008DEF1700C9EF1700B9FC0800AB
S2140041F00000000000000000D7EF1700F1C91A0009
S2140042009DFC080000000000000000008CF0170075
S21400421089EF170081FC0800000000000000000085
S2140042209AF01700000000000000000000000000E8
S21400423000000000000000006A2417000072241727
S21400424000005A00190000AE04170000D224170020
S21400425000E224170000F2241700000525170000CE
S21400426004741800002C251700005AEE18000041B0
S21400427025170000E4E91800007125170000FCFA75
S214004280160000A0AE1A00008EBA18000089BA18F0
S2140042900000392A1700004D2A170000612A17006F
S2140042A0008B25170000414C1A000030381900001A
S2140042B0B425170000D9A71A0000D125170000DB87
S2140042C025170000F42517000000261700000C260E
S2140042D0170000182617000024261700004126178E
S2140042E0000053261700005F26170000E7311B006A
S2140042F000BD26170000FA1B18000019271700003B
S2140043000B27170000FD2A1B00004DBB18000057A6
S2140043102817000068281700007F281700002327AA
S214004320170000A716180000E10D180000B71618B1
S21400433000009329170000A12917000082C5170066
S21400434000B129170000C029170000D02917000067
S214004350E329170000EE29170000F9291700000EC0
S2140043602A1700001E2A1700002F2A1700006427AD
S2140043701700003C271700004B2717000059271787
S21400438000007927170000E226170000EA2617002B
S21400439000DB28170000E828170000F428170000A4
S2140043A00A2917000023291700003B291700004A96
S2140043B02917000060291700000000000000000018
S2140043C0FFFFFFFFFFFFFFFF00180000ABC01A0053
S2140043D0050000001F000000CB960D00EF960D00B4
S2140043E000000000FF960D0007970D000F970D00C8
S2140043F019970D0001000000C8420020C8420020A6
S214004400AC592000AAAA0300000000000902000020
S214004410030300001F00000000C000008594160083
S21400442011651600AD8216008186160045651600D9
S214004430D9641600E15A1200E15A1200E75A120037
S214004440E75A12004443002001AC0F0005AC0F00F1
S21400445002AC0F0004AC0F000000000000000000DB
S214004460000000000000000000000000020008003D
S21400447002000C0000000000000000000000000029
S2140044800000000000000000000000000000000027
S2140044900000000000000000000000000000000017
S2140044A00000000000000000000000000000000007
S2140044B000000000000000000000000000000000F7
S2140044C000000000000000000000000000000000E7
S2140044D00000000000000000000000004C44002027
S2140044E0F443002000000000000000000000000070
S2140044F000000000000000000000000000000000B7
S21400450000000000000000000000000000000000A6
S2140045100000000000000000000000000000000096
S214004520000000007045002010450020000000003C
S2140045301C000000080000000000010003FF00004F
S2140045400000000000000041000100000000000024
S2140045500100000000000000FEFF0000FEFF00005B
S2140045600000000000000000000000000000000046
S2140045700000000001000000A4440020904B002032
S214004580E0440020000000000E0000000C000000C8
S2140045900000010003FF00000000000000000041D2
S2140045A00001000000000000000000000000000005
S2140045B000000000000000000000000000000000F6
S2140045C000000000000000000000000001000000E5
S2140045D0A4440020040001000000000000000000C9
S2140045E00000000000000000FAFFFAFFFFFFFFFFD8
S2140045F0FFFFFFFF000000000000000000000000BA
S21400460000000000000000000000000000000000A5
S214004610000000000A00000000000000010000008A
S2140046201400010000000000010000003700020036
S21400463000000000010000006E0003000000000003
S214004640000000003C000400000000000000000025
S2140046505A00050000000000000000007800060078
S2140046600000000000000000B4000700000000008A
S21400467000000000F000080000000000000000003D
S214004680680109000000000000000000E0010A00C8
S21400469000000000000000001C020B0000000000EC
S2140046A0000000003C1400000000000000000000B5
S2140046B0000000001E0000000000000000000000D7
S2140046C000000000000000000000000000000000E5
S2140046D00000000000000000000000005014000071
S2140046E00000000000000000000000001E000000A7
S2140046F000000000000000000000000000000000B5
S21400470000000000000000000000000000000000A4
S214004710000000006414000000000000000000001C
S214004720000000001E000000000000000000000066
S2140047300000000000000000000000000000000074
S21400474000000000000000000000000078140000D8
S2140047500000000000000000000000001E00000036
S2140047600000000000000000000000000000000044
S2140047700000000000000000000000000000000034
S214004780000000008C140000000000000000000084
S214004790000000001E0000000000000000000000F6
S2140047A00000000000000000000000000000000004
S2140047B0000000000000000000000000A014000040
S2140047C00000000000000000000000001E000000C6
S2140047D000000000000000000000000000000000D4
S2140047E000000000000000000000000000000000C4
S2140047F000000000B41400000000000000000000EC
S214004800000000001E000000000000000000000085
S2140048100000000000000000000000000000000093
S214004820000000000000000000000000C8140000A7
S2140048300000000000000000000000001E00000055
S2140048400000000000000000000000000000000063
S2140048500000000000000000000000000000000053
S214004860000000007C1500000000000000000000B2
S214004870000000001E000000000000000000000015
S2140048800000000000000000000000000000000023
S214004890000000000000000000000000901500006E
S2140048A00000000000000000000000001E000000E5
S2140048B000000000000000000000000000000000F3
S2140048C000000000000000000000000000000000E3
S2140048D000000000A415000000000000000000001A
S2140048E0000000001E0000000000000000000000A5
S2140048F000000000000000000000000000000000B3
S214004900000000000000000000000000B8150000D5
S2140049100000000000000000000000001E00000074
S2140049200000000000000000000000000000000082
S2140049300000000000000000000000000000000072
S21400494000000000CC150000000000000000000081
S214004950000000001E000000000000000000000034
S2140049600000000000000000000000000000000042
S214004970000000000000000000000000E01500003D
S2140049800000000000000000000000001E00000004
S2140049900000000000000000000000000000000012
S2140049A00000000000000000000000000000000002
S2140049B000000000F41500000000000000000000E9
S2140049C0000000001E0000000000000000000000C4
S2140049D000000000000000000000000000000000D2
S2140049E000000000000000000000000008160000A4
S2140049F00000000000000000000000001E00000094
S214004A0000000000000000000000000000000000A1
S214004A100000000000000000000000000000000091
S214004A20000000001C16000000000000000000004F
S214004A30000000001E000000000000000000000053
S214004A400000000000000000000000000000000061
S214004A50000000000000000000000000301600000B
S214004A600000000000000000000000001E00000023
S214004A700000000000000000000000000000000031
S214004A800000000000000000000000000000000021
S214004A9000000000441600000000000000000000B7
S214004AA0000000001E0000000000000000000000E3
S214004AB000000000000000000000000000000000F1
S214004AC00000000000000000000000005816000073
S214004AD00000000000000000000000001E000000B3
S214004AE000000000000000000000000000000000C1
S214004AF000000000000000000000000000000000B1
S214004B000000000071160000000000000000000019
S214004B10000000001E000000000000000000000072
S214004B200000000000000000000000000000000080
S214004B3000000000000000000000000085160000D5
S214004B400000000000000000000000001E00000042
S214004B500000000000000000000000000000000050
S214004B600000000000000000000000000000000040
S214004B700000000099160000000000000000000081
S214004B80000000001E000000000000000000000002
S214004B900000000000000000000000000000000010
S214004BA0000000000000000000000000AD1600003D
S214004BB00000000000000000000000001E000000D2
S214004BC000000000000000000000000000000000E0
S214004BD000000000000000000000000000000000D0
S214004BE000000000C11600000000000000000000E9
S214004BF0000000001E000000000000000000000092
S214004C00000000000000000000000000000000009F
S214004C10000000000000000000000000D5160000A4
S214004C200000000000000000000000001E00000061
S214004C30000000000000000000000000000000006F
S214004C40000000000000000000000000000000005F
S214004C5000000000E9160000000000000000000050
S214004C60000000001E000000000000000000000021
S214004C70000000000000000000000000000000002F
S214004C80000000000000000000000000FD1600000C
S214004C900000000000000000000000001E000000F1
S214004CA000000000000000000000000000000000FF
S214004CB000000000000000000000000000000000EF
S214004CC0000000006C09000000000000000000006A
S214004CD0000000001E0000000000000000000000B1
S214004CE000000000000000000000000000000000BF
S214004CF00000000000000000000000007109000035
S214004D000000000000000000000000001E00000080
S214004D10000000000000000000000000000000008E
S214004D20000000000000000000000000000000007E
S214004D3000000000760900000000000000000000EF
S214004D40000000001E000000000000000000000040
S214004D50000000000000000000000000000000004E
S214004D600000000000000000000000007B090000BA
S214004D700000000000000000000000001E00000010
S214004D80000000000000000000000000000000001E
S214004D90000000000000000000000000000000000E
S214004DA00000000080090000000000000000000075
S214004DB0000000001E0000000000000000000000D0
S214004DC000000000000000000000000000000000DE
S214004DD00000000000000000000000008509000040
S214004DE00000000000000000000000001E000000A0
S214004DF000000000000000000000000000000000AE
S214004E00000000000000000000000000000000009D
S214004E10000000008A0900000000000000000000FA
S214004E20000000001E00000000000000000000005F
S214004E30000000000000000000000000000000006D
S214004E400000000000000000000000008F090000C5
S214004E500000000000000000000000001E0000002F
S214004E60000000000000000000000000000000003D
S214004E70000000000000000000000000000000002D
S214004E800000000094090000000000000000000080
S214004E90000000001E0000000000000000000000EF
S214004EA000000000000000000000000000000000FD
S214004EB0000000000000000000000000990900004B
S214004EC00000000000000000000000001E000000BF
S214004ED000000000000000000000000000000000CD
S214004EE000000000000000000000000000000000BD
S214004EF0000000009E090000000000000000000006
S214004F00000000001E00000000000000000000007E
S214004F10000000000000000000000000000000008C
S214004F20000000000000000000000000A3090000D0
S214004F300000000000000000000000001E0000004E
S214004F40000000000000000000000000000000005C
S214004F50000000000000000000000000000000004C
S214004F6000000000A809000000000000000000008B
S214004F70000000001E00000000000000000000000E
S214004F80000000000000000000000000000000001C
S214004F90000000000000000000000000B40900004F
S214004FA00000000000000000000000001E000000DE
S214004FB000000000000000000000000000000000EC
S214004FC000000000000000000000000000000000DC
S214004FD00000000000000000FFFF1028FFFF153C47
S214004FE0000000000000000000000000FFFF003886
S214004FF0FFFF1020FFFF153CFFFF10200000000001
S2140050000000000001010100010000000100000096
S2140050100101010000000000010000000F00000078
S2140050200100000001000000000000000100000177
S21400503000010000F4010000000000000000000075
S21400504014000000000000006400000001000000E2
S214005050000001000000000000000000000000004A
S214005060000000000200000000000000911E130077
S214005070C920130000000000751E1300AF251300A2
S21400508001000000544F0020544F00205C4F0020C9
S2140050905C4F00200500000007000000D84F0020ED
S2140050A0744F002000001900D803F80301140A10FA
S2140050B0000001001900D8039813010C0610000028
S2140050C00200190061029813011008100000030086
S2140050D02800EA00C30101180C1000000414280080
S2140050E0EA00040201140A100000050019007813F3
S2140050F01F270324061002000600190072065C1D16
S214005100033008100200000000001900D803F8035E
S21400511001140A10000001001900D8039813010CAE
S2140051200610000002001900610298130110081012
S214005130000003002800EA00C30101180C1000005C
S21400514004032800EA00CC02011008100000050045
S214005150190078131F27031E051002000600190009
S21400516072065C1D033008100200000004000000F8
S21400517004000000845000204C500020000019005D
S2140051808505A505011209100000010019001C0282
S2140051903C02010A0510000002001900C60BE60BCF
S2140051A0014623100000030019003D015D010103C4
S2140051B002100000000019008505A505011209105F
S2140051C00000010019001C023C02010A0510000044
S2140051D002001900C60BE60B014623100000030070
S2140051E019003D015D0101030210000001001400DA
S2140051F0BC020000000000000200000000000000EA
S214005200010000007478715F636C65616E000000D9
S2140052100000000000000000020000000000000087
S214005220000000007261646172000000000000006F
S2140052300000000020000000AC962100B09621007F
S214005240B4962100B8962100BC962100C096210095
S214005250C4962100C8962100CC962100D096210045
S214005260D4962100D8962100DC962100E0962100F5
S214005270E4962100E8962100EC962100F0962100A5
S214005280F4962100F8962100FC9621000097210054
S2140052900497210008972100ACDE21000C9721001E
S2140052A01097210014972100189721001C972100C1
S2140052B0209721001C962100249721002897210082
S2140052C02C97210030972100349721003897210031
S2140052D03C972100409721004497210048972100E1
S2140052E04C97210060C72100509721005497210059
S2140052F0589721005C972100609721006497210051
S214005300689721006C972100709721007497210000
S214005310789721007C9721008097210084972100B0
S214005320889721008C972100909721009497210060
S214005330989721009C972100A0972100A497210010
S214005340A8972100AC972100B0972100B4972100C0
S214005350CCB52100B8972100BC972100C09721004A
S214005360C4972100C8972100CC972100D097210030
S214005370D8C72100D4972100D89721000C96210089
S214005380DC972100E0972100E4972100E8972100B0
S21400539014962100EC972100F0972100F497210045
S2140053A0F8972100FC97210000982100049821001E
S2140053B0089821000C9821001098210014982100CC
S2140053C0189821001C98210020982100249821007C
S2140053D0289821002C98210030982100349821002C
S2140053E0389821003C9821004098210044982100DC
S2140053F0489821004C98210050982100549821008C
S214005400589821005C982100A0F1210060982100A6
S21400541064982100689821006C98210070982100FB
S21400542074982100789821007C98210080982100AB
S21400543084982100889821008C982100909821005B
S21400544094982100989821009C982100A09821000B
S214005450A4982100A8982100AC982100B0982100BB
S214005460B4982100B8982100BC982100C09821006B
S214005470C4982100C8982100CC982100D09821001B
S214005480D4982100D8982100DC982100E0982100CB
S214005490E4982100E8982100EC982100F09821007B
S2140054A0F4982100F8982100FC982100009921002A
S2140054B004992100089921000C99210010992100D7
S2140054C014992100189921001C9921002099210087
S2140054D024992100289921002C9921003099210037
S2140054E034992100389921003C99210040992100E7
S2140054F044992100489921004C9921005099210097
S214005500FF000000332000003F190C043F180C0277
S2140055102A160A76700000003F190C00740000007E
S2140055202A1600002C000000332000003F190C044F
S2140055303F180C022A160A76700000003F190C006D
S214005540740000002A1600002C0000003320000023
S2140055503F190C043F180C002A160A76700000004B
S2140055603F190C7D720000002A1600002C00000077
S214005570332000003F190C043F180C002A160A7648
S214005580700000003F190C7B6E0000002A16000019
S2140055902C000000332000003F190C043F180C00BC
S2140055A02A160A76700000003F190C7B6E00000079
S2140055B02A1600002C000000332000003F190C03C0
S2140055C03F180C002A160A76700000003F190C7B64
S2140055D06E0000002A1600002C00000000000000EC
S2140055E000000000000000000000000000000000B6
S2140055F000000000000000000000000000000000A6
S2140056000000000000000000000000000000000095
S2140056100000000000000000000000000000000085
S2140056200000000000000000000000000000000075
S2140056300000000000000000000000000000000065
S21400564000000000000000002A2A000036180A00A9
S2140056503F180B783F180B78730000003F180A7845
S214005660730000002A5800002C0000002A2A0000C0
S21400567036180A003F180B783F180B7873000000A6
S2140056803F180A78730000002A5800002C0000001B
S2140056902A2A000036180A793F180B723F180B7238
S2140056A0730000003F180A72730000002A580000BA
S2140056B02C0000002A2A000036180A793F180B72C0
S2140056C03F180B72730000003F180A727300000048
S2140056D02A5800002C0000002A2A000036180A79F2
S2140056E03F180B723F180B72730000003F180A72C7
S2140056F0730000002A5800002C0000002A2A000030
S21400570036180A793F180B723F180B7273000000A8
S2140057103F180A72730000002A5800002C00000090
S2140057202A2A000036180A773F180B6D3F180B6BB5
S214005730730000003F180A64730000002A58000037
S2140057402C0000002A2A000036180A793F180B722F
S2140057503F180B72730000003F180A7273000000B7
S2140057602A5800002C0000002A2A000036180A7763
S2140057703F180B6D3F180B6B730000003F180A6450
S214005780730000002A5800002C00000000040000EF
S2140057901B190C040C0C0C022A160A76700000006A
S2140057A015150C00740000002A1600002C000000DE
S2140057B0020A00001B190C040C0C0C022A160A76AE
S2140057C07000000015150C00740000002A1600007A
S2140057D02C000000000400001B190C040C0C0C002C
S2140057E02A160A767000000015150C7D720000005F
S2140057F02A1600002C000000000400001B190C04F0
S2140058000C0C0C002A160A767000000015150C7B8E
S2140058106E0000002A1600002C00000000040000A5
S2140058201B190C040C0C0C002A160A7670000000DB
S21400583015150C7B6E0000002A1600002C000000D8
S214005840000600001B190C030C0C0C002A160A7626
S2140058507000000015150C7B6E0000002A16000074
S2140058602C00000000000000000000000000000007
S2140058700000000000000000000000000000000023
S2140058800000000000000000000000000000000013
S2140058900000000000000000000000000000000003
S2140058A000000000000000000000000000000000F3
S2140058B000000000000000000000000000000000E3
S2140058C000000000000000000000000000000000D3
S2140058D02A2A00000909090006060678080808783A
S2140058E07300000006060678730000002A580000C1
S2140058F02C0000002A2A000009090900060606787E
S2140059000808087873000000060606787300000092
S2140059102A5800002C0000002A2A000009090979EC
S214005920060606720808087273000000060606726D
S214005930730000002A5800002C0000002A2A0000ED
S214005940090909790606067208080872730000003D
S21400595006060672730000002A5800002C0000009D
S2140059602A2A00000909097906060672080808723C
S2140059707300000006060672730000002A58000036
S2140059802C0000002A2A000009090979060606727A
S214005990080808727300000006060672730000000E
S2140059A02A5800002C0000002A2A0000050505776A
S2140059B00404046D0404046B730000000202026415
S2140059C0730000002A5800002C0000002A2A00005D
S2140059D009090979060606720808087273000000AD
S2140059E006060672730000002A5800002C0000000D
S2140059F02A2A0000050505770404046D0404046BD8
S214005A007300000002020264730000002A580000BF
S214005A102C000000332000003F190C023F180C0039
S214005A202A160A76700000003F190C00700000006D
S214005A302A1600002C000000332000003F190C023C
S214005A403F180C002A160A76700000003F190C005A
S214005A50700000002A1600002C0000003320000012
S214005A603F190C023F180C7F2A160A7670000000B9
S214005A703F190C7F6A0000002A1600002C00000068
S214005A80332000003F190C023F180C7E2A160A76B7
S214005A90700000003F190C7C6A0000002A16000007
S214005AA02C000000332000003F190C023F180C7F2A
S214005AB02A160A76700000003F190C7F6A00000064
S214005AC02A1600002C000000332000003F190C02AC
S214005AD03F180C002A160A76700000003F190C7E4C
S214005AE06C0000002A1600002C00000000000000D9
S214005AF000000000000000000000000000000000A1
S214005B000000000000000000000000000000000090
S214005B100000000000000000000000000000000080
S214005B200000000000000000000000000000000070
S214005B300000000000000000000000000000000060
S214005B400000000000000000000000000000000050
S214005B5000000000000000002A2A00002A1606792D
S214005B602A1606742A1606706C0000002A160668A6
S214005B70720000002A5800002C0000002A2A0000AC
S214005B802A16067B2A1606762A1606706C00000071
S214005B902A160668720000002A5800002C00000032
S214005BA02A2A00002A16067B2A1606762A16067069
S214005BB06C0000002A160668720000002A580000D2
S214005BC02C0000002A2A00002A1606782A160670DC
S214005BD02A1606686C0000002A160660720000008E
S214005BE02A5800002C0000002A2A00002A160677F1
S214005BF02A16066E2A16066C6C0000002A16066028
S214005C00720000002A5800002C0000002A2A00001B
S214005C102A1606782A1606722A1606706C000000E7
S214005C202A160664720000002A5800002C000000A5
S214005C302A2A00002A1606742A1606622A160664FF
S214005C406C0000002A160664720000002A58000045
S214005C502C0000002A2A00002A1606782A16067249
S214005C602A1606706C0000002A16066872000000ED
S214005C702A5800002C0000002A2A00002A16067067
S214005C802A16066A2A16066C6C0000002A16066497
S214005C90720000002A5800002C00000004030000D8
S214005CA005050502000000002A160A7670000000AE
S214005CB003030300700000002A1600002C000000FA
S214005CC00A0A000005050502000000002A160A76EA
S214005CD07000000003030300700000002A16000096
S214005CE02C00000004060000050505020000007FE9
S214005CF02A160A76700000000303037F6A0000007D
S214005D002A1600002C000000040600000505050207
S214005D100000007E2A160A76700000000303037C4B
S214005D206A0000002A1600002C000000040600008E
S214005D30050505020000007F2A160A76700000009E
S214005D400303037F6A0000002A1600002C000000F0
S214005D50040A000005050502000000002A160A765F
S214005D60700000000303037E6C0000002A1600008B
S214005D702C000000000000000000000000000000F2
S214005D80000000000000000000000000000000000E
S214005D9000000000000000000000000000000000FE
S214005DA000000000000000000000000000000000EE
S214005DB000000000000000000000000000000000DE
S214005DC000000000000000000000000000000000CE
S214005DD000000000000000000000000000000000BE
S214005DE02A2A0000030303790202027401010170EB
S214005DF06C0000007D7D7D68720000002A5800005F
S214005E002C0000002A2A00000303037B020202760D
S214005E10010101706C0000007D7D7D68720000004D
S214005E202A5800002C0000002A2A00000303037BE7
S214005E3002020276010101706C0000007D7D7D6823
S214005E40720000002A5800002C0000002A2A0000D9
S214005E500303037802020270010101686C0000006F
S214005E607D7D7D60720000002A5800002C00000036
S214005E702A2A0000030303770202026E0101016C66
S214005E806C0000007D7D7D60720000002A580000D6
S214005E902C0000002A2A0000030303780202027284
S214005EA0010101706C0000007D7D7D6472000000C1
S214005EB02A5800002C0000002A2A0000030303745E
S214005EC002020262010101646C0000007D7D7D64B7
S214005ED0720000002A5800002C0000002A2A000049
S214005EE00303037802020272010101706C000000D5
S214005EF07D7D7D68720000002A5800002C0000009E
S214005F002A2A0000030303700202026A0101016CE0
S214005F106C0000007D7D7D64720000002A58000041
S214005F202C00000000000000000000000000000040
S214005F30000000000000000000000000000000005C
S214005F40000000000000000000000000000000004C
S214005F50000000000000000000000000000000003C
S214005F60000000000000000000000000000000002C
S21400643000000000010000009A9939400000C03FAB
S214006440010000002C0100000A000000010000000E
S2140064500003602800000000030000001C970920CD
S21400646034630020000000001C9709208497092050
S214006470EC9709200000000000000000000000006B
S2140064800000000000000000000000000000000007
S21400649000000000000000000000000000000000F7
S2140064A000000000000000000000000000000000E7
S2140064B04300000000000000000000000000000094
S2140064C000000000000000000000000000000000C7
S2140064D04300000000000000000000000000000074
S2140064E000000000000000000000000000000000A7
S2140064F04300000000000000000000000000000054
S2140065000000000000000000000000000000000086
S2140065104300000000000000000000000000000033
S2140065200000000000000000000000000000000066
S2140065304300000000000000000000000000000013
S2140065400000000000000000000000000000000046
S21400655043000000000000000000000000000000F3
S2140065600000000000000000000000000000000026
S21400657043000000000000000000000000000000D3
S2140065800000000000000000000000000000000006
S2140065906FCD16003BCD160000000000FC3B22002D
S2140065A0B6C21B00D8BB1B00D8BB1B00D8BB1B0049
S2140065B0D8BB1B00D8BB1B00D8BB1B00D8BB1B001E
S2140065C0D8BB1B00D8BB1B00FFFFFFFFFFFFFFFF72
S2140065D0FFFFFFFFFFFF0000010041534349490052
S2140065E000000000000000000000000000000000A6
S2140065F0000000000000000000004153434949002D
S2140066000000000000000000000000000000000085
S21000661000000000000000000000000079
S21400661C0000000000000000000000000000000069
S21400662C0000000000000000000000000000000059
S20800663C0000000055
S208006640AAAAAAAAA9
S205006644FF51
S2140066600348044B834202D0034B03B118477047DC
S214006670EC640020EC64002000000000064B074994
S214006680C91A891048BF0131491003D0044B0BB119
S21400669001481847704700BFEC640020EC640020F7
S2140066A00000000010B5064C237843B9FFF7D8FF6A
S2140066B0044B13B10448AFF300800123237010BDD0
S2140066C080A30420000000003001000008B5054B40
S2140066D01BB105490548AFF30080BDE80840FFF749
S2140066E0CDBF00BF0000000084A3042030010000DE
S2140066F0A3F5803A704700BF174B002B08BF134B1B
S2140067009D46FFF7F5FF00218B460F461348144AB7
S214006710121A62F171FA0E4B002B00D098470D4BFF
S214006720002B00D098470020002104000D000D48E3
S214006730002802D00C48AFF3008062F119FF200059
S21400674029002DF045FA5FF1E3FE00BF00000800C7
S21400675000000000000000001875002080A3042040
S2140067606098092000000000000000000369C2686D
S21400677093429CBF81685B18013B981A70472DE9CD
S214006780F0410546D0E902844068A8EB040696422C
S21400679020440F46144406D962F132FFBFF35F8FE0
S2140067A0EC60BDE8F0813246A4EB080462F128FFF5
S2140067B022466868B919EFE72DE9F8430646894688
S2140067C017464FF00008C5683369B4689D4228BF75
S2140067D01B19641BBC4228BF3C46013B5B1B9C420A
S2140067E028BF1C46706849462246284462F108FFC6
S2140067F0B3682544AB4208BF0025A044A1443F1B14
S214006800BFF35F8FF560002FDED14046BDE8F8830A
S214006810032310B5134C144923616361134BA16124
S214006820E3614FF48063022223620023A362636263
S214006830E26221660E49E01D61668021A1660D496F
S2140068402367E366626762F1C5FEBFF35F8F0A499E
S214006850204662F1BFFEBFF35F8F2023A371BFF314
S2140068605F8F10BD1CA80420A0DF16001CA4042007
S2140068709CA30420A9DF1600ADDF1600F8B5182784
S21400688000FB0775124B0E461D4407FB0033DB6A00
S2140068901446012B0AD0022B14D023B92846FFF742
S2140068A065FF844208D900242046F8BD2846FFF735
S2140068B05DFF844228BF0446224631462846FFF73D
S2140068C05EFFF1E72846BDE8F840FFF775BF00BF5A
S2140068D01CA80420F8B50B4B04461B780D4616463C
S2140068E00BB9FFF795FFEFF311874FF0200181F307
S2140068F01188324629462046FFF7C0FF87F31188E5
S214006900F8BD00BF1CA804202DE9F041164C1E4619
S21400691023780546884617460BB9FFF779FF2369A3
S214006920AB421DD9EFF3118C4FF0200181F3118893
S21400693065B1182005FB000344F80380E218002325
S214006940576000FB0542166293625362182303FBEE
S2140069500544069BE3628CF311880020BDE8F081B5
S2140069604FF0FF30FAE700BF1CA8042010B582687D
S21400697004464068531C834205D820688154A360AF
S214006980E3680133E360D4E901329A420BD121680F
S2140069902069FFF79FFFA368984215BF4FF0FF33AB
S2140069A00023E360A36010BD2DE9F84F16460546A8
S2140069B088460A464FF0010A9946DDE90A43B24284
S2140069C012D2CA4538BFCA4613F0010B01D184B9AA
S2140069D00024EB68002B3CDB0127B9F1010F1ED920
S2140069E009F1FF397743F8E7B2FBF6F20AF1010A3C
S2140069F0E5E79B0711D5B9F1000F0CBF302720271C
S214006A00A245E6D239462846FFF7B0FFEB68013CC0
S214006A10002BDEDB002CF3D1DAE72027F0E7B8FB0B
S214006A20F7F39E42DED9DFF84890B8FBF7F3284626
S214006A3019F9031007FB1388FFF798FFEB68002B84
S214006A4003DBB742B7FBF6F305D2BBF1000F00D06D
S214006A505CB9BDE8F88F1F46E7E720212846FFF718
S214006A6085FFEB68013C002BF3DB5445F5D8F0E7D7
S214006A700ED21B002DE9F04F00230E46402115468E
S214006A809BB0CDE90613CDE908300DF1280A039036
S214006A90CDF814A016F9011B39B9089D002D00F396
S214006AA0118108981BB0BDE8F08F252940F0BD8005
S214006AB04FF0000B314611F9013B2D2B19D013DC9A
S214006AC0232B1DD02B2B18D00024314611F9013B67
S214006AD0A3F13000C0B2092815D80A2202FB0433FD
S214006AE00E46A3F13004F0E7302BEDD14BF0020B4D
S214006AF001E04BF0010B0E46DCE74BF0040BFAE727
S214006B004BF0080BF7E72E2B12D10E464FF000097C
S214006B104FF00A0C304610F9011BA1F13007FFB206
S214006B20092F07D80CFB09110646A1F13009F1E739
S214006B304FF00009304610F9011B21F00407682FBA
S214006B400646F8D0782909DC6F290BDC632967D064
S214006B5020DC252969D0582900F09480089B002B5A
S214006B6098DA9AE770390829F8D801A050F821F089
S214006B70B56C00005D6B00005D6B0000956C00005E
S214006B805D6B0000736C00005D6B00005D6B0000C9
S214006B90856C00006429E1D129684FF00108081DC2
S214006BA028600A200F6887EAE771A1EBE7710929D8
S214006BB03FDCC84538BFC8462CB1002F02DB1BF0AF
S214006BC0040F00D0013C1BF0020F02D0B9F1000FF9
S214006BD004D01BF0010F01D184BB002408990029C2
S214006BE0BCDB002F35DA2D217F4205A8FFF7BEFE5D
S214006BF008990029B2DB0BF00301022904D1B9F190
S214006C00000F01D154BB002408990029A6DB4B468F
S214006C100A223946CDE9004B05A8FFF7C5FE9DE7D9
S214006C202B681A1D2A6093F9001005A8FFF79EFE30
S214006C3094E7B1FBF0F108F10108B8E74445CDD977
S214006C40202105A8FFF792FE0899013C0029C3DA27
S214006C50C4E71BF0040FCED02B21C6E74445D3D99A
S214006C60302105A8FFF782FE0899013C0029C9DA01
S214006C70CAE74B460A222968081D2860CDE9004B62
S214006C800968C9E74B462968081D2860CDE9004B0E
S214006C901022F5E72B681A1D2A601C6814F9011BE0
S214006CA000293FF45BAF05A8FFF760FE089B002BAA
S214006CB0F4DA53E7296800220B1D2B600823CDE980
S214006CC00032E5E7079C24B1224651460398FFF7B9
S214006CD001FE2C440894E4E60EB403B503AB53F867
S214006CE0041B01AA0193FFF7C5FE02B05DF804EB92
S214006CF003B070477FB50D461446134E03A887F0C1
S214006D006FFC31460020FFF7E7FF10490020FFF731
S214006D10E3FF2A460E490020FFF7DEFF9DF80D3000
S214006D209DF80F2000930B499DF80E300020FFF7CA
S214006D30D3FF31460020FFF7CFFF2246064900204A
