S023000058706C6F7265725F5765617261626C655F576966695F72613677312E7372656395
S214000000A074002081450600812F0A089D2F0A084B
S21400001053260600712606008F260600E92F0A08DA
S21400002000000000000000000000000001D90300EE
S2140000306D4506000000000091D80300291A0A0842
S21400004000000000EDA30000C1700500C1700500AF
S214000050000000004D8905000000000000000000C0
S214000060000000000000000000000000000000008B
S214000070000000000000000000000000EDA30000EB
S214000080EDA30000000000000000000000000000DB
S214000090000000000000000000000000000000005B
S2140000A0000000000000000000000000000000004B
S2140000B0EDA3000000000000EDA30000112D0A08CB
S2140000C0212D0A08EDA30000EDA30000EDA300001B
S2140000D041150A08EDA30000EDA30000EDA3000003
S2140000E005280A08A1900500A1900500EDA30000D0
S2140000F0BDD91100000000000D6A120000000000CB
S2140001000D6A1200C1381200113D0A0809E01200FB
S21400011095E1120005171300000000000000000023
S21400012000000000000000000000000000000000CA
S214000130080000000000803F0000000000000000F3
S21400014000000000746573743130315F323467002C
S214000150000000000000000000000000000000009A
S214000160000000000B0376686F7273653233000080
S214000170000000000000000000000000000000007A
S214000180000000000000000000000000000000006A
S214000190000000000000000000000000000000005A
S2140001A0000000000000000000000000000000004A
S2140001B0000000000000000000000000000000003A
S2140001C0000000000000000000000000000000002A
S2140001D0000000000000000000000000000000001A
S2140001E00000000000000800000000000000000101
S2140001F0C01E0620CC0000201C3800200000000294
S214000200000000010001000000000000A5FF04003F
S21400021068010020E8000020000101010000000045
S214000220F4000020010000005C01002058010020BE
S214000230520100205001002048010020400100200B
S2140002403C01002038010020300100202801002059
S2140002502401002038FF000000000000000000001D
S2140002600000000000000000000801000000000080
S2140002703200200000000100050000010000000020
S214000280000600000000000000200500EB00FFA8AC
S214000290060101010100000020000000001000001F
S2140002A052000000008000005200000000800000A5
S2140002B0D8000000FFFFFFFF201E0620DC311900DB
S2140002C0A05E1900000000000000000010331900B6
S2140002D000000000C00000204C331900AC331900A9
S2140002E0D01100200000000000000000C011002017
S2140002F000000000000000000000000000000000F9
S21400030000000000000000000000000000000000E8
S21400031000000000000000000000000000000000D8
S21400032000000000000000000000000000000000C8
S2140012F0B01E06204C321900A05E19000D0C00002E
S214001300A81F0620DC110020208319000000000022
S214001310C83219001A0000002B0000001832062000
S21400132028341900DC831900FFFFFFFF0C12002091
S2140013300000000000000000000000002C33062023
S214001340D4320620FFFFFFFF7C3206202432062020
S21400135000000000583419001A0000002B0000009E
S21400136020000000C1F40000A5F40000E8431900C6
S21400137010000000385C18000D0000008A201500E0
S21400138008000000AEE2150008000000A3231500C8
S21400139008000000A220150008000000696C140078
S2140013A008000000B420150008000000C02015004A
S2140013B008000000D220150008000000E6201500F6
S2140013C008000000FC20150008000000122115008F
S2140013D00800000025211500870000002D211500BB
S2140013E0870000003521150008000000AD2015001C
S2140013F008000000422115000800000049211500E1
S21400140008000000552115000800000061211500A5
S2140014108B0000006D2115008B0000008F21150049
S2140014202B0000009D2115002B00000079211500DF
S2140014303B00000082211500080000006D6C1400BF
S21400144008000000AB21150008000000BA211500B6
S21400145008000000C62115008B000000CE211500F4
S2140014608B000000D621150034000000E82115008E
S2140014701C000000F8211500080000001B221500C3
S21400148008000000092215001C0000002A22150092
S2140014900800000035221500080000004022150054
S2140014A0270000004D221500270000005A221500D4
S2140014B0270000006822150027000000762215008D
S2140014C02700000081221500270000008C2215004E
S2140014D02700000093221500270000009C651400DA
S2140014E0080000009A22150027000000A52215001B
S2140014F027000000B022150008000000C5221500D5
S21400150008000000D2221500080000007A6C1400C3
S214001510080000008E6C140007010000A06C140088
S21400152008000000A96C14003F000000B96C14000D
S2140015303F000000C96C140077000000D96C14004E
S2140015403F000000E6841400080000000F85140029
S21400155008000000E96C14001D000000F06C140088
S21400156060000000FA6C1400C0000000086D140053
S214001570C0000000166D1400C0000000246D1400AA
S214001580C0000000326D1400C0000000406D140062
S214001590C00000004E6D1400C00000005C6D14001A
S2140015A0290000006B6D140008000000806D140018
S2140015B0870000008C6D140008000000966D140073
S2140015C0080000009F6D140087000000AE6D140038
S2140015D087000000BE6D140087000000CE6D14006A
S2140015E087000000DE6D140087000000EE6D14001A
S2140015F008000000016E140087000000106E140042
S21400160008000000196E1400080000002A6E14007E
S21400161008000000346E140087000000426E1400BC
S21400162047010000506E140087000000606E140032
S214001630870000006E6E1400080000007C6E140028
S214001640080000008F6E1400080000009B6E140057
S21400165057000000A86E140057000000B56E140076
S21400166008000000C76E140037000000D66E140095
S21400167037000000E56E140037000000F46E14001A
S21400168087000000016F140008000000146F1400AB
S214001690AF000000236F140008000000356F140030
S2140016A008000000476F140008000000596F14007F
S2140016B008000000666F1400080000007A6F14002F
S2140016C008000000886F1400080000009B6F1400DC
S2140016D008000000AE6F140037000000BE6F140054
S2140016E037000000CE6F140037000000DE6F1400D5
S2140016F087000000EC6F140008000000F96F14006B
S21400170008000000057014000800000016701400A1
S2140017100800000027701400370000003570140021
S21400172037000000437014003700000051701400AA
S214001730870000005D701400080000006B70140045
S2140017400800000074701400080000007F70140089
S21400175007020000877014001D000000C57014000A
S21400176027000000D47014001D00000093701400C1
S2140017701D000000A270140027000000B0701400C6
S2140017801D000000C070140027000000CF70140079
S2140017901D000000E070140001020000E970140053
S2140017A001020000F170140008000000017114002E
S2140017B008000000117114000800000021711400D8
S2140017C00800000031711400080000004171140088
S2140017D00800000051711400080000006171140038
S2140017E008000000717114000800000081711400E8
S2140017F0080000009171140008000000A371140096
S21400180008000000B571140008000000C77114003D
S21400181008000000D971140008000000EB711400E5
S21400182008000000FD711400080000000F7214008C
S2140018300800000021721400080000003372140033
S21400184008000000457214000800000057721400DB
S2140018500800000069721400080000007B72140083
S214001860080000008D721400080000009F7214002B
S21400187008000000B172140008000000C3721400D3
S21400188008000000D572140008000000E77214007B
S21400189008000000F9721400080000000E7314001F
S2140018A008000000237314000800000038731400BA
S2140018B0080000004D731400080000006273140056
S2140018C00800000077731400080000008C731400F2
S2140018D008000000A173140008000000B67314008E
S2140018E008000000CB73140063000000DF731400D0
S2140018F063000000F3731400630000000774140014
S214001900630000001B741400630000002F741400B2
S2140019106300000043741400630000005774140052
S214001920630000006B741400630000007F741400F2
S214001930630000009374140008000000A7741400ED
S21400194008000000BB74140008000000CF741400E8
S21400195008000000E374140008000000F774140088
S214001960080000000B751400080000001F75140026
S21400197008000000337514000800000047751400C6
S214001980080000005B751400080000006C75140069
S214001990080000007D751400080000008F75140014
S2140019A008000000A175140008000000B6751400B9
S2140019B008000000CB75140047000000E175140015
S2140019C047000000F7751400470000000F7614006B
S2140019D04700000027761400870000003F761400BA
S2140019E08700000057761400080000006F76140089
S2140019F00800000087761400080000009E76140099
S214001A0008000000B576140008000000CC7614002C
S214001A1008000000E376140008000000F7761400C3
S214001A20080000000B771400080000001F77140061
S214001A300800000033771400870000004977140080
S214001A40870000005F771400870000006D771400A1
S214001A50080000007A771400080000008B77140056
S214001A6087000000957714005F0000009F77140041
S214001A7087000000AC77140027000000B37714003E
S214001A8007020000BB77140008000000C5771400AA
S214001A9008000000D077140008000000D977140072
S214001AA008000000E37714001D000000ED77140026
S214001AB002000000FA77140002000000017814000B
S214001AC0070200000C781400410000001A78140089
S214001AD00800000075BE18000800000020781400FA
S214001AE08700000027781400870000002E78140076
S214001AF00200000038781400020000003F7814004E
S214001B0008000000D62015000800000048781400E1
S214001B1008000000587814000800000068781400D8
S214001B201900000074781400190000007F78140073
S214001B30020000008A781400020000009378140067
S214001B40410000009A78140041000000A1781400BB
S214001B5041000000A878140041000000AF7814008F
S214001B6041000000B678140041000000BD78140063
S214001B7041000000C478140041000000CB78140037
S214001B8041000000D278140041000000D97814000B
S214001B9007020000E678140087000000F0781400C2
S214001BA0070400008B77140047000000007914003B
S214001BB00704000010791400470000002079140084
S214001BC047000000B37714000702000018791400DD
S214001BD047000000287914004700000033791400FD
S214001BE01D000000D07714001D000000BB77140015
S214001BF01D000000C57714001D000000A250140050
S214001C0008000000B550140087000000D5501400EE
S214001C1008000000E450140008000000F55014000E
S214001C200800000009511400080000001D511400AF
S214001C30080000002C511400080000003E5114005B
S214001C400800000051511400080000003B79140001
S214001C500800000052791400080000006F79140094
S214001C6008000000E062140008000000D9621400BA
S214001C7008000000BB6414001F0000007879140000
S214001C800800000082791400270000008F791400F5
S214001C90270000009979140027000000A37914009B
S214001CA027000000AC79140027000000B679140065
S214001CB008000000C779140008000000D17914005D
S214001CC027000000DE79140027000000E8791400E1
S214001CD027000000F279140027000000FB791400AA
S214001CE027000000596514000800000078651400FD
S214001CF0270000008F6514002700000062651400AE
S214001D0008000000057A140027000000117A14006D
S214001D1057000000207A1400570000002F7A1400A5
S214001D20570000003D7A1400080000004C7A1400AA
S214001D3047000000C5E51400080000005B7A1400A8
S214001D4047000000647A1400470000006F7A140011
S214001D50470000007A7A140008000000867A140013
S214001D6008000000947A140008000000A37A14000B
S214001D7008000000AE7A140008000000BB7A1400C9
S214001D8008000000C97A140008000000D87A140081
S214001D9008000000E77A140008000000F27A140039
S214001DA008000000FF7A1400080000000D7B1400F5
S214001DB01D000000217B1400570000001C7B14004F
S214001DC01D000000267B1400470000006642150038
S214001DD081000000327B1400470000003D7B1400A9
S214001DE0470000004A7B1400470000008B70150077
S214001DF031000000587B140007020000D6211500B1
S214001E0035000000E82115001D000000677B140067
S214001E10080000007A7B1400080000000922150064
S214001E20080000001B221500080000008B7B140031
S214001E3008000000977B140008000000828214004F
S214001E401D000000A67B14001D000000B17B1400DE
S214001E501D000000BF7B14001D000000D27B140094
S214001E601D000000EC7B14001D000000F97B140030
S214001E701D000000057C14001D000000117C1400ED
S214001E801D0000001C7C14001D0000002D7C1400AA
S214001E901D0000003C7C14001D000000327C140075
S214001EA0130000004C7C14001D000000397C140058
S214001EB01D000000497C14001D000000607C14001A
S214001EC01D0000006C7C14001D0000007B7C1400CC
S214001ED01D000000897C14001D000000937C140087
S214001EE01D000000A57C140047000000BA7C14000A
S214001EF01D000000D07C14001D000000E27C1400D1
S214001F001D000000696C14001D0000005A821400B9
S214001F101D000000698214001D000000E67C14000D
S214001F202B000000F17C14001D000000057D14004D
S214001F301D000000137D14001D000000277D140006
S214001F401D0000003E7D14001D0000004B7D1400A7
S214001F501D000000617D1400470000007980140019
S214001F60470000008380140047000000717D1400C5
S214001F701D000000D882140013000000957E140097
S214001F801D000000827D14001D000000947D1400DA
S214001F901D000000A57D14001D000000AE7D14008D
S214001FA01D000000BD7D14001D000000C87D14004B
S214001FB01D000000DC7D14001D000000F67D1400EE
S214001FC01D0000000D7E14001D0000001A7E140087
S214001FD01D0000002D7E140047000000353215005D
S214001FE047000000233215001D000000FE311500DA
S214001FF01D000000F63115001D0000003E7E140096
S2140020001D0000004B7E14001D000000597E1400C9
S2140020101D000000677E14001D0000006F7E140087
S214002020270000007C7E14001D000000897E14003E
S2140020301D000000917E14001D000000A87E140004
S2140020401D000000BA7E14001D000000D07E1400A3
S21400205008000000D97E140008000000D9451500CD
S2140020601D000000E87E14001D000000F67E14002F
S21400207008000000047F14001D000000385C1800F3
S2140020800D0000000C7F14001D000000147F1400DB
S214002090080000001F7F140008000000287F1400BE
S2140020A01D000000367F14001D00000007231500E9
S2140020B01D000000487F14001D0000004F7F140024
S2140020C01D000000587F14001D000000647F1400EF
S2140020D0070400006D7F14001D0000007A7F1400C6
S2140020E008000000857F1400870000008D7F140024
S2140020F0080000009A7F140029000000A37F140047
S2140021001D000000B17F14001D000000C47F1400F5
S2140021101D000000D77F14008B000000DE7F140037
S2140021208B000000ED7F14001D000000FD7F1400F2
S2140021300B0100000D8014004700000020801400F2
S2140021404700000029801400470000003580140076
S2140021501D000000478014006B0000005380140030
S2140021606B0000005C8014006B0000006A801400A6
S21400217043000000768014004700000080801400B2
S214002180470000008C8014000705000099801400AA
S21400219007050000A6801400CF000000AD801400E4
S2140021A08B000000B980140047000000CF801400A8
S2140021B047000000E08014008B000000EC80140054
S2140021C02F000000F68014002F000000008114008D
S2140021D01D0000000F8114003B0000001B8114004E
S2140021E03B000000278114003B00000033811400F0
S2140021F03B0000003F8114000800000050811400DE
S2140022001D0000005C8114001D0000006E8114009B
S214002210470000007A8114001D0000008B81140026
S2140022201D000000938114001D0000009E81140014
S2140022301D000000A68114001D000000B6811400D9
S2140022401D000000C38114001D000000D181140091
S2140022501D000000D88114001D000000F18114004C
S21400226008000000FD8114001D0000000582140017
S2140022701D000000158214001D00000026821400B8
S2140022801D00000034821400070200003E82140085
S2140022901D000000578214001D0000006682140016
S2140022A01D000000748214001D0000007F821400D0
S2140022B01D0000009482140017000000A082140085
S2140022C01D000000B582140025000000D582140011
S2140022D01D000000E182140047000000F582140093
S2140022E01D0000000C8314001D0000002583140050
S2140022F01D000000408314001D0000005B831400D6
S2140023001D000000728314001D000000838314006B
S2140023101D0000009A8314001D000000A98314000D
S21400232047000000BA83140047000000CE83140064
S2140023301D000000E983140047000000F683140027
S2140023401D000000038414001D0000000F8414000C
S2140023501D000000258414001D0000003E841400AB
S2140023601D000000568414001D0000006584140043
S2140023701D0000007B8414001D00000085841400EE
S2140023801D000000928414001D000000A0841400AC
S2140023901D000000A68414001D000000AE8414007A
S2140023A01D000000BC8414001D000000CC84140036
S2140023B01D000000DB8414001D000000EB841400E8
S2140023C01D000000FE8414001D0000000985140096
S2140023D01D000000148514001D000000298514004F
S2140023E01D000000398514001D0000004A851400F9
S2140023F047000000548514001D0000006885140086
S2140024001D0000007C8514001D000000908514004F
S2140024101D000000978514001D000000A68514000E
S2140024201D000000B28514001D000000C3851400C6
S2140024301D000000D78514001D000000EB85140069
S2140024401D000000FF8514001D0000001386140008
S2140024501D000000278614001D0000003B861400A7
S2140024601D0000004F8614001D0000006386140047
S2140024701D000000778614001D0000008B861400E7
S2140024801D0000009F8614001D000000B386140087
S2140024901D000000C78614001D000000DB86140027
S2140024A01D000000EF8614001D00000003871400C6
S2140024B01D0000000E8714001D0000001987140080
S2140024C01D000000288714001D0000003787140038
S2140024D01D0000004D8714001D00000058871400E2
S2140024E01D000000698714001D0000007D87140091
S2140024F01D000000948714001D000000A48714002F
S2140025001D000000B08714001D000000BC871400EA
S2140025101D000000CC8714001D000000DC8714009E
S2140025201D000000F38714001D000000FF87140044
S2140025301D000000118814001D00000026881400ED
S2140025401D0000003E8814001D0000004F88140087
S21400255047000000578814001D0000005E88140025
S2140025601D0000006B8814001D0000007588140014
S2140025701D000000808814001D0000008E881400D6
S2140025801D000000998814001D000000A18814009A
S2140025901D000000AF8814001D000000BB8814005A
S2140025A01D000000CA8814001D000000D488140016
S2140025B01D000000DF8814001D000000F2881400D3
S2140025C01D000000F98814000800000008891400A7
S2140025D01D00000014891400080000001F89140064
S2140025E087000000278914001D00000034891400AD
S2140025F0290000003D8914001D0000004B891400CE
S2140026001D0000005E8914001D0000007189140082
S2140026108B000000788914001D00000088891400D3
S2140026200B0100009889140047000000AB891400D5
S21400263047000000B489140047000000C089140059
S2140026401D000000D28914006B000000DE89140013
S2140026506B000000E78914006B000000F589140089
S21400266043000000018A1400470000000B8A140093
S21400267047000000178A140007050000248A14008B
S21400268007050000318A1400CF000000388A1400C5
S2140026908B000000448A1400470000005A8A140089
S2140026A0470000006B8A14008B000000778A140035
S2140026B02F000000818A14002F0000008B8A14006F
S2140026C01D0000009A8A14003B000000A68A140031
S2140026D03B000000B28A14003B000000BE8A1400D3
S2140026E03B000000CA8A14001D000000DB8A1400AC
S2140026F01D000000E78A14001D000000F98A14007F
S21400270047000000058B14001D000000168B140007
S2140027101D0000001E8B14001D000000298B1400F5
S21400272008000000318B14001D000000418B1400CF
S214002730080000004E8B14001D0000005C8B140087
S2140027401D000000638B14001D0000007C8B14002D
S2140027501D000000888B14001D000000908B1400E4
S2140027601D000000A08B14001D000000B18B14009B
S2140027701D000000BF8B140007020000C98B140068
S2140027801D000000E28B14001D000000F18B1400F9
S21400279008000000FF8B14001D0000000A8C1400C7
S2140027A0080000001F8C1400170000002B8C14007B
S2140027B01D000000408C140025000000608C1400F2
S2140027C01D0000006C8C140047000000808C140074
S2140027D01D000000978C14001D000000B08C140033
S2140027E01D000000CB8C14001D000000E68C1400B9
S2140027F01D000000FD8C14001D0000000E8D14004E
S2140028001D000000258D14001D000000348D1400EE
S21400281047000000458D140047000000598D140045
S2140028201D000000748D140047000000818D140008
S2140028301D0000008E8D14001D0000009A8D1400EF
S2140028401D000000B08D14001D000000C98D14008E
S2140028501D000000E18D14001D000000F08D140026
S2140028601D000000068E14001D000000108E1400CF
S2140028701D0000001D8E14001D0000002B8E14008D
S2140028801D000000318E14001D000000398E14005B
S2140028901D000000478E14001D000000578E140017
S2140028A01D000000668E14001D000000768E1400C9
S2140028B01D000000898E14001D000000948E140078
S2140028C01D0000009F8E14001D000000B48E140032
S2140028D01D000000C48E14001D000000D58E1400DC
S2140028E047000000DF8E14001D000000F38E140069
S2140028F01D000000078F14001D0000001B8F140031
S2140029001D000000228F14001D000000318F1400EF
S2140029101D0000003D8F14001D0000004E8F1400A7
S2140029201D000000628F14001D000000768F14004A
S2140029301D0000008A8F14001D0000009E8F1400EA
S2140029401D000000B28F14001D000000C68F14008A
S2140029501D000000DA8F14001D000000EE8F14002A
S2140029601D000000029014001D00000016901400C8
S2140029701D0000002A9014001D0000003E90140068
S2140029801D000000529014001D0000006690140008
S2140029901D0000007A9014001D0000008E901400A8
S2140029A01D000000999014001D000000A490140063
S2140029B01D000000B39014001D000000C29014001B
S2140029C01D000000D89014001D000000E3901400C5
S2140029D01D000000F49014001D0000000891140073
S2140029E01D0000001F9114001D0000002F91140010
S2140029F01D0000003B9114001D00000047911400CC
S214002A001D000000579114001D000000679114007F
S214002A101D0000007E9114001D0000008A91140025
S214002A201D0000009C9114001D000000B1911400D0
S214002A301D000000C99114001D000000DA9114006A
S214002A4047000000E29114001D000000E991140008
S214002A501D000000F69114001D00000000921400F6
S214002A601D0000000B9214001D00000019921400B7
S214002A701D000000249214001D0000002C9214007B
S214002A801D0000003A9214001D000000469214003B
S214002A901D000000559214001D0000005F921400F7
S214002AA01D0000006A9214001D0000007D921400B4
S214002AB01D00000084921400080000008D9214008F
S214002AC0080000009B92140008000000AC9214005E
S214002AD008000000BC92140008000000D792140002
S214002AE008000000E792140008000000F8921400A6
S214002AF0080000000E931400080000002393140042
S214002B000800000037931400080000004C931400DF
S214002B10080000005B931400080000007193140086
S214002B200800000087931400080000009493140027
S214002B3008000000A493140008000000B7931400D7
S214002B4008000000C493140008000000C4641400C9
S214002B501F000000D693140008000000EA9314003B
S214002B6008000000FA931400080000000C941400FB
S214002B70080000001F94140008000000339414009E
S214002B80190000003894140021000000AB64140003
S214002B900800000041941400080000004994140046
S214002BA00800000052941400080000005A94140014
S214002BB00200000010000000000060280100000075
S214002BC00400000050D8602801120F00000000002A
S214002BD0B80B00000000000000000000000000002D
S214002BE00212070000000000B80B00000000000002
S214002BF000000000000000000302050000000000C6
S214002C0000000000000000000000000000000000BF
S214002C100402030000000000B80B000000000000E3
S214002C20CC100000000000000500000000000000BE
S214002C30000000000000000000000000000000008F
S214002C40010000006F791400FFFFFFFF0100000085
S214002C5002000000E8030000307500006E19000056
S214002C6000C00000FA000000FD170300E8030000A3
S214002C70813A0E00E803000001A40200E803000009
S214002C80E98E02000A000000A19102006400000024
S214002C90217B020064000000ADAC0200E8030000E7
S214002CA0999C0200E8030000ADB30200E8030000B0
S214002CB0DD2B0E006400000071360E00F4010000EB
S214002CC00D270E0001000000FF0000007800000045
S214002CD0FFFFFF006C090000A086010064000000F2
S214002CE0000000000000000010203040506070809F
S214002CF090A0B0C00000000000000001001400001A
S214002D0000000000000000000000000000000000BE
S214002D1000000000000000000000000000000000AE
S214002D20000000000000000000000000000000009E
S214002D30000000000000000000000000000000008E
S214002D40000000000000000000000000000000007E
S214002D50000000000000000000000000000000006E
S214002D60000000000000000000000000000000005E
S214002D70000000000000000000000000000000004E
S214002D80000000000000000000000000000000003E
S214002D90000000000000000000000000000000002E
S214002DA0000000000000000000000000000000001E
S214002DB0000000000000000000000000000000000E
S214002DC000000000000000000000000000000000FE
S214002DD000000000FFFFFFFFC8000000000000002A
S214002DE00000000000000000804808205523040072
S214002DF00000000000000000900600002D2D2D2D84
S214002E002D424547494E2052534120505249564183
S214002E105445204B45592D2D2D2D2D0A4D494945FC
S214002E207041494241414B43415145417379436B9F
S214002E304F4F48527A526C4F454445543848615972
S214002E4046774D436E59705270366865706A6E37B5
S214002E505464746C5A464473787754530A694463CE
S214002E604E5832375867556243454E416E33654B70
S214002E703277646564595A6E706D48584730386EBC
S214002E804F67794A7248466F423737565A32694317
S214002E906643564D507774537675704C2F0A7457A8
S214002EA0305664656139566F684473546B416F766B
S214002EB04755577942567A65796849756A682F5436
S214002EC06F4E59346158756C49674C5953323167A7
S214002ED0556F79384761565A7953775144580A34B2
S214002EE04E632F38306E4C79486643704D55774C9C
S214002EF0364C4A30546C78643365556F6E634A447A
S214002F0037544E4D6D574C674D34586C6D35317592
S214002F1075525935426642396E584B554862690AB1
S214002F203661397330784A2B5732564B53344B53ED
S214002F306252574558785549735842365435593178
S214002F40797570344F514144497A4A484A57554F2B
S214002F504C37327657704D63385834526A42776B26
S214002F600A646148374D5636444F305A7A58447290
S214002F70756245454748346C45456673624E5974DC
S214002F8050325147447551494441514142416F497D
S214002F904241446E69594738704F687A6E416E7A7E
S214002FA06B0A2F7961446A463554554C4D4D455A47
S214002FB0723249362F66714C2F6547414F3079750E
S214002FC037394E664E69707557683865344B715997
S214002FD06535584569746A4A56545562354B654698
S214002FE077570A49797770574A797A734A30323078
S214002FF04D31666379757A77764447634A39724409
S214003000325A68506C536F62586A75475630764A23
S21400301034444C684E4D69386567497150476B6457
S2140030202B584B0A4438302B787A6A554D342B345B
S214003030486B485855795953414C376E547A492B4A
S2140030406E68396D6D3379436E7446534A734E6AB3
S214003050317452583749566A6E6A68315249533746
S2140030604D5235420A663075397856476633556292
S2140030704276654B2F52795647642F51574A616303
S2140030806B744263723357794378486B776F363484
S214003090544554756A3544334E787149726D6943A8
S2140030A068426175420A656469716F653352757866
S2140030B0507736766745332B7A336D6644644430F2
S2140030C0586235384373764E323764572F2F6575FE
S2140030D06631785A6A6A7736784C71416F335A642B
S2140030E03866414D4D450A45464455526945436745
S2140030F0594541316D582F5A304F6F4E49643353FE
S2140031006F466867354E6B516C45425362324C6E63
S2140031106133354A74716875796C504C61726A61B6
S214003120706F476A33432F0A347A30684149553600
S214003130643157334C313250313735586148724418
S21400314075413531546339626E4D702F4A7553722E
S2140031505636723543766D5A4A38314D6674596C18
S2140031604A7A6C34317A4A640A4A4966316E494C66
S214003170786C58765153397256485371494F2F30F0
S21400318064507745416B474B4A487171687957548C
S2140031904D35736833436367705179374A734C30E3
S2140031A0436759454131654B5A0A704464676B4C16
S2140031B05251676D746B57304644496B52316147C4
S2140031C0364A3667452F54706D6D535936347871CC
S2140031D045597235726E47524F627659724751584A
S2140031E04870396F442F517543480A6669566575AD
S2140031F06476757951595874304B734576304E79EC
S214003200686F4C576D416C54696A31654B456A5519
S2140032106D76487254563379644D53644549733518
S21400322070356B3677334874384B550A3459416AD3
S2140032306A46676C4C2B30784456394543366E7771
S214003240423473774E774B664270696675776B7358
S214003250704B30436759423152466A4D484A3932BC
S2140032604339706473434B73477751740A6D61300A
S21400327041726D496448726B3258554D303463560E
S2140032806A44794E51665771314C6C426D64467390
S214003290477339686B7955646D36742F77657A583D
S2140032A0482B63337663456B4E424376780A7548FF
S2140032B06950783264496A6B576C6B52774B507919
S2140032C0706C2F6139596F77444C6738716158704C
S2140032D0736976695278524D574C6C2B6756436427
S2140032E078324931334A786A794F764C61500A52BF
S2140032F0586B30644B503258784E7445455178635D
S21400330050663061514B4267514448587A7A63712F
S214003310496F70475176624A6F516231452F694254
S214003320334A783847673661774D36483175300A04
S2140033305159665944353756516B3264514876793F
S2140033405351505A53586850775A737747642F7AB8
S2140033504A4A365348594D4F653946726B4969613A
S21400336041717A7838536B594333743679673958D4
S2140033700A624D31694C506D716161624A79536AD7
S214003380776D6963457169316B4E696F7644774234
S21400339038323164486F5871346E42385857664137
S2140033A0783979793575334D734E424E4D734D529B
S2140033B06B0A4D6E386332514B42675143304F4B68
S2140033C0626F6555677A6B396930364B453643719F
S2140033D0474F3433577050444B4E472B34796C6EFE
S2140033E0436E49786A654749594C4E4B484A2B52BA
S2140033F043760A346C742B464857637763694D33BB
S2140034004A6F4E4A57536671584763717032423955
S21400341037492F59445738374C3648653453685522
S2140034206D7A76646C4147314365634771545942FF
S2140034307259420A6C63722F2B52756B577A494D3C
S21400344055434132344B65416F68654B73432B4897
S2140034504A4767345530386E577A356E394B3330B5
S2140034606B714E79612B6E7A39673D3D0A2D2D2D95
S2140034702D2D454E4420525341205052495641541A
S21400348045204B45592D2D2D2D2D0A0058040000A2
S2140034902D2D2D2D2D424547494E2043455254494A
S2140034A04649434154452D2D2D2D2D0A4D4949445D
S2140034B0426A434341653443435143673578744C0D
S2140034C03561702F4344414E42676B71686B6947A4
S2140034D03977304241517346414442464D517377E5
S2140034E0435159445651514745774A420A56544526
S2140034F0544D424547413155454341774B55323946
S214003500745A533154644746305A5445684D4238CD
S214003510474131554543677759535735305A584ACE
S214003520755A58516756326C6B5A326C300A63794A
S214003530425164486B675448526B4D423458445469
S21400354045344D4467794D5441334D7A67304D319B
S2140035506F58445449344D4467784F4441334D7A4C
S21400356067304D316F775254454C4D416B470A4199
S21400357031554542684D4351565578457A41524239
S214003580674E564241674D436C4E766257557455AA
S214003590335268644755784954416642674E5642EE
S2140035A0416F4D47456C7564475679626D56300AD3
S2140035B0494664705A47647064484D6755485235AA
S2140035C0494578305A444343415349774451594A10
S2140035D04B6F5A496876634E4151454242514144C9
S2140035E0676745504144434341516F4367674542CF
S2140035F00A414C4D6770446A683063305A546841DB
S21400360078452F42326D4263444170324B556165B6
S2140036106F587159352B3033625A575251374D63B4
S21400362045306F67334456397531344647776844BA
S214003630510A4A393369747348586E57475A365A8E
S21400364068317874504A7A6F4D696178786141655F
S2140036502B3157646F676E776C5444384C5572370D
S21400366071532F3756744658586D76566149513700
S21400367045350A414B4C786C467367566333736F17
S214003680534C6F3466303644574F476C3770534947
S214003690433245747459464B4D76426D6C57636B96
S2140036A0734541312B4458502F4E4A79386833774A
S2140036B07154460A4D432B69796445356358643323
S2140036C06C4B4A3343512B307A544A6C6934444F1E
S2140036D046355A756462726B574F515877665A3141
S2140036E0796C423234756D76624E4D53666C746CEE
S2140036F0536B75430A6B6D305668463856434C46D6
S21400370077656B2B574E63727165446B4141794DFB
S214003710795279566C44692B397231715448504647
S2140037202B455977634A4857682B7A4665677A74FB
S21400373047633177360A376D784242682B4A5242E1
S2140037404837477A574C54396B4267376B43417753
S21400375045414154414E42676B71686B6947397702
S21400376030424151734641414F4341514541574ACA
S214003770566A4933706F0A7A6A4370736672507776
S21400378031752F4B2F30414A4752704C4368764272
S214003790504D597A31312F41793249327679543841
S2140037A0616B524D2B376B6D30572F642B776979D1
S2140037B04C3059543951490A50485434674C455690
S2140037C0344B656951534150696E64744A67626749
S2140037D03257693533454247654E724457484D77F0
S2140037E0483369736C447239683239337A68557174
S2140037F05A4D6965325744620A6B704563536837A1
S214003800394441685A445A3433642F7148675765BF
S2140038107957576B7943384A4C51497A59507364F3
S214003820544A596638717137794E5A6C72374F5A06
S2140038304348586471327347380A536A45344931ED
S2140038406A34414E6B6B4A706E58367946445A5A03
S21400385047444472557A50634A525056745A7A6DA9
S21400386079744A5549627A6F54553945366E5344D1
S214003870496C764254543237336F0A39674A587661
S2140038806B55374C3463774E43416730673352523B
S214003890777971495571387A79577349654E53640B
S2140038A0717A3634454948327758345876576B56CD
S2140038B07A447A6678573736484C370A4E4F6473E0
S2140038C034613553494866465A773D3D0A2D2D2DBD
S2140038D02D2D454E442043455254494649434154B4
S2140038E0452D2D2D2D2D0A000000000000000000A3
S2140038F0000000000000000000000000D03700209C
S214003900030000C05000000000000000000000009F
S214003910F03700200000000000000100000000005A
S214003920000000000001FF070000000021770E00E5
S21400393019760E00010000000700000006000000D7
S214003940FD00000021770E0019760E006F220A088F
S214003950591D0A085D1D0A086B230A08B91E0A08C5
S214003960F9260A08BF270A080F250A084F1F0A0863
S214003970711F0A08611D0A08651D0A08511D0A08FC
S214003980F000000000000000000000000000000042
S214003990683800200000000004000000000000005E
S2140039A00000000000000000D4EB05206000602846
S2140039B0FF000000FFFFFFFFC40E6028740E6028A3
S2140039C0640E602824000C40413A1500F1580600A9
S2140039D000000000000000002A3A1500463A1500D4
S2140039E000000000000000000000000000000000D2
S2140039F09F171500D56306000000000000000000B9
S214003A00503A1500653A15000961060000000000EE
S214003A10010000006D3A1500BD3A1500ED60060085
S214003A200000000000000000C53A1500E67C140007
S214003A30D16006000000000000000000DC3A15001F
S214003A40F03A1500B5600600000000000000000017
S214003A50FC3A1500173B1500C56206000000000082
S214003A6000000000263B1500694A15009962060012
S214003A700000000000000000523B1500F938150059
S214003A806D62060000000000000000007D3B15008F
S214003A90083915003D620600000000000100000025
S214003AA0983B1500C63B15000D620600000000009E
S214003AB000000000D23B1500F83B1500C963060065
S214003AC00000000000000000063C150085241700DA
S214003AD0996006000000000000000000213C150070
S214003AE0433C1500E16106000000000000000000F5
S214003AF0523C15006D3C1500B56106000000000044
S214003B00000000007D3C1500993C150000000000F8
S214003B10000000000000000000000000B63C150099
S214003B207D6006000000000000000000A43C1500B8
S214003B30E0F51800616006000000000000000000CC
S214003B40BB3C1500F73C1500BD63060000000000F6
S214003B5000000000033D1500BF851600B163060097
S214003B600000000000000000133D15003E3D15005B
S214003B704560060000000000000000004E3D1500F5
S214003B808E3D1500A5630600000000000000000042
S214003B906C3D1500B63D1500996306000000000058
S214003BA000000000943D1500BD3D15008D63060025
S214003BB00000000000000000CC3D15003532150066
S214003BC0296006000000000000000000F93D150016
S214003BD0233215000D600600000000000000000003
S214003BE0323E1500FE311500F15F060000000000B1
S214003BF000000000413E1500F6311500D55F0600B6
S214003C000000000000000000633E1500BDA717007E
S214003C10C56606000000000000000000683E1500B3
S214003C205503180041660600000000000100000071
S214003C30A13E1500DA3E1500BD6506000000000036
S214003C4001000000E73E1500053017003965060044
S214003C5000000000010000001D3F15004C3F15004D
S214003C60B56406000000000001000000503F15008B
S214003C70923F15008163060000000000000000006F
S214003C809D3F1500BB3F1500756306000000000051
S214003C9000000000C43F1500D73F1500B95F0600BE
S214003CA00000000000000000E33F15000340150080
S214003CB08561060000000000010000000C401500B1
S214003CC0444015005561060000000000000000009A
S214003CD04D4015007D401500696306000000000099
S214003CE00000000083401500964015005D63060046
S214003CF00000000000000000A2401500BE401500B5
S214003D0000000000000000000000000000000000AE
S214003D10C54015009D5F0600000000000000000082
S214003D20CD401500FD40150025610600000000008E
S214003D300100000005411500085D140051630600EF
S214003D40000000000000000031411500524115003F
S214003D50815F060000000000010000005D411500C4
S214003D6080411500E163060000000000010000002D
S214003D70884115008B701500655F06000000000086
S214003D8000000000C2411500267B1400495F0600B3
S214003D900000000000000000F1411500327B140016
S214003DA02D5F060000000000000000001142150014
S214003DB03D7B1400115F06000000000000000000BC
S214003DC02F42150066421500F55E06000000000052
S214003DD000000000514215004A7B1400D95E060020
S214003DE0000000000000000073421500587B14001D
S214003DF0BD5E0600000000000000000097421500AF
S214003E00545C1400A15E06000000000000000000E4
S214003E10BD421500E0421500000000000000000052
S214003E2000000000000000005A821800855E0600B0
S214003E300000000000000000EB4215000F431500D4
S214003E40695E060000000000000000001E4315002A
S214003E505043150039630600000000000000000013
S214003E605A431500DB2215000D570600000000001F
S214003E70000000006A4315009043150055580600E0
S214003E80000000000000000099431500DF22150026
S214003E904D5E06000000000000000000AE43150066
S214003EA0D9431500315E0600000000000000000047
S214003EB0E8431500FF431500155E060000000000ED
S214003EC0000000000C4415008B7B1400F95D060012
S214003ED0000000000000000025441500977B140039
S214003EE0DD5D0600000000000000000040441500F4
S214003EF05E441500C15D06000000000000000000E2
S214003F0069441500C7441500A55D060000000000C2
S214003F1000000000CF441500E5441500895D06004A
S214003F200000000000000000ED441500FE841800AC
S214003F306D5D06000000000000000000144515003E
S214003F4082821400515D06000000000000000000A0
S214003F5053451500A67B1400355D060000000000E2
S214003F60000000007B451500A5451500055D060010
S214003F700000000000000000AC451500D945150003
S214003F80E95C06000000000000000000CA451500BD
S214003F90E4451500000000000000000000000000DE
S214003FA0000000003A6E1700CD5C0600000000001E
S214003FB000000000EB451500184615002D630600AE
S214003FC000000000000000002646150040461500D0
S214003FD0B15C060000000000000000004C46150022
S214003FE079461500955C0600000000000000000001
S214003FF08A461500BF461500795C060000000000E2
S21400400000000000CD461500F5461500A95506002F
S2140040100000000000000000FF4615003A471500AB
S2140040202163060000000000000000004547150060
S214004030734715005D5C06000000000000000000ED
S2140040407B471500A1471500156306000000000019
S21400405000000000A9471500BE471500000000003C
S214004060000000000000000000000000C54715002A
S214004070415C06000000000000000000CB47150071
S214004080C8FD1500096306000000000000000000DF
S214004090F14715000A481500255C060000000000E0
S2140040A0000000001448150038491500095C060099
S2140040B00000000000000000454915001F7F1400A6
S2140040C0ED5B060000000000000000006F491500D0
S2140040D0AB491500FD62060000000000000000006D
S2140040E088491500A6491500F16206000000000088
S2140040F000000000B6491500D2491500D15B060045
S2140041000000000000000000E6491500164A1500F1
S214004110B55B060000000000000000002B4A1500FA
S2140041205C4A1500995B0600EB5406000000000090
S2140041302B4A1500754A15007D5B0600000000003E
S214004140000000007E4A1500B94A1500615B0600B3
S2140041500000000000000000C54A1500F24A1500E5
S214004160455B06000000000000000000034B150041
S2140041703F4B1500295B0600000000000000000011
S2140041804D4B15006D2518000D5B06000000000065
S21400419000000000024C1500FF4A1500F15A060008
S2140041A00000000000000000104C15000000000099
S2140041B000000000000000000000000000000000FA
S2140041C0887F140000907F140000D05B160000CC9F
S2140041D05F140000F07F14000000801400001080C0
S2140041E014000023801400007ACF1500004A8014C3
S2140041F00000D0491600005F801400005A451600E3
S214004200008F801400001A561400001C0A180000C4
S2140042100416160000FF1516000057851400006BE4
S214004220851400007F85140000A980140000BDA737
S214004230170000A693160000D2801400005503183D
S2140042400000EF80140000F98014000012811400B2
S214004250001E811400002A8114000036811400001C
S21400426042811400005F8114000071811400007DFB
S21400427081140000638D180000DB81140000707745
S2140042801500003782140000298214000079861871
S2140042900000C31616000075831400008683140001
S2140042A0009D8314000041821400001D721500005A
S2140042B057691500002D72150000B184140000BF68
S2140042C084140000A220150000CF84140000DE84B1
S2140042D0140000EE8414000001851400000C851400
S2140042E0000017851400002C851400003C8514007F
S2140042F0004D8514000082821400005A82140000CB
S214004300698214000077821400009782140000006F
S214004310821400000882140000F98314000006844A
S2140043201400001284140000288414000041841431
S2140043300000598414000068841400007E84140071
S2140043400000000000000000FFFFFFFFFFFFFFFF70
S21400435000180000271C1800050000001F000000C1
S2140043603BF50A005FF50A00000000006FF50A0042
S21400437077F50A007FF50A0089F50A0001000000BB
S214004380504200205042002040CB1900AAAA030049
S2140043900000000009020000030300001F000000E8
S2140043A000C00000F5F2130081C313001DE11300E6
S2140043B0F1E41300B5C3130049C3130051B90F004D
S2140043C051B90F0057B90F0057B90F00CC42002063
S2140043D001AC0F0005AC0F0002AC0F0004AC0F00E0
S2140043E000000000000000000000000000000000C8
S2140043F0000000000200080002000C0000000000A0
S21400440000000000000000000000000000000000A7
S2140044100000000000000000000000000000000097
S2140044200000000000000000000000000000000087
S2140044300000000000000000000000000000000077
S2140044400000000000000000000000000000000067
S2140044500000000000000000000000000000000057
S21400446000000000D44300207C4300200000000031
S2140044700000000000000000000000000000000037
S2140044800000000000000000000000000000000027
S2140044900000000000000000000000000000000017
S2140044A0000000000000000000000000F8440020AB
S2140044B098440020000000001C00000008000000D7
S2140044C00000010003FF00000000000000000041A3
S2140044D000010000000000000100000000000000D5
S2140044E0FEFF0000FEFF00000000000000000000CD
S2140044F000000000000000000000000001000000B6
S2140045002C440020184B00206844002000000000C7
S2140045100E0000000C0000000000010003FF000079
S2140045200000000000000041000100000000000044
S2140045300000000000000000000000000000000076
S2140045400000000000000000000000000000000066
S21400455000000000010000002C44002004000100C0
S2140045600000000000000000000000000000000046
S214004570FAFFFAFFFFFFFFFFFFFFFFFF000000004C
S2140045800000000000000000000000000000000026
S2140045900000000000000000000000000A0000000C
S2140045A000000000010000001400010000000000F0
S2140045B001000000370002000000000001000000BB
S2140045C06E00030000000000000000003C00040035
S2140045D000000000000000005A0005000000000077
S2140045E00000000078000600000000000000000048
S2140045F0B40007000000000000000000F000080003
S2140046000000000000000000680109000000000033
S21400461000000000E0010A000000000000000000AA
S2140046201C020B0000000000000000003C1400000C
S2140046300000000000000000000000001E00000057
S2140046400000000000000000000000000000000065
S2140046500000000000000000000000000000000055
S21400466000000000501400000000000000000000E1
S214004670000000001E000000000000000000000017
S2140046800000000000000000000000000000000025
S214004690000000000000000000000000641400009D
S2140046A00000000000000000000000001E000000E7
S2140046B000000000000000000000000000000000F5
S2140046C000000000000000000000000000000000E5
S2140046D00000000078140000000000000000000049
S2140046E0000000001E0000000000000000000000A7
S2140046F000000000000000000000000000000000B5
S2140047000000000000000000000000008C14000004
S2140047100000000000000000000000001E00000076
S2140047200000000000000000000000000000000084
S2140047300000000000000000000000000000000074
S21400474000000000A01400000000000000000000B0
S214004750000000001E000000000000000000000036
S2140047600000000000000000000000000000000044
S214004770000000000000000000000000B41400006C
S2140047800000000000000000000000001E00000006
S2140047900000000000000000000000000000000014
S2140047A00000000000000000000000000000000004
S2140047B000000000C8140000000000000000000018
S2140047C0000000001E0000000000000000000000C6
S2140047D000000000000000000000000000000000D4
S2140047E00000000000000000000000007C15000033
S2140047F00000000000000000000000001E00000096
S21400480000000000000000000000000000000000A3
S2140048100000000000000000000000000000000093
S21400482000000000901500000000000000000000DE
S214004830000000001E000000000000000000000055
S2140048400000000000000000000000000000000063
S214004850000000000000000000000000A41500009A
S2140048600000000000000000000000001E00000025
S2140048700000000000000000000000000000000033
S2140048800000000000000000000000000000000023
S21400489000000000B8150000000000000000000046
S2140048A0000000001E0000000000000000000000E5
S2140048B000000000000000000000000000000000F3
S2140048C0000000000000000000000000CC15000002
S2140048D00000000000000000000000001E000000B5
S2140048E000000000000000000000000000000000C3
S2140048F000000000000000000000000000000000B3
S21400490000000000E01500000000000000000000AD
S214004910000000001E000000000000000000000074
S2140049200000000000000000000000000000000082
S214004930000000000000000000000000F415000069
S2140049400000000000000000000000001E00000044
S2140049500000000000000000000000000000000052
S2140049600000000000000000000000000000000042
S2140049700000000008160000000000000000000014
S214004980000000001E000000000000000000000004
S2140049900000000000000000000000000000000012
S2140049A00000000000000000000000001C160000D0
S2140049B00000000000000000000000001E000000D4
S2140049C000000000000000000000000000000000E2
S2140049D000000000000000000000000000000000D2
S2140049E0000000003016000000000000000000007C
S2140049F0000000001E000000000000000000000094
S214004A0000000000000000000000000000000000A1
S214004A100000000000000000000000004416000037
S214004A200000000000000000000000001E00000063
S214004A300000000000000000000000000000000071
S214004A400000000000000000000000000000000061
S214004A5000000000581600000000000000000000E3
S214004A60000000001E000000000000000000000023
S214004A700000000000000000000000000000000031
S214004A80000000000000000000000000711600009A
S214004A900000000000000000000000001E000000F3
S214004AA00000000000000000000000000000000001
S214004AB000000000000000000000000000000000F1
S214004AC00000000085160000000000000000000046
S214004AD0000000001E0000000000000000000000B3
S214004AE000000000000000000000000000000000C1
S214004AF00000000000000000000000009916000002
S214004B000000000000000000000000001E00000082
S214004B100000000000000000000000000000000090
S214004B200000000000000000000000000000000080
S214004B3000000000AD1600000000000000000000AD
S214004B40000000001E000000000000000000000042
S214004B500000000000000000000000000000000050
S214004B60000000000000000000000000C116000069
S214004B700000000000000000000000001E00000012
S214004B800000000000000000000000000000000020
S214004B900000000000000000000000000000000010
S214004BA000000000D5160000000000000000000015
S214004BB0000000001E0000000000000000000000D2
S214004BC000000000000000000000000000000000E0
S214004BD0000000000000000000000000E9160000D1
S214004BE00000000000000000000000001E000000A2
S214004BF000000000000000000000000000000000B0
S214004C00000000000000000000000000000000009F
S214004C1000000000FD16000000000000000000007C
S214004C20000000001E000000000000000000000061
S214004C30000000000000000000000000000000006F
S214004C400000000000000000000000006C090000EA
S214004C500000000000000000000000001E00000031
S214004C60000000000000000000000000000000003F
S214004C70000000000000000000000000000000002F
S214004C8000000000710900000000000000000000A5
S214004C90000000001E0000000000000000000000F1
S214004CA000000000000000000000000000000000FF
S214004CB00000000000000000000000007609000070
S214004CC00000000000000000000000001E000000C1
S214004CD000000000000000000000000000000000CF
S214004CE000000000000000000000000000000000BF
S214004CF0000000007B09000000000000000000002B
S214004D00000000001E000000000000000000000080
S214004D10000000000000000000000000000000008E
S214004D2000000000000000000000000080090000F5
S214004D300000000000000000000000001E00000050
S214004D40000000000000000000000000000000005E
S214004D50000000000000000000000000000000004E
S214004D6000000000850900000000000000000000B0
S214004D70000000001E000000000000000000000010
S214004D80000000000000000000000000000000001E
S214004D900000000000000000000000008A0900007B
S214004DA00000000000000000000000001E000000E0
S214004DB000000000000000000000000000000000EE
S214004DC000000000000000000000000000000000DE
S214004DD0000000008F090000000000000000000036
S214004DE0000000001E0000000000000000000000A0
S214004DF000000000000000000000000000000000AE
S214004E000000000000000000000000009409000000
S214004E100000000000000000000000001E0000006F
S214004E20000000000000000000000000000000007D
S214004E30000000000000000000000000000000006D
S214004E4000000000990900000000000000000000BB
S214004E50000000001E00000000000000000000002F
S214004E60000000000000000000000000000000003D
S214004E700000000000000000000000009E09000086
S214004E800000000000000000000000001E000000FF
S214004E90000000000000000000000000000000000D
S214004EA000000000000000000000000000000000FD
S214004EB000000000A3090000000000000000000041
S214004EC0000000001E0000000000000000000000BF
S214004ED000000000000000000000000000000000CD
S214004EE0000000000000000000000000A80900000C
S214004EF00000000000000000000000001E0000008F
S214004F00000000000000000000000000000000009C
S214004F10000000000000000000000000000000008C
S214004F2000000000B40900000000000000000000BF
S214004F30000000001E00000000000000000000004E
S214004F40000000000000000000000000000000005C
S214004F50000000000000000000000000000000004C
S214004F60FFFF1028FFFF153C0000000000000000B7
S214004F7000000000FFFF0038FFFF1020FFFF153C79
S214004F80FFFF1020000000000000000001010100EB
S214004F900100000001000000010101000000000007
S214004FA0010000000F0000000100000001000000EA
S214004FB0000000000100000100010000F4010000F4
S214004FC000000000000000001400000000000000C8
S214004FD06400000001000000000001000000000066
S214004FE000000000000000000000000002000000BA
S214004FF000000000017D1000397F10000000000056
S214005000E57C10001F84100001000000DC4E00202C
S214005010DC4E0020E44E0020E44E00200500000098
S21400502007000000604F0020FC4E00200000190022
S214005030D803F80301140A10000001001900D80371
S2140050409813010C06100000020019006102981364
S21400505001100810000003002800EA00C301011830
S2140050600C10000004142800EA00040201140A10C0
S21400507000000500190078131F27032406100200FD
S2140050800600190072065C1D0330081002000000BE
S21400509000001900D803F80301140A1000000100EC
S2140050A01900D8039813010C06100000020019001E
S2140050B06102981301100810000003002800EA009F
S2140050C0C30101180C10000004032800EA00CC02FB
S2140050D00110081000000500190078131F27031E92
S2140050E0051002000600190072065C1D0330081049
S2140050F00200000004000000040000000C50002025
S214005100D44F0020000019008505A50501120910DE
S2140051100000010019001C023C02010A05100000F4
S21400512002001900C60BE60B014623100000030020
S21400513019003D015D010103021000000000190086
S2140051408505A505011209100000010019001C02C2
S2140051503C02010A0510000002001900C60BE60B0F
S214005160014623100000030019003D015D01010304
S2140051700210000001001400BC0200000000000045
S2140051800200000000000000010000007478715F5B
S214005190636C65616E000000000000000000000007
S2140051A00200000000000000000000007261646160
S2140051B07200000000000000000000002000000058
S2140051C044081B0048081B004C081B0050081B0026
S2140051D054081B0058081B005C081B0060081B00D6
S2140051E064081B0068081B006C081B0070081B0086
S2140051F074081B0078081B007C081B0080081B0036
S21400520084081B0088081B008C081B0090081B00E5
S21400521094081B0098081B009C081B00A0081B0095
S21400522044501B00A4081B00A8081B00AC081B0069
S214005230B0081B00B4081B00B8081B00B4071B000E
S214005240BC081B00C0081B00C4081B00C8081B00C5
S214005250CC081B00D0081B00D4081B00D8081B0075
S214005260DC081B00E0081B00E4081B00F8381B00E5
S214005270E8081B00EC081B00F0081B00F4081B00E5
S214005280F8081B00FC081B0000091B0004091B0093
S21400529008091B000C091B0010091B0014091B0041
S2140052A018091B001C091B0020091B0024091B00F1
S2140052B028091B002C091B0030091B0034091B00A1
S2140052C038091B003C091B0040091B0044091B0051
S2140052D048091B004C091B0064271B0050091B00D3
S2140052E054091B0058091B005C091B0060091B00C1
S2140052F064091B0068091B0070391B006C091B0041
S21400530070091B00A4071B0074091B0078091B000A
S2140053107C091B0080091B00AC071B0084091B00CE
S21400532088091B008C091B0090091B0094091B00B0
S21400533098091B009C091B00A0091B00A4091B0060
S214005340A8091B00AC091B00B0091B00B4091B0010
S214005350B8091B00BC091B00C0091B00C4091B00C0
S214005360C8091B00CC091B00D0091B00D4091B0070
S214005370D8091B00DC091B00E0091B00E4091B0020
S214005380E8091B00EC091B00F0091B00F4091B00D0
S21400539038631B00F8091B00FC091B00000A1B00F1
S2140053A0040A1B00080A1B000C0A1B00100A1B003C
S2140053B0140A1B00180A1B001C0A1B00200A1B00EC
S2140053C0240A1B00280A1B002C0A1B00300A1B009C
S2140053D0340A1B00380A1B003C0A1B00400A1B004C
S2140053E0440A1B00480A1B004C0A1B00500A1B00FC
S2140053F0540A1B00580A1B005C0A1B00600A1B00AC
S214005400640A1B00680A1B006C0A1B00700A1B005B
S214005410740A1B00780A1B007C0A1B00800A1B000B
S214005420840A1B00880A1B008C0A1B00900A1B00BB
S214005430940A1B00980A1B009C0A1B00A00A1B006B
S214005440A40A1B00A80A1B00AC0A1B00B00A1B001B
S214005450B40A1B00B80A1B00BC0A1B00C00A1B00CB
S214005460C40A1B00C80A1B00CC0A1B00D00A1B007B
S214005470D40A1B00D80A1B00DC0A1B00E00A1B002B
S214005480E40A1B00E80A1B00FF00000033200000AF
S2140054903F190C043F180C022A160A76700000000A
S2140054A03F190C00740000002A1600002C000000B3
S2140054B0332000003F190C043F180C022A160A7607
S2140054C0700000003F190C00740000002A1600004F
S2140054D02C000000332000003F190C043F180C007D
S2140054E02A160A76700000003F190C7D7200000034
S2140054F02A1600002C000000332000003F190C0480
S2140055003F180C002A160A76700000003F190C7B24
S2140055106E0000002A1600002C0000003320000059
S2140055203F190C043F180C002A160A76700000007B
S2140055303F190C7B6E0000002A1600002C000000AD
S214005540332000003F190C033F180C002A160A7679
S214005550700000003F190C7B6E0000002A16000049
S2140055602C0000000000000000000000000000000A
S2140055700000000000000000000000000000000026
S2140055800000000000000000000000000000000016
S2140055900000000000000000000000000000000006
S2140055A000000000000000000000000000000000F6
S2140055B000000000000000000000000000000000E6
S2140055C000000000000000000000000000000000D6
S2140055D02A2A000036180A003F180B783F180B7866
S2140055E0730000003F180A78730000002A58000075
S2140055F02C0000002A2A000036180A003F180B78F4
S2140056003F180B78730000003F180A7873000000FC
S2140056102A5800002C0000002A2A000036180A79B2
S2140056203F180B723F180B72730000003F180A7287
S214005630730000002A5800002C0000002A2A0000F0
S21400564036180A793F180B723F180B727300000069
S2140056503F180A72730000002A5800002C00000051
S2140056602A2A000036180A793F180B723F180B7268
S214005670730000003F180A72730000002A580000EA
S2140056802C0000002A2A000036180A793F180B72F0
S2140056903F180B72730000003F180A727300000078
S2140056A02A5800002C0000002A2A000036180A7724
S2140056B03F180B6D3F180B6B730000003F180A6411
S2140056C0730000002A5800002C0000002A2A000060
S2140056D036180A793F180B723F180B7273000000D9
S2140056E03F180A72730000002A5800002C000000C1
S2140056F02A2A000036180A773F180B6D3F180B6BE6
S214005700730000003F180A64730000002A58000067
S2140057102C000000000400001B190C040C0C0C02EA
S2140057202A160A767000000015150C00740000009A
S2140057302A1600002C000000020A00001B190C04A8
S2140057400C0C0C022A160A767000000015150C00C8
S214005750740000002A1600002C0000000004000060
S2140057601B190C040C0C0C002A160A76700000009C
S21400577015150C7D720000002A1600002C00000093
S214005780000400001B190C040C0C0C002A160A76E8
S2140057907000000015150C7B6E0000002A16000035
S2140057A02C000000000400001B190C040C0C0C005C
S2140057B02A160A767000000015150C7B6E00000095
S2140057C02A1600002C000000000600001B190C031F
S2140057D00C0C0C002A160A767000000015150C7BBF
S2140057E06E0000002A1600002C00000000000000DA
S2140057F000000000000000000000000000000000A4
S2140058000000000000000000000000000000000093
S2140058100000000000000000000000000000000083
S2140058200000000000000000000000000000000073
S2140058300000000000000000000000000000000063
S2140058400000000000000000000000000000000053
S21400585000000000000000002A2A000009090900D4
S214005860060606780808087873000000060606781C
S214005870730000002A5800002C0000002A2A0000AE
S214005880090909000606067808080878730000006B
S21400589006060678730000002A5800002C00000058
S2140058A02A2A0000090909790606067208080872FD
S2140058B07300000006060672730000002A580000F7
S2140058C02C0000002A2A000009090979060606723B
S2140058D008080872730000000606067273000000CF
S2140058E02A5800002C0000002A2A0000090909791D
S2140058F0060606720808087273000000060606729E
S214005900730000002A5800002C0000002A2A00001D
S214005910090909790606067208080872730000006D
S21400592006060672730000002A5800002C000000CD
S2140059302A2A0000050505770404046D0404046B98
S2140059407300000002020264730000002A58000080
S2140059502C0000002A2A00000909097906060672AA
S214005960080808727300000006060672730000003E
S2140059702A5800002C0000002A2A0000050505779A
S2140059800404046D0404046B730000000202026445
S214005990730000002A5800002C000000332000008E
S2140059A03F190C023F180C002A160A7670000000F9
S2140059B03F190C00700000002A1600002C000000A2
S2140059C0332000003F190C023F180C002A160A76F6
S2140059D0700000003F190C00700000002A1600003E
S2140059E02C000000332000003F190C023F180C7FEB
S2140059F02A160A76700000003F190C7F6A00000025
S214005A002A1600002C000000332000003F190C026C
S214005A103F180C7E2A160A76700000003F190C7C90
S214005A206A0000002A1600002C0000003320000048
S214005A303F190C023F180C7F2A160A7670000000E9
S214005A403F190C7F6A0000002A1600002C00000098
S214005A50332000003F190C023F180C002A160A7665
S214005A60700000003F190C7E6C0000002A16000033
S214005A702C000000000000000000000000000000F5
S214005A800000000000000000000000000000000011
S214005A900000000000000000000000000000000001
S214005AA000000000000000000000000000000000F1
S214005AB000000000000000000000000000000000E1
S214005AC000000000000000000000000000000000D1
S214005AD000000000000000000000000000000000C1
S214005AE02A2A00002A1606792A1606742A1606702E
S214005AF06C0000002A160668720000002A58000093
S214005B002C0000002A2A00002A16067B2A16067693
S214005B102A1606706C0000002A160668720000003E
S214005B202A5800002C0000002A2A00002A16067BAD
S214005B302A1606762A1606706C0000002A160668D4
S214005B40720000002A5800002C0000002A2A0000DC
S214005B502A1606782A1606702A1606686C000000B2
S214005B602A160660720000002A5800002C0000006A
S214005B702A2A00002A1606772A16066E2A16066CA9
S214005B806C0000002A160660720000002A5800000A
S214005B902C0000002A2A00002A1606782A1606720A
S214005BA02A1606706C0000002A16066472000000B2
S214005BB02A5800002C0000002A2A00002A16067424
S214005BC02A1606622A1606646C0000002A16066468
S214005BD0720000002A5800002C0000002A2A00004C
S214005BE02A1606782A1606722A1606706C00000018
S214005BF02A160668720000002A5800002C000000D2
S214005C002A2A00002A1606702A16066A2A16066C23
S214005C106C0000002A160664720000002A58000075
S214005C202C0000000403000005050502000000002B
S214005C302A160A76700000000303030070000000B6
S214005C402A1600002C0000000A0A000005050502BE
S214005C50000000002A160A76700000000303030006
S214005C60700000002A1600002C0000000406000049
S214005C70050505020000007F2A160A76700000005F
S214005C800303037F6A0000002A1600002C000000B1
S214005C9004060000050505020000007E2A160A76A6
S214005CA0700000000303037C6A0000002A16000050
S214005CB02C00000004060000050505020000007F19
S214005CC02A160A76700000000303037F6A000000AD
S214005CD02A1600002C000000040A00000505050234
S214005CE0000000002A160A76700000000303037EF8
S214005CF06C0000002A1600002C00000000000000C7
S214005D00000000000000000000000000000000008E
S214005D10000000000000000000000000000000007E
S214005D20000000000000000000000000000000006E
S214005D30000000000000000000000000000000005E
S214005D40000000000000000000000000000000004E
S214005D50000000000000000000000000000000003E
S214005D6000000000000000002A2A00000303037958
S214005D7002020274010101706C0000007D7D7D68E6
S214005D80720000002A5800002C0000002A2A00009A
S214005D900303037B02020276010101706C0000001F
S214005DA07D7D7D68720000002A5800002C000000EF
S214005DB02A2A00000303037B020202760101017017
S214005DC06C0000007D7D7D68720000002A5800008F
S214005DD02C0000002A2A0000030303780202027047
S214005DE0010101686C0000007D7D7D60720000008E
S214005DF02A5800002C0000002A2A0000030303771C
S214005E000202026E0101016C6C0000007D7D7D6067
S214005E10720000002A5800002C0000002A2A000009
S214005E200303037802020272010101706C00000095
S214005E307D7D7D64720000002A5800002C00000062
S214005E402A2A0000030303740202026201010164AD
S214005E506C0000007D7D7D64720000002A58000002
S214005E602C0000002A2A00000303037802020272B4
S214005E70010101706C0000007D7D7D6872000000ED
S214005E802A5800002C0000002A2A00000303037092
S214005E900202026A0101016C6C0000007D7D7D64D7
S214005EA0720000002A5800002C00000000000000CD
S214005EB000000000000000000000000000000000DD
S214005EC000000000000000000000000000000000CD
S214005ED000000000000000000000000000000000BD
S214005EE000000000000000000000000000000000AD
S2140063B000000000000000000000000001000000D7
S2140063C09A9939400000C03F010000002C010000EF
S2140063D00A00000001000000000360280000000022
S2140063E00300000054B90920BC6200200000000031
S2140063F054B90920BCB9092024BA092000000000BD
S2140064000000000000000000000000000000000087
S2140064100000000000000000000000000000000077
S2140064200000000000000000000000000000000067
S2140064300000000000000000430000000000000014
S2140064400000000000000000000000000000000047
S21400645000000000000000004300000000000000F4
S2140064600000000000000000000000000000000027
S21400647000000000000000004300000000000000D4
S2140064800000000000000000000000000000000007
S21400649000000000000000004300000000000000B4
S2140064A000000000000000000000000000000000E7
S2140064B00000000000000000430000000000000094
S2140064C000000000000000000000000000000000C7
S2140064D00000000000000000430000000000000074
S2140064E000000000000000000000000000000000A7
S2140064F00000000000000000430000000000000054
S2140065000000000000000000000000000000000086
S2140065100000000000000000DF2B1400AB2B14006E
S214006520000000007CAD1B00321E19005417190035
S2140065305417190054171900541719005417190046
S2140065405417190054171900541719005417190036
S214006550FFFFFFFFFFFFFFFFFFFFFFFFFFFF000044
S21400656001004153434949000000000000000000BC
S2140065700000000000000000000000000000000016
S214006580000041534349490000000000000000009D
S21400659000000000000000000000000000000000F6
S2080065A000000000F2
S2140065A400000000000000000000000000000000E2
S2140065B400000000000000000000000000000000D2
S2080065C400000000CE
S2080065C8AAAAAAAA22
S2050065CCFFCA
S2140065E00348044B834202D0034B03B1184770475D
S2140065F0746400207464002000000000064B074905
S214006600C91A891048BF0131491003D0044B0BB199
S21400661001481847704700BF746400207464002067
S2140066200000000010B5064C237843B9FFF7D8FFEA
S214006630044B13B10448AFF300800123237010BD50
S21400664010EF0520000000003001000008B5054BE3
S2140066501BB105490548AFF30080BDE80840FFF7C9
S214006660CDBF00BF0000000014EF05203001000081
S214006670A3F5803A704700BF174B002B08BF134B9B
S2140066809D46FFF7F5FF00218B460F461348144A38
S214006690121A38F1E9F90E4B002B00D098470D4B33
S2140066A0002B00D098470020002104000D000D4864
S2140066B0002802D00C48AFF3008038F191FE20008D
S2140066C0290003F0CFFE35F15BFE00BF0000080096
S2140066D00000000000000000A074002010EF05205D
S2140066E098BA092000000000000000000369C26894
S2140066F093429CBF81685B18013B981A70472DE94E
S214006700F0410546D0E902844068A8EB04069642AC
S21400671020440F46144406D938F1AAFEBFF35F8F13
S214006720EC60BDE8F0813246A4EB080438F1A0FE28
S21400673022466868B919EFE72DE9F8430646894608
S21400674017464FF00008C5683369B4689D4228BFF5
S2140067501B19641BBC4228BF3C46013B5B1B9C428A
S21400676028BF1C46706849462246284438F180FEF9
S214006770B3682544AB4208BF0025A044A1443F1B94
S214006780BFF35F8FF560002FDED14046BDE8F8838B
S214006790032310B5134C144923616361134BA161A5
S2140067A0E3614FF48063022223620023A3626362E4
S2140067B0E26221660E49E01D61668021A1660D49F0
S2140067C02367E366626738F13DFEBFF35F8F0A49D1
S2140067D0204638F137FEBFF35F8F2023A371BFF347
S2140067E05F8F10BDACF30520103E1400ACEF052003
S2140067F02CEF0520193E14001D3E1400F8B518278E
S21400680000FB0775124B0E461D4407FB0033DB6A80
S2140068101446012B0AD0022B14D023B92846FFF7C2
S21400682065FF844208D900242046F8BD2846FFF7B5
S2140068305DFF844228BF0446224631462846FFF7BD
S2140068405EFFF1E72846BDE8F840FFF775BF00BFDA
S214006850ACF30520F8B50B4B04461B780D461646E0
S2140068600BB9FFF795FFEFF311874FF0200181F387
S2140068701188324629462046FFF7C0FF87F3118865
S214006880F8BD00BFACF305202DE9F041164C1E46BE
S21400689023780546884617460BB9FFF779FF236924
S2140068A0AB421DD9EFF3118C4FF0200181F3118814
S2140068B065B1182005FB000344F80380E2180023A6
S2140068C0576000FB0542166293625362182303FB6F
S2140068D00544069BE3628CF311880020BDE8F08136
S2140068E04FF0FF30FAE700BFACF3052010B5826822
S2140068F004464068531C834205D820688154A36030
S214006900E3680133E360D4E901329A420BD121688F
S2140069102069FFF79FFFA368984215BF4FF0FF332B
S2140069200023E360A36010BD2DE9F84F1646054628
S21400693088460A464FF0010A9946DDE90A43B24204
S21400694012D2CA4538BFCA4613F0010B01D184B92A
S2140069500024EB68002B3CDB0127B9F1010F1ED9A0
S21400696009F1FF397743F8E7B2FBF6F20AF1010ABC
S214006970E5E79B0711D5B9F1000F0CBF302720279C
S214006980A245E6D239462846FFF7B0FFEB68013C41
S214006990002BDEDB002CF3D1DAE72027F0E7B8FB8C
S2140069A0F7F39E42DED9DFF84890B8FBF7F32846A7
S2140069B019F9031007FB1388FFF798FFEB68002B05
S2140069C003DBB742B7FBF6F305D2BBF1000F00D0EE
S2140069D05CB9BDE8F88F1F46E7E720212846FFF799
S2140069E085FFEB68013C002BF3DB5445F5D8F0E758
S2140069F08A2D19002DE9F04F00230E46402115463A
S214006A009BB0CDE90613CDE908300DF1280A0390B6
S214006A10CDF814A016F9011B39B9089D002D00F316
S214006A20118108981BB0BDE8F08F252940F0BD8085
S214006A304FF0000B314611F9013B2D2B19D013DC1A
S214006A40232B1DD02B2B18D00024314611F9013BE7
S214006A50A3F13000C0B2092815D80A2202FB04337D
S214006A600E46A3F13004F0E7302BEDD14BF0020BCD
S214006A7001E04BF0010B0E46DCE74BF0040BFAE7A7
S214006A804BF0080BF7E72E2B12D10E464FF00009FD
S214006A904FF00A0C304610F9011BA1F13007FFB287
S214006AA0092F07D80CFB09110646A1F13009F1E7BA
S214006AB04FF00009304610F9011B21F00407682F3B
S214006AC00646F8D0782909DC6F290BDC632967D0E5
S214006AD020DC252969D0582900F09480089B002BDB
S214006AE098DA9AE770390829F8D801A050F821F00A
S214006AF0356C0000DD6A0000DD6A0000156C0000E1
S214006B00DD6A0000F36B0000DD6A0000DD6A00004D
S214006B10056C00006429E1D129684FF00108081DC2
S214006B2028600A200F6887EAE771A1EBE771092958
S214006B303FDCC84538BFC8462CB1002F02DB1BF02F
S214006B40040F00D0013C1BF0020F02D0B9F1000F79
S214006B5004D01BF0010F01D184BB00240899002942
S214006B60BCDB002F35DA2D217F4205A8FFF7BEFEDD
S214006B7008990029B2DB0BF00301022904D1B9F110
S214006B80000F01D154BB002408990029A6DB4B4610
S214006B900A223946CDE9004B05A8FFF7C5FE9DE75A
S214006BA02B681A1D2A6093F9001005A8FFF79EFEB1
S214006BB094E7B1FBF0F108F10108B8E74445CDD9F8
S214006BC0202105A8FFF792FE0899013C0029C3DAA8
S214006BD0C4E71BF0040FCED02B21C6E74445D3D91B
S214006BE0302105A8FFF782FE0899013C0029C9DA82
S214006BF0CAE74B460A222968081D2860CDE9004BE3
S214006C000968C9E74B462968081D2860CDE9004B8E
S214006C101022F5E72B681A1D2A601C6814F9011B60
S214006C2000293FF45BAF05A8FFF760FE089B002B2A
S214006C30F4DA53E7296800220B1D2B600823CDE900
S214006C400032E5E7079C24B1224651460398FFF739
S214006C5001FE2C440894E4E60EB403B503AB53F8E7
S214006C60041B01AA0193FFF7C5FE02B05DF804EB12
S214006C7003B07047F0EE407AB1EE407AF7EE006A65
S214006C809FED080AB4EEE77AF1EE10FA02D980EE2C
S214006C90200A7047B0EC016A07EE060A37EE267A3D
S214006CA0F0E700BF00000000891A09B2002915DDD0
S214006CB09FED0C7A002300EB8202F0EC016AF2EC06
S214006CC0017A01331BB2994206EEA77AF5D107EE98
S214006CD0901AF8EEE77A87EE270A70479FED010ACA
S214006CE0704700BF000000002DE9F041146816460A
S214006CF02246B0EE406A074688461D46FFF7D4FF98
S214006D00C0EE207AF4EEC67AF1EE10FA19DB023401
S214006D10224641463846F0EE405AFFF7C5FFC0EE21
S214006D20207AF4EEC67AF1EE10FA08DBF4EEC05ADA
S214006D30F1EE10FA03DDAC42E9DD002414E0AC42CB
