S023000058706C6F7265725F5765617261626C655F576966695F72613677312E7372656395
S21400000018750020B515090081350A089D350A08BF
S21400001087F60800A5F60800C3F60800E9350A08C2
S214000020000000000000000000000000419E0600E6
S214000030A115090000000000D19D060029200A082D
S21400004029610800FD690300013608000136080032
S2140000500000000055560800000000001545080086
S214000060000000000000000000000000000000008B
S214000070000000000000000000000000FD69030012
S214000080FD69030000000000000000000000000002
S214000090000000000000000000000000000000005B
S2140000A0000000000000000000000000000000004B
S2140000B0FD69030000000000FD69030011330A0813
S2140000C021330A08FD690300FD690300FD6903008A
S2140000D0411B0A08FD690300FD690300FD69030072
S2140000E0052E0A08A95D0800A95D0800FD69030041
S2140000F0EDA91400000000003D3A150000000000C5
S2140001003D3A1500F108150011430A0839B01500EC
S214000110C5B1150035E7150000000000000000001E
S21400012000000000000000000000000000000000CA
S21400013001000000080000000000803F00000000F2
S214000140000000000000000094301C00942F1C00EB
S214000150942E1C001C2E1C0094301C0094301C0096
S21400016094301C0094301C000000000000000000CA
S214000170E4301C00E42F1C00E42E1C00402E1C0063
S214000180E4301C00E4301C00E4301C00E4301C00AA
S2140001900000000000000000017465737431303107
S2140001A05F3234670000000000000000000000001E
S2140001B00000000000000000000B0376686F7273FA
S2140001C06532330000000000000000000000000060
S2140001D0000000000000000000000000000000001A
S2140001E0000000000000000000000000000000000A
S2140001F000000000000000000000000000000000FA
S21400020000000000000000000000000000000000E9
S21400021000000000000000000000000000000000D9
S21400022000000000000000000000000000000000C9
S21400023000000000000000000000000800000000B1
S2140002400000000080FB05202001002094380020DC
S2140002500000000200000001000100000000000095
S214000260A5FF0400BC0100203C01002000010101A4
S214000270000000004801002001000000B00100203E
S214000280AC010020A6010020A40100209C01002053
S21400029094010020900100208C01002084010020A1
S2140002A07C0100207801002038FF000000000000DC
S2140002B00000000000000000000000000008010030
S2140002C000000000320020000000010005000001D0
S2140002D000000000000600000000000000200500EE
S2140002E0EB00FFA80601010101000000200000004D
S2140002F000100000520000000080000052000000C5
S21400030000800000D8000000FFFFFFFFE0FA052095
S214000310DC25200044532000000000000000000000
S2140003201027200000000000140100204C272000A9
S214000330AC2720002412002000000000000000006F
S2140003401412002000000000000000000000000062
S2140003500000000000000000000000000000000098
S2140003600000000000000000000000000000000088
S2140003700000000000000000000000000000000078
S2140003800000000000000000000000000000000068
S2140013400000000070FB05204C26200044532000BF
S2140013500D0C000068FC052030120020C477200029
S21400136000000000C82620001A0000002B00000025
S214001370D80E06202828200080782000FFFFFFFFD8
S21400138060120020000000000000000000000000C6
S214001390EC0F0620940F0620FFFFFFFF3C0F0620F1
S2140013A0E40E062000000000582820001A00000066
S2140013B02B000000000000080000000000000000F5
S2140013C0000001000000080000000000000000000F
S2140013D0000001002000000009BA0300EDB9030078
S2140013E08C3820001000000074561B000D00000012
S2140013F0221B180008000000F0DC1800080000009F
S2140014003B1E1800080000003A1B180008000000E9
S21400141010671700080000004C1B180008000000AA
S214001420581B1800080000006A1B1800080000007F
S2140014307E1B180008000000941B1800080000001F
S214001440AA1B180008000000BD1B1800870000003B
S214001450C51B180087000000CD1B18000800000000
S214001460451B180008000000DA1B180008000000E2
S214001470E11B180008000000ED1B18000800000023
S214001480F91B18008B000000051C18008B000000DC
S214001490271C18002B000000351C18002B0000002D
S2140014A0111C18003B0000001A1C18000800000061
S2140014B01467170008000000431C1800080000000E
S2140014C0521C1800080000005E1C18008B0000006C
S2140014D0661C18008B0000006E1C1800340000000C
S2140014E0801C18001C000000901C1800080000005B
S2140014F0B31C180008000000A11C18001C00000007
S214001500C21C180008000000CD1C180008000000CF
S214001510D81C180027000000E51C18002700000053
S214001520F21C180027000000001D1800270000000D
S2140015300E1D180027000000191D180027000000C7
S214001540241D1800270000002B1D1800270000008F
S2140015504360170008000000321D18002700000036
S2140015603D1D180027000000481D18000800000058
S2140015705D1D1800080000006A1D18000800000025
S21400158021671700080000003567170007010000F4
S2140015904767170008000000506717003F0000006C
S2140015A0606717003F0000007067170077000000B4
S2140015B0806717003F0000008D7F170008000000BE
S2140015C0B67F170008000000906717001D00000097
S2140015D09767170060000000A1671700C0000000B2
S2140015E0AF671700C0000000BD671700C00000000E
S2140015F0CB671700C0000000D9671700C0000000C6
S214001600E7671700C0000000F5671700C00000007D
S2140016100368170029000000126817000800000081
S21400162027681700870000003368170008000000CE
S2140016303D68170008000000466817008700000095
S21400164055681700870000006568170087000000CF
S214001650756817008700000085681700870000007F
S2140016609568170008000000A868170087000000AB
S214001670B768170008000000C068170008000000E0
S214001680D168170008000000DB681700870000001C
S214001690E968170047010000F76817008700000098
S2140016A0076917008700000015691700080000008A
S2140016B023691700080000003669170008000000BC
S2140016C042691700570000004F69170057000000D6
S2140016D05C691700080000006E69170037000000FC
S2140016E07D691700370000008C691700370000007E
S2140016F09B69170087000000A86917000800000013
S214001700BB691700AF000000CA6917000800000098
S214001710DC69170008000000EE69170008000000EA
S214001720006A1700080000000D6A17000800000095
S214001730216A1700080000002F6A17000800000042
S214001740426A170008000000556A170037000000BC
S214001750656A170037000000756A1700370000003A
S214001760856A170087000000936A170008000000CB
S214001770A06A170008000000AC6A17000800000006
S214001780BD6A170008000000CE6A17003700000088
S214001790DC6A170037000000EA6A1700370000000E
S2140017A0F86A170087000000046B170008000000A6
S2140017B0126B1700080000001B6B170008000000E3
S2140017C0266B1700070200002E6B17001D00000096
S2140017D06C6B1700270000007B6B17001D000000D5
S2140017E03A6B17001D000000496B17002700000029
S2140017F0576B17001D000000676B170027000000DE
S214001800766B17001D000000876B170001020000B2
S214001810906B170001020000986B1700080000008C
S214001820A86B170008000000B86B1700080000003F
S214001830C86B170008000000D86B170008000000EF
S214001840E86B170008000000F86B1700080000009F
S214001850086C170008000000186C1700080000004D
S214001860286C170008000000386C170008000000FD
S2140018704A6C1700080000005C6C170008000000A7
S2140018806E6C170008000000806C1700080000004F
S214001890926C170008000000A46C170008000000F7
S2140018A0B66C170008000000C86C1700080000009F
S2140018B0DA6C170008000000EC6C17000800000047
S2140018C0FE6C170008000000106D170008000000EE
S2140018D0226D170008000000346D17000800000095
S2140018E0466D170008000000586D1700080000003D
S2140018F06A6D1700080000007C6D170008000000E5
S2140019008E6D170008000000A06D1700080000008C
S214001910B56D170008000000CA6D1700080000002B
S214001920DF6D170008000000F46D170008000000C7
S214001930096E1700080000001E6E17000800000061
S214001940336E170008000000486E170008000000FD
S2140019505D6E170008000000726E1700630000003E
S214001960866E1700630000009A6E17006300000082
S214001970AE6E170063000000C26E17006300000022
S214001980D66E170063000000EA6E170063000000C2
S214001990FE6E170063000000126F17006300000061
S2140019A0266F1700630000003A6F1700080000005B
S2140019B04E6F170008000000626F17000800000056
S2140019C0766F1700080000008A6F170008000000F6
S2140019D09E6F170008000000B26F17000800000096
S2140019E0C66F170008000000DA6F17000800000036
S2140019F0EE6F1700080000000270170008000000D5
S214001A00137017000800000024701700080000007C
S214001A103670170008000000487017000800000025
S214001A205D70170008000000727017004700000085
S214001A3088701700470000009E70170047000000DF
S214001A40B670170047000000CE7017008700000031
S214001A50E670170087000000FE7017000800000000
S214001A6016711700080000002E711700080000000D
S214001A7045711700080000005C71170008000000A0
S214001A8073711700080000008A7117000800000034
S214001A909E71170008000000B271170008000000D1
S214001AA0C671170008000000DA71170087000000F2
S214001AB0F07117008700000006721700870000000C
S214001AC014721700080000002172170008000000BA
S214001AD032721700870000003C7217005F0000009B
S214001AE04672170087000000537217002700000098
S214001AF05A72170007020000627217000800000002
S214001B006C721700080000007772170008000000CB
S214001B1080721700080000008A7217001D0000007F
S214001B209472170002000000A17217000200000065
S214001B30A872170007020000B372170041000000E9
S214001B40C172170008000000B1B81B0008000000B2
S214001B50C772170087000000CE72170087000000CB
S214001B60D572170002000000DF72170002000000A6
S214001B70E6721700080000006E1B18000800000040
S214001B80EF72170008000000FF7217000800000040
S214001B900F731700190000001B73170019000000D0
S214001BA026731700020000003173170002000000C1
S214001BB03A7317004100000041731700410000000F
S214001BC048731700410000004F73170041000000E3
S214001BD056731700410000005D73170041000000B7
S214001BE064731700410000006B731700410000008B
S214001BF0727317004100000079731700410000005F
S214001C0080731700070200008D731700870000001E
S214001C109773170007040000327217004700000091
S214001C20A773170007040000B773170047000000EB
S214001C30C7731700470000005A721700070200001B
S214001C40BF73170047000000CF731700470000005F
S214001C50DA7317001D000000777217001D000000E1
S214001C60627217001D0000006C7217001D00000055
S214001C70494B1700080000005C4B17008700000067
S214001C807C4B1700080000008B4B17000800000074
S214001C909C4B170008000000B04B1700080000001F
S214001CA0C44B170008000000D34B170008000000C4
S214001CB0E54B170008000000F84B1700080000006E
S214001CC0E273170008000000F97317000800000010
S214001CD01674170008000000875D17000800000053
S214001CE0805D170008000000625F17001F000000FC
S214001CF01F74170008000000297417002700000052
S214001D0036741700270000004074170027000000F4
S214001D104A741700270000005374170027000000BD
S214001D205D741700080000006E74170008000000BD
S214001D30787417002700000085741700270000003D
S214001D408F74170027000000997417002700000002
S214001D50A2741700270000000060170008000000AB
S214001D601F601700270000003660170027000000DD
S214001D700960170008000000AC7417002700000078
S214001D80B874170057000000C7741700570000000B
S214001D90D674170057000000E4741700080000000F
S214001DA0F37417004700000064E017000800000006
S214001DB002751700470000000B751700470000006B
S214001DC01675170047000000217517000800000070
S214001DD02D751700080000003B751700080000006E
S214001DE04A75170008000000557517000800000027
S214001DF062751700080000007075170008000000E4
S214001E007F751700080000008E7517000800000098
S214001E109975170008000000A67517000800000056
S214001E20B47517001D000000C875170057000000A5
S214001E30C37517001D000000CD7517004700000091
S214001E40A83C180081000000D97517004700000064
S214001E50E475170047000000F17517004700000002
S214001E60CD6A180031000000FF7517000702000059
S214001E706E1C180035000000801C18001D000000B5
S214001E800E761700080000002176170008000000F4
S214001E90A11C180008000000B31C18000800000071
S214001EA032761700080000003E7617000800000093
S214001EB0297D17001D0000004D7617001D0000004C
S214001EC0587617001D000000667617001D000000FB
S214001ED0797617001D000000937617001D0000009D
S214001EE0A07617001D000000AC7617001D0000004D
S214001EF0B87617001D000000C37617001D0000000E
S214001F00D47617001D000000E37617001D000000C1
S214001F10D976170013000000F37617001D000000A6
S214001F20E07617001D000000F07617001D00000088
S214001F30077717001D000000137717001D0000002C
S214001F40227717001D000000307717001D000000E4
S214001F503A7717001D0000004C7717004700000076
S214001F60617717001D000000777717001D0000003E
S214001F70897717001D000000106717001D0000007D
S214001F80017D17001D000000107D17001D000000D9
S214001F908D7717002B000000987717001D000000B3
S214001FA0AC7717001D000000BA7717001D00000070
S214001FB0CE7717001D000000E57717001D00000013
S214001FC0F27717001D000000087817004700000091
S214001FD0207B1700470000002A7B17004700000000
S214001FE0187817001D0000007F7D17001300000002
S214001FF03C7917001D000000297817001D0000001E
S2140020003B7817001D0000004C7817001D000000EC
S214002010557817001D000000647817001D000000AA
S2140020206F7817001D000000837817001D00000061
S2140020309D7817001D000000B47817001D000000F2
S214002040C17817001D000000D47817004700000074
S214002050772C180047000000652C18001D000000B3
S214002060402C18001D000000382C18001D00000031
S214002070E57817001D000000F27817001D0000002C
S214002080007917001D0000000E7917001D000000E3
S2140020901679170027000000237917001D0000009E
S2140020A0307917001D000000387917001D00000069
S2140020B04F7917001D000000617917001D00000011
S2140020C077791700080000008079170008000000E4
S2140020D01B4018001D0000008F7917001D0000002F
S2140020E09D79170008000000AB7917001D0000005E
S2140020F074561B000D000000B37917001D00000089
S214002100BB79170008000000C67917000800000019
S214002110CF7917001D000000DD7917001D000000B4
S2140021209F1D18001D000000EF7917001D0000001D
S214002130F67917001D000000FF7917001D0000004B
S2140021400B7A170007040000147A17001D00000021
S214002150217A1700080000002C7A1700870000007C
S214002160347A170008000000417A170029000000A2
S2140021704A7A17001D000000587A17001D0000005C
S2140021806B7A17001D0000007E7A17008B00000097
S214002190857A17008B000000947A17001D00000057
S2140021A0A47A17000B010000B47A1700470000005D
S2140021B0C77A170047000000D07A170047000000D3
S2140021C0DC7A17001D000000EE7A17006B00000096
S2140021D0FA7A17006B000000037B17006B00000004
S2140021E0117B1700430000001D7B1700470000000E
S2140021F0277B170047000000337B17000705000009
S214002200407B1700070500004D7B1700CF0000003D
S214002210547B17008B000000607B1700470000000F
S214002220767B170047000000877B17008B000000B6
S214002230937B17002F0000009D7B17002F000000E7
S214002240A77B17001D000000B67B17003B000000B0
S214002250C27B17003B000000CE7B17003B0000004F
S214002260DA7B17003B000000E67B17000800000042
S214002270F77B17001D000000037C17001D00000000
S214002280157C170047000000217C17001D00000089
S214002290327C17001D0000003A7C17001D0000006D
S2140022A0457C17001D0000004D7C17001D00000037
S2140022B05D7C17001D0000006A7C17001D000000F2
S2140022C0787C17001D0000007F7C17001D000000B2
S2140022D0987C170008000000A47C17001D00000072
S2140022E0AC7C17001D000000BC7C17001D00000021
S2140022F0CD7C17001D000000DB7C170007020000E5
S214002300E57C17001D000000FE7C17001D00000085
S2140023100D7D17001D0000001B7D17001D0000002E
S214002320267D17001D0000003B7D170017000000EB
S214002330477D17001D0000005C7D1700250000008B
S2140023407C7D17001D000000887D170047000000F8
S2140023509C7D17001D000000B37D17001D000000C7
S214002360CC7D17001D000000E77D17001D00000053
S214002370027E17001D000000197E17001D000000D9
S2140023802A7E17001D000000417E17001D00000079
S214002390507E170047000000617E170047000000CF
S2140023A0757E17001D000000907E17004700000095
S2140023B09D7E17001D000000AA7E17001D0000006D
S2140023C0B67E17001D000000CC7E17001D00000022
S2140023D0E57E17001D000000FD7E17001D000000B2
S2140023E00C7F17001D000000227F17001D00000054
S2140023F02C7F17001D000000397F17001D0000000D
S214002400477F17001D0000004D7F17001D000000CD
S214002410557F17001D000000637F17001D00000099
S214002420737F17001D000000827F17001D0000004C
S214002430927F17001D000000A57F17001D000000FA
S214002440B07F17001D000000BB7F17001D000000B6
S214002450D07F17001D000000E07F17001D00000061
S214002460F17F170047000000FB7F17001D000000EB
S2140024700F8017001D000000238017001D000000BD
S214002480378017001D0000003E8017001D0000006A
S2140024904D8017001D000000598017001D00000029
S2140024A06A8017001D0000007E8017001D000000D7
S2140024B0928017001D000000A68017001D00000077
S2140024C0BA8017001D000000CE8017001D00000017
S2140024D0E28017001D000000F68017001D000000B7
S2140024E00A8117001D0000001E8117001D00000055
S2140024F0328117001D000000468117001D000000F5
S2140025005A8117001D0000006E8117001D00000094
S214002510828117001D000000968117001D00000034
S214002520AA8117001D000000B58117001D000000DD
S214002530C08117001D000000CF8117001D0000009D
S214002540DE8117001D000000F48117001D0000004A
S214002550FF8117001D000000108217001D000000FC
S214002560248217001D0000003B8217001D0000009B
S2140025704B8217001D000000578217001D00000048
S214002580638217001D000000738217001D00000004
S214002590838217001D0000009A8217001D000000AD
S2140025A0A68217001D000000B88217001D0000005C
S2140025B0CD8217001D000000E58217001D000000F8
S2140025C0F682170047000000FE8217001D0000007C
S2140025D0058317001D000000128317001D00000071
S2140025E01C8317001D000000278317001D00000035
S2140025F0358317001D000000408317001D000000F3
S214002600488317001D000000568317001D000000B9
S214002610628317001D000000718317001D00000074
S2140026207B8317001D000000868317001D00000036
S214002630998317001D000000A08317000800000003
S214002640AF8317001D000000BB83170008000000C2
S214002650C683170087000000CE8317001D00000009
S214002660DB83170029000000E48317001D0000002C
S214002670F28317001D000000058417001D000000EF
S214002680188417008B0000001F8417001D00000030
S2140026902F8417000B0100003F841700470000003E
S2140026A052841700470000005B84170047000000B4
S2140026B0678417001D000000798417006B00000077
S2140026C0858417006B0000008E8417006B000000E6
S2140026D09C84170043000000A884170047000000F1
S2140026E0B284170047000000BE84170007050000EC
S2140026F0CB84170007050000D8841700CF00000021
S214002700DF8417008B000000EB84170047000000F2
S2140027100185170047000000128517008B00000097
S2140027201E8517002F000000288517002F000000C8
S214002730328517001D000000418517003B00000091
S2140027404D8517003B000000598517003B00000030
S214002750658517003B000000718517001D0000000E
S214002760828517001D0000008E8517001D000000E2
S214002770A085170047000000AC8517001D0000006C
S214002780BD8517001D000000C58517001D00000050
S214002790D085170008000000D88517001D0000002F
S2140027A0E885170008000000F58517001D000000EA
S2140027B0038617001D0000000A8617001D00000093
S2140027C0238617001D0000002F8617001D0000003E
S2140027D0378617001D000000478617001D00000002
S2140027E0588617001D0000006686170007020000C6
S2140027F0708617001D000000898617001D00000067
S2140028009886170008000000A68617001D00000026
S214002810B186170008000000C686170017000000E3
S214002820D28617001D000000E7861700250000006E
S214002830078717001D0000001387170047000000D9
S214002840278717001D0000003E8717001D000000A8
S214002850578717001D000000728717001D00000034
S2140028608D8717001D000000A48717001D000000BC
S214002870B58717001D000000CC8717001D0000005C
S214002880DB87170047000000EC87170047000000B2
S214002890008817001D0000001B8817004700000076
S2140028A0288817001D000000358817001D0000004E
S2140028B0418817001D000000578817001D00000003
S2140028C0708817001D000000888817001D00000093
S2140028D0978817001D000000AD8817001D00000037
S2140028E0B78817001D000000C48817001D000000F0
S2140028F0D28817001D000000D88817001D000000B1
S214002900E08817001D000000EE8817001D0000007C
S214002910FE8817001D0000000D8917001D0000002E
S2140029201D8917001D000000308917001D000000DB
S2140029303B8917001D000000468917001D00000097
S2140029405B8917001D0000006B8917001D00000042
S2140029507C89170047000000868917001D000000CC
S2140029609A8917001D000000AE8917001D000000A0
S214002970C28917001D000000C98917001D0000004D
S214002980D88917001D000000E48917001D0000000C
S214002990F58917001D000000098A17001D000000B9
S2140029A01D8A17001D000000318A17001D00000058
S2140029B0458A17001D000000598A17001D000000F8
S2140029C06D8A17001D000000818A17001D00000098
S2140029D0958A17001D000000A98A17001D00000038
S2140029E0BD8A17001D000000D18A17001D000000D8
S2140029F0E58A17001D000000F98A17001D00000078
S214002A000D8B17001D000000218B17001D00000015
S214002A10358B17001D000000408B17001D000000BE
S214002A204B8B17001D0000005A8B17001D0000007E
S214002A30698B17001D0000007F8B17001D0000002B
S214002A408A8B17001D0000009B8B17001D000000DE
S214002A50AF8B17001D000000C68B17001D0000007E
S214002A60D68B17001D000000E28B17001D0000002B
S214002A70EE8B17001D000000FE8B17001D000000E7
S214002A800E8C17001D000000258C17001D0000008E
S214002A90318C17001D000000438C17001D0000003D
S214002AA0588C17001D000000708C17001D000000D9
S214002AB0818C170047000000898C17001D0000005D
S214002AC0908C17001D0000009D8C17001D00000054
S214002AD0A78C17001D000000B28C17001D00000018
S214002AE0C08C17001D000000CB8C17001D000000D6
S214002AF0D38C17001D000000E18C17001D0000009D
S214002B00ED8C17001D000000FC8C17001D00000057
S214002B10068D17001D000000118D17001D00000017
S214002B20248D17001D0000002B8D170008000000E4
S214002B30348D170008000000428D170008000000C2
S214002B40538D170008000000638D17000800000072
S214002B507E8D1700080000008E8D1700080000000C
S214002B609F8D170008000000B58D170008000000B4
S214002B70CA8D170008000000DE8D17000800000050
S214002B80F38D170008000000028E170008000000F2
S214002B90188E1700080000002E8E17000800000090
S214002BA03B8E1700080000004B8E17000800000040
S214002BB05E8E1700080000006B8E170008000000ED
S214002BC06B5F17001F0000007D8E170008000000D6
S214002BD0918E170008000000A18E17000800000064
S214002BE0B38E170008000000C68E1700080000000D
S214002BF0DA8E170019000000DF8E17002100000093
S214002C00525F170008000000E88E1700080000005A
S214002C10F08E170008000000F98E1700080000006C
S214002C20018F17000200000010000000000060285E
S214002C30010000000400000050D8602800000000DA
S214002C4001120F0000000000B80B0000000000009A
S214002C500000000000000000021207000000000054
S214002C60B80B00000000000000000000000000009C
S214002C700302050000000000000000000000000045
S214002C800000000000000000040203000000000036
S214002C90B80B000000000000CC1000000000000090
S214002CA0050000000000000000000000000000001A
S214002CB0000000000000000001000000167417006D
S214002CC0FFFFFFFF0100000002000000E803000015
S214002CD0307500006E19000000C00000FA00000009
S214002CE041DD0500E8030000B10A1100E80300001A
S214002CF045690500E80300002D5405000A000000A1
S214002D00E55605006400000065400500640000000C
S214002D10F1710500E8030000DD610500E80300002E
S214002D20F1780500E80300000DFC100064000000C8
S214002D30A1061100F40100003DF71000010000009C
S214002D40FF00000078000000FFFFFF006C09000095
S214002D50A0860100640000000000000000000000E3
S214002D60102030405060708090A0B0C0000000007E
S214002D700000000100140000000000000000000039
S214002D80000000000000000000000000000000003E
S214002D90000000000000000000000000000000002E
S214002DA0000000000000000000000000000000001E
S214002DB0000000000000000000000000000000000E
S214002DC000000000000000000000000000000000FE
S214002DD000000000000000000000000000000000EE
S214002DE000000000000000000000000000000000DE
S214002DF000000000000000000000000000000000CE
S214002E0000000000000000000000000000000000BD
S214002E1000000000000000000000000000000000AD
S214002E20000000000000000000000000000000009D
S214002E30000000000000000000000000000000008D
S214002E40000000000000000000000000FFFFFFFF81
S214002E50C8000000000000000000000000000000A5
S214002E60A825082095E806000000000000000000E5
S214002E70900600002D2D2D2D2D424547494E2052FF
S214002E8053412050524956415445204B45592D2D0B
S214002E902D2D2D0A4D4949457041494241414B432C
S214002EA0415145417379436B4F4F48527A526C4FAC
S214002EB0454445543848615946774D436E597052DB
S214002EC070366865706A6E375464746C5A4644731C
S214002ED0787754530A6944634E58323758675562B8
S214002EE043454E416E33654B3277646564595A6E7E
S214002EF0706D48584730386E4F67794A7248466F4B
S214002F00423737565A3269436643564D50777453A4
S214002F107675704C2F0A7457305664656139566F53
S214002F20684473546B416F764755577942567A65B5
S214002F30796849756A682F546F4E59346158756CB4
S214002F4049674C5953323167556F79384761565A3D
S214002F507953775144580A344E632F38306E4C7983
S214002F60486643704D55774C364C4A30546C7864FE
S214002F703365556F6E634A4437544E4D6D574C67F4
S214002F804D34586C6D353175755259354266423937
S214002F906E584B554862690A3661397330784A2B49
S214002FA05732564B53344B5362525745587855490F
S214002FB07358423654355931797570344F514144FF
S214002FC0497A4A484A57554F4C37327657704D63C0
S214002FD0385834526A42776B0A646148374D563621
S214002FE0444F305A7A584472756245454748346CA7
S214002FF045456673624E597450325147447551497F
S2140030004441514142416F494241446E69594738F3
S214003010704F687A6E416E7A6B0A2F7961446A4601
S2140030203554554C4D4D455A723249362F66714CC3
S2140030302F6547414F30797537394E664E69707542
S21400304057683865344B71596535584569746A4A0E
S21400305056545562354B654677570A497977705707
S2140030604A797A734A3032304D31666379757A77A9
S214003070764447634A397244325A68506C536F62DA
S214003080586A75475630764A34444C684E4D69380F
S2140030906567497150476B642B584B0A4438302B90
S2140030A0787A6A554D342B34486B485855795953BD
S2140030B0414C376E547A492B6E68396D6D337943BF
S2140030C06E7446534A734E6A317452583749566A7C
S2140030D06E6A6831524953374D5235420A6630752A
S2140030E039785647663355624276654B2F52795685
S2140030F047642F51574A61636B7442637233577942
S2140031004378486B776F3634544554756A35443384
S2140031104E787149726D694368426175420A65640A
S21400312069716F6533527578507736766745332BFD
S2140031307A336D6644644430586235384373764E4D
S214003140323764572F2F65756631785A6A6A773634
S214003150784C71416F335A643866414D4D450A4587
S2140031604644555269454367594541316D582F5A73
S214003170304F6F4E496433536F466867354E6B5118
S2140031806C45425362324C6E6133354A74716875D1
S214003190796C504C61726A61706F476A33432F0ACC
S2140031A0347A306841495536643157334C313250A1
S2140031B03137355861487244754135315463396248
S2140031C06E4D702F4A7553725636723543766D5A69
S2140031D04A38314D6674596C4A7A6C34317A4A648E
S2140031E00A4A4966316E494C786C587651533972A2
S2140031F056485371494F2F3064507745416B474BC3
S2140032004A487171687957544D357368334363671C
S214003210705179374A734C30436759454131654B95
S2140032205A0A704464676B4C5251676D746B573022
S2140032304644496B52316147364A3667452F5470CB
S2140032406D6D53593634787145597235726E4752E2
S2140032504F627659724751584870396F442F5175EE
S21400326043480A6669566575647675795159587487
S214003270304B734576304E79686F4C576D416C54C1
S214003280696A31654B456A556D764872545633798E
S214003290644D53644549733570356B3677334874DF
S2140032A0384B550A3459416A6A46676C4C2B30785D
S2140032B04456394543366E77423473774E774B66BD
S2140032C04270696675776B73704B3043675942314D
S2140032D052466A4D484A39324339706473434B73D9
S2140032E0477751740A6D613041726D496448726B5C
S2140032F03258554D303463566A44794E516657718C
S214003300314C6C426D644673477339686B7955640B
S2140033106D36742F77657A58482B63337663456B22
S2140033204E424376780A75486950783264496A6B2B
S214003330576C6B52774B5079706C2F6139596F7799
S214003340444C673871615870736976695278524D8B
S214003350574C6C2B6756436478324931334A786A47
S214003360794F764C61500A52586B30644B50325845
S214003370784E74454551786350663061514B4267CC
S214003380514448587A7A6371496F70475176624A59
S2140033906F516231452F6942334A78384767366144
S2140033A0774D36483175300A515966594435375687
S2140033B0516B3264514876795351505A535868507D
S2140033C0775A737747642F7A4A4A365348594D4F8F
S2140033D0653946726B49696141717A7838536B5921
S2140033E043337436796739580A624D31694C506DEB
S2140033F0716161624A79536A776D696345716931B3
S2140034006B4E696F7644774238323164486F587134
S214003410346E423858576641783979793575334D68
S214003420734E424E4D734D526B0A4D6E3863325199
S2140034304B42675143304F4B626F6555677A6B3925
S2140034406930364B45364371474F343357705044D6
S2140034504B4E472B34796C6E436E49786A65474904
S214003460594C4E4B484A2B5243760A346C742B46C2
S2140034704857637763694D334A6F4E4A57536671B0
S214003480584763717032423937492F594457383795
S2140034904C364865345368556D7A76646C414731CE
S2140034A043656347715459427259420A6C63722FDE
S2140034B02B52756B577A494D55434132344B654113
S2140034C06F68654B73432B484A4767345530386EF0
S2140034D0577A356E394B33306B714E79612B6E7A75
S2140034E039673D3D0A2D2D2D2D2D454E4420525336
S2140034F0412050524956415445204B45592D2D2DBB
S2140035002D2D0A00580400002D2D2D2D2D42454747
S214003510494E2043455254494649434154452D2D72
S2140035202D2D2D0A4D494944426A43434165344393
S214003530435143673578744C3561702F4344414E90
S21400354042676B71686B6947397730424151734601
S214003550414442464D517377435159445651514761
S21400356045774A420A565445544D424547413155DF
S214003570454341774B553239745A53315464474664
S214003580305A5445684D4238474131554543677770
S21400359059535735305A584A755A58516756326CEF
S2140035A06B5A326C300A6379425164486B675448F0
S2140035B0526B4D423458445445344D4467794D540B
S2140035C041334D7A67304D316F58445449344D4439
S2140035D067784F4441334D7A67304D316F77525498
S2140035E0454C4D416B470A4131554542684D435164
S2140035F0565578457A415242674E564241674D438A
S2140036006C4E766257557455335268644755784900
S21400361054416642674E5642416F4D47456C75644D
S214003620475679626D56300A494664705A47647048
S21400363064484D6755485235494578305A444343A7
S214003640415349774451594A4B6F5A496876634EFD
S21400365041514542425141446767455041444343C6
S21400366041516F43676745420A414C4D6770446A53
S214003670683063305A54684178452F42326D426351
S214003680444170324B5561656F587159352B303354
S214003690625A575251374D6345306F673344563937
S2140036A07531344647776844510A4A39336974732A
S2140036B048586E57475A365A68317874504A7A6F67
S2140036C04D696178786141652B3157646F676E7715
S2140036D06C5444384C55723771532F3756744658CD
S2140036E0586D76566149513745350A414B4C786CD2
S2140036F0467367566333736F534C6F346630364485
S214003700574F476C37705349433245747459464B8C
S2140037104D76426D6C57636B734541312B44585060
S2140037202F4E4A79386833777154460A4D432B69D1
S21400373079644535635864336C4B4A3343512B30B8
S2140037407A544A6C6934444F46355A756462726BD3
S214003750574F515877665A31796C423234756D76C8
S214003760624E4D53666C746C536B75430A6B6D30CA
S2140037705668463856434C4677656B2B574E6372F1
S2140037807165446B4141794D795279566C44692B89
S21400379039723171544850462B455977634A485719
S2140037A0682B7A4665677A7447633177360A376DD1
S2140037B0784242682B4A52424837477A574C543927
S2140037C06B4267376B43417745414154414E4267F0
S2140037D06B71686B69473977304241517346414196
S2140037E04F4341514541574A566A4933706F0A7AEA
S2140037F06A4370736672507731752F4B2F30414A8B
S2140038004752704C43687642504D597A31312F41B9
S2140038107932493276795438616B524D2B376B6D5D
S21400382030572F642B7769794C3059543951490AEF
S21400383050485434674C4556344B65695153415093
S214003840696E64744A676267325769353345424722
S214003850654E724457484D77483369736C447239E5
S214003860683239337A6855715A4D69653257446201
S2140038700A6B704563536837394441685A445A3472
S21400388033642F71486757657957576B7943384AC1
S2140038904C51497A59507364544A59663871713795
S2140038A0794E5A6C72374F5A434858647132734790
S2140038B0380A536A453449316A34414E6B6B4A7054
S2140038C06E58367946445A5A47444472557A50637D
S2140038D04A525056745A7A6D79744A5549627A6FCC
S2140038E054553945366E5344496C764254543237F3
S2140038F0336F0A39674A58766B55374C3463774EC0
S2140039004341673067335252777971495571387A37
S21400391079577349654E5364717A3634454948324F
S2140039207758345876576B567A447A6678573736CF
S214003930484C370A4E4F64733461355349486646DF
S2140039405A773D3D0A2D2D2D2D2D454E44204345BD
S2140039505254494649434154452D2D2D2D2D0A00DC
S2140039600000000000000000000000000000000052
S2140039700000000048380020030000C0500000008F
S2140039800000000000000000683800200000000072
S2140039900000010000000000000000000001FF071A
S2140039A000000000514711004946110001000000C8
S2140039B00700000006000000FD000000514711004F
S2140039C0494611006F280A0859230A085D230A0889
S2140039D06B290A08B9240A08F92C0A08BF2D0A0818
S2140039E00F2B0A084F250A0871250A0861230A08C2
S2140039F065230A0851230A08F000000000000000B2
S214003A000000000000000000E03800200000000079
S214003A10040000000000000000000000000000009D
S214003A2044A0042060006028FF000000FFFFFFFFA6
S214003A30C40E6028740E6028640E602824000C40B3
S214003A40833418002129090000000000000000004F
S214003A506C341800883418000000000000000000D5
S214003A6000000000000000003712180005340900AE
S214003A70000000000000000092341800A734180070
S214003A80393109000000000001000000AF341800C2
S214003A90FF3418001D31090000000000000000007F
S214003AA0073518008D771700013109000000000067
S214003AB0000000001E35180032351800E5300900F9
S214003AC000000000000000003E35180059351800C0
S214003AD0F5320900000000000000000068351800FC
S214003AE0AB441800C93209000000000000000000C6
S214003AF0943518003B3318009D3209000000000082
S214003B0000000000BF3518004A3318006D32090067
S214003B100000000001000000DA3518000836180022
S214003B203D320900000000000000000014361800B6
S214003B303A361800F93309000000000000000000C3
S214003B4048361800C11E1A00C930090000000000DF
S214003B500000000063361800853618001132090090
S214003B60000000000000000094361800AF36180071
S214003B70E53109000000000000000000BF36180014
S214003B80DB36180000000000000000000000000007
S214003B9000000000F8361800AD30090000000000F4
S214003BA000000000E63618001CF01B0091300900EB
S214003BB00000000000000000FD361800393718002D
S214003BC0ED33090000000000000000004537180033
S214003BD001801900E1330900000000000000000029
S214003BE055371800803718007530090000000000AF
S214003BF00000000090371800D0371800D5330900B1
S214003C000000000000000000AE371800F83718006B
S214003C10C93309000000000000000000D637180075
S214003C20FF371800BD330900000000000000000048
S214003C300E381800772C18005930090000000000D4
S214003C40000000003B381800652C18003D300900C5
S214003C50000000000000000074381800402C180017
S214003C602130090000000000000000008338180022
S214003C70382C180005300900000000000000000085
S214003C80A5381800F9A11A00F53609000000000052
S214003C9000000000AA38180091FD1A0071360900CD
S214003CA00000000001000000E33818001C3918006E
S214003CB0ED35090000000000010000002939180059
S214003CC0412A1A00693509000000000001000000C2
S214003CD05F3918008E391800E5340900000000002E
S214003CE00100000092391800D4391800B1330900D9
S214003CF00000000000000000DF391800FD39180041
S214003D00A53309000000000000000000063A180075
S214003D10193A1800E92F0900000000000000000012
S214003D20253A1800453A1800B53109000000000091
S214003D30010000004E3A1800863A18008531090046
S214003D4000000000000000008F3A1800BF3A18007C
S214003D50993309000000000000000000C53A180072
S214003D60D83A18008D33090000000000000000005B
S214003D70E43A1800003B18000000000000000000B5
S214003D800000000000000000073B1800CD2F0900CF
S214003D9000000000000000000F3B18003F3B18002A
S214003DA0553109000000000001000000473B1800E4
S214003DB0AF57170081330900000000000000000024
S214003DC0733B1800943B1800B12F09000000000058
S214003DD0010000009F3B1800C23B18001134090088
S214003DE00000000001000000CA3B1800CD6A180061
S214003DF0952F09000000000000000000043C180099
S214003E00CD751700792F09000000000000000000A3
S214003E10333C1800D97517005D2F0900000000001C
S214003E2000000000533C1800E4751700412F0900FD
S214003E300000000000000000713C1800A83C1800BC
S214003E40252F09000000000000000000933C180029
S214003E50F1751700092F090000000000000000009F
S214003E60B53C1800FF751700ED2E09000000000095
S214003E7000000000D93C1800FB561700D12E0900A0
S214003E800000000000000000FF3C1800223D180063
S214003E90000000000000000000000000000000001D
S214003EA0967C1B00B52E09000000000000000000F4
S214003EB02D3D1800513D1800992E09000000000005
S214003EC000000000603D1800923D180069330900AC
S214003ED000000000000000009C3D1800731D180044
S214003EE03D2709000000000000000000AC3D18005F
S214003EF0D23D1800852809000000000000000000E0
S214003F00DB3D1800771D18007D2E0900000000001C
S214003F1000000000F03D18001B3E1800612E09004E
S214003F2000000000000000002A3E1800413E180075
S214003F30452E090000000000000000004E3E18005C
S214003F4032761700292E090000000000000000004D
S214003F50673E18003E7617000D2E09000000000090
S214003F6000000000823E1800A03E1800F12D090057
S214003F700000000000000000AB3E1800093F1800DB
S214003F80D52D09000000000000000000113F1800B9
S214003F90273F1800B92D09000000000000000000AF
S214003FA02F3F18003A7F1B009D2D090000000000DF
S214003FB000000000563F1800297D1700812D0900DB
S214003FC00000000000000000953F18004D76170026
S214003FD0652D09000000000000000000BD3F18002D
S214003FE0E73F1800352D0900000000000000000023
S214003FF0EE3F18001B401800192D090000000000B5
S214004000000000000C4018002640180000000000C9
S21400401000000000000000000000000076681A00A3
S214004020FD2C090000000000000000002D401800D4
S2140040305A4018005D330900000000000000000030
S2140040406840180082401800E12C090000000000BB
S214004050000000008E401800BB401800C52C090068
S2140040600000000000000000CC40180001411800CD
S214004070A92C090000000000000000000F411800F5
S21400408037411800D9250900000000000000000094
S214004090414118007C41180051330900000000001F
S2140040A00000000087411800B54118008D2C09005B
S2140040B00000000000000000BD411800E3411800A9
S2140040C0453309000000000000000000EB41180026
S2140040D00042180000000000000000000000000081
S2140040E00000000007421800712C090000000000C4
S2140040F0000000000D4218000AF8180039330900C5
S2140041000000000000000000334218004C42180077
S214004110552C090000000000000000005642180060
S2140041207A431800392C0900000000000000000047
S21400413087431800C67917001D2C090000000000F0
S21400414000000000B1431800ED4318002D330900AD
S2140041500000000000000000CA431800E8431800F2
S214004160213309000000000000000000F84318009A
S21400417014441800012C0900000000000000000094
S2140041802844180058441800E52B090000000000D9
S214004190000000006D4418009E441800C92B09005A
S2140041A01B250900000000006D441800B7441800E5
S2140041B0AD2B09000000000000000000C0441800FD
S2140041C0FB441800912B09000000000000000000CE
S2140041D00745180034451800752B0900000000003C
S2140041E0000000004545180081451800592B0900BD
S2140041F000000000000000008F451800A91F1B00EB
S2140042003D2B090000000000000000004446180096
S21400421041451800212B09000000000000000000A6
S21400422052461800000000000000000000000000D9
S21400423000000000000000002F7A170000377A17F1
S21400424000001256190000735A170000977A1700DC
S21400425000A77A170000B77A170000CA7A1700007E
S214004260BCC9180000F17A170000124419000006B5
S2140042707B1700009C3F190000367B170000C150DA
S21400428017000058041B00004610190000411019C2
S2140042900000FE7F1700001280170000268017001F
S2140042A000507B170000F9A11A0000E88D190000E5
S2140042B0797B17000091FD1A0000967B170000A07E
S2140042C07B170000B97B170000C57B170000D17B69
S2140042D0170000DD7B170000E97B170000067C173F
S2140042E00000187C170000247C1700009F871B0026
S2140042F000827C170000B271180000DE7C170000F8
S214004300D07C170000B5801B000005111900001CAA
S2140043107E1700002D7E170000447E170000E87C04
S2140043201700005F6C18000099631800006F6C1887
S2140043300000587F170000667F1700003A1B180021
S21400434000767F170000857F170000957F17000016
S214004350A87F170000B37F170000BE7F170000D3AA
S2140043607F170000E37F170000F47F170000297D09
S214004370170000017D170000107D1700001E7D1736
S21400438000003E7D170000A77C170000AF7C1700DA
S21400439000A07E170000AD7E170000B97E17000053
S2140043A0CF7E170000E87E170000007F1700000F82
S2140043B07F170000257F17000000000000000000A7
S2140043C0FFFFFFFFFFFFFFFF0018000063161B0044
S2140043D0050000001F0000006BC50D008FC50D0016
S2140043E0000000009FC50D00A7C50D00AFC50D005D
S2140043F0B9C50D0001000000C8420020C8420020D8
S21400440010C02000AAAA0300000000000902000055
S214004410030300001F00000000C0000025C31600B4
S214004420B19316004DB1160021B51600E59316009F
S21400443079931600818912008189120087891200FB
S214004440878912004443002001AC0F0005AC0F0022
S21400445002AC0F0004AC0F000000000000000000DB
S214004460000000000000000000000000020008003D
S21400447002000C0000000000000000000000000029
S2140044800000000000000000000000000000000027
S2140044900000000000000000000000000000000017
S2140044A00000000000000000000000000000000007
S2140044B000000000000000000000000000000000F7
S2140044C000000000000000000000000000000000E7
S2140044D00000000000000000000000004C44002027
S2140044E0F443002000000000000000000000000070
S2140044F000000000000000000000000000000000B7
S21400450000000000000000000000000000000000A6
S2140045100000000000000000000000000000000096
S214004520000000007045002010450020000000003C
S2140045301C000000080000000000010003FF00004F
S2140045400000000000000041000100000000000024
S2140045500100000000000000FEFF0000FEFF00005B
S2140045600000000000000000000000000000000046
S2140045700000000001000000A4440020904B002032
S214004580E0440020000000000E0000000C000000C8
S2140045900000010003FF00000000000000000041D2
S2140045A00001000000000000000000000000000005
S2140045B000000000000000000000000000000000F6
S2140045C000000000000000000000000001000000E5
S2140045D0A4440020040001000000000000000000C9
S2140045E00000000000000000FAFFFAFFFFFFFFFFD8
S2140045F0FFFFFFFF000000000000000000000000BA
S21400460000000000000000000000000000000000A5
S214004610000000000A00000000000000010000008A
S2140046201400010000000000010000003700020036
S21400463000000000010000006E0003000000000003
S214004640000000003C000400000000000000000025
S2140046505A00050000000000000000007800060078
S2140046600000000000000000B4000700000000008A
S21400467000000000F000080000000000000000003D
S214004680680109000000000000000000E0010A00C8
S21400469000000000000000001C020B0000000000EC
S2140046A0000000003C1400000000000000000000B5
S2140046B0000000001E0000000000000000000000D7
S2140046C000000000000000000000000000000000E5
S2140046D00000000000000000000000005014000071
S2140046E00000000000000000000000001E000000A7
S2140046F000000000000000000000000000000000B5
S21400470000000000000000000000000000000000A4
S214004710000000006414000000000000000000001C
S214004720000000001E000000000000000000000066
S2140047300000000000000000000000000000000074
S21400474000000000000000000000000078140000D8
S2140047500000000000000000000000001E00000036
S2140047600000000000000000000000000000000044
S2140047700000000000000000000000000000000034
S214004780000000008C140000000000000000000084
S214004790000000001E0000000000000000000000F6
S2140047A00000000000000000000000000000000004
S2140047B0000000000000000000000000A014000040
S2140047C00000000000000000000000001E000000C6
S2140047D000000000000000000000000000000000D4
S2140047E000000000000000000000000000000000C4
S2140047F000000000B41400000000000000000000EC
S214004800000000001E000000000000000000000085
S2140048100000000000000000000000000000000093
S214004820000000000000000000000000C8140000A7
S2140048300000000000000000000000001E00000055
S2140048400000000000000000000000000000000063
S2140048500000000000000000000000000000000053
S214004860000000007C1500000000000000000000B2
S214004870000000001E000000000000000000000015
S2140048800000000000000000000000000000000023
S214004890000000000000000000000000901500006E
S2140048A00000000000000000000000001E000000E5
S2140048B000000000000000000000000000000000F3
S2140048C000000000000000000000000000000000E3
S2140048D000000000A415000000000000000000001A
S2140048E0000000001E0000000000000000000000A5
S2140048F000000000000000000000000000000000B3
S214004900000000000000000000000000B8150000D5
S2140049100000000000000000000000001E00000074
S2140049200000000000000000000000000000000082
S2140049300000000000000000000000000000000072
S21400494000000000CC150000000000000000000081
S214004950000000001E000000000000000000000034
S2140049600000000000000000000000000000000042
S214004970000000000000000000000000E01500003D
S2140049800000000000000000000000001E00000004
S2140049900000000000000000000000000000000012
S2140049A00000000000000000000000000000000002
S2140049B000000000F41500000000000000000000E9
S2140049C0000000001E0000000000000000000000C4
S2140049D000000000000000000000000000000000D2
S2140049E000000000000000000000000008160000A4
S2140049F00000000000000000000000001E00000094
S214004A0000000000000000000000000000000000A1
S214004A100000000000000000000000000000000091
S214004A20000000001C16000000000000000000004F
S214004A30000000001E000000000000000000000053
S214004A400000000000000000000000000000000061
S214004A50000000000000000000000000301600000B
S214004A600000000000000000000000001E00000023
S214004A700000000000000000000000000000000031
S214004A800000000000000000000000000000000021
S214004A9000000000441600000000000000000000B7
S214004AA0000000001E0000000000000000000000E3
S214004AB000000000000000000000000000000000F1
S214004AC00000000000000000000000005816000073
S214004AD00000000000000000000000001E000000B3
S214004AE000000000000000000000000000000000C1
S214004AF000000000000000000000000000000000B1
S214004B000000000071160000000000000000000019
S214004B10000000001E000000000000000000000072
S214004B200000000000000000000000000000000080
S214004B3000000000000000000000000085160000D5
S214004B400000000000000000000000001E00000042
S214004B500000000000000000000000000000000050
S214004B600000000000000000000000000000000040
S214004B700000000099160000000000000000000081
S214004B80000000001E000000000000000000000002
S214004B900000000000000000000000000000000010
S214004BA0000000000000000000000000AD1600003D
S214004BB00000000000000000000000001E000000D2
S214004BC000000000000000000000000000000000E0
S214004BD000000000000000000000000000000000D0
S214004BE000000000C11600000000000000000000E9
S214004BF0000000001E000000000000000000000092
S214004C00000000000000000000000000000000009F
S214004C10000000000000000000000000D5160000A4
S214004C200000000000000000000000001E00000061
S214004C30000000000000000000000000000000006F
S214004C40000000000000000000000000000000005F
S214004C5000000000E9160000000000000000000050
S214004C60000000001E000000000000000000000021
S214004C70000000000000000000000000000000002F
S214004C80000000000000000000000000FD1600000C
S214004C900000000000000000000000001E000000F1
S214004CA000000000000000000000000000000000FF
S214004CB000000000000000000000000000000000EF
S214004CC0000000006C09000000000000000000006A
S214004CD0000000001E0000000000000000000000B1
S214004CE000000000000000000000000000000000BF
S214004CF00000000000000000000000007109000035
S214004D000000000000000000000000001E00000080
S214004D10000000000000000000000000000000008E
S214004D20000000000000000000000000000000007E
S214004D3000000000760900000000000000000000EF
S214004D40000000001E000000000000000000000040
S214004D50000000000000000000000000000000004E
S214004D600000000000000000000000007B090000BA
S214004D700000000000000000000000001E00000010
S214004D80000000000000000000000000000000001E
S214004D90000000000000000000000000000000000E
S214004DA00000000080090000000000000000000075
S214004DB0000000001E0000000000000000000000D0
S214004DC000000000000000000000000000000000DE
S214004DD00000000000000000000000008509000040
S214004DE00000000000000000000000001E000000A0
S214004DF000000000000000000000000000000000AE
S214004E00000000000000000000000000000000009D
S214004E10000000008A0900000000000000000000FA
S214004E20000000001E00000000000000000000005F
S214004E30000000000000000000000000000000006D
S214004E400000000000000000000000008F090000C5
S214004E500000000000000000000000001E0000002F
S214004E60000000000000000000000000000000003D
S214004E70000000000000000000000000000000002D
S214004E800000000094090000000000000000000080
S214004E90000000001E0000000000000000000000EF
S214004EA000000000000000000000000000000000FD
S214004EB0000000000000000000000000990900004B
S214004EC00000000000000000000000001E000000BF
S214004ED000000000000000000000000000000000CD
S214004EE000000000000000000000000000000000BD
S214004EF0000000009E090000000000000000000006
S214004F00000000001E00000000000000000000007E
S214004F10000000000000000000000000000000008C
S214004F20000000000000000000000000A3090000D0
S214004F300000000000000000000000001E0000004E
S214004F40000000000000000000000000000000005C
S214004F50000000000000000000000000000000004C
S214004F6000000000A809000000000000000000008B
S214004F70000000001E00000000000000000000000E
S214004F80000000000000000000000000000000001C
S214004F90000000000000000000000000B40900004F
S214004FA00000000000000000000000001E000000DE
S214004FB000000000000000000000000000000000EC
S214004FC000000000000000000000000000000000DC
S214004FD00000000000000000FFFF1028FFFF153C47
S214004FE0000000000000000000000000FFFF003886
S214004FF0FFFF1020FFFF153CFFFF10200000000001
S2140050000000000001010100010000000100000096
S2140050100101010000000000010000000F00000078
S2140050200100000001000000000000000100000177
S21400503000010000F4010000000000000000000075
S21400504014000000000000006400000001000000E2
S214005050000001000000000000000000000000004A
S214005060000000000200000000000000314D1300A8
S214005070694F130000000000154D13004F54130035
S21400508001000000544F0020544F00205C4F0020C9
S2140050905C4F00200500000007000000D84F0020ED
S2140050A0744F002000001900D803F80301140A10FA
S2140050B0000001001900D8039813010C0610000028
S2140050C00200190061029813011008100000030086
S2140050D02800EA00C30101180C1000000414280080
S2140050E0EA00040201140A100000050019007813F3
S2140050F01F270324061002000600190072065C1D16
S214005100033008100200000000001900D803F8035E
S21400511001140A10000001001900D8039813010CAE
S2140051200610000002001900610298130110081012
S214005130000003002800EA00C30101180C1000005C
S21400514004032800EA00CC02011008100000050045
S214005150190078131F27031E051002000600190009
S21400516072065C1D033008100200000004000000F8
S21400517004000000845000204C500020000019005D
S2140051808505A505011209100000010019001C0282
S2140051903C02010A0510000002001900C60BE60BCF
S2140051A0014623100000030019003D015D010103C4
S2140051B002100000000019008505A505011209105F
S2140051C00000010019001C023C02010A0510000044
S2140051D002001900C60BE60B014623100000030070
S2140051E019003D015D0101030210000001001400DA
S2140051F0BC020000000000000200000000000000EA
S214005200010000007478715F636C65616E000000D9
S2140052100000000000000000020000000000000087
S214005220000000007261646172000000000000006F
S214005230000000002000000014FD210018FD2100E1
S2140052401CFD210020FD210024FD210028FD210059
S2140052502CFD210030FD210034FD210038FD210009
S2140052603CFD210040FD210044FD210048FD2100B9
S2140052704CFD210050FD210054FD210058FD210069
S2140052805CFD210060FD210064FD210068FD210019
S2140052906CFD210070FD21001445220074FD2100E4
S2140052A078FD21007CFD210080FD210084FD210089
S2140052B088FD210084FC21008CFD210090FD21004A
S2140052C094FD210098FD21009CFD2100A0FD2100F9
S2140052D0A4FD2100A8FD2100ACFD2100B0FD2100A9
S2140052E0B4FD2100C82D2200B8FD2100BCFD210020
S2140052F0C0FD2100C4FD2100C8FD2100CCFD210019
S214005300D0FD2100D4FD2100D8FD2100DCFD2100C8
S214005310E0FD2100E4FD2100E8FD2100ECFD210078
S214005320F0FD2100F4FD2100F8FD2100FCFD210028
S21400533000FE210004FE210008FE21000CFE2100D4
S21400534010FE210014FE210018FE21001CFE210084
S214005350341C220020FE210024FE210028FE21000D
S2140053602CFE210030FE210034FE210038FE2100F4
S214005370402E22003CFE210040FE210074FC21004D
S21400538044FE210048FE21004CFE210050FE210074
S2140053907CFC210054FE210058FE21005CFE21000A
S2140053A060FE210064FE210068FE21006CFE2100E4
S2140053B070FE210074FE210078FE21007CFE210094
S2140053C080FE210084FE210088FE21008CFE210044
S2140053D090FE210094FE210098FE21009CFE2100F4
S2140053E0A0FE2100A4FE2100A8FE2100ACFE2100A4
S2140053F0B0FE2100B4FE2100B8FE2100BCFE210054
S214005400C0FE2100C4FE210008582200C8FE21006C
S214005410CCFE2100D0FE2100D4FE2100D8FE2100C3
S214005420DCFE2100E0FE2100E4FE2100E8FE210073
S214005430ECFE2100F0FE2100F4FE2100F8FE210023
S214005440FCFE210000FF210004FF210008FF2100D0
S2140054500CFF210010FF210014FF210018FF21007F
S2140054601CFF210020FF210024FF210028FF21002F
S2140054702CFF210030FF210034FF210038FF2100DF
S2140054803CFF210040FF210044FF210048FF21008F
S2140054904CFF210050FF210054FF210058FF21003F
S2140054A05CFF210060FF210064FF210068FF2100EF
S2140054B06CFF210070FF210074FF210078FF21009F
S2140054C07CFF210080FF210084FF210088FF21004F
S2140054D08CFF210090FF210094FF210098FF2100FF
S2140054E09CFF2100A0FF2100A4FF2100A8FF2100AF
S2140054F0ACFF2100B0FF2100B4FF2100B8FF21005F
S214005500FF000000332000003F190C043F180C0277
S2140055102A160A76700000003F190C00740000007E
S2140055202A1600002C000000332000003F190C044F
S2140055303F180C022A160A76700000003F190C006D
S214005540740000002A1600002C0000003320000023
S2140055503F190C043F180C002A160A76700000004B
S2140055603F190C7D720000002A1600002C00000077
S214005570332000003F190C043F180C002A160A7648
S214005580700000003F190C7B6E0000002A16000019
S2140055902C000000332000003F190C043F180C00BC
S2140055A02A160A76700000003F190C7B6E00000079
S2140055B02A1600002C000000332000003F190C03C0
S2140055C03F180C002A160A76700000003F190C7B64
S2140055D06E0000002A1600002C00000000000000EC
S2140055E000000000000000000000000000000000B6
S2140055F000000000000000000000000000000000A6
S2140056000000000000000000000000000000000095
S2140056100000000000000000000000000000000085
S2140056200000000000000000000000000000000075
S2140056300000000000000000000000000000000065
S21400564000000000000000002A2A000036180A00A9
S2140056503F180B783F180B78730000003F180A7845
S214005660730000002A5800002C0000002A2A0000C0
S21400567036180A003F180B783F180B7873000000A6
S2140056803F180A78730000002A5800002C0000001B
S2140056902A2A000036180A793F180B723F180B7238
S2140056A0730000003F180A72730000002A580000BA
S2140056B02C0000002A2A000036180A793F180B72C0
S2140056C03F180B72730000003F180A727300000048
S2140056D02A5800002C0000002A2A000036180A79F2
S2140056E03F180B723F180B72730000003F180A72C7
S2140056F0730000002A5800002C0000002A2A000030
S21400570036180A793F180B723F180B7273000000A8
S2140057103F180A72730000002A5800002C00000090
S2140057202A2A000036180A773F180B6D3F180B6BB5
S214005730730000003F180A64730000002A58000037
S2140057402C0000002A2A000036180A793F180B722F
S2140057503F180B72730000003F180A7273000000B7
S2140057602A5800002C0000002A2A000036180A7763
S2140057703F180B6D3F180B6B730000003F180A6450
S214005780730000002A5800002C00000000040000EF
S2140057901B190C040C0C0C022A160A76700000006A
S2140057A015150C00740000002A1600002C000000DE
S2140057B0020A00001B190C040C0C0C022A160A76AE
S2140057C07000000015150C00740000002A1600007A
S2140057D02C000000000400001B190C040C0C0C002C
S2140057E02A160A767000000015150C7D720000005F
S2140057F02A1600002C000000000400001B190C04F0
S2140058000C0C0C002A160A767000000015150C7B8E
S2140058106E0000002A1600002C00000000040000A5
S2140058201B190C040C0C0C002A160A7670000000DB
S21400583015150C7B6E0000002A1600002C000000D8
S214005840000600001B190C030C0C0C002A160A7626
S2140058507000000015150C7B6E0000002A16000074
S2140058602C00000000000000000000000000000007
S2140058700000000000000000000000000000000023
S2140058800000000000000000000000000000000013
S2140058900000000000000000000000000000000003
S2140058A000000000000000000000000000000000F3
S2140058B000000000000000000000000000000000E3
S2140058C000000000000000000000000000000000D3
S2140058D02A2A00000909090006060678080808783A
S2140058E07300000006060678730000002A580000C1
S2140058F02C0000002A2A000009090900060606787E
S2140059000808087873000000060606787300000092
S2140059102A5800002C0000002A2A000009090979EC
S214005920060606720808087273000000060606726D
S214005930730000002A5800002C0000002A2A0000ED
S214005940090909790606067208080872730000003D
S21400595006060672730000002A5800002C0000009D
S2140059602A2A00000909097906060672080808723C
S2140059707300000006060672730000002A58000036
S2140059802C0000002A2A000009090979060606727A
S214005990080808727300000006060672730000000E
S2140059A02A5800002C0000002A2A0000050505776A
S2140059B00404046D0404046B730000000202026415
S2140059C0730000002A5800002C0000002A2A00005D
S2140059D009090979060606720808087273000000AD
S2140059E006060672730000002A5800002C0000000D
S2140059F02A2A0000050505770404046D0404046BD8
S214005A007300000002020264730000002A580000BF
S214005A102C000000332000003F190C023F180C0039
S214005A202A160A76700000003F190C00700000006D
S214005A302A1600002C000000332000003F190C023C
S214005A403F180C002A160A76700000003F190C005A
S214005A50700000002A1600002C0000003320000012
S214005A603F190C023F180C7F2A160A7670000000B9
S214005A703F190C7F6A0000002A1600002C00000068
S214005A80332000003F190C023F180C7E2A160A76B7
S214005A90700000003F190C7C6A0000002A16000007
S214005AA02C000000332000003F190C023F180C7F2A
S214005AB02A160A76700000003F190C7F6A00000064
S214005AC02A1600002C000000332000003F190C02AC
S214005AD03F180C002A160A76700000003F190C7E4C
S214005AE06C0000002A1600002C00000000000000D9
S214005AF000000000000000000000000000000000A1
S214005B000000000000000000000000000000000090
S214005B100000000000000000000000000000000080
S214005B200000000000000000000000000000000070
S214005B300000000000000000000000000000000060
S214005B400000000000000000000000000000000050
S214005B5000000000000000002A2A00002A1606792D
S214005B602A1606742A1606706C0000002A160668A6
S214005B70720000002A5800002C0000002A2A0000AC
S214005B802A16067B2A1606762A1606706C00000071
S214005B902A160668720000002A5800002C00000032
S214005BA02A2A00002A16067B2A1606762A16067069
S214005BB06C0000002A160668720000002A580000D2
S214005BC02C0000002A2A00002A1606782A160670DC
S214005BD02A1606686C0000002A160660720000008E
S214005BE02A5800002C0000002A2A00002A160677F1
S214005BF02A16066E2A16066C6C0000002A16066028
S214005C00720000002A5800002C0000002A2A00001B
S214005C102A1606782A1606722A1606706C000000E7
S214005C202A160664720000002A5800002C000000A5
S214005C302A2A00002A1606742A1606622A160664FF
S214005C406C0000002A160664720000002A58000045
S214005C502C0000002A2A00002A1606782A16067249
S214005C602A1606706C0000002A16066872000000ED
S214005C702A5800002C0000002A2A00002A16067067
S214005C802A16066A2A16066C6C0000002A16066497
S214005C90720000002A5800002C00000004030000D8
S214005CA005050502000000002A160A7670000000AE
S214005CB003030300700000002A1600002C000000FA
S214005CC00A0A000005050502000000002A160A76EA
S214005CD07000000003030300700000002A16000096
S214005CE02C00000004060000050505020000007FE9
S214005CF02A160A76700000000303037F6A0000007D
S214005D002A1600002C000000040600000505050207
S214005D100000007E2A160A76700000000303037C4B
S214005D206A0000002A1600002C000000040600008E
S214005D30050505020000007F2A160A76700000009E
S214005D400303037F6A0000002A1600002C000000F0
S214005D50040A000005050502000000002A160A765F
S214005D60700000000303037E6C0000002A1600008B
S214005D702C000000000000000000000000000000F2
S214005D80000000000000000000000000000000000E
S214005D9000000000000000000000000000000000FE
S214005DA000000000000000000000000000000000EE
S214005DB000000000000000000000000000000000DE
S214005DC000000000000000000000000000000000CE
S214005DD000000000000000000000000000000000BE
S214005DE02A2A0000030303790202027401010170EB
S214005DF06C0000007D7D7D68720000002A5800005F
S214005E002C0000002A2A00000303037B020202760D
S214005E10010101706C0000007D7D7D68720000004D
S214005E202A5800002C0000002A2A00000303037BE7
S214005E3002020276010101706C0000007D7D7D6823
S214005E40720000002A5800002C0000002A2A0000D9
S214005E500303037802020270010101686C0000006F
S214005E607D7D7D60720000002A5800002C00000036
S214005E702A2A0000030303770202026E0101016C66
S214005E806C0000007D7D7D60720000002A580000D6
S214005E902C0000002A2A0000030303780202027284
S214005EA0010101706C0000007D7D7D6472000000C1
S214005EB02A5800002C0000002A2A0000030303745E
S214005EC002020262010101646C0000007D7D7D64B7
S214005ED0720000002A5800002C0000002A2A000049
S214005EE00303037802020272010101706C000000D5
S214005EF07D7D7D68720000002A5800002C0000009E
S214005F002A2A0000030303700202026A0101016CE0
S214005F106C0000007D7D7D64720000002A58000041
S214005F202C00000000000000000000000000000040
S214005F30000000000000000000000000000000005C
S214005F40000000000000000000000000000000004C
S214005F50000000000000000000000000000000003C
S214005F60000000000000000000000000000000002C
S21400643000000000010000009A9939400000C03FAB
S214006440010000002C0100000A000000010000000E
S21400645000036028000000000300000014970920D5
S2140064603463002000000000149709207C97092060
S214006470E497092000000000000000000000000073
S2140064800000000000000000000000000000000007
S21400649000000000000000000000000000000000F7
S2140064A000000000000000000000000000000000E7
S2140064B04300000000000000000000000000000094
S2140064C000000000000000000000000000000000C7
S2140064D04300000000000000000000000000000074
S2140064E000000000000000000000000000000000A7
S2140064F04300000000000000000000000000000054
S2140065000000000000000000000000000000000086
S2140065104300000000000000000000000000000033
S2140065200000000000000000000000000000000066
S2140065304300000000000000000000000000000013
S2140065400000000000000000000000000000000046
S21400655043000000000000000000000000000000F3
S2140065600000000000000000000000000000000026
S21400657043000000000000000000000000000000D3
S2140065800000000000000000000000000000000006
S2140065900FFC1600DBFB1600000000005CA22200C9
S2140065A06E181C0090111C0090111C0090111C000D
S2140065B090111C0090111C0090111C0090111C00E2
S2140065C090111C0090111C00FFFFFFFFFFFFFFFF54
S2140065D0FFFFFFFFFFFF0000010041534349490052
S2140065E000000000000000000000000000000000A6
S2140065F0000000000000000000004153434949002D
S2140066000000000000000000000000000000000085
S21000661000000000000000000000000079
S21400661C0000000000000000000000000000000069
S21400662C0000000000000000000000000000000059
S20800663C0000000055
S208006640AAAAAAAAA9
S205006644FF51
S2140066600348044B834202D0034B03B118477047DC
S214006670EC640020EC64002000000000064B074994
S214006680C91A891048BF0131491003D0044B0BB119
S21400669001481847704700BFEC640020EC640020F7
S2140066A00000000010B5064C237843B9FFF7D8FF6A
S2140066B0044B13B10448AFF300800123237010BDD0
S2140066C080A30420000000003001000008B5054B40
S2140066D01BB105490548AFF30080BDE80840FFF749
S2140066E0CDBF00BF0000000084A3042030010000DE
S2140066F0A3F5803A704700BF174B002B08BF134B1B
S2140067009D46FFF7F5FF00218B460F461348144AB7
S214006710121A65F1C1F90E4B002B00D098470D4BAD
S214006720002B00D098470020002104000D000D48E3
S214006730002802D00C48AFF3008065F169FE200007
S214006740290030F097F962F133FE00BF0000080020
S21400675000000000000000001875002080A3042040
S2140067605898092000000000000000000369C26875
S21400677093429CBF81685B18013B981A70472DE9CD
S214006780F0410546D0E902844068A8EB040696422C
S21400679020440F46144406D965F182FEBFF35F8F8E
S2140067A0EC60BDE8F0813246A4EB080465F178FEA3
S2140067B022466868B919EFE72DE9F8430646894688
S2140067C017464FF00008C5683369B4689D4228BF75
S2140067D01B19641BBC4228BF3C46013B5B1B9C420A
S2140067E028BF1C46706849462246284465F158FE74
S2140067F0B3682544AB4208BF0025A044A1443F1B14
S214006800BFF35F8FF560002FDED14046BDE8F8830A
S214006810032310B5134C144923616361134BA16124
S214006820E3614FF48063022223620023A362636263
S214006830E26221660E49E01D61668021A1660D496F
S2140068402367E366626765F115FEBFF35F8F0A494B
S214006850204665F10FFEBFF35F8F2023A371BFF3C1
S2140068605F8F10BD1CA80420400E17001CA4042037
S2140068709CA30420490E17004D0E1700F8B51827E4
S21400688000FB0775124B0E461D4407FB0033DB6A00
S2140068901446012B0AD0022B14D023B92846FFF742
S2140068A065FF844208D900242046F8BD2846FFF735
S2140068B05DFF844228BF0446224631462846FFF73D
S2140068C05EFFF1E72846BDE8F840FFF775BF00BF5A
S2140068D01CA80420F8B50B4B04461B780D4616463C
S2140068E00BB9FFF795FFEFF311874FF0200181F307
S2140068F01188324629462046FFF7C0FF87F31188E5
S214006900F8BD00BF1CA804202DE9F041164C1E4619
S21400691023780546884617460BB9FFF779FF2369A3
S214006920AB421DD9EFF3118C4FF0200181F3118893
S21400693065B1182005FB000344F80380E218002325
S214006940576000FB0542166293625362182303FBEE
S2140069500544069BE3628CF311880020BDE8F081B5
S2140069604FF0FF30FAE700BF1CA8042010B582687D
S21400697004464068531C834205D820688154A360AF
S214006980E3680133E360D4E901329A420BD121680F
S2140069902069FFF79FFFA368984215BF4FF0FF33AB
S2140069A00023E360A36010BD2DE9F84F16460546A8
S2140069B088460A464FF0010A9946DDE90A43B24284
S2140069C012D2CA4538BFCA4613F0010B01D184B9AA
S2140069D00024EB68002B3CDB0127B9F1010F1ED920
S2140069E009F1FF397743F8E7B2FBF6F20AF1010A3C
S2140069F0E5E79B0711D5B9F1000F0CBF302720271C
S214006A00A245E6D239462846FFF7B0FFEB68013CC0
S214006A10002BDEDB002CF3D1DAE72027F0E7B8FB0B
S214006A20F7F39E42DED9DFF84890B8FBF7F3284626
S214006A3019F9031007FB1388FFF798FFEB68002B84
S214006A4003DBB742B7FBF6F305D2BBF1000F00D06D
S214006A505CB9BDE8F88F1F46E7E720212846FFF718
S214006A6085FFEB68013C002BF3DB5445F5D8F0E7D7
S214006A70C6271C002DE9F04F00230E464021154680
S214006A809BB0CDE90613CDE908300DF1280A039036
S214006A90CDF814A016F9011B39B9089D002D00F396
S214006AA0118108981BB0BDE8F08F252940F0BD8005
S214006AB04FF0000B314611F9013B2D2B19D013DC9A
S214006AC0232B1DD02B2B18D00024314611F9013B67
S214006AD0A3F13000C0B2092815D80A2202FB0433FD
S214006AE00E46A3F13004F0E7302BEDD14BF0020B4D
S214006AF001E04BF0010B0E46DCE74BF0040BFAE727
S214006B004BF0080BF7E72E2B12D10E464FF000097C
S214006B104FF00A0C304610F9011BA1F13007FFB206
S214006B20092F07D80CFB09110646A1F13009F1E739
S214006B304FF00009304610F9011B21F00407682FBA
S214006B400646F8D0782909DC6F290BDC632967D064
S214006B5020DC252969D0582900F09480089B002B5A
S214006B6098DA9AE770390829F8D801A050F821F089
S214006B70B56C00005D6B00005D6B0000956C00005E
S214006B805D6B0000736C00005D6B00005D6B0000C9
S214006B90856C00006429E1D129684FF00108081DC2
S214006BA028600A200F6887EAE771A1EBE7710929D8
S214006BB03FDCC84538BFC8462CB1002F02DB1BF0AF
S214006BC0040F00D0013C1BF0020F02D0B9F1000FF9
S214006BD004D01BF0010F01D184BB002408990029C2
S214006BE0BCDB002F35DA2D217F4205A8FFF7BEFE5D
S214006BF008990029B2DB0BF00301022904D1B9F190
S214006C00000F01D154BB002408990029A6DB4B468F
S214006C100A223946CDE9004B05A8FFF7C5FE9DE7D9
S214006C202B681A1D2A6093F9001005A8FFF79EFE30
S214006C3094E7B1FBF0F108F10108B8E74445CDD977
S214006C40202105A8FFF792FE0899013C0029C3DA27
S214006C50C4E71BF0040FCED02B21C6E74445D3D99A
S214006C60302105A8FFF782FE0899013C0029C9DA01
S214006C70CAE74B460A222968081D2860CDE9004B62
S214006C800968C9E74B462968081D2860CDE9004B0E
S214006C901022F5E72B681A1D2A601C6814F9011BE0
S214006CA000293FF45BAF05A8FFF760FE089B002BAA
S214006CB0F4DA53E7296800220B1D2B600823CDE980
S214006CC00032E5E7079C24B1224651460398FFF7B9
S214006CD001FE2C440894E4E60EB403B503AB53F867
S214006CE0041B01AA0193FFF7C5FE02B05DF804EB92
S214006CF003B070477FB50D461446134E03A88AF0BE
S214006D00BFFB31460020FFF7E7FF10490020FFF7E2
S214006D10E3FF2A460E490020FFF7DEFF9DF80D3000
S214006D209DF80F2000930B499DF80E300020FFF7CA
S214006D30D3FF31460020FFF7CFFF2246064900204A
